{
  "contractName": "KuoriciniDao",
  "abi": [
    {
      "inputs": [],
      "stateMutability": "nonpayable",
      "type": "constructor"
    },
    {
      "inputs": [
        {
          "internalType": "string",
          "name": "_name",
          "type": "string"
        }
      ],
      "name": "createGroup",
      "outputs": [
        {
          "internalType": "bool",
          "name": "",
          "type": "bool"
        }
      ],
      "stateMutability": "nonpayable",
      "type": "function"
    },
    {
      "inputs": [
        {
          "internalType": "uint256",
          "name": "_gid",
          "type": "uint256"
        }
      ],
      "name": "getGroup",
      "outputs": [
        {
          "components": [
            {
              "internalType": "string",
              "name": "name",
              "type": "string"
            },
            {
              "internalType": "address[]",
              "name": "members",
              "type": "address[]"
            },
            {
              "internalType": "uint256[]",
              "name": "tokenIds",
              "type": "uint256[]"
            },
            {
              "internalType": "uint256[]",
              "name": "candidatesIds",
              "type": "uint256[]"
            },
            {
              "internalType": "uint256[]",
              "name": "candidateTokenIds",
              "type": "uint256[]"
            },
            {
              "internalType": "uint256",
              "name": "voteThreshold",
              "type": "uint256"
            },
            {
              "internalType": "string",
              "name": "invitationLink",
              "type": "string"
            }
          ],
          "internalType": "struct KuoriciniDao.DaoGroup",
          "name": "",
          "type": "tuple"
        }
      ],
      "stateMutability": "view",
      "type": "function"
    },
    {
      "inputs": [
        {
          "internalType": "string",
          "name": "link",
          "type": "string"
        }
      ],
      "name": "checkInvitationLink",
      "outputs": [
        {
          "internalType": "uint256",
          "name": "",
          "type": "uint256"
        }
      ],
      "stateMutability": "view",
      "type": "function"
    },
    {
      "inputs": [
        {
          "internalType": "uint256",
          "name": "_tokenid",
          "type": "uint256"
        }
      ],
      "name": "getToken",
      "outputs": [
        {
          "components": [
            {
              "internalType": "string",
              "name": "name",
              "type": "string"
            },
            {
              "internalType": "uint256",
              "name": "roundSupply",
              "type": "uint256"
            },
            {
              "internalType": "uint256",
              "name": "roundDuration",
              "type": "uint256"
            },
            {
              "internalType": "uint256",
              "name": "timestamp",
              "type": "uint256"
            }
          ],
          "internalType": "struct KuoriciniDao.GToken",
          "name": "",
          "type": "tuple"
        }
      ],
      "stateMutability": "view",
      "type": "function"
    },
    {
      "inputs": [
        {
          "internalType": "uint256",
          "name": "gid",
          "type": "uint256"
        }
      ],
      "name": "getUserTokens",
      "outputs": [
        {
          "components": [
            {
              "internalType": "uint256",
              "name": "tokenId",
              "type": "uint256"
            },
            {
              "internalType": "uint256",
              "name": "gTokenBalance",
              "type": "uint256"
            },
            {
              "internalType": "uint256",
              "name": "xBalance",
              "type": "uint256"
            },
            {
              "internalType": "uint256",
              "name": "blocktimestamp",
              "type": "uint256"
            },
            {
              "internalType": "uint256",
              "name": "newtime",
              "type": "uint256"
            },
            {
              "internalType": "bool",
              "name": "overtime",
              "type": "bool"
            }
          ],
          "internalType": "struct KuoriciniDao.EToken[]",
          "name": "",
          "type": "tuple[]"
        }
      ],
      "stateMutability": "view",
      "type": "function"
    },
    {
      "inputs": [
        {
          "internalType": "uint256",
          "name": "_tokenId",
          "type": "uint256"
        },
        {
          "internalType": "address",
          "name": "receiver",
          "type": "address"
        },
        {
          "internalType": "uint256",
          "name": "value",
          "type": "uint256"
        }
      ],
      "name": "transferToken",
      "outputs": [
        {
          "internalType": "bool",
          "name": "",
          "type": "bool"
        }
      ],
      "stateMutability": "nonpayable",
      "type": "function"
    },
    {
      "inputs": [
        {
          "internalType": "uint256",
          "name": "_id",
          "type": "uint256"
        }
      ],
      "name": "getGroupNamefromId",
      "outputs": [
        {
          "internalType": "string",
          "name": "",
          "type": "string"
        }
      ],
      "stateMutability": "view",
      "type": "function"
    },
    {
      "inputs": [
        {
          "internalType": "uint256",
          "name": "_id",
          "type": "uint256"
        }
      ],
      "name": "getGroupAddressfromId",
      "outputs": [
        {
          "internalType": "address[]",
          "name": "",
          "type": "address[]"
        }
      ],
      "stateMutability": "view",
      "type": "function"
    },
    {
      "inputs": [
        {
          "internalType": "uint256",
          "name": "val",
          "type": "uint256"
        },
        {
          "internalType": "string",
          "name": "name",
          "type": "string"
        },
        {
          "internalType": "uint256",
          "name": "supply",
          "type": "uint256"
        },
        {
          "internalType": "uint256",
          "name": "duration",
          "type": "uint256"
        },
        {
          "internalType": "uint256",
          "name": "gid",
          "type": "uint256"
        },
        {
          "internalType": "uint256",
          "name": "candtype",
          "type": "uint256"
        }
      ],
      "name": "changeToken",
      "outputs": [
        {
          "internalType": "bool",
          "name": "",
          "type": "bool"
        }
      ],
      "stateMutability": "nonpayable",
      "type": "function"
    },
    {
      "inputs": [
        {
          "internalType": "uint256",
          "name": "gid",
          "type": "uint256"
        }
      ],
      "name": "getGroupCandidateTokens",
      "outputs": [
        {
          "components": [
            {
              "internalType": "uint256",
              "name": "id",
              "type": "uint256"
            },
            {
              "internalType": "uint256",
              "name": "candType",
              "type": "uint256"
            },
            {
              "internalType": "string",
              "name": "name",
              "type": "string"
            },
            {
              "internalType": "uint256",
              "name": "roundSupply",
              "type": "uint256"
            },
            {
              "internalType": "uint256",
              "name": "roundDuration",
              "type": "uint256"
            },
            {
              "internalType": "address",
              "name": "candidateAddress",
              "type": "address"
            },
            {
              "internalType": "uint256",
              "name": "votes",
              "type": "uint256"
            },
            {
              "internalType": "address[]",
              "name": "voters",
              "type": "address[]"
            }
          ],
          "internalType": "struct KuoriciniDao.CandidateToken[]",
          "name": "",
          "type": "tuple[]"
        }
      ],
      "stateMutability": "view",
      "type": "function"
    },
    {
      "inputs": [
        {
          "internalType": "uint256",
          "name": "gid",
          "type": "uint256"
        },
        {
          "internalType": "uint256",
          "name": "candTokId",
          "type": "uint256"
        },
        {
          "internalType": "uint256",
          "name": "vote",
          "type": "uint256"
        }
      ],
      "name": "voteCandidateToken",
      "outputs": [
        {
          "internalType": "bool",
          "name": "",
          "type": "bool"
        }
      ],
      "stateMutability": "nonpayable",
      "type": "function"
    },
    {
      "inputs": [
        {
          "internalType": "uint256",
          "name": "gid",
          "type": "uint256"
        }
      ],
      "name": "removeMeFromGroup",
      "outputs": [
        {
          "internalType": "bool",
          "name": "",
          "type": "bool"
        }
      ],
      "stateMutability": "nonpayable",
      "type": "function"
    },
    {
      "inputs": [],
      "name": "myGroups",
      "outputs": [
        {
          "internalType": "uint256[]",
          "name": "",
          "type": "uint256[]"
        }
      ],
      "stateMutability": "view",
      "type": "function"
    },
    {
      "inputs": [
        {
          "internalType": "uint256",
          "name": "gid",
          "type": "uint256"
        },
        {
          "internalType": "string",
          "name": "invitation",
          "type": "string"
        }
      ],
      "name": "groupNameByInvitation",
      "outputs": [
        {
          "internalType": "string",
          "name": "",
          "type": "string"
        }
      ],
      "stateMutability": "view",
      "type": "function"
    },
    {
      "inputs": [
        {
          "internalType": "address",
          "name": "owner",
          "type": "address"
        }
      ],
      "name": "nameOf",
      "outputs": [
        {
          "internalType": "string",
          "name": "",
          "type": "string"
        }
      ],
      "stateMutability": "view",
      "type": "function"
    },
    {
      "inputs": [
        {
          "internalType": "string",
          "name": "name",
          "type": "string"
        }
      ],
      "name": "nameSet",
      "outputs": [
        {
          "internalType": "bool",
          "name": "",
          "type": "bool"
        }
      ],
      "stateMutability": "nonpayable",
      "type": "function"
    }
  ],
  "bytecode": "0x608060405234801561001057600080fd5b5061571f80620000216000396000f3fe608060405234801561001057600080fd5b50600436106101005760003560e01c8063d550323511610097578063edeefa3111610066578063edeefa3114610333578063f053d8b414610363578063f5c5738214610393578063fea7413c146103c357610100565b8063d550323514610273578063dbb5313f146102a3578063dc2ddcae146102d3578063e4b50cb81461030357610100565b806395449f2b116100d357806395449f2b146101c5578063c3f93437146101f5578063ceb6065414610213578063d17bd40b1461024357610100565b806301fa665514610105578063558f8f0414610135578063837d8cec14610165578063857af37b14610195575b600080fd5b61011f600480360381019061011a919061414d565b6103f3565b60405161012c9190614246565b60405180910390f35b61014f600480360381019061014a9190614268565b61050e565b60405161015c9190614385565b60405180910390f35b61017f600480360381019061017a91906143a7565b6105c1565b60405161018c9190614471565b60405180910390f35b6101af60048036038101906101aa9190614268565b610bc8565b6040516101bc9190614246565b60405180910390f35b6101df60048036038101906101da919061448c565b610c7f565b6040516101ec91906144e8565b60405180910390f35b6101fd610ecf565b60405161020a91906145c1565b60405180910390f35b61022d60048036038101906102289190614268565b6110c4565b60405161023a91906147ca565b60405180910390f35b61025d60048036038101906102589190614268565b6113c4565b60405161026a9190614925565b60405180910390f35b61028d60048036038101906102889190614268565b611994565b60405161029a9190614471565b60405180910390f35b6102bd60048036038101906102b89190614973565b611d07565b6040516102ca9190614471565b60405180910390f35b6102ed60048036038101906102e8919061448c565b6124e4565b6040516102fa9190614471565b60405180910390f35b61031d60048036038101906103189190614268565b6127c9565b60405161032a9190614a29565b60405180910390f35b61034d6004803603810190610348919061448c565b6128b5565b60405161035a9190614471565b60405180910390f35b61037d60048036038101906103789190614268565b61290f565b60405161038a9190614bc4565b60405180910390f35b6103ad60048036038101906103a89190614be6565b612c43565b6040516103ba9190614246565b60405180910390f35b6103dd60048036038101906103d89190614c13565b612d13565b6040516103ea9190614471565b60405180910390f35b60608360028484604051610408929190614ca5565b90815260200160405180910390205414610457576040517f08c379a000000000000000000000000000000000000000000000000000000000815260040161044e90614d0a565b60405180910390fd5b6003848154811061046b5761046a614d2a565b5b9060005260206000209060070201600001805461048790614d88565b80601f01602080910402602001604051908101604052809291908181526020018280546104b390614d88565b80156105005780601f106104d557610100808354040283529160200191610500565b820191906000526020600020905b8154815290600101906020018083116104e357829003601f168201915b505050505090509392505050565b60606003828154811061052457610523614d2a565b5b90600052602060002090600702016001018054806020026020016040519081016040528092919081815260200182805480156105b557602002820191906000526020600020905b8160009054906101000a900473ffffffffffffffffffffffffffffffffffffffff1673ffffffffffffffffffffffffffffffffffffffff168152602001906001019080831161056b575b50505050509050919050565b6000808214156106c0576105d583336135bd565b15610615576040517f08c379a000000000000000000000000000000000000000000000000000000000815260040161060c90614e06565b60405180910390fd5b8260028888604051610628929190614ca5565b90815260200160405180910390205414610677576040517f08c379a000000000000000000000000000000000000000000000000000000000815260040161066e90614e72565b60405180910390fd5b60008314156106bb576040517f08c379a00000000000000000000000000000000000000000000000000000000081526004016106b290614ede565b60405180910390fd5b61070a565b6106ca83336135bd565b610709576040517f08c379a000000000000000000000000000000000000000000000000000000000815260040161070090614f4a565b60405180910390fd5b5b600282141561075d5761071d88846136b3565b61075c576040517f08c379a000000000000000000000000000000000000000000000000000000000815260040161075390614fb6565b60405180910390fd5b5b60038214156107ab57600a8811156107aa576040517f08c379a00000000000000000000000000000000000000000000000000000000081526004016107a190615022565b60405180910390fd5b5b6000600384815481106107c1576107c0614d2a565b5b906000526020600020906007020160040180549050905060006001826107e79190615071565b67ffffffffffffffff811115610800576107ff6150c7565b5b60405190808252806020026020018201604052801561082e5781602001602082028036833780820191505090505b50905060005b8281101561098857600386815481106108505761084f614d2a565b5b9060005260206000209060070201600401818154811061087357610872614d2a565b5b906000526020600020015482828151811061089157610890614d2a565b5b6020026020010181815250506000851415610975573373ffffffffffffffffffffffffffffffffffffffff1660068383815181106108d2576108d1614d2a565b5b6020026020010151815481106108eb576108ea614d2a565b5b906000526020600020906008020160050160009054906101000a900473ffffffffffffffffffffffffffffffffffffffff1673ffffffffffffffffffffffffffffffffffffffff161415610974576040517f08c379a000000000000000000000000000000000000000000000000000000000815260040161096b90615142565b60405180910390fd5b5b808061098090615162565b915050610834565b5060008067ffffffffffffffff8111156109a5576109a46150c7565b5b6040519080825280602002602001820160405280156109d35781602001602082028036833780820191505090505b50905060066040518061010001604052808d81526020018781526020018c8c8080601f016020809104026020016040519081016040528093929190818152602001838380828437600081840152601f19601f8201169050808301925050505050505081526020018a81526020018981526020013373ffffffffffffffffffffffffffffffffffffffff1681526020016000815260200183815250908060018154018082558091505060019003906000526020600020906008020160009091909190915060008201518160000155602082015181600101556040820151816002019080519060200190610ac6929190613d8f565b50606082015181600301556080820151816004015560a08201518160050160006101000a81548173ffffffffffffffffffffffffffffffffffffffff021916908373ffffffffffffffffffffffffffffffffffffffff16021790555060c0820151816006015560e0820151816007019080519060200190610b48929190613e15565b5050506001600680549050610b5d91906151ab565b828481518110610b7057610b6f614d2a565b5b6020026020010181815250508160038781548110610b9157610b90614d2a565b5b90600052602060002090600702016004019080519060200190610bb5929190613e9f565b5060019350505050979650505050505050565b606060038281548110610bde57610bdd614d2a565b5b90600052602060002090600702016000018054610bfa90614d88565b80601f0160208091040260200160405190810160405280929190818152602001828054610c2690614d88565b8015610c735780601f10610c4857610100808354040283529160200191610c73565b820191906000526020600020905b815481529060010190602001808311610c5657829003601f168201915b50505050509050919050565b60008060028484604051610c94929190614ca5565b9081526020016040518091039020549050610caf81336135bd565b15610cef576040517f08c379a0000000000000000000000000000000000000000000000000000000008152600401610ce69061522b565b60405180910390fd5b600060038281548110610d0557610d04614d2a565b5b90600052602060002090600702016004018054905090506000600182610d2b9190615071565b67ffffffffffffffff811115610d4457610d436150c7565b5b604051908082528060200260200182016040528015610d725781602001602082028036833780820191505090505b50905060005b82811015610ec25760038481548110610d9457610d93614d2a565b5b90600052602060002090600702016004018181548110610db757610db6614d2a565b5b9060005260206000200154828281518110610dd557610dd4614d2a565b5b6020026020010181815250503373ffffffffffffffffffffffffffffffffffffffff166006838381518110610e0d57610e0c614d2a565b5b602002602001015181548110610e2657610e25614d2a565b5b906000526020600020906008020160050160009054906101000a900473ffffffffffffffffffffffffffffffffffffffff1673ffffffffffffffffffffffffffffffffffffffff161415610eaf576040517f08c379a0000000000000000000000000000000000000000000000000000000008152600401610ea690615297565b60405180910390fd5b8080610eba90615162565b915050610d78565b5082935050505092915050565b606060006003805490509050606060005b828110156110bb57600060038281548110610efe57610efd614d2a565b5b906000526020600020906007020160010180549050905060005b818110156110a6573373ffffffffffffffffffffffffffffffffffffffff1660038481548110610f4b57610f4a614d2a565b5b90600052602060002090600702016001018281548110610f6e57610f6d614d2a565b5b9060005260206000200160009054906101000a900473ffffffffffffffffffffffffffffffffffffffff1673ffffffffffffffffffffffffffffffffffffffff161415611093576000845190506000600182610fca9190615071565b67ffffffffffffffff811115610fe357610fe26150c7565b5b6040519080825280602002602001820160405280156110115781602001602082028036833780820191505090505b50905060005b8281101561106c5786818151811061103257611031614d2a565b5b602002602001015182828151811061104d5761104c614d2a565b5b602002602001018181525050808061106490615162565b915050611017565b508481838151811061108157611080614d2a565b5b60200260200101818152505080955050505b808061109e90615162565b915050610f18565b505080806110b390615162565b915050610ee0565b50809250505090565b6110cc613eec565b600382815481106110e0576110df614d2a565b5b90600052602060002090600702016040518060e001604052908160008201805461110990614d88565b80601f016020809104026020016040519081016040528092919081815260200182805461113590614d88565b80156111825780601f1061115757610100808354040283529160200191611182565b820191906000526020600020905b81548152906001019060200180831161116557829003601f168201915b505050505081526020016001820180548060200260200160405190810160405280929190818152602001828054801561121057602002820191906000526020600020905b8160009054906101000a900473ffffffffffffffffffffffffffffffffffffffff1673ffffffffffffffffffffffffffffffffffffffff16815260200190600101908083116111c6575b505050505081526020016002820180548060200260200160405190810160405280929190818152602001828054801561126857602002820191906000526020600020905b815481526020019060010190808311611254575b50505050508152602001600382018054806020026020016040519081016040528092919081815260200182805480156112c057602002820191906000526020600020905b8154815260200190600101908083116112ac575b505050505081526020016004820180548060200260200160405190810160405280929190818152602001828054801561131857602002820191906000526020600020905b815481526020019060010190808311611304575b505050505081526020016005820154815260200160068201805461133b90614d88565b80601f016020809104026020016040519081016040528092919081815260200182805461136790614d88565b80156113b45780601f10611389576101008083540402835291602001916113b4565b820191906000526020600020905b81548152906001019060200180831161139757829003601f168201915b5050505050815250509050919050565b60606113d082336135bd565b61140f576040517f08c379a000000000000000000000000000000000000000000000000000000000815260040161140690614d0a565b60405180910390fd5b60006003838154811061142557611424614d2a565b5b90600052602060002090600702016002018054905090506000600160003373ffffffffffffffffffffffffffffffffffffffff1673ffffffffffffffffffffffffffffffffffffffff16815260200190815260200160002080549050905060008267ffffffffffffffff81111561149f5761149e6150c7565b5b6040519080825280602002602001820160405280156114d857816020015b6114c5613f29565b8152602001906001900390816114bd5790505b50905060008367ffffffffffffffff8111156114f7576114f66150c7565b5b60405190808252806020026020018201604052801561153057816020015b61151d613f4a565b8152602001906001900390816115155790505b50905060005b848110156119875760006003888154811061155457611553614d2a565b5b9060005260206000209060070201600201828154811061157757611576614d2a565b5b906000526020600020015490506000806000604051806060016040528085815260200160008152602001600486815481106115b5576115b4614d2a565b5b9060005260206000209060040201600101548152508786815181106115dd576115dc614d2a565b5b602002602001018190525060005b888110156118375784600160003373ffffffffffffffffffffffffffffffffffffffff1673ffffffffffffffffffffffffffffffffffffffff168152602001908152602001600020828154811061164557611644614d2a565b5b906000526020600020906003020160000154141561182457600160003373ffffffffffffffffffffffffffffffffffffffff1673ffffffffffffffffffffffffffffffffffffffff16815260200190815260200160002081815481106116ae576116ad614d2a565b5b9060005260206000209060030201600101548887815181106116d3576116d2614d2a565b5b60200260200101516020018181525050600485815481106116f7576116f6614d2a565b5b9060005260206000209060040201600201546004868154811061171d5761171c614d2a565b5b9060005260206000209060040201600301546117399190615071565b915042935081841115611798576004858154811061175a57611759614d2a565b5b90600052602060002090600402016001015488878151811061177f5761177e614d2a565b5b6020026020010151604001818152505060019250611823565b600160003373ffffffffffffffffffffffffffffffffffffffff1673ffffffffffffffffffffffffffffffffffffffff16815260200190815260200160002081815481106117e9576117e8614d2a565b5b90600052602060002090600302016002015488878151811061180e5761180d614d2a565b5b60200260200101516040018181525050600092505b5b808061182f90615162565b9150506115eb565b5086858151811061184b5761184a614d2a565b5b60200260200101516000015186868151811061186a57611869614d2a565b5b6020026020010151600001818152505086858151811061188d5761188c614d2a565b5b6020026020010151602001518686815181106118ac576118ab614d2a565b5b602002602001015160200181815250508685815181106118cf576118ce614d2a565b5b6020026020010151604001518686815181106118ee576118ed614d2a565b5b602002602001015160400181815250508286868151811061191257611911614d2a565b5b602002602001015160600181815250508086868151811061193657611935614d2a565b5b602002602001015160800181815250508186868151811061195a57611959614d2a565b5b602002602001015160a001901515908115158152505050505050808061197f90615162565b915050611536565b5080945050505050919050565b60006119a082336135bd565b6119df576040517f08c379a00000000000000000000000000000000000000000000000000000000081526004016119d690615303565b60405180910390fd5b6000600383815481106119f5576119f4614d2a565b5b90600052602060002090600702016001018054905090506000600182611a1b91906151ab565b67ffffffffffffffff811115611a3457611a336150c7565b5b604051908082528060200260200182016040528015611a625781602001602082028036833780820191505090505b509050600080600090505b83811015611b24573373ffffffffffffffffffffffffffffffffffffffff1660038781548110611aa057611a9f614d2a565b5b90600052602060002090600702016001018281548110611ac357611ac2614d2a565b5b9060005260206000200160009054906101000a900473ffffffffffffffffffffffffffffffffffffffff1673ffffffffffffffffffffffffffffffffffffffff1614611b1157809150611b24565b8080611b1c90615162565b915050611a6d565b600090505b83811015611cc05781811015611be95760038681548110611b4d57611b4c614d2a565b5b90600052602060002090600702016001018181548110611b7057611b6f614d2a565b5b9060005260206000200160009054906101000a900473ffffffffffffffffffffffffffffffffffffffff16838281518110611bae57611bad614d2a565b5b602002602001019073ffffffffffffffffffffffffffffffffffffffff16908173ffffffffffffffffffffffffffffffffffffffff16815250505b81811115611cad5760038681548110611c0557611c04614d2a565b5b90600052602060002090600702016001018181548110611c2857611c27614d2a565b5b9060005260206000200160009054906101000a900473ffffffffffffffffffffffffffffffffffffffff1683600183611c6191906151ab565b81518110611c7257611c71614d2a565b5b602002602001019073ffffffffffffffffffffffffffffffffffffffff16908173ffffffffffffffffffffffffffffffffffffffff16815250505b8080611cb890615162565b915050611b29565b8260038781548110611cd557611cd4614d2a565b5b90600052602060002090600702016001019080519060200190611cf9929190613e15565b506001945050505050919050565b6000611d11613f29565b60008080600091505b600160003373ffffffffffffffffffffffffffffffffffffffff1673ffffffffffffffffffffffffffffffffffffffff16815260200190815260200160002080549050821015611e745787600160003373ffffffffffffffffffffffffffffffffffffffff1673ffffffffffffffffffffffffffffffffffffffff1681526020019081526020016000208381548110611db657611db5614d2a565b5b9060005260206000209060030201600001541415611e6157600160003373ffffffffffffffffffffffffffffffffffffffff1673ffffffffffffffffffffffffffffffffffffffff1681526020019081526020016000208281548110611e1f57611e1e614d2a565b5b90600052602060002090600302016040518060600160405290816000820154815260200160018201548152602001600282015481525050935060019250611e74565b8180611e6c90615162565b925050611d1a565b600015158315151415611ec55760405180606001604052808981526020016000815260200160048a81548110611ead57611eac614d2a565b5b90600052602060002090600402016001015481525093505b600160048981548110611edb57611eda614d2a565b5b906000526020600020906004020160020154611ef79190615323565b60048981548110611f0b57611f0a614d2a565b5b906000526020600020906004020160030154611f279190615071565b4211156120055760048881548110611f4257611f41614d2a565b5b906000526020600020906004020160010154846040018181525050600060048981548110611f7357611f72614d2a565b5b906000526020600020906004020160030154905060005b42821015611fd85760048a81548110611fa657611fa5614d2a565b5b90600052602060002090600402016002015482611fc39190615071565b91508080611fd090615162565b915050611f8a565b508060048a81548110611fee57611fed614d2a565b5b906000526020600020906004020160030181905550505b858460400151101561204c576040517f08c379a0000000000000000000000000000000000000000000000000000000008152600401612043906153c9565b60405180910390fd5b612054613f29565b60008092505b600160008a73ffffffffffffffffffffffffffffffffffffffff1673ffffffffffffffffffffffffffffffffffffffff168152602001908152602001600020805490508310156121b45789600160008b73ffffffffffffffffffffffffffffffffffffffff1673ffffffffffffffffffffffffffffffffffffffff16815260200190815260200160002084815481106120f6576120f5614d2a565b5b90600052602060002090600302016000015414156121a157600160008a73ffffffffffffffffffffffffffffffffffffffff1673ffffffffffffffffffffffffffffffffffffffff168152602001908152602001600020838154811061215f5761215e614d2a565b5b906000526020600020906003020160405180606001604052908160008201548152602001600182015481526020016002820154815250509150600190506121b4565b82806121ac90615162565b93505061205a565b6000151581151514156122055760405180606001604052808b81526020016000815260200160048c815481106121ed576121ec614d2a565b5b90600052602060002090600402016001015481525091505b878660400181815161221791906151ab565b9150818152505087826020018181516122309190615071565b915081815250506001151585151514156122ca5785600160003373ffffffffffffffffffffffffffffffffffffffff1673ffffffffffffffffffffffffffffffffffffffff168152602001908152602001600020858154811061229657612295614d2a565b5b9060005260206000209060030201600082015181600001556020820151816001015560408201518160020155905050612373565b600160003373ffffffffffffffffffffffffffffffffffffffff1673ffffffffffffffffffffffffffffffffffffffff16815260200190815260200160002060405180606001604052808c8152602001600081526020018860400151815250908060018154018082558091505060019003906000526020600020906003020160009091909190915060008201518160000155602082015181600101556040820151816002015550505b6001151581151514156124065781600160008b73ffffffffffffffffffffffffffffffffffffffff1673ffffffffffffffffffffffffffffffffffffffff16815260200190815260200160002084815481106123d2576123d1614d2a565b5b90600052602060002090600302016000820151816000015560208201518160010155604082015181600201559050506124d3565b600160008a73ffffffffffffffffffffffffffffffffffffffff1673ffffffffffffffffffffffffffffffffffffffff16815260200190815260200160002060405180606001604052808c81526020018460200151815260200160048d8154811061247457612473614d2a565b5b906000526020600020906004020160010154815250908060018154018082558091505060019003906000526020600020906003020160009091909190915060008201518160000155602082015181600101556040820151816002015550505b600196505050505050509392505050565b600080600167ffffffffffffffff811115612502576125016150c7565b5b6040519080825280602002602001820160405280156125305781602001602082028036833780820191505090505b509050338160008151811061254857612547614d2a565b5b602002602001019073ffffffffffffffffffffffffffffffffffffffff16908173ffffffffffffffffffffffffffffffffffffffff1681525050606080606060006005905060006125dc89898080601f016020809104026020016040519081016040528093929190818152602001838380828437600081840152601f19601f8201169050808301925050505050505061375d565b905060006040518060e001604052808b8b8080601f016020809104026020016040519081016040528093929190818152602001838380828437600081840152601f19601f820116905080830192505050505050508152602001888152602001878152602001868152602001858152602001848152602001838152509050600381908060018154018082558091505060019003906000526020600020906007020160009091909190915060008201518160000190805190602001906126a1929190613d8f565b5060208201518160010190805190602001906126be929190613e15565b5060408201518160020190805190602001906126db929190613e9f565b5060608201518160030190805190602001906126f8929190613e9f565b506080820151816004019080519060200190612715929190613e9f565b5060a0820151816005015560c082015181600601908051906020019061273c929190613d8f565b5050506000600160038054905061275391906151ab565b1461278457600060028360405161276a919061541a565b9081526020016040518091039020541461278357600080fd5b5b600160038054905061279691906151ab565b6002836040516127a6919061541a565b908152602001604051809103902081905550600197505050505050505092915050565b6127d1613f82565b600482815481106127e5576127e4614d2a565b5b906000526020600020906004020160405180608001604052908160008201805461280e90614d88565b80601f016020809104026020016040519081016040528092919081815260200182805461283a90614d88565b80156128875780601f1061285c57610100808354040283529160200191612887565b820191906000526020600020905b81548152906001019060200180831161286a57829003601f168201915b5050505050815260200160018201548152602001600282015481526020016003820154815250509050919050565b600082826000803373ffffffffffffffffffffffffffffffffffffffff1673ffffffffffffffffffffffffffffffffffffffff1681526020019081526020016000209190612904929190613faa565b506001905092915050565b606061291b82336135bd565b61295a576040517f08c379a000000000000000000000000000000000000000000000000000000000815260040161295190614f4a565b60405180910390fd5b6000600383815481106129705761296f614d2a565b5b906000526020600020906007020160040180549050905060008167ffffffffffffffff8111156129a3576129a26150c7565b5b6040519080825280602002602001820160405280156129dc57816020015b6129c9614030565b8152602001906001900390816129c15790505b50905060005b82811015612c3857600060038681548110612a00576129ff614d2a565b5b90600052602060002090600702016004018281548110612a2357612a22614d2a565b5b9060005260206000200154905060068181548110612a4457612a43614d2a565b5b9060005260206000209060080201604051806101000160405290816000820154815260200160018201548152602001600282018054612a8290614d88565b80601f0160208091040260200160405190810160405280929190818152602001828054612aae90614d88565b8015612afb5780601f10612ad057610100808354040283529160200191612afb565b820191906000526020600020905b815481529060010190602001808311612ade57829003601f168201915b5050505050815260200160038201548152602001600482015481526020016005820160009054906101000a900473ffffffffffffffffffffffffffffffffffffffff1673ffffffffffffffffffffffffffffffffffffffff1673ffffffffffffffffffffffffffffffffffffffff1681526020016006820154815260200160078201805480602002602001604051908101604052809291908181526020018280548015612bfd57602002820191906000526020600020905b8160009054906101000a900473ffffffffffffffffffffffffffffffffffffffff1673ffffffffffffffffffffffffffffffffffffffff1681526020019060010190808311612bb3575b505050505081525050838381518110612c1957612c18614d2a565b5b6020026020010181905250508080612c3090615162565b9150506129e2565b508092505050919050565b60606000808373ffffffffffffffffffffffffffffffffffffffff1673ffffffffffffffffffffffffffffffffffffffff1681526020019081526020016000208054612c8e90614d88565b80601f0160208091040260200160405190810160405280929190818152602001828054612cba90614d88565b8015612d075780601f10612cdc57610100808354040283529160200191612d07565b820191906000526020600020905b815481529060010190602001808311612cea57829003601f168201915b50505050509050919050565b6000612d1f84336135bd565b612d5e576040517f08c379a0000000000000000000000000000000000000000000000000000000008152600401612d559061547d565b60405180910390fd5b612d66614030565b600060038681548110612d7c57612d7b614d2a565b5b90600052602060002090600702016004018054905090506000805b82811015612fdc578660038981548110612db457612db3614d2a565b5b90600052602060002090600702016004018281548110612dd757612dd6614d2a565b5b90600052602060002001541415612fc95760068781548110612dfc57612dfb614d2a565b5b9060005260206000209060080201604051806101000160405290816000820154815260200160018201548152602001600282018054612e3a90614d88565b80601f0160208091040260200160405190810160405280929190818152602001828054612e6690614d88565b8015612eb35780601f10612e8857610100808354040283529160200191612eb3565b820191906000526020600020905b815481529060010190602001808311612e9657829003601f168201915b5050505050815260200160038201548152602001600482015481526020016005820160009054906101000a900473ffffffffffffffffffffffffffffffffffffffff1673ffffffffffffffffffffffffffffffffffffffff1673ffffffffffffffffffffffffffffffffffffffff1681526020016006820154815260200160078201805480602002602001604051908101604052809291908181526020018280548015612fb557602002820191906000526020600020905b8160009054906101000a900473ffffffffffffffffffffffffffffffffffffffff1673ffffffffffffffffffffffffffffffffffffffff1681526020019060010190808311612f6b575b505050505081525050935060019150612fdc565b8080612fd490615162565b915050612d97565b508061301d576040517f08c379a0000000000000000000000000000000000000000000000000000000008152600401613014906154e9565b60405180910390fd5b60008360e0015151905060006001826130369190615071565b67ffffffffffffffff81111561304f5761304e6150c7565b5b60405190808252806020026020018201604052801561307d5781602001602082028036833780820191505090505b50905060005b82811015613197573373ffffffffffffffffffffffffffffffffffffffff168660e0015182815181106130b9576130b8614d2a565b5b602002602001015173ffffffffffffffffffffffffffffffffffffffff161415613118576040517f08c379a000000000000000000000000000000000000000000000000000000000815260040161310f90615555565b60405180910390fd5b8560e00151818151811061312f5761312e614d2a565b5b602002602001015182828151811061314a57613149614d2a565b5b602002602001019073ffffffffffffffffffffffffffffffffffffffff16908173ffffffffffffffffffffffffffffffffffffffff1681525050808061318f90615162565b915050613083565b50338183815181106131ac576131ab614d2a565b5b602002602001019073ffffffffffffffffffffffffffffffffffffffff16908173ffffffffffffffffffffffffffffffffffffffff1681525050808560e0018190525060008711156132135760018560c00181815161320b9190615071565b915081815250505b846006898154811061322857613227614d2a565b5b906000526020600020906008020160008201518160000155602082015181600101556040820151816002019080519060200190613266929190613d8f565b50606082015181600301556080820151816004015560a08201518160050160006101000a81548173ffffffffffffffffffffffffffffffffffffffff021916908373ffffffffffffffffffffffffffffffffffffffff16021790555060c0820151816006015560e08201518160070190805190602001906132e8929190613e15565b5090505060006132f78a6138b2565b9050808660c0015111156135ac57600086602001511415613322576133208a8760a00151613933565b505b600186602001511480613339575060028660200151145b1561336557613363866000015187604001518860600151896080015160028b60200151148f613b67565b505b6003866020015114156133a157856000015160038b8154811061338b5761338a614d2a565b5b9060005260206000209060070201600501819055505b60006001866133b091906151ab565b67ffffffffffffffff8111156133c9576133c86150c7565b5b6040519080825280602002602001820160405280156133f75781602001602082028036833780820191505090505b509050600080600090505b8781101561346e578b60038e8154811061341f5761341e614d2a565b5b9060005260206000209060070201600401828154811061344257613441614d2a565b5b9060005260206000200154141561345b5780915061346e565b808061346690615162565b915050613402565b600090505b8781101561356e57818110156134e55760038d8154811061349757613496614d2a565b5b906000526020600020906007020160040181815481106134ba576134b9614d2a565b5b90600052602060002001548382815181106134d8576134d7614d2a565b5b6020026020010181815250505b8181111561355b5760038d8154811061350157613500614d2a565b5b9060005260206000209060070201600401818154811061352457613523614d2a565b5b90600052602060002001548360018361353d91906151ab565b8151811061354e5761354d614d2a565b5b6020026020010181815250505b808061356690615162565b915050613473565b8260038e8154811061358357613582614d2a565b5b906000526020600020906007020160040190805190602001906135a7929190613e9f565b505050505b600196505050505050509392505050565b6000806000905060005b600385815481106135db576135da614d2a565b5b9060005260206000209060070201600101805490508110156136a8578373ffffffffffffffffffffffffffffffffffffffff166003868154811061362257613621614d2a565b5b9060005260206000209060070201600101828154811061364557613644614d2a565b5b9060005260206000200160009054906101000a900473ffffffffffffffffffffffffffffffffffffffff1673ffffffffffffffffffffffffffffffffffffffff16141561369557600191506136a8565b80806136a090615162565b9150506135c7565b508091505092915050565b600080600090505b600383815481106136cf576136ce614d2a565b5b906000526020600020906007020160020180549050811015613751578360038481548110613700576136ff614d2a565b5b9060005260206000209060070201600201828154811061372357613722614d2a565b5b9060005260206000200154141561373e576001915050613757565b808061374990615162565b9150506136bb565b50600090505b92915050565b60606000600f905060008167ffffffffffffffff811115613781576137806150c7565b5b6040519080825280601f01601f1916602001820160405280156137b35781602001600182028036833780820191505090505b509050600081905060006040518060600160405280602381526020016156c760239139905060005b6001856137e891906151ab565b8110156138a55760008251424433878c60405160200161380c9594939291906155de565b6040516020818303038152906040528051906020012060001c61382f9190615664565b905082818151811061384457613843614d2a565b5b602001015160f81c60f81b84838151811061386257613861614d2a565b5b60200101907effffffffffffffffffffffffffffffffffffffffffffffffffffffffffffff1916908160001a90535050808061389d90615162565b9150506137db565b5081945050505050919050565b60006138be82336135bd565b6138c757600080fd5b600a600383815481106138dd576138dc614d2a565b5b9060005260206000209060070201600501546003848154811061390357613902614d2a565b5b9060005260206000209060070201600101805490506139229190615323565b61392c9190615695565b9050919050565b600061393f83836135bd565b1561397f576040517f08c379a000000000000000000000000000000000000000000000000000000000815260040161397690614e06565b60405180910390fd5b60006003848154811061399557613994614d2a565b5b906000526020600020906007020160010180549050905060006001826139bb9190615071565b67ffffffffffffffff8111156139d4576139d36150c7565b5b604051908082528060200260200182016040528015613a025781602001602082028036833780820191505090505b50905060005b82811015613ad25760038681548110613a2457613a23614d2a565b5b90600052602060002090600702016001018181548110613a4757613a46614d2a565b5b9060005260206000200160009054906101000a900473ffffffffffffffffffffffffffffffffffffffff16828281518110613a8557613a84614d2a565b5b602002602001019073ffffffffffffffffffffffffffffffffffffffff16908173ffffffffffffffffffffffffffffffffffffffff16815250508080613aca90615162565b915050613a08565b5083818381518110613ae757613ae6614d2a565b5b602002602001019073ffffffffffffffffffffffffffffffffffffffff16908173ffffffffffffffffffffffffffffffffffffffff16815250508060038681548110613b3657613b35614d2a565b5b90600052602060002090600702016001019080519060200190613b5a929190613e15565b5060019250505092915050565b6000613b7382336135bd565b613bb2576040517f08c379a0000000000000000000000000000000000000000000000000000000008152600401613ba99061547d565b60405180910390fd5b8215613c9457613bc287836136b3565b613c01576040517f08c379a0000000000000000000000000000000000000000000000000000000008152600401613bf890614fb6565b60405180910390fd5b8560048881548110613c1657613c15614d2a565b5b90600052602060002090600402016000019080519060200190613c3a929190613d8f565b508460048881548110613c5057613c4f614d2a565b5b9060005260206000209060040201600101819055508360048881548110613c7a57613c79614d2a565b5b906000526020600020906004020160020181905550613d81565b600460405180608001604052808881526020018781526020018681526020014281525090806001815401808255809150506001900390600052602060002090600402016000909190919091506000820151816000019080519060200190613cfc929190613d8f565b5060208201518160010155604082015181600201556060820151816003015550506000600480549050905060038381548110613d3b57613d3a614d2a565b5b9060005260206000209060070201600201600182613d5991906151ab565b9080600181540180825580915050600190039060005260206000200160009091909190915055505b600190509695505050505050565b828054613d9b90614d88565b90600052602060002090601f016020900481019282613dbd5760008555613e04565b82601f10613dd657805160ff1916838001178555613e04565b82800160010185558215613e04579182015b82811115613e03578251825591602001919060010190613de8565b5b509050613e11919061408b565b5090565b828054828255906000526020600020908101928215613e8e579160200282015b82811115613e8d5782518260006101000a81548173ffffffffffffffffffffffffffffffffffffffff021916908373ffffffffffffffffffffffffffffffffffffffff16021790555091602001919060010190613e35565b5b509050613e9b919061408b565b5090565b828054828255906000526020600020908101928215613edb579160200282015b82811115613eda578251825591602001919060010190613ebf565b5b509050613ee8919061408b565b5090565b6040518060e00160405280606081526020016060815260200160608152602001606081526020016060815260200160008152602001606081525090565b60405180606001604052806000815260200160008152602001600081525090565b6040518060c0016040528060008152602001600081526020016000815260200160008152602001600081526020016000151581525090565b6040518060800160405280606081526020016000815260200160008152602001600081525090565b828054613fb690614d88565b90600052602060002090601f016020900481019282613fd8576000855561401f565b82601f10613ff157803560ff191683800117855561401f565b8280016001018555821561401f579182015b8281111561401e578235825591602001919060010190614003565b5b50905061402c919061408b565b5090565b6040518061010001604052806000815260200160008152602001606081526020016000815260200160008152602001600073ffffffffffffffffffffffffffffffffffffffff16815260200160008152602001606081525090565b5b808211156140a457600081600090555060010161408c565b5090565b600080fd5b600080fd5b6000819050919050565b6140c5816140b2565b81146140d057600080fd5b50565b6000813590506140e2816140bc565b92915050565b600080fd5b600080fd5b600080fd5b60008083601f84011261410d5761410c6140e8565b5b8235905067ffffffffffffffff81111561412a576141296140ed565b5b602083019150836001820283011115614146576141456140f2565b5b9250929050565b600080600060408486031215614166576141656140a8565b5b6000614174868287016140d3565b935050602084013567ffffffffffffffff811115614195576141946140ad565b5b6141a1868287016140f7565b92509250509250925092565b600081519050919050565b600082825260208201905092915050565b60005b838110156141e75780820151818401526020810190506141cc565b838111156141f6576000848401525b50505050565b6000601f19601f8301169050919050565b6000614218826141ad565b61422281856141b8565b93506142328185602086016141c9565b61423b816141fc565b840191505092915050565b60006020820190508181036000830152614260818461420d565b905092915050565b60006020828403121561427e5761427d6140a8565b5b600061428c848285016140d3565b91505092915050565b600081519050919050565b600082825260208201905092915050565b6000819050602082019050919050565b600073ffffffffffffffffffffffffffffffffffffffff82169050919050565b60006142ec826142c1565b9050919050565b6142fc816142e1565b82525050565b600061430e83836142f3565b60208301905092915050565b6000602082019050919050565b600061433282614295565b61433c81856142a0565b9350614347836142b1565b8060005b8381101561437857815161435f8882614302565b975061436a8361431a565b92505060018101905061434b565b5085935050505092915050565b6000602082019050818103600083015261439f8184614327565b905092915050565b600080600080600080600060c0888a0312156143c6576143c56140a8565b5b60006143d48a828b016140d3565b975050602088013567ffffffffffffffff8111156143f5576143f46140ad565b5b6144018a828b016140f7565b965096505060406144148a828b016140d3565b94505060606144258a828b016140d3565b93505060806144368a828b016140d3565b92505060a06144478a828b016140d3565b91505092959891949750929550565b60008115159050919050565b61446b81614456565b82525050565b60006020820190506144866000830184614462565b92915050565b600080602083850312156144a3576144a26140a8565b5b600083013567ffffffffffffffff8111156144c1576144c06140ad565b5b6144cd858286016140f7565b92509250509250929050565b6144e2816140b2565b82525050565b60006020820190506144fd60008301846144d9565b92915050565b600081519050919050565b600082825260208201905092915050565b6000819050602082019050919050565b614538816140b2565b82525050565b600061454a838361452f565b60208301905092915050565b6000602082019050919050565b600061456e82614503565b614578818561450e565b93506145838361451f565b8060005b838110156145b457815161459b888261453e565b97506145a683614556565b925050600181019050614587565b5085935050505092915050565b600060208201905081810360008301526145db8184614563565b905092915050565b600082825260208201905092915050565b60006145ff826141ad565b61460981856145e3565b93506146198185602086016141c9565b614622816141fc565b840191505092915050565b600082825260208201905092915050565b600061464982614295565b614653818561462d565b935061465e836142b1565b8060005b8381101561468f5781516146768882614302565b97506146818361431a565b925050600181019050614662565b5085935050505092915050565b600082825260208201905092915050565b60006146b882614503565b6146c2818561469c565b93506146cd8361451f565b8060005b838110156146fe5781516146e5888261453e565b97506146f083614556565b9250506001810190506146d1565b5085935050505092915050565b600060e083016000830151848203600086015261472882826145f4565b91505060208301518482036020860152614742828261463e565b9150506040830151848203604086015261475c82826146ad565b9150506060830151848203606086015261477682826146ad565b9150506080830151848203608086015261479082826146ad565b91505060a08301516147a560a086018261452f565b5060c083015184820360c08601526147bd82826145f4565b9150508091505092915050565b600060208201905081810360008301526147e4818461470b565b905092915050565b600081519050919050565b600082825260208201905092915050565b6000819050602082019050919050565b61482181614456565b82525050565b60c08201600082015161483d600085018261452f565b506020820151614850602085018261452f565b506040820151614863604085018261452f565b506060820151614876606085018261452f565b506080820151614889608085018261452f565b5060a082015161489c60a0850182614818565b50505050565b60006148ae8383614827565b60c08301905092915050565b6000602082019050919050565b60006148d2826147ec565b6148dc81856147f7565b93506148e783614808565b8060005b838110156149185781516148ff88826148a2565b975061490a836148ba565b9250506001810190506148eb565b5085935050505092915050565b6000602082019050818103600083015261493f81846148c7565b905092915050565b614950816142e1565b811461495b57600080fd5b50565b60008135905061496d81614947565b92915050565b60008060006060848603121561498c5761498b6140a8565b5b600061499a868287016140d3565b93505060206149ab8682870161495e565b92505060406149bc868287016140d3565b9150509250925092565b600060808301600083015184820360008601526149e382826145f4565b91505060208301516149f8602086018261452f565b506040830151614a0b604086018261452f565b506060830151614a1e606086018261452f565b508091505092915050565b60006020820190508181036000830152614a4381846149c6565b905092915050565b600081519050919050565b600082825260208201905092915050565b6000819050602082019050919050565b600061010083016000830151614a90600086018261452f565b506020830151614aa3602086018261452f565b5060408301518482036040860152614abb82826145f4565b9150506060830151614ad0606086018261452f565b506080830151614ae3608086018261452f565b5060a0830151614af660a08601826142f3565b5060c0830151614b0960c086018261452f565b5060e083015184820360e0860152614b21828261463e565b9150508091505092915050565b6000614b3a8383614a77565b905092915050565b6000602082019050919050565b6000614b5a82614a4b565b614b648185614a56565b935083602082028501614b7685614a67565b8060005b85811015614bb25784840389528151614b938582614b2e565b9450614b9e83614b42565b925060208a01995050600181019050614b7a565b50829750879550505050505092915050565b60006020820190508181036000830152614bde8184614b4f565b905092915050565b600060208284031215614bfc57614bfb6140a8565b5b6000614c0a8482850161495e565b91505092915050565b600080600060608486031215614c2c57614c2b6140a8565b5b6000614c3a868287016140d3565b9350506020614c4b868287016140d3565b9250506040614c5c868287016140d3565b9150509250925092565b600081905092915050565b82818337600083830152505050565b6000614c8c8385614c66565b9350614c99838584614c71565b82840190509392505050565b6000614cb2828486614c80565b91508190509392505050565b7f75736572206e6f7420617574686f72697a656400000000000000000000000000600082015250565b6000614cf46013836141b8565b9150614cff82614cbe565b602082019050919050565b60006020820190508181036000830152614d2381614ce7565b9050919050565b7f4e487b7100000000000000000000000000000000000000000000000000000000600052603260045260246000fd5b7f4e487b7100000000000000000000000000000000000000000000000000000000600052602260045260246000fd5b60006002820490506001821680614da057607f821691505b60208210811415614db457614db3614d59565b5b50919050565b7f6d656d62657220616c72656164792070726573656e7421000000000000000000600082015250565b6000614df06017836141b8565b9150614dfb82614dba565b602082019050919050565b60006020820190508181036000830152614e1f81614de3565b9050919050565b7f6c696e6b206e6f7420617574686f72697a656400000000000000000000000000600082015250565b6000614e5c6013836141b8565b9150614e6782614e26565b602082019050919050565b60006020820190508181036000830152614e8b81614e4f565b9050919050565b7f67726f7570206e6f7420617574686f72697a6564000000000000000000000000600082015250565b6000614ec86014836141b8565b9150614ed382614e92565b602082019050919050565b60006020820190508181036000830152614ef781614ebb565b9050919050565b7f6d656d626572206e6f7420616c6c6f7765642100000000000000000000000000600082015250565b6000614f346013836141b8565b9150614f3f82614efe565b602082019050919050565b60006020820190508181036000830152614f6381614f27565b9050919050565b7f746f6b656e206e6f7420616c6c6f776564000000000000000000000000000000600082015250565b6000614fa06011836141b8565b9150614fab82614f6a565b602082019050919050565b60006020820190508181036000830152614fcf81614f93565b9050919050565b7f696e76616c69642071756f72756d000000000000000000000000000000000000600082015250565b600061500c600e836141b8565b915061501782614fd6565b602082019050919050565b6000602082019050818103600083015261503b81614fff565b9050919050565b7f4e487b7100000000000000000000000000000000000000000000000000000000600052601160045260246000fd5b600061507c826140b2565b9150615087836140b2565b9250827fffffffffffffffffffffffffffffffffffffffffffffffffffffffffffffffff038211156150bc576150bb615042565b5b828201905092915050565b7f4e487b7100000000000000000000000000000000000000000000000000000000600052604160045260246000fd5b7f63616e64696461746520616c7265616479206164646564210000000000000000600082015250565b600061512c6018836141b8565b9150615137826150f6565b602082019050919050565b6000602082019050818103600083015261515b8161511f565b9050919050565b600061516d826140b2565b91507fffffffffffffffffffffffffffffffffffffffffffffffffffffffffffffffff8214156151a05761519f615042565b5b600182019050919050565b60006151b6826140b2565b91506151c1836140b2565b9250828210156151d4576151d3615042565b5b828203905092915050565b7f6d656d62657220616c72656164792070726573656e7400000000000000000000600082015250565b60006152156016836141b8565b9150615220826151df565b602082019050919050565b6000602082019050818103600083015261524481615208565b9050919050565b7f63616e64696461746520616c72656164792070726573656e7400000000000000600082015250565b60006152816019836141b8565b915061528c8261524b565b602082019050919050565b600060208201905081810360008301526152b081615274565b9050919050565b7f6d656d626572206e6f7420696e2067726f757021000000000000000000000000600082015250565b60006152ed6014836141b8565b91506152f8826152b7565b602082019050919050565b6000602082019050818103600083015261531c816152e0565b9050919050565b600061532e826140b2565b9150615339836140b2565b9250817fffffffffffffffffffffffffffffffffffffffffffffffffffffffffffffffff048311821515161561537257615371615042565b5b828202905092915050565b7f6e6f6e2068616920616262617374616e7a6120746f6b656e0000000000000000600082015250565b60006153b36018836141b8565b91506153be8261537d565b602082019050919050565b600060208201905081810360008301526153e2816153a6565b9050919050565b60006153f4826141ad565b6153fe8185614c66565b935061540e8185602086016141c9565b80840191505092915050565b600061542682846153e9565b915081905092915050565b7f6d656d6265722063616e6e6f7420766f74652100000000000000000000000000600082015250565b60006154676013836141b8565b915061547282615431565b602082019050919050565b600060208201905081810360008301526154968161545a565b9050919050565b7f63616e64696461746520746f6b656e20646f65736e2774206578697374730000600082015250565b60006154d3601e836141b8565b91506154de8261549d565b602082019050919050565b60006020820190508181036000830152615502816154c6565b9050919050565b7f6164647265737320616c726561647920766f7465642100000000000000000000600082015250565b600061553f6016836141b8565b915061554a82615509565b602082019050919050565b6000602082019050818103600083015261556e81615532565b9050919050565b6000819050919050565b61559061558b826140b2565b615575565b82525050565b60008160601b9050919050565b60006155ae82615596565b9050919050565b60006155c0826155a3565b9050919050565b6155d86155d3826142e1565b6155b5565b82525050565b60006155ea828861557f565b6020820191506155fa828761557f565b60208201915061560a82866155c7565b60148201915061561a82856153e9565b915061562682846153e9565b91508190509695505050505050565b7f4e487b7100000000000000000000000000000000000000000000000000000000600052601260045260246000fd5b600061566f826140b2565b915061567a836140b2565b92508261568a57615689615635565b5b828206905092915050565b60006156a0826140b2565b91506156ab836140b2565b9250826156bb576156ba615635565b5b82820490509291505056fe6162636465666768696a6b6c6d6e6f7071727374757678797a31323334353637383930a2646970667358221220571cb626b7a5fc7246409a1a81d24a86a96a9a61e039e23787a0e207a312715164736f6c634300080b0033",
  "immutableReferences": {},
  "source": "// SPDX-License-Identifier: MIT\npragma solidity ^0.8.0;\n\n\ncontract KuoriciniDao {\n\n  struct DaoGroup {\n    string name;\n    address[] members;\n    uint[] tokenIds;\n    uint[] candidatesIds;\n    uint[] candidateTokenIds;\n    uint voteThreshold;\n    string invitationLink;\n  }\n  \n  struct Candidate {\n    address candidateAddress;\n    uint votes;\n    address[] voters;\n  }\n\n    /* CandType\n    0 : new address\n    1 : new token\n    2 : change existing token\n    3 : new quorum\n    */\n\n  struct CandidateToken {\n    uint id;\n    uint candType;\n    string name;\n    uint roundSupply;\n    uint roundDuration;\n    address candidateAddress;\n    uint votes;\n    address[] voters;\n  }\n\n  struct GToken {\n    string name;\n    uint roundSupply;\n    uint roundDuration;\n    uint timestamp;\n  }\n\n  struct UToken {\n    uint tokenId;\n    uint gTokenBalance;\n    uint xBalance;\n  }\n\n  mapping (address => string) names;\n  mapping (address => UToken[]) userTokens;\n  mapping (string => uint) invitationLinks;\n  DaoGroup[] daoGroups;\n  GToken[] allTokens;\n\n  // TODO : these two at least, have to become mappings, BUT REFACTOR QUITE\n  Candidate[] allCandidates;\n  CandidateToken[] allCandidateTokens;\n\n  constructor() {\n  }\n\n  function createGroup(string calldata _name) public returns(bool) {\n    address[] memory addr = new address[](1);\n    addr[0] = msg.sender;\n    uint[] memory defaultTokens;\n    uint[] memory defaultCandidates;\n    uint[] memory defaultCandidateTokens;\n    uint threshold = 5;\n    string memory invLink = generateInvitationLink(_name);\n    DaoGroup memory new_group = DaoGroup({ \n      name: _name, \n      members: addr, \n      tokenIds: defaultTokens, \n      candidatesIds: defaultCandidates, \n      candidateTokenIds: defaultCandidateTokens,\n      voteThreshold: threshold,\n      invitationLink: invLink\n    });\n    daoGroups.push(new_group);\n    // check invitation link doesn't exist already\n    if ( daoGroups.length-1 != 0 ) {\n      require ( invitationLinks[invLink] == 0 );\n    }\n    invitationLinks[invLink]=daoGroups.length-1;\n    return true;\n  }\n\n  function getGroup(uint _gid) public view returns(DaoGroup memory) {\n    return daoGroups[_gid];\n  }\n  \n  function checkInvitationLink(string calldata link) public view returns (uint) {    \n    uint groupInv =  invitationLinks[link];\n    require(!isAddressInGroup(groupInv, msg.sender), \"member already present\" );\n    uint l = daoGroups[groupInv].candidateTokenIds.length;\n    uint[] memory candidateTokenIds = new uint[](l+1);\n    for (uint i = 0; i < l; i++) {\n      candidateTokenIds[i] = daoGroups[groupInv].candidateTokenIds[i];\n      require ( allCandidateTokens[candidateTokenIds[i]].candidateAddress != msg.sender, \"candidate already present\" );\n    }    \n    return groupInv;\n  }\n\n  function generateInvitationLink(string memory name) private view returns (string memory) {\n      uint invLength = 15;\n      string memory newString = new string(invLength);\n      bytes memory finalString = bytes(newString);\n      bytes memory originString = \"abcdefghijklmnopqrstuvxyz1234567890\";\n      for (uint i=0; i< invLength-1; i++) {\n          uint r = uint(keccak256(abi.encodePacked(block.timestamp, block.difficulty, msg.sender, string(finalString), name))) % originString.length;\n          finalString[i] = originString[r];\n      }\n      return string(finalString);\n  }    \n\n  \n/*\n*   Tokens\n*\n*/\n\n  function getToken(uint _tokenid) public view returns(GToken memory) {\n    return allTokens[_tokenid];\n  }\n\n  function createGToken(uint tokid, string memory _name, uint _supply, uint _duration, bool present, uint _groupId) private returns(bool){\n    require(isAddressInGroup(_groupId, msg.sender), \"member cannot vote!\" );\n\n    if (present) {\n      require(isTokenInGroup(tokid, _groupId), \"token not allowed\");\n      allTokens[tokid].name = _name;\n      allTokens[tokid].roundSupply = _supply;\n      allTokens[tokid].roundDuration = _duration;\n    } \n    else {\n      allTokens.push(GToken({\n        name: _name,\n        roundSupply: _supply,\n        roundDuration: _duration,\n        timestamp: block.timestamp\n      }));\n      uint l = allTokens.length;\n      daoGroups[_groupId].tokenIds.push(l-1);\n    }\n    return true;\n  }\n\n\n// temporary struct to make the output more verbose\n\n  struct EToken {\n    uint tokenId;\n    uint gTokenBalance;\n    uint xBalance;\n    uint blocktimestamp;\n    uint newtime;\n    bool overtime;\n  }\n\n\n  function getUserTokens(uint gid) public view returns(EToken[] memory) {\n    require(isAddressInGroup(gid, msg.sender), \"user not authorized\"); \n\n\n    uint l = daoGroups[gid].tokenIds.length;\n    uint m = userTokens[msg.sender].length;\n    UToken[] memory utokens = new UToken[](l);\n    EToken[] memory etokens = new EToken[](l);\n\n    for ( uint w = 0; w < l; w++ ) { // all the tokens of this group \n      uint tokid = daoGroups[gid].tokenIds[w];\n      uint blts = 0;\n      bool overtime = false;\n      uint newtime = 0;\n      utokens[w] = UToken ({ tokenId: tokid, gTokenBalance: 0, xBalance: allTokens[tokid].roundSupply});\n      for ( uint j = 0; j < m; j++ ) { // all the tokens of this user\n        if (userTokens[msg.sender][j].tokenId == tokid) {\n          utokens[w].gTokenBalance = userTokens[msg.sender][j].gTokenBalance;\n          newtime = allTokens[tokid].timestamp + allTokens[tokid].roundDuration;\n          blts = block.timestamp; \n          if ( blts > newtime ) {\n            utokens[w].xBalance = allTokens[tokid].roundSupply;\n            overtime = true;\n          } \n          else {\n            utokens[w].xBalance = userTokens[msg.sender][j].xBalance;\n            overtime = false;\n          }\n        }\n      }\n      etokens[w].tokenId = utokens[w].tokenId;\n      etokens[w].gTokenBalance = utokens[w].gTokenBalance;\n      etokens[w].xBalance = utokens[w].xBalance;\n      etokens[w].blocktimestamp = blts;\n      etokens[w].newtime = newtime;\n      etokens[w].overtime = overtime;\n\n    }\n    return etokens;\n  }\n\n  function transferToken(uint _tokenId, address receiver, uint value) public returns(bool) {\n    UToken memory _tokSender;\n    bool matchFoundSender = false;\n    uint s;\n    uint r;\n    for (s = 0; s < userTokens[msg.sender].length ; s++) {\n      if (userTokens[msg.sender][s].tokenId == _tokenId) {\n        _tokSender = userTokens[msg.sender][s];\n        matchFoundSender = true;\n        break;\n      }\n    }\n    if (matchFoundSender == false){\n      _tokSender = UToken({ tokenId: _tokenId, gTokenBalance: 0, xBalance: allTokens[_tokenId].roundSupply});\n    }\n    \n    if (block.timestamp > (allTokens[_tokenId].timestamp + allTokens[_tokenId].roundDuration * 1 seconds) ) {\n      _tokSender.xBalance = allTokens[_tokenId].roundSupply;\n      uint _newTimestamp = allTokens[_tokenId].timestamp;\n      for (uint k = 0; _newTimestamp < block.timestamp ; k++) {\n        _newTimestamp += allTokens[_tokenId].roundDuration;\n//      _newTimestamp += allTokens[_tokenId].roundDuration * k; // WAS with *k in Ropstein, ARE YOU SURE  ???\n      }\n      allTokens[_tokenId].timestamp=_newTimestamp;\n    }\n    \n    require(_tokSender.xBalance >= value, \"non hai abbastanza token\");\n    UToken memory _tokReceiver;\n    bool matchFoundReceiver = false;\n    for ( r = 0; r < userTokens[receiver].length ; r++) {\n      if (userTokens[receiver][r].tokenId == _tokenId) {\n        _tokReceiver = userTokens[receiver][r];\n        matchFoundReceiver = true;\n        break;\n      }\n    }\n    if ( matchFoundReceiver == false){\n      _tokReceiver= UToken({ tokenId: _tokenId, gTokenBalance: 0, xBalance: allTokens[_tokenId].roundSupply});\n    }\n    _tokSender.xBalance -= value;\n    _tokReceiver.gTokenBalance += value;\n    if (matchFoundSender == true) {\n      userTokens[msg.sender][s] = _tokSender;\n    }\n    else {\n      userTokens[msg.sender].push( UToken({ tokenId: _tokenId, gTokenBalance: 0, xBalance: _tokSender.xBalance}));\n    }\n    if (matchFoundReceiver == true) {\n      userTokens[receiver][r] = _tokReceiver;\n    }\n    else {\n      userTokens[receiver].push( UToken({ tokenId: _tokenId, gTokenBalance: _tokReceiver.gTokenBalance, xBalance: allTokens[_tokenId].roundSupply}));\n    }\n    return true;\n  }\n\n\n\n  function isTokenInGroup(uint tokid, uint gid) private view returns(bool) {\n    for ( uint i = 0; i < daoGroups[gid].tokenIds.length; i++){\n      if ( daoGroups[gid].tokenIds[i] == tokid ){\n        return true;\n      }\n    }\n    return false;\n  }\n\n  \n // obsolete, to be removed. replaced by getToken. Remove it from one call from js  \n  function getGroupNamefromId(uint _id) public view returns(string memory) {\n    return daoGroups[_id].name;\n  }\n\n // obsolete, to be removed. replaced by getToken. Remove it from one call from js  \n  function getGroupAddressfromId(uint _id) public view returns(address[] memory) {\n    return daoGroups[_id].members;\n  }\n\n\n/*  \n*   Tokens Candidates\n*\n*/\n\n\n  // propose token change\n  function changeToken(uint val, string calldata name, uint supply, uint duration, uint gid, uint candtype) public returns(bool) {\n\n    if ( candtype == 0 ) {\n      require(!isAddressInGroup(gid, msg.sender), \"member already present!\");\n      require( invitationLinks[name] == gid, \"link not authorized\" ); \n      require( gid != 0, \"group not authorized\" );\n    } else {\n      require(isAddressInGroup(gid, msg.sender), \"member not allowed!\");\n    }\n\n    // if token is marked as present make sure it really exists and belongs to the right group\n    if ( candtype == 2 ) {\n      require(isTokenInGroup(val, gid), \"token not allowed\");\n    }\n    if (candtype == 3) {\n      require(val <= 10, \"invalid quorum\");\n    }\n\n    uint l = daoGroups[gid].candidateTokenIds.length;\n    uint[] memory candidateTokenIds = new uint[](l+1);\n    \n    for (uint i = 0; i < l; i++) {\n      candidateTokenIds[i] = daoGroups[gid].candidateTokenIds[i];\n       if ( candtype == 0 ) {    \n        require(allCandidateTokens[candidateTokenIds[i]].candidateAddress != msg.sender, \"candidate already added!\");\n      }\n    }\n\n    // generate a new candidate\n    address[] memory vot = new address[](0);\n    allCandidateTokens.push(CandidateToken({\n      id: val,\n      candType: candtype,\n      name: name,\n      roundSupply: supply,\n      roundDuration: duration,\n      candidateAddress: msg.sender,\n      votes: 0,\n      voters: vot\n    }));\n\n    // update candidate list in the group\n/*    for ( uint i = 0; i < l ; i++ ){\n      candidateTokenIds[i] = daoGroups[gid].candidateTokenIds[i];\n    }\n*/    \n    candidateTokenIds[l] = allCandidateTokens.length-1;\n    daoGroups[gid].candidateTokenIds = candidateTokenIds;\n\n    return true;\n\n  }\n\n  // get candidate tokens of a group\n  function getGroupCandidateTokens(uint gid) public view returns(CandidateToken[] memory) {\n    require(isAddressInGroup(gid, msg.sender), \"member not allowed!\" );\n    uint l = daoGroups[gid].candidateTokenIds.length;\n    CandidateToken[] memory candidatetokens = new CandidateToken[](l);\n    for (uint i = 0; i < l; i++) {\n      uint c = daoGroups[gid].candidateTokenIds[i];\n      candidatetokens[i] = allCandidateTokens[c];\n    }\n    return candidatetokens;\n  }\n\n  // vote candidate token and eventually promote the change if quorum is passed\n  function voteCandidateToken(uint gid, uint candTokId, uint vote) public returns(bool) {\n    require(isAddressInGroup(gid, msg.sender), \"member cannot vote!\" );\n\n    // find candidate\n    CandidateToken memory candidatetoken;\n    // check it exists in the group\n    uint l = daoGroups[gid].candidateTokenIds.length;\n    bool candidateTokenFound = false; \n    for (uint i = 0; i < l; i++) {\n      if (daoGroups[gid].candidateTokenIds[i] == candTokId) {\n        candidatetoken = allCandidateTokens[candTokId];\n        candidateTokenFound = true;\n        break;\n      }\n    }\n    require(candidateTokenFound, \"candidate token doesn't exists\");\n\n    // add voter (this would be the same if we merge)\n    uint m = candidatetoken.voters.length;\n    address[] memory v = new address[](m+1);\n    for (uint i = 0; i < m; i++) {\n      require(candidatetoken.voters[i] != msg.sender, \"address already voted!\");\n      v[i]=candidatetoken.voters[i];\n    }\n    v[m]=msg.sender;\n    candidatetoken.voters=v;\n\n    // assign vote   \n    if (vote > 0) {\n      candidatetoken.votes += 1;\n    }\n    \n    // write on chain\n    allCandidateTokens[candTokId] = candidatetoken;\n\n    // check if candidate win\n    uint quorum = getQuorum(gid);\n    if ( candidatetoken.votes > quorum ) {\n      if ( candidatetoken.candType == 0 ) {\n        addAddresstoGroup(gid, candidatetoken.candidateAddress);\n      }       \n      if ( ( candidatetoken.candType == 1 ) || ( candidatetoken.candType == 2 ) ) {\n        createGToken(candidatetoken.id, candidatetoken.name, candidatetoken.roundSupply, candidatetoken.roundDuration, (candidatetoken.candType == 2), gid);\n      }\n      if ( candidatetoken.candType == 3 ) {\n        daoGroups[gid].voteThreshold = candidatetoken.id;  \n      } \n\n/*\n      uint[] memory newCandidateTokenIds;\n      for (uint i = 0; i < l; i++) {\n        if ( daoGroups[gid].candidateTokenIds[i] != candPos ) {\n          newCandidateTokenIds[i] = daoGroups[gid].candidateTokenIds[i];\n        }\n      }\n*/\n      // remove element from candidates array\n      uint[] memory newCandidateTokenIds = new uint[](l-1);\n      uint index;\n      uint k;\n      for (k = 0; k < l; k++) {\n        if ( daoGroups[gid].candidateTokenIds[k] == candTokId ) {\n          index = k;\n          break;\n        }\n      }\n      for (k = 0; k < l; k++) {\n        if ( k < index) {\n          newCandidateTokenIds[k] = daoGroups[gid].candidateTokenIds[k];\n        }\n        if ( k > index) {\n          newCandidateTokenIds[k-1] = daoGroups[gid].candidateTokenIds[k];\n        }\n      }\n      \n      daoGroups[gid].candidateTokenIds = newCandidateTokenIds;\n\n    }\n\n    return true;\n  }\n\n\n\n/*  \n*   Candidates\n*\n*/\n/*\n  function addCandidate(uint _gid, string calldata invitation) public returns(bool) {\n    require( !isAddressInGroup(_gid, msg.sender), \"member already present!\");\n    require( invitationLinks[invitation] == _gid, \"link not authorized\" ); \n    require( _gid != 0, \"group not authorized\" );\n    \n    // check if candidate already present in current candidate list\n    uint l = daoGroups[_gid].candidatesIds.length;\n    uint[] memory candidatesIds = new uint[](l+1);\n    for (uint i = 0; i < l; i++) {\n      candidatesIds[i] = daoGroups[_gid].candidatesIds[i];\n      require(allCandidates[candidatesIds[i]].candidateAddress != msg.sender, \"candidate already added!\");\n    }\n    // generate a new candidate\n    address[] memory vot = new address[](0);\n    allCandidates.push(Candidate({\n      candidateAddress: msg.sender,\n      votes: 0,\n      voters: vot\n    }));\n    // update candidate list in the group\n    candidatesIds[l] = allCandidates.length-1;\n    daoGroups[_gid].candidatesIds = candidatesIds;\n\n    return true;\n  }\n\n  function voteCandidate(uint gid, uint candPos, uint vote) public returns(bool) {\n    require(isAddressInGroup(gid, msg.sender), \"member cannot vote!\" );\n\n    // find candidate \n    Candidate memory candidate;\n    // check if exists\n    uint l = daoGroups[gid].candidatesIds.length;\n    bool candidateFound = false;\n    for (uint i = 0; i < l; i++) {\n      if (daoGroups[gid].candidatesIds[i] == candPos) {\n        candidate = allCandidates[candPos];\n        candidateFound = true;\n        break;\n      }\n    }\n    require(candidateFound, \"candidate address doesn't exists\");\n\n    // add voter\n    uint m = candidate.voters.length;\n    address[] memory v = new address[](m+1);\n    for (uint i = 0; i < m; i++) {\n      require(candidate.voters[i] != msg.sender, \"address already voted!\");\n      v[i]=candidate.voters[i];\n    }\n    v[m]=msg.sender;\n    candidate.voters=v;\n\n    // assign vote\n    if (vote > 0) {\n      candidate.votes += 1;\n    }\n    \n    // write on chain\n    allCandidates[candPos] = candidate;    \n\n    // check if candidate win\n    uint quorum = getQuorum(gid);\n    if ( candidate.votes > quorum ) {\n      addAddresstoGroup(gid, candidate.candidateAddress);\n\n      uint[] memory newCandidatesIds = new uint[](l-1);\n      uint index;\n      uint k;\n      \n      for (k = 0; k < l; k++) {\n        if ( daoGroups[gid].candidatesIds[k] == candPos ) {\n          index = k;\n          break;\n        }\n      }\n      \n      for (k = 0; k < l; k++) {\n        if ( k < index) {\n          newCandidatesIds[k] = daoGroups[gid].candidatesIds[k];\n        }\n        if ( k > index) {\n          newCandidatesIds[k-1] = daoGroups[gid].candidatesIds[k];\n        }\n      }\n      \n      daoGroups[gid].candidatesIds = newCandidatesIds;\n    \n    }\n    return true;\n  }\n  */\n\n  function getQuorum(uint gid) private view returns(uint) {\n    require(isAddressInGroup(gid, msg.sender));\n    return daoGroups[gid].members.length * daoGroups[gid].voteThreshold / 10 ;\n  }\n/*\n  function getGroupCandidates(uint gid) public view returns(Candidate[] memory) {\n    require(isAddressInGroup(gid, msg.sender), \"member cannot vote!\" );\n    uint l = daoGroups[gid].candidatesIds.length;\n    Candidate[] memory candidates = new Candidate[](l);\n    for (uint i = 0; i < l; i++) {\n      uint c = daoGroups[gid].candidatesIds[i];\n      candidates[i] = allCandidates[c];\n    }\n    return candidates;\n  }\n*/\n/*\n*\n*   Group Members\n*/\n\n  function addAddresstoGroup(uint gid, address addr) private returns(bool) {\n    require(!isAddressInGroup(gid, addr), \"member already present!\" );\n    uint l = daoGroups[gid].members.length;\n    address[] memory members = new address[](l+1);\n    for (uint i = 0; i < l; i++) {\n      members[i] = daoGroups[gid].members[i];\n    }\n    members[l] = addr;\n    daoGroups[gid].members = members;\n    return true;\n  }\n\n  function removeMeFromGroup(uint gid) public returns(bool) {\n    require(isAddressInGroup(gid, msg.sender), \"member not in group!\" );\n\n    uint l = daoGroups[gid].members.length;\n    address[] memory members = new address[](l-1);\n    uint index;\n    uint k;\n    for (k = 0; k < l; k++) {\n      if ( daoGroups[gid].members[k] != msg.sender ) {\n        index = k;\n        break;\n      }\n    }\n    for (k = 0; k < l; k++) {\n      if ( k < index) {\n        members[k] = daoGroups[gid].members[k];\n      }\n      if ( k > index) {\n        members[k-1] = daoGroups[gid].members[k];\n      }\n    }\n    daoGroups[gid].members = members;\n    return true;\n  }\n\n\n\n  function isAddressInGroup(uint gid, address addr) private view returns(bool) {\n    bool exists = false;\n    for (uint i = 0; i < daoGroups[gid].members.length; i++) {\n      if( daoGroups[gid].members[i] == addr ) {\n        exists=true;\n        break;\n      }\n    }\n    return exists;\n  }\n\n  function myGroups() public view returns(uint[] memory) {\n    uint lg = daoGroups.length;\n    uint[] memory mygroups;\n    for (uint i = 0; i < lg; i++) {\n      uint lm = daoGroups[i].members.length;\n      for (uint q = 0; q < lm; q++) {\n        if(daoGroups[i].members[q] == msg.sender) {\n          uint gl = mygroups.length;\n          uint[] memory groups = new uint[](gl+1);\n          for (uint w = 0; w < gl; w++) {\n            groups[w] = mygroups[w];\n          }\n          groups[gl] = i;\n          mygroups = groups;\n        }\n      }\n    }\n    return mygroups;\n  }\n\n  function groupNameByInvitation(uint gid, string calldata invitation) public view returns(string memory){\n    require( invitationLinks[invitation] == gid, \"user not authorized\" ); \n    return daoGroups[gid].name;\n  }\n  \n  // names are public\n  function nameOf(address owner) public view returns(string memory) {\n    return names[owner];\n  }\n\n  function nameSet(string calldata name) public returns(bool) {\n    names[msg.sender]=name;\n    return true;\n  }\n\n/*\n*   Round functions that probably should be removed\n*    \n*/\n/*\n  function tellmeNow() public view returns (uint) {\n    return block.timestamp;\n  }\n\n  function resetRound(uint _tokenId, uint _groupId) public returns(bool) {\n    address[] memory _members = daoGroups[_groupId].members;\n    uint l = _members.length;\n    for (uint s = 0; s < l ; s++) {\n      address member = _members[s];\n      uint lu = userTokens[member].length;\n      for (uint w = 0; w < lu; w++) {\n        if (userTokens[member][w].tokenId == _tokenId) {\n          userTokens[member][w].xBalance = allTokens[_tokenId].roundSupply;\n        }\n      }\n    }\n    return true;\n  }\n*/\n}\n",
  "sourcePath": "/home/fabian/kuoricinidao/contracts/polygon/KuoriciniDao.sol",
  "compiler": {
    "name": "solc",
    "version": "0.8.11+commit.d7f03943.Emscripten.clang"
  },
  "schemaVersion": "3.4.5",
  "updatedAt": "2022-07-19T09:27:12.370Z",
  "devdoc": {
    "kind": "dev",
    "methods": {},
    "version": 1
  },
  "userdoc": {
    "kind": "user",
    "methods": {},
    "version": 1
  }
}