{
  "contractName": "KuoriciniDao",
  "abi": [
    {
      "inputs": [],
      "stateMutability": "nonpayable",
      "type": "constructor"
    },
    {
      "anonymous": false,
      "inputs": [
        {
          "indexed": true,
          "internalType": "address",
          "name": "from",
          "type": "address"
        },
        {
          "indexed": true,
          "internalType": "address",
          "name": "to",
          "type": "address"
        },
        {
          "indexed": false,
          "internalType": "uint256",
          "name": "value",
          "type": "uint256"
        }
      ],
      "name": "Transfer",
      "type": "event"
    },
    {
      "anonymous": false,
      "inputs": [
        {
          "indexed": false,
          "internalType": "uint256",
          "name": "id",
          "type": "uint256"
        }
      ],
      "name": "newGroup",
      "type": "event"
    },
    {
      "inputs": [],
      "name": "symbol",
      "outputs": [
        {
          "internalType": "string",
          "name": "",
          "type": "string"
        }
      ],
      "stateMutability": "view",
      "type": "function",
      "constant": true
    },
    {
      "inputs": [
        {
          "internalType": "string",
          "name": "_name",
          "type": "string"
        }
      ],
      "name": "addGroup",
      "outputs": [
        {
          "internalType": "bool",
          "name": "",
          "type": "bool"
        }
      ],
      "stateMutability": "nonpayable",
      "type": "function"
    },
    {
      "inputs": [
        {
          "internalType": "uint256",
          "name": "_id",
          "type": "uint256"
        }
      ],
      "name": "getGroupNamefromId",
      "outputs": [
        {
          "internalType": "string",
          "name": "",
          "type": "string"
        }
      ],
      "stateMutability": "view",
      "type": "function",
      "constant": true
    },
    {
      "inputs": [
        {
          "internalType": "uint256",
          "name": "_id",
          "type": "uint256"
        }
      ],
      "name": "getGroupAddressfromId",
      "outputs": [
        {
          "internalType": "address[]",
          "name": "",
          "type": "address[]"
        }
      ],
      "stateMutability": "view",
      "type": "function",
      "constant": true
    },
    {
      "inputs": [
        {
          "internalType": "uint256",
          "name": "_id",
          "type": "uint256"
        },
        {
          "internalType": "address",
          "name": "_addr",
          "type": "address"
        }
      ],
      "name": "addAddresstoMembers",
      "outputs": [
        {
          "internalType": "bool",
          "name": "",
          "type": "bool"
        }
      ],
      "stateMutability": "nonpayable",
      "type": "function"
    },
    {
      "inputs": [],
      "name": "myGroups",
      "outputs": [
        {
          "internalType": "uint256[]",
          "name": "",
          "type": "uint256[]"
        }
      ],
      "stateMutability": "view",
      "type": "function",
      "constant": true
    },
    {
      "inputs": [
        {
          "internalType": "address",
          "name": "owner",
          "type": "address"
        }
      ],
      "name": "balanceOf",
      "outputs": [
        {
          "internalType": "uint256",
          "name": "",
          "type": "uint256"
        }
      ],
      "stateMutability": "view",
      "type": "function",
      "constant": true
    },
    {
      "inputs": [
        {
          "internalType": "address",
          "name": "owner",
          "type": "address"
        }
      ],
      "name": "nameOf",
      "outputs": [
        {
          "internalType": "string",
          "name": "",
          "type": "string"
        }
      ],
      "stateMutability": "view",
      "type": "function",
      "constant": true
    },
    {
      "inputs": [
        {
          "internalType": "string",
          "name": "name",
          "type": "string"
        }
      ],
      "name": "nameSet",
      "outputs": [
        {
          "internalType": "bool",
          "name": "",
          "type": "bool"
        }
      ],
      "stateMutability": "nonpayable",
      "type": "function"
    },
    {
      "inputs": [
        {
          "internalType": "address",
          "name": "to",
          "type": "address"
        },
        {
          "internalType": "uint256",
          "name": "value",
          "type": "uint256"
        }
      ],
      "name": "transfer",
      "outputs": [
        {
          "internalType": "bool",
          "name": "",
          "type": "bool"
        }
      ],
      "stateMutability": "nonpayable",
      "type": "function"
    }
  ],
  "bytecode": "0x60806040526040518060400160405280600581526020017f4b554f5249000000000000000000000000000000000000000000000000000000815250600390805190602001906200005192919062000136565b503480156200005f57600080fd5b50610dac6000803373ffffffffffffffffffffffffffffffffffffffff1673ffffffffffffffffffffffffffffffffffffffff168152602001908152602001600020819055506040518060400160405280600981526020017f617364727562616c650000000000000000000000000000000000000000000000815250600160003373ffffffffffffffffffffffffffffffffffffffff1673ffffffffffffffffffffffffffffffffffffffff16815260200190815260200160002090805190602001906200012f92919062000136565b506200024b565b828054620001449062000215565b90600052602060002090601f016020900481019282620001685760008555620001b4565b82601f106200018357805160ff1916838001178555620001b4565b82800160010185558215620001b4579182015b82811115620001b357825182559160200191906001019062000196565b5b509050620001c39190620001c7565b5090565b5b80821115620001e2576000816000905550600101620001c8565b5090565b7f4e487b7100000000000000000000000000000000000000000000000000000000600052602260045260246000fd5b600060028204905060018216806200022e57607f821691505b60208210811415620002455762000244620001e6565b5b50919050565b611661806200025b6000396000f3fe608060405234801561001057600080fd5b506004361061009e5760003560e01c8063a9059cbb11610066578063a9059cbb14610181578063bf00eaef146101b1578063c3f93437146101e1578063edeefa31146101ff578063f5c573821461022f5761009e565b8063558f8f04146100a357806370a08231146100d3578063857af37b1461010357806395d89b411461013357806396f714fc14610151575b600080fd5b6100bd60048036038101906100b89190610f39565b61025f565b6040516100ca9190611056565b60405180910390f35b6100ed60048036038101906100e891906110a4565b610312565b6040516100fa91906110e0565b60405180910390f35b61011d60048036038101906101189190610f39565b61035a565b60405161012a9190611194565b60405180910390f35b61013b610411565b6040516101489190611194565b60405180910390f35b61016b600480360381019061016691906111b6565b61049f565b6040516101789190611211565b60405180910390f35b61019b6004803603810190610196919061122c565b610688565b6040516101a89190611211565b60405180910390f35b6101cb60048036038101906101c691906112d1565b610824565b6040516101d89190611211565b60405180910390f35b6101e96109cf565b6040516101f691906113dc565b60405180910390f35b610219600480360381019061021491906112d1565b610bc4565b6040516102269190611211565b60405180910390f35b610249600480360381019061024491906110a4565b610c75565b6040516102569190611194565b60405180910390f35b606060028281548110610275576102746113fe565b5b906000526020600020906002020160010180548060200260200160405190810160405280929190818152602001828054801561030657602002820191906000526020600020905b8160009054906101000a900473ffffffffffffffffffffffffffffffffffffffff1673ffffffffffffffffffffffffffffffffffffffff16815260200190600101908083116102bc575b50505050509050919050565b60008060008373ffffffffffffffffffffffffffffffffffffffff1673ffffffffffffffffffffffffffffffffffffffff168152602001908152602001600020549050919050565b6060600282815481106103705761036f6113fe565b5b9060005260206000209060020201600001805461038c9061145c565b80601f01602080910402602001604051908101604052809291908181526020018280546103b89061145c565b80156104055780601f106103da57610100808354040283529160200191610405565b820191906000526020600020905b8154815290600101906020018083116103e857829003601f168201915b50505050509050919050565b6003805461041e9061145c565b80601f016020809104026020016040519081016040528092919081815260200182805461044a9061145c565b80156104975780601f1061046c57610100808354040283529160200191610497565b820191906000526020600020905b81548152906001019060200180831161047a57829003601f168201915b505050505081565b600080600284815481106104b6576104b56113fe565b5b906000526020600020906002020160010180549050905060006001826104dc91906114bd565b67ffffffffffffffff8111156104f5576104f4611513565b5b6040519080825280602002602001820160405280156105235781602001602082028036833780820191505090505b50905060005b828110156105f35760028681548110610545576105446113fe565b5b90600052602060002090600202016001018181548110610568576105676113fe565b5b9060005260206000200160009054906101000a900473ffffffffffffffffffffffffffffffffffffffff168282815181106105a6576105a56113fe565b5b602002602001019073ffffffffffffffffffffffffffffffffffffffff16908173ffffffffffffffffffffffffffffffffffffffff168152505080806105eb90611542565b915050610529565b5083818381518110610608576106076113fe565b5b602002602001019073ffffffffffffffffffffffffffffffffffffffff16908173ffffffffffffffffffffffffffffffffffffffff16815250508060028681548110610657576106566113fe565b5b9060005260206000209060020201600101908051906020019061067b929190610d46565b5060019250505092915050565b6000816000803373ffffffffffffffffffffffffffffffffffffffff1673ffffffffffffffffffffffffffffffffffffffff16815260200190815260200160002054101561070b576040517f08c379a0000000000000000000000000000000000000000000000000000000008152600401610702906115d7565b60405180910390fd5b816000808573ffffffffffffffffffffffffffffffffffffffff1673ffffffffffffffffffffffffffffffffffffffff168152602001908152602001600020600082825461075991906114bd565b92505081905550816000803373ffffffffffffffffffffffffffffffffffffffff1673ffffffffffffffffffffffffffffffffffffffff16815260200190815260200160002060008282546107ae91906115f7565b925050819055508273ffffffffffffffffffffffffffffffffffffffff163373ffffffffffffffffffffffffffffffffffffffff167fddf252ad1be2c89b69c2b068fc378daa952ba7f163c4a11628f55a4df523b3ef8460405161081291906110e0565b60405180910390a36001905092915050565b600080600167ffffffffffffffff81111561084257610841611513565b5b6040519080825280602002602001820160405280156108705781602001602082028036833780820191505090505b5090503381600081518110610888576108876113fe565b5b602002602001019073ffffffffffffffffffffffffffffffffffffffff16908173ffffffffffffffffffffffffffffffffffffffff16815250506000604051806040016040528086868080601f016020809104026020016040519081016040528093929190818152602001838380828437600081840152601f19601f82011690508083019250505050505050815260200183815250905060028190806001815401808255809150506001900390600052602060002090600202016000909190919091506000820151816000019080519060200190610967929190610dd0565b506020820151816001019080519060200190610984929190610d46565b5050507fea0526610654f7646af00b4e8c21d77ad6ea8ac5141607ffe87ca85bb66385076002805490506040516109bb91906110e0565b60405180910390a160019250505092915050565b606060006002805490509050606060005b82811015610bbb576000600282815481106109fe576109fd6113fe565b5b906000526020600020906002020160010180549050905060005b81811015610ba6573373ffffffffffffffffffffffffffffffffffffffff1660028481548110610a4b57610a4a6113fe565b5b90600052602060002090600202016001018281548110610a6e57610a6d6113fe565b5b9060005260206000200160009054906101000a900473ffffffffffffffffffffffffffffffffffffffff1673ffffffffffffffffffffffffffffffffffffffff161415610b93576000845190506000600182610aca91906114bd565b67ffffffffffffffff811115610ae357610ae2611513565b5b604051908082528060200260200182016040528015610b115781602001602082028036833780820191505090505b50905060005b82811015610b6c57868181518110610b3257610b316113fe565b5b6020026020010151828281518110610b4d57610b4c6113fe565b5b6020026020010181815250508080610b6490611542565b915050610b17565b5084818381518110610b8157610b806113fe565b5b60200260200101818152505080955050505b8080610b9e90611542565b915050610a18565b50508080610bb390611542565b9150506109e0565b50809250505090565b60008282600160003373ffffffffffffffffffffffffffffffffffffffff1673ffffffffffffffffffffffffffffffffffffffff1681526020019081526020016000209190610c14929190610e56565b5060646000803373ffffffffffffffffffffffffffffffffffffffff1673ffffffffffffffffffffffffffffffffffffffff1681526020019081526020016000206000828254610c6491906114bd565b925050819055506001905092915050565b6060600160008373ffffffffffffffffffffffffffffffffffffffff1673ffffffffffffffffffffffffffffffffffffffff1681526020019081526020016000208054610cc19061145c565b80601f0160208091040260200160405190810160405280929190818152602001828054610ced9061145c565b8015610d3a5780601f10610d0f57610100808354040283529160200191610d3a565b820191906000526020600020905b815481529060010190602001808311610d1d57829003601f168201915b50505050509050919050565b828054828255906000526020600020908101928215610dbf579160200282015b82811115610dbe5782518260006101000a81548173ffffffffffffffffffffffffffffffffffffffff021916908373ffffffffffffffffffffffffffffffffffffffff16021790555091602001919060010190610d66565b5b509050610dcc9190610edc565b5090565b828054610ddc9061145c565b90600052602060002090601f016020900481019282610dfe5760008555610e45565b82601f10610e1757805160ff1916838001178555610e45565b82800160010185558215610e45579182015b82811115610e44578251825591602001919060010190610e29565b5b509050610e529190610edc565b5090565b828054610e629061145c565b90600052602060002090601f016020900481019282610e845760008555610ecb565b82601f10610e9d57803560ff1916838001178555610ecb565b82800160010185558215610ecb579182015b82811115610eca578235825591602001919060010190610eaf565b5b509050610ed89190610edc565b5090565b5b80821115610ef5576000816000905550600101610edd565b5090565b600080fd5b600080fd5b6000819050919050565b610f1681610f03565b8114610f2157600080fd5b50565b600081359050610f3381610f0d565b92915050565b600060208284031215610f4f57610f4e610ef9565b5b6000610f5d84828501610f24565b91505092915050565b600081519050919050565b600082825260208201905092915050565b6000819050602082019050919050565b600073ffffffffffffffffffffffffffffffffffffffff82169050919050565b6000610fbd82610f92565b9050919050565b610fcd81610fb2565b82525050565b6000610fdf8383610fc4565b60208301905092915050565b6000602082019050919050565b600061100382610f66565b61100d8185610f71565b935061101883610f82565b8060005b838110156110495781516110308882610fd3565b975061103b83610feb565b92505060018101905061101c565b5085935050505092915050565b600060208201905081810360008301526110708184610ff8565b905092915050565b61108181610fb2565b811461108c57600080fd5b50565b60008135905061109e81611078565b92915050565b6000602082840312156110ba576110b9610ef9565b5b60006110c88482850161108f565b91505092915050565b6110da81610f03565b82525050565b60006020820190506110f560008301846110d1565b92915050565b600081519050919050565b600082825260208201905092915050565b60005b8381101561113557808201518184015260208101905061111a565b83811115611144576000848401525b50505050565b6000601f19601f8301169050919050565b6000611166826110fb565b6111708185611106565b9350611180818560208601611117565b6111898161114a565b840191505092915050565b600060208201905081810360008301526111ae818461115b565b905092915050565b600080604083850312156111cd576111cc610ef9565b5b60006111db85828601610f24565b92505060206111ec8582860161108f565b9150509250929050565b60008115159050919050565b61120b816111f6565b82525050565b60006020820190506112266000830184611202565b92915050565b6000806040838503121561124357611242610ef9565b5b60006112518582860161108f565b925050602061126285828601610f24565b9150509250929050565b600080fd5b600080fd5b600080fd5b60008083601f8401126112915761129061126c565b5b8235905067ffffffffffffffff8111156112ae576112ad611271565b5b6020830191508360018202830111156112ca576112c9611276565b5b9250929050565b600080602083850312156112e8576112e7610ef9565b5b600083013567ffffffffffffffff81111561130657611305610efe565b5b6113128582860161127b565b92509250509250929050565b600081519050919050565b600082825260208201905092915050565b6000819050602082019050919050565b61135381610f03565b82525050565b6000611365838361134a565b60208301905092915050565b6000602082019050919050565b60006113898261131e565b6113938185611329565b935061139e8361133a565b8060005b838110156113cf5781516113b68882611359565b97506113c183611371565b9250506001810190506113a2565b5085935050505092915050565b600060208201905081810360008301526113f6818461137e565b905092915050565b7f4e487b7100000000000000000000000000000000000000000000000000000000600052603260045260246000fd5b7f4e487b7100000000000000000000000000000000000000000000000000000000600052602260045260246000fd5b6000600282049050600182168061147457607f821691505b602082108114156114885761148761142d565b5b50919050565b7f4e487b7100000000000000000000000000000000000000000000000000000000600052601160045260246000fd5b60006114c882610f03565b91506114d383610f03565b9250827fffffffffffffffffffffffffffffffffffffffffffffffffffffffffffffffff038211156115085761150761148e565b5b828201905092915050565b7f4e487b7100000000000000000000000000000000000000000000000000000000600052604160045260246000fd5b600061154d82610f03565b91507fffffffffffffffffffffffffffffffffffffffffffffffffffffffffffffffff8214156115805761157f61148e565b5b600182019050919050565b7f6e6f6e2068616920616262617374616e7a61206b756f72690000000000000000600082015250565b60006115c1601883611106565b91506115cc8261158b565b602082019050919050565b600060208201905081810360008301526115f0816115b4565b9050919050565b600061160282610f03565b915061160d83610f03565b9250828210156116205761161f61148e565b5b82820390509291505056fea26469706673582212205e911d527894e7c0042e35a2666e270315357bcb951987d51e0afec5f5d68f5464736f6c634300080b0033",
  "immutableReferences": {},
  "source": "// SPDX-License-Identifier: MIT\npragma solidity >=0.4.22 <0.9.0;\n//import \"./KuoriciniGroup.sol\";\n\ncontract KuoriciniDao {\n\n  struct DaoGroup {\n    string name;\n    address[] members;\n  }\n\n  mapping (address => uint) balances;\n  mapping (address => string) names;\n  DaoGroup[] daoGroups ;\n  event newGroup(uint id);\n\n  string public symbol=\"KUORI\";\n  event Transfer(address indexed from, address indexed to, uint value);\n\n  constructor() public {\n    balances[msg.sender] = 3500;\n    names[msg.sender] = \"asdrubale\";\n  }\n\n  function addGroup(string calldata _name) public returns(bool){\n    address[] memory addr = new address[](1);\n    addr[0] = msg.sender;\n    DaoGroup memory new_group = DaoGroup({ name: _name, members: addr });\n    daoGroups.push(new_group);\n    emit newGroup(daoGroups.length);\n    return true;\n  }\n\n  function getGroupNamefromId(uint _id) public view returns(string memory) {\n    return daoGroups[_id].name;\n  }\n\n  function getGroupAddressfromId(uint _id) public view returns(address[] memory) {\n    return daoGroups[_id].members;\n  }\n\n  function addAddresstoMembers(uint _id, address _addr) public returns(bool) {\n    uint l = daoGroups[_id].members.length;\n    address[] memory members = new address[](l+1);\n    for (uint i = 0; i < l; i++) {\n      members[i] = daoGroups[_id].members[i];\n    }\n    members[l] = _addr;\n    daoGroups[_id].members = members;\n    return true;\n  }\n\n  function myGroups() public view returns(uint[] memory) {\n    uint lg = daoGroups.length;\n    uint[] memory myGroups;\n    for (uint i = 0; i < lg; i++) {\n      uint lm = daoGroups[i].members.length;\n      for (uint q = 0; q < lm; q++) {\n        if(daoGroups[i].members[q] == msg.sender) {\n          uint gl = myGroups.length;\n          uint[] memory groups = new uint[](gl+1);\n          for (uint w = 0; w < gl; w++) {\n            groups[w] = myGroups[w];\n          }\n          groups[gl] = i;\n          myGroups = groups;\n        }\n      }\n    }\n    return myGroups;\n  }\n\n  function balanceOf(address owner) public view returns(uint) {\n    return balances[owner];\n  }\n\n  function nameOf(address owner) public view returns(string memory) {\n    return names[owner];\n  }\n\n  function nameSet(string calldata name) public returns(bool) {\n    names[msg.sender]=name;\n    balances[msg.sender] += 100;\n    return true;\n  }\n\n  function transfer(address to, uint value) public returns(bool) {\n    require(balances[msg.sender] >= value, \"non hai abbastanza kuori\");\n    balances[to] += value;\n    balances[msg.sender] -= value;\n    emit Transfer(msg.sender, to, value);\n    return true;\n  }\n\n}\n",
  "sourcePath": "/home/fabian/kuoricinidao/contracts/KuoriciniDao.sol",
  "compiler": {
    "name": "solc",
    "version": "0.8.11+commit.d7f03943.Emscripten.clang"
  },
  "schemaVersion": "3.4.5",
  "updatedAt": "2022-03-16T16:59:58.860Z",
  "networkType": "ethereum",
  "devdoc": {
    "kind": "dev",
    "methods": {},
    "version": 1
  },
  "userdoc": {
    "kind": "user",
    "methods": {},
    "version": 1
  }
}