{
  "contractName": "KuoriciniDao",
  "abi": [
    {
      "inputs": [],
      "stateMutability": "nonpayable",
      "type": "constructor"
    },
    {
      "inputs": [
        {
          "internalType": "string",
          "name": "groupName",
          "type": "string"
        }
      ],
      "name": "createGroup",
      "outputs": [
        {
          "internalType": "bool",
          "name": "",
          "type": "bool"
        }
      ],
      "stateMutability": "nonpayable",
      "type": "function"
    },
    {
      "inputs": [
        {
          "internalType": "uint256",
          "name": "gid",
          "type": "uint256"
        }
      ],
      "name": "group",
      "outputs": [
        {
          "components": [
            {
              "internalType": "string",
              "name": "name",
              "type": "string"
            },
            {
              "internalType": "address[]",
              "name": "members",
              "type": "address[]"
            },
            {
              "internalType": "uint256[]",
              "name": "tokenIds",
              "type": "uint256[]"
            }
          ],
          "internalType": "struct KuoriciniDao.DaoGroup",
          "name": "",
          "type": "tuple"
        }
      ],
      "stateMutability": "view",
      "type": "function",
      "constant": true
    },
    {
      "inputs": [],
      "name": "myGroups",
      "outputs": [
        {
          "internalType": "uint256[]",
          "name": "",
          "type": "uint256[]"
        }
      ],
      "stateMutability": "view",
      "type": "function",
      "constant": true
    },
    {
      "inputs": [
        {
          "internalType": "address",
          "name": "addr",
          "type": "address"
        },
        {
          "internalType": "uint256",
          "name": "gid",
          "type": "uint256"
        }
      ],
      "name": "addAddresstoGroup",
      "outputs": [
        {
          "internalType": "bool",
          "name": "",
          "type": "bool"
        }
      ],
      "stateMutability": "nonpayable",
      "type": "function"
    },
    {
      "inputs": [
        {
          "internalType": "string",
          "name": "name",
          "type": "string"
        }
      ],
      "name": "setName",
      "outputs": [
        {
          "internalType": "bool",
          "name": "",
          "type": "bool"
        }
      ],
      "stateMutability": "nonpayable",
      "type": "function"
    },
    {
      "inputs": [
        {
          "internalType": "address",
          "name": "owner",
          "type": "address"
        }
      ],
      "name": "nameOf",
      "outputs": [
        {
          "internalType": "string",
          "name": "",
          "type": "string"
        }
      ],
      "stateMutability": "view",
      "type": "function",
      "constant": true
    },
    {
      "inputs": [
        {
          "internalType": "string",
          "name": "name",
          "type": "string"
        },
        {
          "internalType": "uint256",
          "name": "supply",
          "type": "uint256"
        },
        {
          "internalType": "uint256",
          "name": "duration",
          "type": "uint256"
        },
        {
          "internalType": "uint256",
          "name": "gid",
          "type": "uint256"
        }
      ],
      "name": "createGToken",
      "outputs": [
        {
          "internalType": "bool",
          "name": "",
          "type": "bool"
        }
      ],
      "stateMutability": "nonpayable",
      "type": "function"
    },
    {
      "inputs": [
        {
          "internalType": "uint256",
          "name": "gid",
          "type": "uint256"
        }
      ],
      "name": "getUserTokens",
      "outputs": [
        {
          "components": [
            {
              "internalType": "uint256",
              "name": "tokenId",
              "type": "uint256"
            },
            {
              "internalType": "uint256",
              "name": "balance",
              "type": "uint256"
            },
            {
              "internalType": "uint256",
              "name": "xbalance",
              "type": "uint256"
            }
          ],
          "internalType": "struct KuoriciniDao.UToken[]",
          "name": "",
          "type": "tuple[]"
        }
      ],
      "stateMutability": "view",
      "type": "function",
      "constant": true
    },
    {
      "inputs": [
        {
          "internalType": "uint256",
          "name": "tokId",
          "type": "uint256"
        },
        {
          "internalType": "uint256",
          "name": "gid",
          "type": "uint256"
        }
      ],
      "name": "getToken",
      "outputs": [
        {
          "components": [
            {
              "internalType": "string",
              "name": "name",
              "type": "string"
            },
            {
              "internalType": "uint256",
              "name": "roundSupply",
              "type": "uint256"
            },
            {
              "internalType": "uint256",
              "name": "roundDuration",
              "type": "uint256"
            },
            {
              "internalType": "uint256",
              "name": "timestamp",
              "type": "uint256"
            }
          ],
          "internalType": "struct KuoriciniDao.GToken",
          "name": "",
          "type": "tuple"
        }
      ],
      "stateMutability": "view",
      "type": "function",
      "constant": true
    },
    {
      "inputs": [
        {
          "internalType": "address",
          "name": "receiver",
          "type": "address"
        },
        {
          "internalType": "uint256",
          "name": "tokid",
          "type": "uint256"
        },
        {
          "internalType": "uint256",
          "name": "qty",
          "type": "uint256"
        },
        {
          "internalType": "uint256",
          "name": "gid",
          "type": "uint256"
        }
      ],
      "name": "transferToken",
      "outputs": [
        {
          "internalType": "bool",
          "name": "",
          "type": "bool"
        }
      ],
      "stateMutability": "nonpayable",
      "type": "function"
    }
  ],
  "bytecode": "0x608060405234801561001057600080fd5b506127da806100206000396000f3fe608060405234801561001057600080fd5b506004361061009e5760003560e01c8063c47f002711610066578063c47f002714610181578063d17bd40b146101b1578063dc2ddcae146101e1578063dd9bb62614610211578063f5c57382146102415761009e565b80630bd0e7fa146100a35780635af18a60146100d35780635cfb429b14610103578063a4fd3cea14610133578063c3f9343714610163575b600080fd5b6100bd60048036038101906100b89190611c0c565b610271565b6040516100ca9190611ede565b60405180910390f35b6100ed60048036038101906100e89190611f65565b61046e565b6040516100fa9190612008565b60405180910390f35b61011d6004803603810190610118919061204f565b6105fc565b60405161012a9190612008565b60405180910390f35b61014d6004803603810190610148919061208f565b610787565b60405161015a9190612132565b60405180910390f35b61016b6108bd565b60405161017891906121c3565b60405180910390f35b61019b600480360381019061019691906121e5565b610952565b6040516101a89190612008565b60405180910390f35b6101cb60048036038101906101c69190611c0c565b6109ad565b6040516101d89190612323565b60405180910390f35b6101fb60048036038101906101f691906121e5565b610d6f565b6040516102089190612008565b60405180910390f35b61022b60048036038101906102269190612345565b610f74565b6040516102389190612008565b60405180910390f35b61025b600480360381019061025691906123ac565b6116f1565b6040516102689190612423565b60405180910390f35b610279611962565b61028333836117c2565b6102c2576040517f08c379a00000000000000000000000000000000000000000000000000000000081526004016102b990612491565b60405180910390fd5b600082815481106102d6576102d56124b1565b5b90600052602060002090600302016040518060600160405290816000820180546102ff9061250f565b80601f016020809104026020016040519081016040528092919081815260200182805461032b9061250f565b80156103785780601f1061034d57610100808354040283529160200191610378565b820191906000526020600020905b81548152906001019060200180831161035b57829003601f168201915b505050505081526020016001820180548060200260200160405190810160405280929190818152602001828054801561040657602002820191906000526020600020905b8160009054906101000a900473ffffffffffffffffffffffffffffffffffffffff1673ffffffffffffffffffffffffffffffffffffffff16815260200190600101908083116103bc575b505050505081526020016002820180548060200260200160405190810160405280929190818152602001828054801561045e57602002820191906000526020600020905b81548152602001906001019080831161044a575b5050505050815250509050919050565b600061047a33836117c2565b6104b9576040517f08c379a00000000000000000000000000000000000000000000000000000000081526004016104b090612491565b60405180910390fd5b6000604051806080016040528088888080601f016020809104026020016040519081016040528093929190818152602001838380828437600081840152601f19601f8201169050808301925050505050505081526020018681526020018581526020014281525090506001819080600181540180825580915050600190039060005260206000209060040201600090919091909150600082015181600001908051906020019061056a929190611983565b50602082015181600101556040820151816002015560608201518160030155505060006001805490509050600084815481106105a9576105a86124b1565b5b90600052602060002090600302016002016001826105c79190612570565b908060018154018082558091505060019003906000526020600020016000909190919091505560019250505095945050505050565b600061060833836117c2565b610647576040517f08c379a000000000000000000000000000000000000000000000000000000000815260040161063e90612491565b60405180910390fd5b61065183836117c2565b15610691576040517f08c379a0000000000000000000000000000000000000000000000000000000008152600401610688906125f0565b60405180910390fd5b600082815481106106a5576106a46124b1565b5b9060005260206000209060030201600101839080600181540180825580915050600190039060005260206000200160009091909190916101000a81548173ffffffffffffffffffffffffffffffffffffffff021916908373ffffffffffffffffffffffffffffffffffffffff160217905550600360008473ffffffffffffffffffffffffffffffffffffffff1673ffffffffffffffffffffffffffffffffffffffff1681526020019081526020016000208290806001815401808255809150506001900390600052602060002001600090919091909150556001905092915050565b61078f611a09565b61079933836117c2565b6107d8576040517f08c379a00000000000000000000000000000000000000000000000000000000081526004016107cf90612491565b60405180910390fd5b600183815481106107ec576107eb6124b1565b5b90600052602060002090600402016040518060800160405290816000820180546108159061250f565b80601f01602080910402602001604051908101604052809291908181526020018280546108419061250f565b801561088e5780601f106108635761010080835404028352916020019161088e565b820191906000526020600020905b81548152906001019060200180831161087157829003601f168201915b505050505081526020016001820154815260200160028201548152602001600382015481525050905092915050565b6060600360003373ffffffffffffffffffffffffffffffffffffffff1673ffffffffffffffffffffffffffffffffffffffff16815260200190815260200160002080548060200260200160405190810160405280929190818152602001828054801561094857602002820191906000526020600020905b815481526020019060010190808311610934575b5050505050905090565b60008282600260003373ffffffffffffffffffffffffffffffffffffffff1673ffffffffffffffffffffffffffffffffffffffff16815260200190815260200160002091906109a2929190611a31565b506001905092915050565b60606109b933836117c2565b6109f8576040517f08c379a00000000000000000000000000000000000000000000000000000000081526004016109ef90612491565b60405180910390fd5b6000808381548110610a0d57610a0c6124b1565b5b90600052602060002090600302016002018054905090506000600460003373ffffffffffffffffffffffffffffffffffffffff1673ffffffffffffffffffffffffffffffffffffffff16815260200190815260200160002080549050905060008267ffffffffffffffff811115610a8757610a86612610565b5b604051908082528060200260200182016040528015610ac057816020015b610aad611ab7565b815260200190600190039081610aa55790505b50905060005b83811015610d63576000808781548110610ae357610ae26124b1565b5b90600052602060002090600302016002018281548110610b0657610b056124b1565b5b9060005260206000200154905060405180606001604052808281526020016000815260200160018381548110610b3f57610b3e6124b1565b5b906000526020600020906004020160010154815250838381518110610b6757610b666124b1565b5b602002602001018190525060005b84811015610d4e5781600460003373ffffffffffffffffffffffffffffffffffffffff1673ffffffffffffffffffffffffffffffffffffffff1681526020019081526020016000208281548110610bcf57610bce6124b1565b5b9060005260206000209060030201600001541415610d3b57600460003373ffffffffffffffffffffffffffffffffffffffff1673ffffffffffffffffffffffffffffffffffffffff1681526020019081526020016000208181548110610c3857610c376124b1565b5b90600052602060002090600302016040518060600160405290816000820154815260200160018201548152602001600282015481525050848481518110610c8257610c816124b1565b5b6020026020010181905250600060018381548110610ca357610ca26124b1565b5b90600052602060002090600402016002015460018481548110610cc957610cc86124b1565b5b906000526020600020906004020160030154610ce5919061263f565b905080421115610d395760018381548110610d0357610d026124b1565b5b906000526020600020906004020160010154858581518110610d2857610d276124b1565b5b602002602001015160400181815250505b505b8080610d4690612695565b915050610b75565b50508080610d5b90612695565b915050610ac6565b50809350505050919050565b6000610d79611962565b83838080601f016020809104026020016040519081016040528093929190818152602001838380828437600081840152601f19601f8201169050808301925050505050505081600001819052506000600167ffffffffffffffff811115610de357610de2612610565b5b604051908082528060200260200182016040528015610e115781602001602082028036833780820191505090505b5090503381600081518110610e2957610e286124b1565b5b602002602001019073ffffffffffffffffffffffffffffffffffffffff16908173ffffffffffffffffffffffffffffffffffffffff168152505080826020018190525060008290806001815401808255809150506001900390600052602060002090600302016000909190919091506000820151816000019080519060200190610eb4929190611983565b506020820151816001019080519060200190610ed1929190611ad8565b506040820151816002019080519060200190610eee929190611b62565b505050600360003373ffffffffffffffffffffffffffffffffffffffff1673ffffffffffffffffffffffffffffffffffffffff1681526020019081526020016000206001600080549050610f429190612570565b908060018154018082558091505060019003906000526020600020016000909190919091505560019250505092915050565b6000610f8033836117c2565b610fbf576040517f08c379a0000000000000000000000000000000000000000000000000000000008152600401610fb690612491565b60405180910390fd5b610fc985836117c2565b611008576040517f08c379a0000000000000000000000000000000000000000000000000000000008152600401610fff90612491565b60405180910390fd5b61101284836118b8565b611051576040517f08c379a000000000000000000000000000000000000000000000000000000000815260040161104890612491565b60405180910390fd5b600060018581548110611067576110666124b1565b5b9060005260206000209060040201600101549050600080600190505b600460003373ffffffffffffffffffffffffffffffffffffffff1673ffffffffffffffffffffffffffffffffffffffff168152602001908152602001600020805490508210156111b85786600460003373ffffffffffffffffffffffffffffffffffffffff1673ffffffffffffffffffffffffffffffffffffffff168152602001908152602001600020838154811061111f5761111e6124b1565b5b90600052602060002090600302016000015414156111a557600460003373ffffffffffffffffffffffffffffffffffffffff1673ffffffffffffffffffffffffffffffffffffffff1681526020019081526020016000208281548110611188576111876124b1565b5b9060005260206000209060030201600201549250600090506111b8565b81806111b090612695565b925050611083565b60018088815481106111cd576111cc6124b1565b5b9060005260206000209060040201600201546111e991906126de565b600188815481106111fd576111fc6124b1565b5b906000526020600020906004020160030154611219919061263f565b4211156112f05760018781548110611234576112336124b1565b5b906000526020600020906004020160010154925060006001888154811061125e5761125d6124b1565b5b906000526020600020906004020160030154905060005b428210156112c35760018981548110611291576112906124b1565b5b906000526020600020906004020160020154826112ae919061263f565b915080806112bb90612695565b915050611275565b5080600189815481106112d9576112d86124b1565b5b906000526020600020906004020160030181905550505b858311611332576040517f08c379a000000000000000000000000000000000000000000000000000000000815260040161132990612784565b60405180910390fd5b6000806000600190505b600460008c73ffffffffffffffffffffffffffffffffffffffff1673ffffffffffffffffffffffffffffffffffffffff168152602001908152602001600020805490508210156114715789600460008d73ffffffffffffffffffffffffffffffffffffffff1673ffffffffffffffffffffffffffffffffffffffff16815260200190815260200160002083815481106113d8576113d76124b1565b5b906000526020600020906003020160000154141561145e57600460008c73ffffffffffffffffffffffffffffffffffffffff1673ffffffffffffffffffffffffffffffffffffffff1681526020019081526020016000208281548110611441576114406124b1565b5b906000526020600020906003020160010154925060009050611471565b818061146990612695565b92505061133c565b888661147d9190612570565b9550888361148b919061263f565b9250831561153c57600460003373ffffffffffffffffffffffffffffffffffffffff1673ffffffffffffffffffffffffffffffffffffffff16815260200190815260200160002060405180606001604052808c81526020016000815260200188815250908060018154018082558091505060019003906000526020600020906003020160009091909190915060008201518160000155602082015181600101556040820151816002015550506115a4565b85600460003373ffffffffffffffffffffffffffffffffffffffff1673ffffffffffffffffffffffffffffffffffffffff168152602001908152602001600020868154811061158e5761158d6124b1565b5b9060005260206000209060030201600201819055505b801561167757600460008c73ffffffffffffffffffffffffffffffffffffffff1673ffffffffffffffffffffffffffffffffffffffff16815260200190815260200160002060405180606001604052808c815260200185815260200160018d81548110611614576116136124b1565b5b906000526020600020906004020160010154815250908060018154018082558091505060019003906000526020600020906003020160009091909190915060008201518160000155602082015181600101556040820151816002015550506116df565b82600460008d73ffffffffffffffffffffffffffffffffffffffff1673ffffffffffffffffffffffffffffffffffffffff16815260200190815260200160002083815481106116c9576116c86124b1565b5b9060005260206000209060030201600101819055505b60019650505050505050949350505050565b6060600260008373ffffffffffffffffffffffffffffffffffffffff1673ffffffffffffffffffffffffffffffffffffffff168152602001908152602001600020805461173d9061250f565b80601f01602080910402602001604051908101604052809291908181526020018280546117699061250f565b80156117b65780601f1061178b576101008083540402835291602001916117b6565b820191906000526020600020905b81548152906001019060200180831161179957829003601f168201915b50505050509050919050565b600080600090505b600083815481106117de576117dd6124b1565b5b9060005260206000209060030201600101805490508110156118ac578373ffffffffffffffffffffffffffffffffffffffff1660008481548110611825576118246124b1565b5b90600052602060002090600302016001018281548110611848576118476124b1565b5b9060005260206000200160009054906101000a900473ffffffffffffffffffffffffffffffffffffffff1673ffffffffffffffffffffffffffffffffffffffff1614156118995760019150506118b2565b80806118a490612695565b9150506117ca565b50600090505b92915050565b600080600090505b600083815481106118d4576118d36124b1565b5b906000526020600020906003020160020180549050811015611956578360008481548110611905576119046124b1565b5b90600052602060002090600302016002018281548110611928576119276124b1565b5b9060005260206000200154141561194357600191505061195c565b808061194e90612695565b9150506118c0565b50600090505b92915050565b60405180606001604052806060815260200160608152602001606081525090565b82805461198f9061250f565b90600052602060002090601f0160209004810192826119b157600085556119f8565b82601f106119ca57805160ff19168380011785556119f8565b828001600101855582156119f8579182015b828111156119f75782518255916020019190600101906119dc565b5b509050611a059190611baf565b5090565b6040518060800160405280606081526020016000815260200160008152602001600081525090565b828054611a3d9061250f565b90600052602060002090601f016020900481019282611a5f5760008555611aa6565b82601f10611a7857803560ff1916838001178555611aa6565b82800160010185558215611aa6579182015b82811115611aa5578235825591602001919060010190611a8a565b5b509050611ab39190611baf565b5090565b60405180606001604052806000815260200160008152602001600081525090565b828054828255906000526020600020908101928215611b51579160200282015b82811115611b505782518260006101000a81548173ffffffffffffffffffffffffffffffffffffffff021916908373ffffffffffffffffffffffffffffffffffffffff16021790555091602001919060010190611af8565b5b509050611b5e9190611baf565b5090565b828054828255906000526020600020908101928215611b9e579160200282015b82811115611b9d578251825591602001919060010190611b82565b5b509050611bab9190611baf565b5090565b5b80821115611bc8576000816000905550600101611bb0565b5090565b600080fd5b600080fd5b6000819050919050565b611be981611bd6565b8114611bf457600080fd5b50565b600081359050611c0681611be0565b92915050565b600060208284031215611c2257611c21611bcc565b5b6000611c3084828501611bf7565b91505092915050565b600081519050919050565b600082825260208201905092915050565b60005b83811015611c73578082015181840152602081019050611c58565b83811115611c82576000848401525b50505050565b6000601f19601f8301169050919050565b6000611ca482611c39565b611cae8185611c44565b9350611cbe818560208601611c55565b611cc781611c88565b840191505092915050565b600081519050919050565b600082825260208201905092915050565b6000819050602082019050919050565b600073ffffffffffffffffffffffffffffffffffffffff82169050919050565b6000611d2982611cfe565b9050919050565b611d3981611d1e565b82525050565b6000611d4b8383611d30565b60208301905092915050565b6000602082019050919050565b6000611d6f82611cd2565b611d798185611cdd565b9350611d8483611cee565b8060005b83811015611db5578151611d9c8882611d3f565b9750611da783611d57565b925050600181019050611d88565b5085935050505092915050565b600081519050919050565b600082825260208201905092915050565b6000819050602082019050919050565b611df781611bd6565b82525050565b6000611e098383611dee565b60208301905092915050565b6000602082019050919050565b6000611e2d82611dc2565b611e378185611dcd565b9350611e4283611dde565b8060005b83811015611e73578151611e5a8882611dfd565b9750611e6583611e15565b925050600181019050611e46565b5085935050505092915050565b60006060830160008301518482036000860152611e9d8282611c99565b91505060208301518482036020860152611eb78282611d64565b91505060408301518482036040860152611ed18282611e22565b9150508091505092915050565b60006020820190508181036000830152611ef88184611e80565b905092915050565b600080fd5b600080fd5b600080fd5b60008083601f840112611f2557611f24611f00565b5b8235905067ffffffffffffffff811115611f4257611f41611f05565b5b602083019150836001820283011115611f5e57611f5d611f0a565b5b9250929050565b600080600080600060808688031215611f8157611f80611bcc565b5b600086013567ffffffffffffffff811115611f9f57611f9e611bd1565b5b611fab88828901611f0f565b95509550506020611fbe88828901611bf7565b9350506040611fcf88828901611bf7565b9250506060611fe088828901611bf7565b9150509295509295909350565b60008115159050919050565b61200281611fed565b82525050565b600060208201905061201d6000830184611ff9565b92915050565b61202c81611d1e565b811461203757600080fd5b50565b60008135905061204981612023565b92915050565b6000806040838503121561206657612065611bcc565b5b60006120748582860161203a565b925050602061208585828601611bf7565b9150509250929050565b600080604083850312156120a6576120a5611bcc565b5b60006120b485828601611bf7565b92505060206120c585828601611bf7565b9150509250929050565b600060808301600083015184820360008601526120ec8282611c99565b91505060208301516121016020860182611dee565b5060408301516121146040860182611dee565b5060608301516121276060860182611dee565b508091505092915050565b6000602082019050818103600083015261214c81846120cf565b905092915050565b600082825260208201905092915050565b600061217082611dc2565b61217a8185612154565b935061218583611dde565b8060005b838110156121b657815161219d8882611dfd565b97506121a883611e15565b925050600181019050612189565b5085935050505092915050565b600060208201905081810360008301526121dd8184612165565b905092915050565b600080602083850312156121fc576121fb611bcc565b5b600083013567ffffffffffffffff81111561221a57612219611bd1565b5b61222685828601611f0f565b92509250509250929050565b600081519050919050565b600082825260208201905092915050565b6000819050602082019050919050565b6060820160008201516122746000850182611dee565b5060208201516122876020850182611dee565b50604082015161229a6040850182611dee565b50505050565b60006122ac838361225e565b60608301905092915050565b6000602082019050919050565b60006122d082612232565b6122da818561223d565b93506122e58361224e565b8060005b838110156123165781516122fd88826122a0565b9750612308836122b8565b9250506001810190506122e9565b5085935050505092915050565b6000602082019050818103600083015261233d81846122c5565b905092915050565b6000806000806080858703121561235f5761235e611bcc565b5b600061236d8782880161203a565b945050602061237e87828801611bf7565b935050604061238f87828801611bf7565b92505060606123a087828801611bf7565b91505092959194509250565b6000602082840312156123c2576123c1611bcc565b5b60006123d08482850161203a565b91505092915050565b600082825260208201905092915050565b60006123f582611c39565b6123ff81856123d9565b935061240f818560208601611c55565b61241881611c88565b840191505092915050565b6000602082019050818103600083015261243d81846123ea565b905092915050565b7f75736572206e6f7420617574686f72697a656400000000000000000000000000600082015250565b600061247b6013836123d9565b915061248682612445565b602082019050919050565b600060208201905081810360008301526124aa8161246e565b9050919050565b7f4e487b7100000000000000000000000000000000000000000000000000000000600052603260045260246000fd5b7f4e487b7100000000000000000000000000000000000000000000000000000000600052602260045260246000fd5b6000600282049050600182168061252757607f821691505b6020821081141561253b5761253a6124e0565b5b50919050565b7f4e487b7100000000000000000000000000000000000000000000000000000000600052601160045260246000fd5b600061257b82611bd6565b915061258683611bd6565b92508282101561259957612598612541565b5b828203905092915050565b7f6164647265737320616c72656164792070726573656e74000000000000000000600082015250565b60006125da6017836123d9565b91506125e5826125a4565b602082019050919050565b60006020820190508181036000830152612609816125cd565b9050919050565b7f4e487b7100000000000000000000000000000000000000000000000000000000600052604160045260246000fd5b600061264a82611bd6565b915061265583611bd6565b9250827fffffffffffffffffffffffffffffffffffffffffffffffffffffffffffffffff0382111561268a57612689612541565b5b828201905092915050565b60006126a082611bd6565b91507fffffffffffffffffffffffffffffffffffffffffffffffffffffffffffffffff8214156126d3576126d2612541565b5b600182019050919050565b60006126e982611bd6565b91506126f483611bd6565b9250817fffffffffffffffffffffffffffffffffffffffffffffffffffffffffffffffff048311821515161561272d5761272c612541565b5b828202905092915050565b7f6e6f6e2068616920616262617374616e7a6120746f6b656e0000000000000000600082015250565b600061276e6018836123d9565b915061277982612738565b602082019050919050565b6000602082019050818103600083015261279d81612761565b905091905056fea26469706673582212206718b4c1a5d0b0ae70cf6a6af4142442db112507a4382d8acbf61f7b74946b0264736f6c634300080b0033",
  "immutableReferences": {},
  "source": "// SPDX-License-Identifier: MIT\npragma solidity >=0.4.22 <0.9.0;\n\ncontract KuoriciniDao {\n\nstruct DaoGroup {\n  string name;\n  address[] members;\n  uint[] tokenIds;\n}\n\nstruct GToken {\n  string name;\n  uint roundSupply;\n  uint roundDuration;\n  uint timestamp;\n}\n\nstruct UToken {\n  uint tokenId;\n  uint balance;\n  uint xbalance;\n}\n\nDaoGroup[] daoGroups;\nGToken[] allTokens;\n\nmapping (address => string) names;\nmapping (address => uint[] ) userGroups;\nmapping (address => UToken[] ) userTokens;\n\nconstructor() {\n}\n\nfunction createGroup(string calldata groupName) public returns(bool){\n  DaoGroup memory newGroup;\n  newGroup.name=groupName;\n  address[] memory _members = new address[](1);\n  _members[0]=msg.sender;\n  newGroup.members=_members;\n  daoGroups.push(newGroup);\n  userGroups[msg.sender].push(daoGroups.length-1);\n  return true;\n}\n\nfunction group(uint gid) public view returns(DaoGroup memory){\n  require(isAddressInGroup(msg.sender, gid), \"user not authorized\"); \n  return daoGroups[gid];\n}\n\nfunction myGroups() public view returns(uint[] memory) {\n  return userGroups[msg.sender];\n}\n\nfunction addAddresstoGroup(address addr, uint gid) public returns(bool){\n  require(isAddressInGroup(msg.sender, gid), \"user not authorized\"); \n  require(!isAddressInGroup(addr, gid), \"address already present\"); \n  daoGroups[gid].members.push(addr);\n  userGroups[addr].push(gid);\n  return true;\n} \n\nfunction isAddressInGroup(address addr, uint gid) private view returns(bool) {\n  for ( uint i = 0; i < daoGroups[gid].members.length; i++){\n    if ( daoGroups[gid].members[i] == addr ){\n      return true;\n    }\n  }\n  return false;\n}\n\nfunction setName(string calldata name) public returns(bool){\n  names[msg.sender]=name;\n  return true;\n}\n\nfunction nameOf(address owner) public view returns(string memory) {\n  return names[owner];\n}\n\n\n\n/*\n* Tokens\n*/\n\nfunction createGToken(string calldata name, uint supply, uint duration, uint gid) public returns(bool){\n  require(isAddressInGroup(msg.sender, gid), \"user not authorized\"); \n  GToken memory newToken = GToken ({\n    name: name,\n    roundSupply: supply,\n    roundDuration: duration,\n    timestamp: block.timestamp\n  });\n  allTokens.push(newToken);\n  uint l = allTokens.length;\n  daoGroups[gid].tokenIds.push(l-1);\n  return true;\n}\n\nfunction getUserTokens(uint gid) public view returns(UToken[] memory) {\n  require(isAddressInGroup(msg.sender, gid), \"user not authorized\"); \n\n  uint l = daoGroups[gid].tokenIds.length;\n  uint m = userTokens[msg.sender].length;\n  UToken[] memory utokens = new UToken[](l);\n\n  for ( uint i=0; i < l; i++ ) {  //ciclo tutti i token del gruppo\n    uint tokId = daoGroups[gid].tokenIds[i];\n    utokens[i] = UToken ({ tokenId: tokId, balance: 0, xbalance: allTokens[tokId].roundSupply });\n    for ( uint k=0; k < m ; k++ ){ // ciclo tutti i token dell'utente\n      if ( userTokens[msg.sender][k].tokenId == tokId ) {\n        utokens[i] = userTokens[msg.sender][k];\n\n        uint newtime = allTokens[tokId].timestamp + allTokens[tokId].roundDuration;\n        if ( block.timestamp > newtime ) {\n          utokens[i].xbalance = allTokens[tokId].roundSupply;\n        }\n      }\n    }\n  }\n  return utokens;\n}\n\nfunction getToken(uint tokId, uint gid) public view returns(GToken memory) {\n  require(isAddressInGroup(msg.sender, gid), \"user not authorized\"); \n  return allTokens[tokId];\n}\n\nfunction transferToken(address receiver, uint tokid, uint qty, uint gid) public returns(bool) {\n  require(isAddressInGroup(msg.sender, gid), \"user not authorized\"); \n  require(isAddressInGroup(receiver, gid), \"user not authorized\"); \n  require(isTokenInGroup(tokid, gid), \"user not authorized\"); \n\n  // retrieve sender usertoken if exists, senderxbalance\n  uint senderxbalance = allTokens[tokid].roundSupply;\n  uint senderPos = 0;\n  bool senderCreate = true;\n\n  for ( senderPos; senderPos < userTokens[msg.sender].length; senderPos++ ){\n    if ( userTokens[msg.sender][senderPos].tokenId == tokid ) {\n      senderxbalance = userTokens[msg.sender][senderPos].xbalance;\n      senderCreate = false;\n      break;\n    }\n  }\n\n  // check if cycle is renewed and eventually write on chain\n  if ( block.timestamp > (allTokens[tokid].timestamp + allTokens[tokid].roundDuration * 1 seconds) ) {\n    senderxbalance = allTokens[tokid].roundSupply;\n    uint newtimestamp = allTokens[tokid].timestamp;\n    for ( uint k = 0 ; newtimestamp < block.timestamp; k++ ) {\n      newtimestamp += allTokens[tokid].roundDuration;\n    }\n    allTokens[tokid].timestamp = newtimestamp;\n  }\n\n  require(senderxbalance > qty, \"non hai abbastanza token\");\n\n  // retrieve receiver usertoken if exists, receiverbalance\n  uint receiverbalance = 0;\n  uint receiverPos = 0;\n  bool receiverCreate = true;\n\n  for ( receiverPos; receiverPos < userTokens[receiver].length; receiverPos++ ){\n    if ( userTokens[receiver][receiverPos].tokenId == tokid ) {\n      receiverbalance = userTokens[receiver][receiverPos].balance;\n      receiverCreate = false;\n      break;\n    }\n  }\n\n  // transaction\n  senderxbalance -= qty;\n  receiverbalance += qty;\n\n  // write on blockchain\n  if ( senderCreate ) {\n    userTokens[msg.sender].push( UToken({ tokenId: tokid, balance: 0, xbalance: senderxbalance }));\n  } else {\n    userTokens[msg.sender][senderPos].xbalance = senderxbalance;\n  }\n  if ( receiverCreate ) {\n    userTokens[receiver].push( UToken({ tokenId: tokid, balance: receiverbalance, xbalance: allTokens[tokid].roundSupply }));\n  } else {\n    userTokens[receiver][receiverPos].balance = receiverbalance;\n  }\n\n  return true;\n}\n\nfunction isTokenInGroup(uint tokid, uint gid) private view returns(bool) {\n  for ( uint i = 0; i < daoGroups[gid].tokenIds.length; i++){\n    if ( daoGroups[gid].tokenIds[i] == tokid ){\n      return true;\n    }\n  }\n  return false;\n}\n\n\n}\n",
  "sourcePath": "/home/fabian/kuoricinidao/contracts/KuoriciniDao.sol",
  "compiler": {
    "name": "solc",
    "version": "0.8.11+commit.d7f03943.Emscripten.clang"
  },
  "schemaVersion": "3.4.4",
  "updatedAt": "2022-06-08T08:26:10.393Z",
  "networkType": "ethereum",
  "devdoc": {
    "kind": "dev",
    "methods": {},
    "version": 1
  },
  "userdoc": {
    "kind": "user",
    "methods": {},
    "version": 1
  }
}