{
  "contractName": "KuoriciniDao",
  "abi": [
    {
      "inputs": [],
      "stateMutability": "nonpayable",
      "type": "constructor"
    },
    {
      "anonymous": false,
      "inputs": [
        {
          "indexed": true,
          "internalType": "address",
          "name": "from",
          "type": "address"
        },
        {
          "indexed": true,
          "internalType": "address",
          "name": "to",
          "type": "address"
        },
        {
          "indexed": false,
          "internalType": "uint256",
          "name": "value",
          "type": "uint256"
        }
      ],
      "name": "Transfer",
      "type": "event"
    },
    {
      "inputs": [],
      "name": "symbol",
      "outputs": [
        {
          "internalType": "string",
          "name": "",
          "type": "string"
        }
      ],
      "stateMutability": "view",
      "type": "function",
      "constant": true
    },
    {
      "inputs": [
        {
          "internalType": "string",
          "name": "groupName",
          "type": "string"
        }
      ],
      "name": "createGroup",
      "outputs": [
        {
          "internalType": "bool",
          "name": "",
          "type": "bool"
        }
      ],
      "stateMutability": "nonpayable",
      "type": "function"
    },
    {
      "inputs": [],
      "name": "allGroups",
      "outputs": [
        {
          "components": [
            {
              "internalType": "string",
              "name": "name",
              "type": "string"
            },
            {
              "internalType": "address[]",
              "name": "members",
              "type": "address[]"
            }
          ],
          "internalType": "struct KuoriciniDao.DaoGroup[]",
          "name": "",
          "type": "tuple[]"
        }
      ],
      "stateMutability": "view",
      "type": "function",
      "constant": true
    },
    {
      "inputs": [
        {
          "internalType": "uint256",
          "name": "gid",
          "type": "uint256"
        }
      ],
      "name": "group",
      "outputs": [
        {
          "components": [
            {
              "internalType": "string",
              "name": "name",
              "type": "string"
            },
            {
              "internalType": "address[]",
              "name": "members",
              "type": "address[]"
            }
          ],
          "internalType": "struct KuoriciniDao.DaoGroup",
          "name": "",
          "type": "tuple"
        }
      ],
      "stateMutability": "view",
      "type": "function",
      "constant": true
    },
    {
      "inputs": [],
      "name": "myGroups",
      "outputs": [
        {
          "internalType": "uint256[]",
          "name": "",
          "type": "uint256[]"
        }
      ],
      "stateMutability": "view",
      "type": "function",
      "constant": true
    },
    {
      "inputs": [
        {
          "internalType": "address",
          "name": "addr",
          "type": "address"
        },
        {
          "internalType": "uint256",
          "name": "gid",
          "type": "uint256"
        }
      ],
      "name": "addAddresstoGroup",
      "outputs": [
        {
          "internalType": "bool",
          "name": "",
          "type": "bool"
        }
      ],
      "stateMutability": "nonpayable",
      "type": "function"
    },
    {
      "inputs": [
        {
          "internalType": "address",
          "name": "owner",
          "type": "address"
        }
      ],
      "name": "balanceOf",
      "outputs": [
        {
          "internalType": "uint256",
          "name": "",
          "type": "uint256"
        }
      ],
      "stateMutability": "view",
      "type": "function",
      "constant": true
    },
    {
      "inputs": [
        {
          "internalType": "address",
          "name": "owner",
          "type": "address"
        }
      ],
      "name": "nameOf",
      "outputs": [
        {
          "internalType": "string",
          "name": "",
          "type": "string"
        }
      ],
      "stateMutability": "view",
      "type": "function",
      "constant": true
    },
    {
      "inputs": [
        {
          "internalType": "string",
          "name": "name",
          "type": "string"
        }
      ],
      "name": "setName",
      "outputs": [
        {
          "internalType": "bool",
          "name": "",
          "type": "bool"
        }
      ],
      "stateMutability": "nonpayable",
      "type": "function"
    },
    {
      "inputs": [
        {
          "internalType": "address",
          "name": "to",
          "type": "address"
        },
        {
          "internalType": "uint256",
          "name": "value",
          "type": "uint256"
        }
      ],
      "name": "transfer",
      "outputs": [
        {
          "internalType": "bool",
          "name": "",
          "type": "bool"
        }
      ],
      "stateMutability": "nonpayable",
      "type": "function"
    }
  ],
  "bytecode": "0x60806040526040518060400160405280600581526020017f4b554f52490000000000000000000000000000000000000000000000000000008152506004908051906020019062000051929190620000ab565b503480156200005f57600080fd5b50600a600160003373ffffffffffffffffffffffffffffffffffffffff1673ffffffffffffffffffffffffffffffffffffffff16815260200190815260200160002081905550620001c0565b828054620000b9906200018a565b90600052602060002090601f016020900481019282620000dd576000855562000129565b82601f10620000f857805160ff191683800117855562000129565b8280016001018555821562000129579182015b82811115620001285782518255916020019190600101906200010b565b5b5090506200013891906200013c565b5090565b5b80821115620001575760008160009055506001016200013d565b5090565b7f4e487b7100000000000000000000000000000000000000000000000000000000600052602260045260246000fd5b60006002820490506001821680620001a357607f821691505b60208210811415620001ba57620001b96200015b565b5b50919050565b61199480620001d06000396000f3fe608060405234801561001057600080fd5b506004361061009e5760003560e01c8063acefeec211610066578063acefeec214610181578063c3f934371461019f578063c47f0027146101bd578063dc2ddcae146101ed578063f5c573821461021d5761009e565b80630bd0e7fa146100a35780635cfb429b146100d357806370a082311461010357806395d89b4114610133578063a9059cbb14610151575b600080fd5b6100bd60048036038101906100b8919061101e565b61024d565b6040516100ca9190611218565b60405180910390f35b6100ed60048036038101906100e89190611266565b6103f2565b6040516100fa91906112c1565b60405180910390f35b61011d600480360381019061011891906112dc565b61057d565b60405161012a9190611318565b60405180910390f35b61013b6105c6565b604051610148919061137d565b60405180910390f35b61016b60048036038101906101669190611266565b610654565b60405161017891906112c1565b60405180910390f35b6101896107f3565b60405161019691906114a5565b60405180910390f35b6101a7610972565b6040516101b49190611585565b60405180910390f35b6101d760048036038101906101d2919061160c565b610a07565b6040516101e491906112c1565b60405180910390f35b6102076004803603810190610202919061160c565b610a62565b60405161021491906112c1565b60405180910390f35b610237600480360381019061023291906112dc565b610c4a565b604051610244919061137d565b60405180910390f35b610255610e11565b61025f3383610d1b565b61029e576040517f08c379a0000000000000000000000000000000000000000000000000000000008152600401610295906116a5565b60405180910390fd5b600082815481106102b2576102b16116c5565b5b90600052602060002090600202016040518060400160405290816000820180546102db90611723565b80601f016020809104026020016040519081016040528092919081815260200182805461030790611723565b80156103545780601f1061032957610100808354040283529160200191610354565b820191906000526020600020905b81548152906001019060200180831161033757829003601f168201915b50505050508152602001600182018054806020026020016040519081016040528092919081815260200182805480156103e257602002820191906000526020600020905b8160009054906101000a900473ffffffffffffffffffffffffffffffffffffffff1673ffffffffffffffffffffffffffffffffffffffff1681526020019060010190808311610398575b5050505050815250509050919050565b60006103fe3383610d1b565b61043d576040517f08c379a0000000000000000000000000000000000000000000000000000000008152600401610434906116a5565b60405180910390fd5b6104478383610d1b565b15610487576040517f08c379a000000000000000000000000000000000000000000000000000000000815260040161047e906117a1565b60405180910390fd5b6000828154811061049b5761049a6116c5565b5b9060005260206000209060020201600101839080600181540180825580915050600190039060005260206000200160009091909190916101000a81548173ffffffffffffffffffffffffffffffffffffffff021916908373ffffffffffffffffffffffffffffffffffffffff160217905550600360008473ffffffffffffffffffffffffffffffffffffffff1673ffffffffffffffffffffffffffffffffffffffff1681526020019081526020016000208290806001815401808255809150506001900390600052602060002001600090919091909150556001905092915050565b6000600160008373ffffffffffffffffffffffffffffffffffffffff1673ffffffffffffffffffffffffffffffffffffffff168152602001908152602001600020549050919050565b600480546105d390611723565b80601f01602080910402602001604051908101604052809291908181526020018280546105ff90611723565b801561064c5780601f106106215761010080835404028352916020019161064c565b820191906000526020600020905b81548152906001019060200180831161062f57829003601f168201915b505050505081565b600081600160003373ffffffffffffffffffffffffffffffffffffffff1673ffffffffffffffffffffffffffffffffffffffff1681526020019081526020016000205410156106d8576040517f08c379a00000000000000000000000000000000000000000000000000000000081526004016106cf9061180d565b60405180910390fd5b81600160008573ffffffffffffffffffffffffffffffffffffffff1673ffffffffffffffffffffffffffffffffffffffff1681526020019081526020016000206000828254610727919061185c565b9250508190555081600160003373ffffffffffffffffffffffffffffffffffffffff1673ffffffffffffffffffffffffffffffffffffffff168152602001908152602001600020600082825461077d91906118b2565b925050819055508273ffffffffffffffffffffffffffffffffffffffff163373ffffffffffffffffffffffffffffffffffffffff167fddf252ad1be2c89b69c2b068fc378daa952ba7f163c4a11628f55a4df523b3ef846040516107e19190611318565b60405180910390a36001905092915050565b60606000805480602002602001604051908101604052809291908181526020016000905b82821015610969578382906000526020600020906002020160405180604001604052908160008201805461084a90611723565b80601f016020809104026020016040519081016040528092919081815260200182805461087690611723565b80156108c35780601f10610898576101008083540402835291602001916108c3565b820191906000526020600020905b8154815290600101906020018083116108a657829003601f168201915b505050505081526020016001820180548060200260200160405190810160405280929190818152602001828054801561095157602002820191906000526020600020905b8160009054906101000a900473ffffffffffffffffffffffffffffffffffffffff1673ffffffffffffffffffffffffffffffffffffffff1681526020019060010190808311610907575b50505050508152505081526020019060010190610817565b50505050905090565b6060600360003373ffffffffffffffffffffffffffffffffffffffff1673ffffffffffffffffffffffffffffffffffffffff1681526020019081526020016000208054806020026020016040519081016040528092919081815260200182805480156109fd57602002820191906000526020600020905b8154815260200190600101908083116109e9575b5050505050905090565b60008282600260003373ffffffffffffffffffffffffffffffffffffffff1673ffffffffffffffffffffffffffffffffffffffff1681526020019081526020016000209190610a57929190610e2b565b506001905092915050565b6000610a6c610e11565b83838080601f016020809104026020016040519081016040528093929190818152602001838380828437600081840152601f19601f8201169050808301925050505050505081600001819052506000600167ffffffffffffffff811115610ad657610ad56118e6565b5b604051908082528060200260200182016040528015610b045781602001602082028036833780820191505090505b5090503381600081518110610b1c57610b1b6116c5565b5b602002602001019073ffffffffffffffffffffffffffffffffffffffff16908173ffffffffffffffffffffffffffffffffffffffff168152505080826020018190525060008290806001815401808255809150506001900390600052602060002090600202016000909190919091506000820151816000019080519060200190610ba7929190610eb1565b506020820151816001019080519060200190610bc4929190610f37565b505050600360003373ffffffffffffffffffffffffffffffffffffffff1673ffffffffffffffffffffffffffffffffffffffff1681526020019081526020016000206001600080549050610c1891906118b2565b908060018154018082558091505060019003906000526020600020016000909190919091505560019250505092915050565b6060600260008373ffffffffffffffffffffffffffffffffffffffff1673ffffffffffffffffffffffffffffffffffffffff1681526020019081526020016000208054610c9690611723565b80601f0160208091040260200160405190810160405280929190818152602001828054610cc290611723565b8015610d0f5780601f10610ce457610100808354040283529160200191610d0f565b820191906000526020600020905b815481529060010190602001808311610cf257829003601f168201915b50505050509050919050565b600080600090505b60008381548110610d3757610d366116c5565b5b906000526020600020906002020160010180549050811015610e05578373ffffffffffffffffffffffffffffffffffffffff1660008481548110610d7e57610d7d6116c5565b5b90600052602060002090600202016001018281548110610da157610da06116c5565b5b9060005260206000200160009054906101000a900473ffffffffffffffffffffffffffffffffffffffff1673ffffffffffffffffffffffffffffffffffffffff161415610df2576001915050610e0b565b8080610dfd90611915565b915050610d23565b50600090505b92915050565b604051806040016040528060608152602001606081525090565b828054610e3790611723565b90600052602060002090601f016020900481019282610e595760008555610ea0565b82601f10610e7257803560ff1916838001178555610ea0565b82800160010185558215610ea0579182015b82811115610e9f578235825591602001919060010190610e84565b5b509050610ead9190610fc1565b5090565b828054610ebd90611723565b90600052602060002090601f016020900481019282610edf5760008555610f26565b82601f10610ef857805160ff1916838001178555610f26565b82800160010185558215610f26579182015b82811115610f25578251825591602001919060010190610f0a565b5b509050610f339190610fc1565b5090565b828054828255906000526020600020908101928215610fb0579160200282015b82811115610faf5782518260006101000a81548173ffffffffffffffffffffffffffffffffffffffff021916908373ffffffffffffffffffffffffffffffffffffffff16021790555091602001919060010190610f57565b5b509050610fbd9190610fc1565b5090565b5b80821115610fda576000816000905550600101610fc2565b5090565b600080fd5b600080fd5b6000819050919050565b610ffb81610fe8565b811461100657600080fd5b50565b60008135905061101881610ff2565b92915050565b60006020828403121561103457611033610fde565b5b600061104284828501611009565b91505092915050565b600081519050919050565b600082825260208201905092915050565b60005b8381101561108557808201518184015260208101905061106a565b83811115611094576000848401525b50505050565b6000601f19601f8301169050919050565b60006110b68261104b565b6110c08185611056565b93506110d0818560208601611067565b6110d98161109a565b840191505092915050565b600081519050919050565b600082825260208201905092915050565b6000819050602082019050919050565b600073ffffffffffffffffffffffffffffffffffffffff82169050919050565b600061113b82611110565b9050919050565b61114b81611130565b82525050565b600061115d8383611142565b60208301905092915050565b6000602082019050919050565b6000611181826110e4565b61118b81856110ef565b935061119683611100565b8060005b838110156111c75781516111ae8882611151565b97506111b983611169565b92505060018101905061119a565b5085935050505092915050565b600060408301600083015184820360008601526111f182826110ab565b9150506020830151848203602086015261120b8282611176565b9150508091505092915050565b6000602082019050818103600083015261123281846111d4565b905092915050565b61124381611130565b811461124e57600080fd5b50565b6000813590506112608161123a565b92915050565b6000806040838503121561127d5761127c610fde565b5b600061128b85828601611251565b925050602061129c85828601611009565b9150509250929050565b60008115159050919050565b6112bb816112a6565b82525050565b60006020820190506112d660008301846112b2565b92915050565b6000602082840312156112f2576112f1610fde565b5b600061130084828501611251565b91505092915050565b61131281610fe8565b82525050565b600060208201905061132d6000830184611309565b92915050565b600082825260208201905092915050565b600061134f8261104b565b6113598185611333565b9350611369818560208601611067565b6113728161109a565b840191505092915050565b600060208201905081810360008301526113978184611344565b905092915050565b600081519050919050565b600082825260208201905092915050565b6000819050602082019050919050565b600060408301600083015184820360008601526113e882826110ab565b915050602083015184820360208601526114028282611176565b9150508091505092915050565b600061141b83836113cb565b905092915050565b6000602082019050919050565b600061143b8261139f565b61144581856113aa565b935083602082028501611457856113bb565b8060005b858110156114935784840389528151611474858261140f565b945061147f83611423565b925060208a0199505060018101905061145b565b50829750879550505050505092915050565b600060208201905081810360008301526114bf8184611430565b905092915050565b600081519050919050565b600082825260208201905092915050565b6000819050602082019050919050565b6114fc81610fe8565b82525050565b600061150e83836114f3565b60208301905092915050565b6000602082019050919050565b6000611532826114c7565b61153c81856114d2565b9350611547836114e3565b8060005b8381101561157857815161155f8882611502565b975061156a8361151a565b92505060018101905061154b565b5085935050505092915050565b6000602082019050818103600083015261159f8184611527565b905092915050565b600080fd5b600080fd5b600080fd5b60008083601f8401126115cc576115cb6115a7565b5b8235905067ffffffffffffffff8111156115e9576115e86115ac565b5b602083019150836001820283011115611605576116046115b1565b5b9250929050565b6000806020838503121561162357611622610fde565b5b600083013567ffffffffffffffff81111561164157611640610fe3565b5b61164d858286016115b6565b92509250509250929050565b7f75736572206e6f7420617574686f72697a656400000000000000000000000000600082015250565b600061168f601383611333565b915061169a82611659565b602082019050919050565b600060208201905081810360008301526116be81611682565b9050919050565b7f4e487b7100000000000000000000000000000000000000000000000000000000600052603260045260246000fd5b7f4e487b7100000000000000000000000000000000000000000000000000000000600052602260045260246000fd5b6000600282049050600182168061173b57607f821691505b6020821081141561174f5761174e6116f4565b5b50919050565b7f6164647265737320616c72656164792070726573656e74000000000000000000600082015250565b600061178b601783611333565b915061179682611755565b602082019050919050565b600060208201905081810360008301526117ba8161177e565b9050919050565b7f6e6f6e2068616920616262617374616e7a61206b756f72690000000000000000600082015250565b60006117f7601883611333565b9150611802826117c1565b602082019050919050565b60006020820190508181036000830152611826816117ea565b9050919050565b7f4e487b7100000000000000000000000000000000000000000000000000000000600052601160045260246000fd5b600061186782610fe8565b915061187283610fe8565b9250827fffffffffffffffffffffffffffffffffffffffffffffffffffffffffffffffff038211156118a7576118a661182d565b5b828201905092915050565b60006118bd82610fe8565b91506118c883610fe8565b9250828210156118db576118da61182d565b5b828203905092915050565b7f4e487b7100000000000000000000000000000000000000000000000000000000600052604160045260246000fd5b600061192082610fe8565b91507fffffffffffffffffffffffffffffffffffffffffffffffffffffffffffffffff8214156119535761195261182d565b5b60018201905091905056fea26469706673582212205474a3ac20277fc4988827c272e75aa0cc3eab01c32e1009368051b7b1861bd664736f6c634300080b0033",
  "immutableReferences": {},
  "source": "// SPDX-License-Identifier: MIT\npragma solidity >=0.4.22 <0.9.0;\n\ncontract KuoriciniDao {\n\nstruct DaoGroup {\n  string name;\n  address[] members;\n}\n\nDaoGroup[] daoGroups;\n\nmapping (address => uint) balances;\nmapping (address => string) names;\nmapping (address => uint[] ) userGroups;\n\nstring public symbol=\"KUORI\";\nevent Transfer(address indexed from, address indexed to, uint value);\n\nconstructor() {\n  balances[msg.sender] = 10;\n}\n\nfunction createGroup(string calldata groupName) public returns(bool){\n  DaoGroup memory newGroup;\n  newGroup.name=groupName;\n  address[] memory _members = new address[](1);\n  _members[0]=msg.sender;\n  newGroup.members=_members;\n  daoGroups.push(newGroup);\n  userGroups[msg.sender].push(daoGroups.length-1);\n  return true;\n}\n\nfunction allGroups() public view returns(DaoGroup[] memory){\n  return daoGroups;\n} \n\nfunction group(uint gid) public view returns(DaoGroup memory){\n  require(isAddressInGroup(msg.sender, gid), \"user not authorized\"); \n  return daoGroups[gid];\n}\n\nfunction myGroups() public view returns(uint[] memory) {\n  return userGroups[msg.sender];\n}\n\nfunction addAddresstoGroup(address addr, uint gid) public returns(bool){\n  require(isAddressInGroup(msg.sender, gid), \"user not authorized\"); \n  require(!isAddressInGroup(addr, gid), \"address already present\"); \n  daoGroups[gid].members.push(addr);\n  userGroups[addr].push(gid);\n  return true;\n} \n\nfunction isAddressInGroup(address addr, uint gid) private view returns(bool) {\n  for ( uint i = 0; i < daoGroups[gid].members.length; i++){\n    if ( daoGroups[gid].members[i] == addr ){\n      return true;\n    }\n  }\n  return false;\n}\n\nfunction balanceOf(address owner) public view returns(uint) {\n  return balances[owner];\n}\n\nfunction nameOf(address owner) public view returns(string memory) {\n  return names[owner];\n}\n\nfunction setName(string calldata name) public returns(bool){\n  names[msg.sender]=name;\n  return true;\n}\n\nfunction transfer(address to, uint value) public returns(bool) {\n  require(balances[msg.sender] >= value, \"non hai abbastanza kuori\");\n  balances[to] += value;\n  balances[msg.sender] -= value;\n  emit Transfer(msg.sender, to, value);\n  return true;\n}\n\n}\n",
  "sourcePath": "/home/fabian/kuoricinidao/contracts/KuoriciniDao.sol",
  "compiler": {
    "name": "solc",
    "version": "0.8.11+commit.d7f03943.Emscripten.clang"
  },
  "schemaVersion": "3.4.4",
  "updatedAt": "2022-04-23T06:33:21.126Z",
  "networkType": "ethereum",
  "devdoc": {
    "kind": "dev",
    "methods": {},
    "version": 1
  },
  "userdoc": {
    "kind": "user",
    "methods": {},
    "version": 1
  }
}