{
  "contractName": "KuoriciniDao",
  "abi": [
    {
      "inputs": [],
      "stateMutability": "nonpayable",
      "type": "constructor"
    },
    {
      "inputs": [
        {
          "internalType": "string",
          "name": "_name",
          "type": "string"
        }
      ],
      "name": "createGroup",
      "outputs": [
        {
          "internalType": "bool",
          "name": "",
          "type": "bool"
        }
      ],
      "stateMutability": "nonpayable",
      "type": "function"
    },
    {
      "inputs": [
        {
          "internalType": "uint256",
          "name": "_gid",
          "type": "uint256"
        }
      ],
      "name": "getGroup",
      "outputs": [
        {
          "components": [
            {
              "internalType": "string",
              "name": "name",
              "type": "string"
            },
            {
              "internalType": "address[]",
              "name": "members",
              "type": "address[]"
            },
            {
              "internalType": "uint256[]",
              "name": "tokenIds",
              "type": "uint256[]"
            },
            {
              "internalType": "uint256[]",
              "name": "candidateIds",
              "type": "uint256[]"
            },
            {
              "internalType": "uint256",
              "name": "voteThreshold",
              "type": "uint256"
            },
            {
              "internalType": "uint256",
              "name": "voteDuration",
              "type": "uint256"
            },
            {
              "internalType": "string",
              "name": "invitationLink",
              "type": "string"
            }
          ],
          "internalType": "struct KuoriciniDao.DaoGroup",
          "name": "",
          "type": "tuple"
        }
      ],
      "stateMutability": "view",
      "type": "function"
    },
    {
      "inputs": [
        {
          "internalType": "string",
          "name": "link",
          "type": "string"
        }
      ],
      "name": "checkInvitationLink",
      "outputs": [
        {
          "internalType": "uint256",
          "name": "",
          "type": "uint256"
        }
      ],
      "stateMutability": "view",
      "type": "function"
    },
    {
      "inputs": [
        {
          "internalType": "uint256",
          "name": "_tokenid",
          "type": "uint256"
        }
      ],
      "name": "getToken",
      "outputs": [
        {
          "components": [
            {
              "internalType": "string",
              "name": "name",
              "type": "string"
            },
            {
              "internalType": "uint256",
              "name": "roundSupply",
              "type": "uint256"
            },
            {
              "internalType": "uint256",
              "name": "roundDuration",
              "type": "uint256"
            },
            {
              "internalType": "uint256",
              "name": "timestamp",
              "type": "uint256"
            }
          ],
          "internalType": "struct KuoriciniDao.GToken",
          "name": "",
          "type": "tuple"
        }
      ],
      "stateMutability": "view",
      "type": "function"
    },
    {
      "inputs": [
        {
          "internalType": "uint256",
          "name": "gid",
          "type": "uint256"
        }
      ],
      "name": "getUserTokens",
      "outputs": [
        {
          "components": [
            {
              "internalType": "uint256",
              "name": "tokenId",
              "type": "uint256"
            },
            {
              "internalType": "uint256",
              "name": "gTokenBalance",
              "type": "uint256"
            },
            {
              "internalType": "uint256",
              "name": "xBalance",
              "type": "uint256"
            },
            {
              "internalType": "uint256",
              "name": "blocktimestamp",
              "type": "uint256"
            },
            {
              "internalType": "uint256",
              "name": "newtime",
              "type": "uint256"
            },
            {
              "internalType": "uint256",
              "name": "residualtime",
              "type": "uint256"
            }
          ],
          "internalType": "struct KuoriciniDao.EToken[]",
          "name": "",
          "type": "tuple[]"
        }
      ],
      "stateMutability": "view",
      "type": "function"
    },
    {
      "inputs": [
        {
          "internalType": "uint256",
          "name": "_tokenId",
          "type": "uint256"
        },
        {
          "internalType": "address",
          "name": "receiver",
          "type": "address"
        },
        {
          "internalType": "uint256",
          "name": "value",
          "type": "uint256"
        }
      ],
      "name": "transferToken",
      "outputs": [
        {
          "internalType": "bool",
          "name": "",
          "type": "bool"
        }
      ],
      "stateMutability": "nonpayable",
      "type": "function"
    },
    {
      "inputs": [
        {
          "internalType": "uint256",
          "name": "_id",
          "type": "uint256"
        }
      ],
      "name": "getGroupNamefromId",
      "outputs": [
        {
          "internalType": "string",
          "name": "",
          "type": "string"
        }
      ],
      "stateMutability": "view",
      "type": "function"
    },
    {
      "inputs": [
        {
          "internalType": "uint256",
          "name": "_id",
          "type": "uint256"
        }
      ],
      "name": "getGroupAddressfromId",
      "outputs": [
        {
          "internalType": "address[]",
          "name": "",
          "type": "address[]"
        }
      ],
      "stateMutability": "view",
      "type": "function"
    },
    {
      "inputs": [
        {
          "internalType": "uint256",
          "name": "val",
          "type": "uint256"
        },
        {
          "internalType": "string",
          "name": "name",
          "type": "string"
        },
        {
          "internalType": "uint256",
          "name": "supply",
          "type": "uint256"
        },
        {
          "internalType": "uint256",
          "name": "duration",
          "type": "uint256"
        },
        {
          "internalType": "uint256",
          "name": "gid",
          "type": "uint256"
        },
        {
          "internalType": "uint256",
          "name": "candtype",
          "type": "uint256"
        }
      ],
      "name": "changeToken",
      "outputs": [
        {
          "internalType": "bool",
          "name": "",
          "type": "bool"
        }
      ],
      "stateMutability": "nonpayable",
      "type": "function"
    },
    {
      "inputs": [
        {
          "internalType": "uint256",
          "name": "gid",
          "type": "uint256"
        }
      ],
      "name": "getGroupCandidates",
      "outputs": [
        {
          "components": [
            {
              "internalType": "uint256",
              "name": "id",
              "type": "uint256"
            },
            {
              "internalType": "uint256",
              "name": "candType",
              "type": "uint256"
            },
            {
              "internalType": "string",
              "name": "name",
              "type": "string"
            },
            {
              "internalType": "uint256",
              "name": "roundSupply",
              "type": "uint256"
            },
            {
              "internalType": "uint256",
              "name": "roundDuration",
              "type": "uint256"
            },
            {
              "internalType": "address",
              "name": "candidateAddress",
              "type": "address"
            },
            {
              "internalType": "uint256",
              "name": "votes",
              "type": "uint256"
            },
            {
              "internalType": "bool",
              "name": "voted",
              "type": "bool"
            },
            {
              "internalType": "uint256",
              "name": "timestamp",
              "type": "uint256"
            }
          ],
          "internalType": "struct KuoriciniDao.ECandidate[]",
          "name": "",
          "type": "tuple[]"
        }
      ],
      "stateMutability": "view",
      "type": "function"
    },
    {
      "inputs": [
        {
          "internalType": "uint256",
          "name": "gid",
          "type": "uint256"
        },
        {
          "internalType": "uint256",
          "name": "candTokId",
          "type": "uint256"
        },
        {
          "internalType": "uint256",
          "name": "vote",
          "type": "uint256"
        }
      ],
      "name": "voteCandidate",
      "outputs": [
        {
          "internalType": "bool",
          "name": "",
          "type": "bool"
        }
      ],
      "stateMutability": "nonpayable",
      "type": "function"
    },
    {
      "inputs": [
        {
          "internalType": "uint256",
          "name": "gid",
          "type": "uint256"
        }
      ],
      "name": "removeMeFromGroup",
      "outputs": [
        {
          "internalType": "bool",
          "name": "",
          "type": "bool"
        }
      ],
      "stateMutability": "nonpayable",
      "type": "function"
    },
    {
      "inputs": [],
      "name": "myGroups",
      "outputs": [
        {
          "internalType": "uint256[]",
          "name": "",
          "type": "uint256[]"
        }
      ],
      "stateMutability": "view",
      "type": "function"
    },
    {
      "inputs": [
        {
          "internalType": "uint256",
          "name": "gid",
          "type": "uint256"
        },
        {
          "internalType": "string",
          "name": "invitation",
          "type": "string"
        }
      ],
      "name": "groupNameByInvitation",
      "outputs": [
        {
          "internalType": "string",
          "name": "",
          "type": "string"
        }
      ],
      "stateMutability": "view",
      "type": "function"
    },
    {
      "inputs": [
        {
          "internalType": "address",
          "name": "owner",
          "type": "address"
        }
      ],
      "name": "nameOf",
      "outputs": [
        {
          "internalType": "string",
          "name": "",
          "type": "string"
        }
      ],
      "stateMutability": "view",
      "type": "function"
    },
    {
      "inputs": [
        {
          "internalType": "string",
          "name": "name",
          "type": "string"
        }
      ],
      "name": "nameSet",
      "outputs": [
        {
          "internalType": "bool",
          "name": "",
          "type": "bool"
        }
      ],
      "stateMutability": "nonpayable",
      "type": "function"
    }
  ],
  "bytecode": "0x608060405234801561001057600080fd5b50615ca180620000216000396000f3fe608060405234801561001057600080fd5b50600436106101005760003560e01c8063ceb6065411610097578063dc2ddcae11610066578063dc2ddcae14610333578063e4b50cb814610363578063edeefa3114610393578063f5c57382146103c357610100565b8063ceb6065414610273578063d17bd40b146102a3578063d5503235146102d3578063dbb5313f1461030357610100565b8063857af37b116100d3578063857af37b146101c557806395449f2b146101f5578063c3f9343714610225578063cc02711c1461024357610100565b806301fa665514610105578063088cab1814610135578063558f8f0414610165578063837d8cec14610195575b600080fd5b61011f600480360381019061011a9190614648565b6103f3565b60405161012c9190614741565b60405180910390f35b61014f600480360381019061014a9190614763565b61050e565b60405161015c91906149cc565b60405180910390f35b61017f600480360381019061017a9190614763565b610aff565b60405161018c9190614a9d565b60405180910390f35b6101af60048036038101906101aa9190614bef565b610bb2565b6040516101bc9190614ca7565b60405180910390f35b6101df60048036038101906101da9190614763565b6111d4565b6040516101ec9190614741565b60405180910390f35b61020f600480360381019061020a9190614cc2565b61128b565b60405161021c9190614d1e565b60405180910390f35b61022d61147d565b60405161023a9190614de8565b60405180910390f35b61025d60048036038101906102589190614e0a565b611672565b60405161026a9190614ca7565b60405180910390f35b61028d60048036038101906102889190614763565b611fbb565b60405161029a9190614ff3565b60405180910390f35b6102bd60048036038101906102b89190614763565b61226d565b6040516102ca919061513f565b60405180910390f35b6102ed60048036038101906102e89190614763565b612970565b6040516102fa9190614ca7565b60405180910390f35b61031d6004803603810190610318919061518d565b612ce3565b60405161032a9190614ca7565b60405180910390f35b61034d60048036038101906103489190614cc2565b613513565b60405161035a9190614ca7565b60405180910390f35b61037d60048036038101906103789190614763565b6137eb565b60405161038a9190615243565b60405180910390f35b6103ad60048036038101906103a89190614cc2565b6138d7565b6040516103ba9190614ca7565b60405180910390f35b6103dd60048036038101906103d89190615265565b613931565b6040516103ea9190614741565b60405180910390f35b606083600284846040516104089291906152c2565b90815260200160405180910390205414610457576040517f08c379a000000000000000000000000000000000000000000000000000000000815260040161044e90615327565b60405180910390fd5b6003848154811061046b5761046a615347565b5b90600052602060002090600702016000018054610487906153a5565b80601f01602080910402602001604051908101604052809291908181526020018280546104b3906153a5565b80156105005780601f106104d557610100808354040283529160200191610500565b820191906000526020600020905b8154815290600101906020018083116104e357829003601f168201915b505050505090509392505050565b606061051a8233613a01565b610559576040517f08c379a000000000000000000000000000000000000000000000000000000000815260040161055090615423565b60405180910390fd5b60006003838154811061056f5761056e615347565b5b906000526020600020906007020160030180549050905060008167ffffffffffffffff8111156105a2576105a1614ac4565b5b6040519080825280602002602001820160405280156105db57816020015b6105c8614210565b8152602001906001900390816105c05790505b50905060005b82811015610af4576000600386815481106105ff576105fe615347565b5b9060005260206000209060070201600301828154811061062257610621615347565b5b906000526020600020015490506005818154811061064357610642615347565b5b90600052602060002090600902016000015483838151811061066857610667615347565b5b602002602001015160000181815250506005818154811061068c5761068b615347565b5b9060005260206000209060090201600101548383815181106106b1576106b0615347565b5b60200260200101516020018181525050600581815481106106d5576106d4615347565b5b906000526020600020906009020160020180546106f1906153a5565b80601f016020809104026020016040519081016040528092919081815260200182805461071d906153a5565b801561076a5780601f1061073f5761010080835404028352916020019161076a565b820191906000526020600020905b81548152906001019060200180831161074d57829003601f168201915b505050505083838151811061078257610781615347565b5b602002602001015160400181905250600581815481106107a5576107a4615347565b5b9060005260206000209060090201600301548383815181106107ca576107c9615347565b5b60200260200101516060018181525050600581815481106107ee576107ed615347565b5b90600052602060002090600902016004015483838151811061081357610812615347565b5b602002602001015160800181815250506005818154811061083757610836615347565b5b906000526020600020906009020160050160009054906101000a900473ffffffffffffffffffffffffffffffffffffffff1683838151811061087c5761087b615347565b5b602002602001015160a0019073ffffffffffffffffffffffffffffffffffffffff16908173ffffffffffffffffffffffffffffffffffffffff1681525050600581815481106108ce576108cd615347565b5b9060005260206000209060090201600601548383815181106108f3576108f2615347565b5b602002602001015160c0018181525050600083838151811061091857610917615347565b5b602002602001015160e001901515908115158152505060005b6005828154811061094557610944615347565b5b906000526020600020906009020160070180549050811015610a35573373ffffffffffffffffffffffffffffffffffffffff166005838154811061098c5761098b615347565b5b906000526020600020906009020160070182815481106109af576109ae615347565b5b9060005260206000200160009054906101000a900473ffffffffffffffffffffffffffffffffffffffff1673ffffffffffffffffffffffffffffffffffffffff161415610a22576001848481518110610a0b57610a0a615347565b5b602002602001015160e00190151590811515815250505b8080610a2d90615472565b915050610931565b50610a6560058281548110610a4d57610a4c615347565b5b90600052602060002090600902016008015487613af7565b15610ab95760058181548110610a7e57610a7d615347565b5b906000526020600020906009020160080154838381518110610aa357610aa2615347565b5b6020026020010151610100018181525050610ae0565b6000838381518110610ace57610acd615347565b5b60200260200101516101000181815250505b508080610aec90615472565b9150506105e1565b508092505050919050565b606060038281548110610b1557610b14615347565b5b9060005260206000209060070201600101805480602002602001604051908101604052809291908181526020018280548015610ba657602002820191906000526020600020905b8160009054906101000a900473ffffffffffffffffffffffffffffffffffffffff1673ffffffffffffffffffffffffffffffffffffffff1681526020019060010190808311610b5c575b50505050509050919050565b600080821415610caf57610bc68333613a01565b15610c06576040517f08c379a0000000000000000000000000000000000000000000000000000000008152600401610bfd90615507565b60405180910390fd5b82600287604051610c179190615558565b90815260200160405180910390205414610c66576040517f08c379a0000000000000000000000000000000000000000000000000000000008152600401610c5d906155bb565b60405180910390fd5b6000831415610caa576040517f08c379a0000000000000000000000000000000000000000000000000000000008152600401610ca190615627565b60405180910390fd5b610cf9565b610cb98333613a01565b610cf8576040517f08c379a0000000000000000000000000000000000000000000000000000000008152600401610cef90615423565b60405180910390fd5b5b6002821415610d4c57610d0c8784613b34565b610d4b576040517f08c379a0000000000000000000000000000000000000000000000000000000008152600401610d4290615693565b60405180910390fd5b5b6003821415610d9a57600a871115610d99576040517f08c379a0000000000000000000000000000000000000000000000000000000008152600401610d90906156ff565b60405180910390fd5b5b600060038481548110610db057610daf615347565b5b90600052602060002090600702016003018054905090506000600182610dd6919061571f565b67ffffffffffffffff811115610def57610dee614ac4565b5b604051908082528060200260200182016040528015610e1d5781602001602082028036833780820191505090505b50905060005b82811015610fc85760038681548110610e3f57610e3e615347565b5b90600052602060002090600702016003018181548110610e6257610e61615347565b5b9060005260206000200154828281518110610e8057610e7f615347565b5b602002602001018181525050600085148015610f2657503373ffffffffffffffffffffffffffffffffffffffff166005838381518110610ec357610ec2615347565b5b602002602001015181548110610edc57610edb615347565b5b906000526020600020906009020160050160009054906101000a900473ffffffffffffffffffffffffffffffffffffffff1673ffffffffffffffffffffffffffffffffffffffff16145b15610fb557610f746005838381518110610f4357610f42615347565b5b602002602001015181548110610f5c57610f5b615347565b5b90600052602060002090600902016008015487613af7565b15610fb4576040517f08c379a0000000000000000000000000000000000000000000000000000000008152600401610fab906157c1565b60405180910390fd5b5b8080610fc090615472565b915050610e23565b5060008067ffffffffffffffff811115610fe557610fe4614ac4565b5b6040519080825280602002602001820160405280156110135781602001602082028036833780820191505090505b50905060056040518061012001604052808c81526020018781526020018b81526020018a81526020018981526020013373ffffffffffffffffffffffffffffffffffffffff16815260200160008152602001838152602001428152509080600181540180825580915050600190039060005260206000209060090201600090919091909150600082015181600001556020820151816001015560408201518160020190805190602001906110c8929190614274565b50606082015181600301556080820151816004015560a08201518160050160006101000a81548173ffffffffffffffffffffffffffffffffffffffff021916908373ffffffffffffffffffffffffffffffffffffffff16021790555060c0820151816006015560e082015181600701908051906020019061114a9291906142fa565b5061010082015181600801555050600160058054905061116a91906157e1565b82848151811061117d5761117c615347565b5b602002602001018181525050816003878154811061119e5761119d615347565b5b906000526020600020906007020160030190805190602001906111c2929190614384565b50600193505050509695505050505050565b6060600382815481106111ea576111e9615347565b5b90600052602060002090600702016000018054611206906153a5565b80601f0160208091040260200160405190810160405280929190818152602001828054611232906153a5565b801561127f5780601f106112545761010080835404028352916020019161127f565b820191906000526020600020905b81548152906001019060200180831161126257829003601f168201915b50505050509050919050565b600080600284846040516112a09291906152c2565b90815260200160405180910390205490506112bb8133613a01565b156112ca576000915050611477565b6000600382815481106112e0576112df615347565b5b90600052602060002090600702016003018054905090506000600182611306919061571f565b67ffffffffffffffff81111561131f5761131e614ac4565b5b60405190808252806020026020018201604052801561134d5781602001602082028036833780820191505090505b50905060005b8281101561146f576003848154811061136f5761136e615347565b5b9060005260206000209060070201600301818154811061139257611391615347565b5b90600052602060002001548282815181106113b0576113af615347565b5b6020026020010181815250503373ffffffffffffffffffffffffffffffffffffffff1660058383815181106113e8576113e7615347565b5b60200260200101518154811061140157611400615347565b5b906000526020600020906009020160050160009054906101000a900473ffffffffffffffffffffffffffffffffffffffff1673ffffffffffffffffffffffffffffffffffffffff16141561145c576000945050505050611477565b808061146790615472565b915050611353565b508293505050505b92915050565b606060006003805490509050606060005b82811015611669576000600382815481106114ac576114ab615347565b5b906000526020600020906007020160010180549050905060005b81811015611654573373ffffffffffffffffffffffffffffffffffffffff16600384815481106114f9576114f8615347565b5b9060005260206000209060070201600101828154811061151c5761151b615347565b5b9060005260206000200160009054906101000a900473ffffffffffffffffffffffffffffffffffffffff1673ffffffffffffffffffffffffffffffffffffffff161415611641576000845190506000600182611578919061571f565b67ffffffffffffffff81111561159157611590614ac4565b5b6040519080825280602002602001820160405280156115bf5781602001602082028036833780820191505090505b50905060005b8281101561161a578681815181106115e0576115df615347565b5b60200260200101518282815181106115fb576115fa615347565b5b602002602001018181525050808061161290615472565b9150506115c5565b508481838151811061162f5761162e615347565b5b60200260200101818152505080955050505b808061164c90615472565b9150506114c6565b5050808061166190615472565b91505061148e565b50809250505090565b600061167e8433613a01565b6116bd576040517f08c379a00000000000000000000000000000000000000000000000000000000081526004016116b490615861565b60405180910390fd5b6116c56143d1565b6000600386815481106116db576116da615347565b5b90600052602060002090600702016003018054905090506000805b8281101561194557866003898154811061171357611712615347565b5b9060005260206000209060070201600301828154811061173657611735615347565b5b90600052602060002001541415611932576005878154811061175b5761175a615347565b5b9060005260206000209060090201604051806101200160405290816000820154815260200160018201548152602001600282018054611799906153a5565b80601f01602080910402602001604051908101604052809291908181526020018280546117c5906153a5565b80156118125780601f106117e757610100808354040283529160200191611812565b820191906000526020600020905b8154815290600101906020018083116117f557829003601f168201915b5050505050815260200160038201548152602001600482015481526020016005820160009054906101000a900473ffffffffffffffffffffffffffffffffffffffff1673ffffffffffffffffffffffffffffffffffffffff1673ffffffffffffffffffffffffffffffffffffffff168152602001600682015481526020016007820180548060200260200160405190810160405280929190818152602001828054801561191457602002820191906000526020600020905b8160009054906101000a900473ffffffffffffffffffffffffffffffffffffffff1673ffffffffffffffffffffffffffffffffffffffff16815260200190600101908083116118ca575b50505050508152602001600882015481525050935060019150611945565b808061193d90615472565b9150506116f6565b5080611986576040517f08c379a000000000000000000000000000000000000000000000000000000000815260040161197d906158cd565b60405180910390fd5b61199583610100015188613af7565b6119d4576040517f08c379a00000000000000000000000000000000000000000000000000000000081526004016119cb90615939565b60405180910390fd5b60008360e0015151905060006001826119ed919061571f565b67ffffffffffffffff811115611a0657611a05614ac4565b5b604051908082528060200260200182016040528015611a345781602001602082028036833780820191505090505b50905060005b82811015611b4e573373ffffffffffffffffffffffffffffffffffffffff168660e001518281518110611a7057611a6f615347565b5b602002602001015173ffffffffffffffffffffffffffffffffffffffff161415611acf576040517f08c379a0000000000000000000000000000000000000000000000000000000008152600401611ac6906159a5565b60405180910390fd5b8560e001518181518110611ae657611ae5615347565b5b6020026020010151828281518110611b0157611b00615347565b5b602002602001019073ffffffffffffffffffffffffffffffffffffffff16908173ffffffffffffffffffffffffffffffffffffffff16815250508080611b4690615472565b915050611a3a565b5033818381518110611b6357611b62615347565b5b602002602001019073ffffffffffffffffffffffffffffffffffffffff16908173ffffffffffffffffffffffffffffffffffffffff1681525050808560e001819052506000871115611bca5760018560c001818151611bc2919061571f565b915081815250505b8460058981548110611bdf57611bde615347565b5b906000526020600020906009020160008201518160000155602082015181600101556040820151816002019080519060200190611c1d929190614274565b50606082015181600301556080820151816004015560a08201518160050160006101000a81548173ffffffffffffffffffffffffffffffffffffffff021916908373ffffffffffffffffffffffffffffffffffffffff16021790555060c0820151816006015560e0820151816007019080519060200190611c9f9291906142fa565b5061010082015181600801559050506000611cb98a613bde565b9050808660c001511115611faa57600086602001511415611ce457611ce28a8760a00151613c5f565b505b600186602001511480611cfb575060028660200151145b15611d2757611d25866000015187604001518860600151896080015160028b60200151148f613e93565b505b600386602001511415611d6357856000015160038b81548110611d4d57611d4c615347565b5b9060005260206000209060070201600401819055505b600486602001511415611d9f57856000015160038b81548110611d8957611d88615347565b5b9060005260206000209060070201600501819055505b6000600186611dae91906157e1565b67ffffffffffffffff811115611dc757611dc6614ac4565b5b604051908082528060200260200182016040528015611df55781602001602082028036833780820191505090505b509050600080600090505b87811015611e6c578b60038e81548110611e1d57611e1c615347565b5b90600052602060002090600702016003018281548110611e4057611e3f615347565b5b90600052602060002001541415611e5957809150611e6c565b8080611e6490615472565b915050611e00565b600090505b87811015611f6c5781811015611ee35760038d81548110611e9557611e94615347565b5b90600052602060002090600702016003018181548110611eb857611eb7615347565b5b9060005260206000200154838281518110611ed657611ed5615347565b5b6020026020010181815250505b81811115611f595760038d81548110611eff57611efe615347565b5b90600052602060002090600702016003018181548110611f2257611f21615347565b5b906000526020600020015483600183611f3b91906157e1565b81518110611f4c57611f4b615347565b5b6020026020010181815250505b8080611f6490615472565b915050611e71565b8260038e81548110611f8157611f80615347565b5b90600052602060002090600702016003019080519060200190611fa5929190614384565b505050505b600196505050505050509392505050565b611fc3614433565b60038281548110611fd757611fd6615347565b5b90600052602060002090600702016040518060e0016040529081600082018054612000906153a5565b80601f016020809104026020016040519081016040528092919081815260200182805461202c906153a5565b80156120795780601f1061204e57610100808354040283529160200191612079565b820191906000526020600020905b81548152906001019060200180831161205c57829003601f168201915b505050505081526020016001820180548060200260200160405190810160405280929190818152602001828054801561210757602002820191906000526020600020905b8160009054906101000a900473ffffffffffffffffffffffffffffffffffffffff1673ffffffffffffffffffffffffffffffffffffffff16815260200190600101908083116120bd575b505050505081526020016002820180548060200260200160405190810160405280929190818152602001828054801561215f57602002820191906000526020600020905b81548152602001906001019080831161214b575b50505050508152602001600382018054806020026020016040519081016040528092919081815260200182805480156121b757602002820191906000526020600020905b8154815260200190600101908083116121a3575b5050505050815260200160048201548152602001600582015481526020016006820180546121e4906153a5565b80601f0160208091040260200160405190810160405280929190818152602001828054612210906153a5565b801561225d5780601f106122325761010080835404028352916020019161225d565b820191906000526020600020905b81548152906001019060200180831161224057829003601f168201915b5050505050815250509050919050565b60606122798233613a01565b6122b8576040517f08c379a00000000000000000000000000000000000000000000000000000000081526004016122af90615327565b60405180910390fd5b6000600383815481106122ce576122cd615347565b5b90600052602060002090600702016002018054905090506000600160003373ffffffffffffffffffffffffffffffffffffffff1673ffffffffffffffffffffffffffffffffffffffff16815260200190815260200160002080549050905060008267ffffffffffffffff81111561234857612347614ac4565b5b60405190808252806020026020018201604052801561238157816020015b61236e614470565b8152602001906001900390816123665790505b50905060008367ffffffffffffffff8111156123a05761239f614ac4565b5b6040519080825280602002602001820160405280156123d957816020015b6123c6614498565b8152602001906001900390816123be5790505b50905060005b84811015612963576000600388815481106123fd576123fc615347565b5b906000526020600020906007020160020182815481106124205761241f615347565b5b906000526020600020015490506040518060800160405280828152602001600081526020016004838154811061245957612458615347565b5b9060005260206000209060040201600101548152602001600081525084838151811061248857612487615347565b5b60200260200101819052506000600482815481106124a9576124a8615347565b5b906000526020600020906004020160020154600483815481106124cf576124ce615347565b5b9060005260206000209060040201600301546124eb919061571f565b905060005b8681101561275e5782600160003373ffffffffffffffffffffffffffffffffffffffff1673ffffffffffffffffffffffffffffffffffffffff168152602001908152602001600020828154811061254a57612549615347565b5b906000526020600020906004020160000154141561274b57600160003373ffffffffffffffffffffffffffffffffffffffff1673ffffffffffffffffffffffffffffffffffffffff16815260200190815260200160002081815481106125b3576125b2615347565b5b9060005260206000209060040201600101548685815181106125d8576125d7615347565b5b60200260200101516020018181525050600160003373ffffffffffffffffffffffffffffffffffffffff1673ffffffffffffffffffffffffffffffffffffffff168152602001908152602001600020818154811061263957612638615347565b5b90600052602060002090600402016003015486858151811061265e5761265d615347565b5b60200260200101516060018181525050814210806126be57506004838154811061268b5761268a615347565b5b9060005260206000209060040201600301548685815181106126b0576126af615347565b5b602002602001015160600151105b1561274a57600160003373ffffffffffffffffffffffffffffffffffffffff1673ffffffffffffffffffffffffffffffffffffffff168152602001908152602001600020818154811061271457612713615347565b5b90600052602060002090600402016002015486858151811061273957612738615347565b5b602002602001015160400181815250505b5b808061275690615472565b9150506124f0565b5084838151811061277257612771615347565b5b60200260200101516000015184848151811061279157612790615347565b5b602002602001015160000181815250508483815181106127b4576127b3615347565b5b6020026020010151602001518484815181106127d3576127d2615347565b5b602002602001015160200181815250508483815181106127f6576127f5615347565b5b60200260200101516040015184848151811061281557612814615347565b5b602002602001015160400181815250504284848151811061283957612838615347565b5b602002602001015160600181815250505b4281101561288a576004828154811061286657612865615347565b5b90600052602060002090600402016002015481612883919061571f565b905061284a565b8084848151811061289e5761289d615347565b5b602002602001015160800181815250505b600482815481106128c3576128c2615347565b5b90600052602060002090600402016002015442826128e191906157e1565b111561291f57600482815481106128fb576128fa615347565b5b9060005260206000209060040201600201548161291891906157e1565b90506128af565b428161292b91906157e1565b84848151811061293e5761293d615347565b5b602002602001015160a00181815250505050808061295b90615472565b9150506123df565b5080945050505050919050565b600061297c8233613a01565b6129bb576040517f08c379a00000000000000000000000000000000000000000000000000000000081526004016129b290615a11565b60405180910390fd5b6000600383815481106129d1576129d0615347565b5b906000526020600020906007020160010180549050905060006001826129f791906157e1565b67ffffffffffffffff811115612a1057612a0f614ac4565b5b604051908082528060200260200182016040528015612a3e5781602001602082028036833780820191505090505b509050600080600090505b83811015612b00573373ffffffffffffffffffffffffffffffffffffffff1660038781548110612a7c57612a7b615347565b5b90600052602060002090600702016001018281548110612a9f57612a9e615347565b5b9060005260206000200160009054906101000a900473ffffffffffffffffffffffffffffffffffffffff1673ffffffffffffffffffffffffffffffffffffffff1614612aed57809150612b00565b8080612af890615472565b915050612a49565b600090505b83811015612c9c5781811015612bc55760038681548110612b2957612b28615347565b5b90600052602060002090600702016001018181548110612b4c57612b4b615347565b5b9060005260206000200160009054906101000a900473ffffffffffffffffffffffffffffffffffffffff16838281518110612b8a57612b89615347565b5b602002602001019073ffffffffffffffffffffffffffffffffffffffff16908173ffffffffffffffffffffffffffffffffffffffff16815250505b81811115612c895760038681548110612be157612be0615347565b5b90600052602060002090600702016001018181548110612c0457612c03615347565b5b9060005260206000200160009054906101000a900473ffffffffffffffffffffffffffffffffffffffff1683600183612c3d91906157e1565b81518110612c4e57612c4d615347565b5b602002602001019073ffffffffffffffffffffffffffffffffffffffff16908173ffffffffffffffffffffffffffffffffffffffff16815250505b8080612c9490615472565b915050612b05565b8260038781548110612cb157612cb0615347565b5b90600052602060002090600702016001019080519060200190612cd59291906142fa565b506001945050505050919050565b6000612ced614470565b60008080600091505b600160003373ffffffffffffffffffffffffffffffffffffffff1673ffffffffffffffffffffffffffffffffffffffff16815260200190815260200160002080549050821015612e5a5787600160003373ffffffffffffffffffffffffffffffffffffffff1673ffffffffffffffffffffffffffffffffffffffff1681526020019081526020016000208381548110612d9257612d91615347565b5b9060005260206000209060040201600001541415612e4757600160003373ffffffffffffffffffffffffffffffffffffffff1673ffffffffffffffffffffffffffffffffffffffff1681526020019081526020016000208281548110612dfb57612dfa615347565b5b9060005260206000209060040201604051806080016040529081600082015481526020016001820154815260200160028201548152602001600382015481525050935060019250612e5a565b8180612e5290615472565b925050612cf6565b600015158315151415612eb25760405180608001604052808981526020016000815260200160048a81548110612e9357612e92615347565b5b9060005260206000209060040201600101548152602001600081525093505b600060048981548110612ec857612ec7615347565b5b90600052602060002090600402016002015460048a81548110612eee57612eed615347565b5b906000526020600020906004020160030154612f0a919061571f565b905080421115612fdf5760048981548110612f2857612f27615347565b5b9060005260206000209060040201600101548560400181815250505b60048981548110612f5857612f57615347565b5b90600052602060002090600402016002015481612f75919061571f565b421115612fb45760048981548110612f9057612f8f615347565b5b90600052602060002090600402016002015481612fad919061571f565b9050612f44565b8060048a81548110612fc957612fc8615347565b5b9060005260206000209060040201600301819055505b8685604001511015613026576040517f08c379a000000000000000000000000000000000000000000000000000000000815260040161301d90615a7d565b60405180910390fd5b61302e614470565b60008093505b600160008b73ffffffffffffffffffffffffffffffffffffffff1673ffffffffffffffffffffffffffffffffffffffff16815260200190815260200160002080549050841015613198578a600160008c73ffffffffffffffffffffffffffffffffffffffff1673ffffffffffffffffffffffffffffffffffffffff16815260200190815260200160002085815481106130d0576130cf615347565b5b906000526020600020906004020160000154141561318557600160008b73ffffffffffffffffffffffffffffffffffffffff1673ffffffffffffffffffffffffffffffffffffffff168152602001908152602001600020848154811061313957613138615347565b5b9060005260206000209060040201604051806080016040529081600082015481526020016001820154815260200160028201548152602001600382015481525050915060019050613198565b838061319090615472565b945050613034565b6000151581151514156131f05760405180608001604052808c81526020016000815260200160048d815481106131d1576131d0615347565b5b9060005260206000209060040201600101548152602001600081525091505b888760400181815161320291906157e1565b91508181525050428760600181815250508882602001818151613225919061571f565b915081815250506001151586151514156132c95786600160003373ffffffffffffffffffffffffffffffffffffffff1673ffffffffffffffffffffffffffffffffffffffff168152602001908152602001600020868154811061328b5761328a615347565b5b906000526020600020906004020160008201518160000155602082015181600101556040820151816002015560608201518160030155905050613386565b600160003373ffffffffffffffffffffffffffffffffffffffff1673ffffffffffffffffffffffffffffffffffffffff16815260200190815260200160002060405180608001604052808d81526020016000815260200189604001518152602001896060015181525090806001815401808255809150506001900390600052602060002090600402016000909190919091506000820151816000015560208201518160010155604082015181600201556060820151816003015550505b6001151581151514156134235781600160008c73ffffffffffffffffffffffffffffffffffffffff1673ffffffffffffffffffffffffffffffffffffffff16815260200190815260200160002085815481106133e5576133e4615347565b5b906000526020600020906004020160008201518160000155602082015181600101556040820151816002015560608201518160030155905050613501565b600160008b73ffffffffffffffffffffffffffffffffffffffff1673ffffffffffffffffffffffffffffffffffffffff16815260200190815260200160002060405180608001604052808d81526020018460200151815260200160048e8154811061349157613490615347565b5b9060005260206000209060040201600101548152602001600081525090806001815401808255809150506001900390600052602060002090600402016000909190919091506000820151816000015560208201518160010155604082015181600201556060820151816003015550505b60019750505050505050509392505050565b600080600167ffffffffffffffff81111561353157613530614ac4565b5b60405190808252806020026020018201604052801561355f5781602001602082028036833780820191505090505b509050338160008151811061357757613576615347565b5b602002602001019073ffffffffffffffffffffffffffffffffffffffff16908173ffffffffffffffffffffffffffffffffffffffff16815250506060806000600590506000621275009050600061361189898080601f016020809104026020016040519081016040528093929190818152602001838380828437600081840152601f19601f820116905080830192505050505050506140bb565b905060006040518060e001604052808b8b8080601f016020809104026020016040519081016040528093929190818152602001838380828437600081840152601f19601f820116905080830192505050505050508152602001888152602001878152602001868152602001858152602001848152602001838152509050600381908060018154018082558091505060019003906000526020600020906007020160009091909190915060008201518160000190805190602001906136d6929190614274565b5060208201518160010190805190602001906136f39291906142fa565b506040820151816002019080519060200190613710929190614384565b50606082015181600301908051906020019061372d929190614384565b506080820151816004015560a0820151816005015560c082015181600601908051906020019061375e929190614274565b5050506000600160038054905061377591906157e1565b146137a657600060028360405161378c9190615558565b908152602001604051809103902054146137a557600080fd5b5b60016003805490506137b891906157e1565b6002836040516137c89190615558565b908152602001604051809103902081905550600197505050505050505092915050565b6137f36144ce565b6004828154811061380757613806615347565b5b9060005260206000209060040201604051806080016040529081600082018054613830906153a5565b80601f016020809104026020016040519081016040528092919081815260200182805461385c906153a5565b80156138a95780601f1061387e576101008083540402835291602001916138a9565b820191906000526020600020905b81548152906001019060200180831161388c57829003601f168201915b5050505050815260200160018201548152602001600282015481526020016003820154815250509050919050565b600082826000803373ffffffffffffffffffffffffffffffffffffffff1673ffffffffffffffffffffffffffffffffffffffff16815260200190815260200160002091906139269291906144f6565b506001905092915050565b60606000808373ffffffffffffffffffffffffffffffffffffffff1673ffffffffffffffffffffffffffffffffffffffff168152602001908152602001600020805461397c906153a5565b80601f01602080910402602001604051908101604052809291908181526020018280546139a8906153a5565b80156139f55780601f106139ca576101008083540402835291602001916139f5565b820191906000526020600020905b8154815290600101906020018083116139d857829003601f168201915b50505050509050919050565b6000806000905060005b60038581548110613a1f57613a1e615347565b5b906000526020600020906007020160010180549050811015613aec578373ffffffffffffffffffffffffffffffffffffffff1660038681548110613a6657613a65615347565b5b90600052602060002090600702016001018281548110613a8957613a88615347565b5b9060005260206000200160009054906101000a900473ffffffffffffffffffffffffffffffffffffffff1673ffffffffffffffffffffffffffffffffffffffff161415613ad95760019150613aec565b8080613ae490615472565b915050613a0b565b508091505092915050565b60004260038381548110613b0e57613b0d615347565b5b90600052602060002090600702016005015484613b2b919061571f565b11905092915050565b600080600090505b60038381548110613b5057613b4f615347565b5b906000526020600020906007020160020180549050811015613bd2578360038481548110613b8157613b80615347565b5b90600052602060002090600702016002018281548110613ba457613ba3615347565b5b90600052602060002001541415613bbf576001915050613bd8565b8080613bca90615472565b915050613b3c565b50600090505b92915050565b6000613bea8233613a01565b613bf357600080fd5b600a60038381548110613c0957613c08615347565b5b90600052602060002090600702016004015460038481548110613c2f57613c2e615347565b5b906000526020600020906007020160010180549050613c4e9190615a9d565b613c589190615b26565b9050919050565b6000613c6b8383613a01565b15613cab576040517f08c379a0000000000000000000000000000000000000000000000000000000008152600401613ca290615507565b60405180910390fd5b600060038481548110613cc157613cc0615347565b5b90600052602060002090600702016001018054905090506000600182613ce7919061571f565b67ffffffffffffffff811115613d0057613cff614ac4565b5b604051908082528060200260200182016040528015613d2e5781602001602082028036833780820191505090505b50905060005b82811015613dfe5760038681548110613d5057613d4f615347565b5b90600052602060002090600702016001018181548110613d7357613d72615347565b5b9060005260206000200160009054906101000a900473ffffffffffffffffffffffffffffffffffffffff16828281518110613db157613db0615347565b5b602002602001019073ffffffffffffffffffffffffffffffffffffffff16908173ffffffffffffffffffffffffffffffffffffffff16815250508080613df690615472565b915050613d34565b5083818381518110613e1357613e12615347565b5b602002602001019073ffffffffffffffffffffffffffffffffffffffff16908173ffffffffffffffffffffffffffffffffffffffff16815250508060038681548110613e6257613e61615347565b5b90600052602060002090600702016001019080519060200190613e869291906142fa565b5060019250505092915050565b6000613e9f8233613a01565b613ede576040517f08c379a0000000000000000000000000000000000000000000000000000000008152600401613ed590615861565b60405180910390fd5b8215613fc057613eee8783613b34565b613f2d576040517f08c379a0000000000000000000000000000000000000000000000000000000008152600401613f2490615693565b60405180910390fd5b8560048881548110613f4257613f41615347565b5b90600052602060002090600402016000019080519060200190613f66929190614274565b508460048881548110613f7c57613f7b615347565b5b9060005260206000209060040201600101819055508360048881548110613fa657613fa5615347565b5b9060005260206000209060040201600201819055506140ad565b600460405180608001604052808881526020018781526020018681526020014281525090806001815401808255809150506001900390600052602060002090600402016000909190919091506000820151816000019080519060200190614028929190614274565b506020820151816001015560408201518160020155606082015181600301555050600060048054905090506003838154811061406757614066615347565b5b906000526020600020906007020160020160018261408591906157e1565b9080600181540180825580915050600190039060005260206000200160009091909190915055505b600190509695505050505050565b60606000600f905060008167ffffffffffffffff8111156140df576140de614ac4565b5b6040519080825280601f01601f1916602001820160405280156141115781602001600182028036833780820191505090505b50905060008190506000604051806060016040528060238152602001615c4960239139905060005b60018561414691906157e1565b8110156142035760008251424433878c60405160200161416a959493929190615bc0565b6040516020818303038152906040528051906020012060001c61418d9190615c17565b90508281815181106141a2576141a1615347565b5b602001015160f81c60f81b8483815181106141c0576141bf615347565b5b60200101907effffffffffffffffffffffffffffffffffffffffffffffffffffffffffffff1916908160001a9053505080806141fb90615472565b915050614139565b5081945050505050919050565b6040518061012001604052806000815260200160008152602001606081526020016000815260200160008152602001600073ffffffffffffffffffffffffffffffffffffffff16815260200160008152602001600015158152602001600081525090565b828054614280906153a5565b90600052602060002090601f0160209004810192826142a257600085556142e9565b82601f106142bb57805160ff19168380011785556142e9565b828001600101855582156142e9579182015b828111156142e85782518255916020019190600101906142cd565b5b5090506142f6919061457c565b5090565b828054828255906000526020600020908101928215614373579160200282015b828111156143725782518260006101000a81548173ffffffffffffffffffffffffffffffffffffffff021916908373ffffffffffffffffffffffffffffffffffffffff1602179055509160200191906001019061431a565b5b509050614380919061457c565b5090565b8280548282559060005260206000209081019282156143c0579160200282015b828111156143bf5782518255916020019190600101906143a4565b5b5090506143cd919061457c565b5090565b6040518061012001604052806000815260200160008152602001606081526020016000815260200160008152602001600073ffffffffffffffffffffffffffffffffffffffff1681526020016000815260200160608152602001600081525090565b6040518060e00160405280606081526020016060815260200160608152602001606081526020016000815260200160008152602001606081525090565b6040518060800160405280600081526020016000815260200160008152602001600081525090565b6040518060c001604052806000815260200160008152602001600081526020016000815260200160008152602001600081525090565b6040518060800160405280606081526020016000815260200160008152602001600081525090565b828054614502906153a5565b90600052602060002090601f016020900481019282614524576000855561456b565b82601f1061453d57803560ff191683800117855561456b565b8280016001018555821561456b579182015b8281111561456a57823582559160200191906001019061454f565b5b509050614578919061457c565b5090565b5b8082111561459557600081600090555060010161457d565b5090565b6000604051905090565b600080fd5b600080fd5b6000819050919050565b6145c0816145ad565b81146145cb57600080fd5b50565b6000813590506145dd816145b7565b92915050565b600080fd5b600080fd5b600080fd5b60008083601f840112614608576146076145e3565b5b8235905067ffffffffffffffff811115614625576146246145e8565b5b602083019150836001820283011115614641576146406145ed565b5b9250929050565b600080600060408486031215614661576146606145a3565b5b600061466f868287016145ce565b935050602084013567ffffffffffffffff8111156146905761468f6145a8565b5b61469c868287016145f2565b92509250509250925092565b600081519050919050565b600082825260208201905092915050565b60005b838110156146e25780820151818401526020810190506146c7565b838111156146f1576000848401525b50505050565b6000601f19601f8301169050919050565b6000614713826146a8565b61471d81856146b3565b935061472d8185602086016146c4565b614736816146f7565b840191505092915050565b6000602082019050818103600083015261475b8184614708565b905092915050565b600060208284031215614779576147786145a3565b5b6000614787848285016145ce565b91505092915050565b600081519050919050565b600082825260208201905092915050565b6000819050602082019050919050565b6147c5816145ad565b82525050565b600082825260208201905092915050565b60006147e7826146a8565b6147f181856147cb565b93506148018185602086016146c4565b61480a816146f7565b840191505092915050565b600073ffffffffffffffffffffffffffffffffffffffff82169050919050565b600061484082614815565b9050919050565b61485081614835565b82525050565b60008115159050919050565b61486b81614856565b82525050565b60006101208301600083015161488a60008601826147bc565b50602083015161489d60208601826147bc565b50604083015184820360408601526148b582826147dc565b91505060608301516148ca60608601826147bc565b5060808301516148dd60808601826147bc565b5060a08301516148f060a0860182614847565b5060c083015161490360c08601826147bc565b5060e083015161491660e0860182614862565b5061010083015161492b6101008601826147bc565b508091505092915050565b60006149428383614871565b905092915050565b6000602082019050919050565b600061496282614790565b61496c818561479b565b93508360208202850161497e856147ac565b8060005b858110156149ba578484038952815161499b8582614936565b94506149a68361494a565b925060208a01995050600181019050614982565b50829750879550505050505092915050565b600060208201905081810360008301526149e68184614957565b905092915050565b600081519050919050565b600082825260208201905092915050565b6000819050602082019050919050565b6000614a268383614847565b60208301905092915050565b6000602082019050919050565b6000614a4a826149ee565b614a5481856149f9565b9350614a5f83614a0a565b8060005b83811015614a90578151614a778882614a1a565b9750614a8283614a32565b925050600181019050614a63565b5085935050505092915050565b60006020820190508181036000830152614ab78184614a3f565b905092915050565b600080fd5b7f4e487b7100000000000000000000000000000000000000000000000000000000600052604160045260246000fd5b614afc826146f7565b810181811067ffffffffffffffff82111715614b1b57614b1a614ac4565b5b80604052505050565b6000614b2e614599565b9050614b3a8282614af3565b919050565b600067ffffffffffffffff821115614b5a57614b59614ac4565b5b614b63826146f7565b9050602081019050919050565b82818337600083830152505050565b6000614b92614b8d84614b3f565b614b24565b905082815260208101848484011115614bae57614bad614abf565b5b614bb9848285614b70565b509392505050565b600082601f830112614bd657614bd56145e3565b5b8135614be6848260208601614b7f565b91505092915050565b60008060008060008060c08789031215614c0c57614c0b6145a3565b5b6000614c1a89828a016145ce565b965050602087013567ffffffffffffffff811115614c3b57614c3a6145a8565b5b614c4789828a01614bc1565b9550506040614c5889828a016145ce565b9450506060614c6989828a016145ce565b9350506080614c7a89828a016145ce565b92505060a0614c8b89828a016145ce565b9150509295509295509295565b614ca181614856565b82525050565b6000602082019050614cbc6000830184614c98565b92915050565b60008060208385031215614cd957614cd86145a3565b5b600083013567ffffffffffffffff811115614cf757614cf66145a8565b5b614d03858286016145f2565b92509250509250929050565b614d18816145ad565b82525050565b6000602082019050614d336000830184614d0f565b92915050565b600081519050919050565b600082825260208201905092915050565b6000819050602082019050919050565b6000614d7183836147bc565b60208301905092915050565b6000602082019050919050565b6000614d9582614d39565b614d9f8185614d44565b9350614daa83614d55565b8060005b83811015614ddb578151614dc28882614d65565b9750614dcd83614d7d565b925050600181019050614dae565b5085935050505092915050565b60006020820190508181036000830152614e028184614d8a565b905092915050565b600080600060608486031215614e2357614e226145a3565b5b6000614e31868287016145ce565b9350506020614e42868287016145ce565b9250506040614e53868287016145ce565b9150509250925092565b600082825260208201905092915050565b6000614e79826149ee565b614e838185614e5d565b9350614e8e83614a0a565b8060005b83811015614ebf578151614ea68882614a1a565b9750614eb183614a32565b925050600181019050614e92565b5085935050505092915050565b600082825260208201905092915050565b6000614ee882614d39565b614ef28185614ecc565b9350614efd83614d55565b8060005b83811015614f2e578151614f158882614d65565b9750614f2083614d7d565b925050600181019050614f01565b5085935050505092915050565b600060e0830160008301518482036000860152614f5882826147dc565b91505060208301518482036020860152614f728282614e6e565b91505060408301518482036040860152614f8c8282614edd565b91505060608301518482036060860152614fa68282614edd565b9150506080830151614fbb60808601826147bc565b5060a0830151614fce60a08601826147bc565b5060c083015184820360c0860152614fe682826147dc565b9150508091505092915050565b6000602082019050818103600083015261500d8184614f3b565b905092915050565b600081519050919050565b600082825260208201905092915050565b6000819050602082019050919050565b60c08201600082015161505760008501826147bc565b50602082015161506a60208501826147bc565b50604082015161507d60408501826147bc565b50606082015161509060608501826147bc565b5060808201516150a360808501826147bc565b5060a08201516150b660a08501826147bc565b50505050565b60006150c88383615041565b60c08301905092915050565b6000602082019050919050565b60006150ec82615015565b6150f68185615020565b935061510183615031565b8060005b8381101561513257815161511988826150bc565b9750615124836150d4565b925050600181019050615105565b5085935050505092915050565b6000602082019050818103600083015261515981846150e1565b905092915050565b61516a81614835565b811461517557600080fd5b50565b60008135905061518781615161565b92915050565b6000806000606084860312156151a6576151a56145a3565b5b60006151b4868287016145ce565b93505060206151c586828701615178565b92505060406151d6868287016145ce565b9150509250925092565b600060808301600083015184820360008601526151fd82826147dc565b915050602083015161521260208601826147bc565b50604083015161522560408601826147bc565b50606083015161523860608601826147bc565b508091505092915050565b6000602082019050818103600083015261525d81846151e0565b905092915050565b60006020828403121561527b5761527a6145a3565b5b600061528984828501615178565b91505092915050565b600081905092915050565b60006152a98385615292565b93506152b6838584614b70565b82840190509392505050565b60006152cf82848661529d565b91508190509392505050565b7f75736572206e6f7420617574686f72697a656400000000000000000000000000600082015250565b60006153116013836146b3565b915061531c826152db565b602082019050919050565b6000602082019050818103600083015261534081615304565b9050919050565b7f4e487b7100000000000000000000000000000000000000000000000000000000600052603260045260246000fd5b7f4e487b7100000000000000000000000000000000000000000000000000000000600052602260045260246000fd5b600060028204905060018216806153bd57607f821691505b602082108114156153d1576153d0615376565b5b50919050565b7f6d656d626572206e6f7420616c6c6f7765642100000000000000000000000000600082015250565b600061540d6013836146b3565b9150615418826153d7565b602082019050919050565b6000602082019050818103600083015261543c81615400565b9050919050565b7f4e487b7100000000000000000000000000000000000000000000000000000000600052601160045260246000fd5b600061547d826145ad565b91507fffffffffffffffffffffffffffffffffffffffffffffffffffffffffffffffff8214156154b0576154af615443565b5b600182019050919050565b7f6d656d62657220616c72656164792070726573656e7421000000000000000000600082015250565b60006154f16017836146b3565b91506154fc826154bb565b602082019050919050565b60006020820190508181036000830152615520816154e4565b9050919050565b6000615532826146a8565b61553c8185615292565b935061554c8185602086016146c4565b80840191505092915050565b60006155648284615527565b915081905092915050565b7f6c696e6b206e6f7420617574686f72697a656400000000000000000000000000600082015250565b60006155a56013836146b3565b91506155b08261556f565b602082019050919050565b600060208201905081810360008301526155d481615598565b9050919050565b7f67726f7570206e6f7420617574686f72697a6564000000000000000000000000600082015250565b60006156116014836146b3565b915061561c826155db565b602082019050919050565b6000602082019050818103600083015261564081615604565b9050919050565b7f746f6b656e206e6f7420616c6c6f776564000000000000000000000000000000600082015250565b600061567d6011836146b3565b915061568882615647565b602082019050919050565b600060208201905081810360008301526156ac81615670565b9050919050565b7f696e76616c69642071756f72756d000000000000000000000000000000000000600082015250565b60006156e9600e836146b3565b91506156f4826156b3565b602082019050919050565b60006020820190508181036000830152615718816156dc565b9050919050565b600061572a826145ad565b9150615735836145ad565b9250827fffffffffffffffffffffffffffffffffffffffffffffffffffffffffffffffff0382111561576a57615769615443565b5b828201905092915050565b7f63616e64696461746520616c7265616479206164646564000000000000000000600082015250565b60006157ab6017836146b3565b91506157b682615775565b602082019050919050565b600060208201905081810360008301526157da8161579e565b9050919050565b60006157ec826145ad565b91506157f7836145ad565b92508282101561580a57615809615443565b5b828203905092915050565b7f6d656d6265722063616e6e6f7420766f74652100000000000000000000000000600082015250565b600061584b6013836146b3565b915061585682615815565b602082019050919050565b6000602082019050818103600083015261587a8161583e565b9050919050565b7f63616e64696461746520746f6b656e20646f65736e2774206578697374730000600082015250565b60006158b7601e836146b3565b91506158c282615881565b602082019050919050565b600060208201905081810360008301526158e6816158aa565b9050919050565b7f63616e64696461746520696e76616c6964000000000000000000000000000000600082015250565b60006159236011836146b3565b915061592e826158ed565b602082019050919050565b6000602082019050818103600083015261595281615916565b9050919050565b7f6164647265737320616c726561647920766f7465642100000000000000000000600082015250565b600061598f6016836146b3565b915061599a82615959565b602082019050919050565b600060208201905081810360008301526159be81615982565b9050919050565b7f6d656d626572206e6f7420696e2067726f757021000000000000000000000000600082015250565b60006159fb6014836146b3565b9150615a06826159c5565b602082019050919050565b60006020820190508181036000830152615a2a816159ee565b9050919050565b7f6e6f6e2068616920616262617374616e7a6120746f6b656e0000000000000000600082015250565b6000615a676018836146b3565b9150615a7282615a31565b602082019050919050565b60006020820190508181036000830152615a9681615a5a565b9050919050565b6000615aa8826145ad565b9150615ab3836145ad565b9250817fffffffffffffffffffffffffffffffffffffffffffffffffffffffffffffffff0483118215151615615aec57615aeb615443565b5b828202905092915050565b7f4e487b7100000000000000000000000000000000000000000000000000000000600052601260045260246000fd5b6000615b31826145ad565b9150615b3c836145ad565b925082615b4c57615b4b615af7565b5b828204905092915050565b6000819050919050565b615b72615b6d826145ad565b615b57565b82525050565b60008160601b9050919050565b6000615b9082615b78565b9050919050565b6000615ba282615b85565b9050919050565b615bba615bb582614835565b615b97565b82525050565b6000615bcc8288615b61565b602082019150615bdc8287615b61565b602082019150615bec8286615ba9565b601482019150615bfc8285615527565b9150615c088284615527565b91508190509695505050505050565b6000615c22826145ad565b9150615c2d836145ad565b925082615c3d57615c3c615af7565b5b82820690509291505056fe6162636465666768696a6b6c6d6e6f7071727374757678797a31323334353637383930a2646970667358221220114ac0652da42f0217e99a078c23e31dbe9e19ea2769498b6aa0a80d342e9a3464736f6c634300080b0033",
  "immutableReferences": {},
  "source": "// SPDX-License-Identifier: MIT\npragma solidity ^0.8.0;\n\ncontract KuoriciniDao {\n\n  struct DaoGroup {\n    string name;\n    address[] members;\n    uint[] tokenIds;\n    uint[] candidateIds;\n    uint voteThreshold;\n    uint voteDuration;\n    string invitationLink;\n  }\n  \n    /* CandType\n    0 : new address\n    1 : new token\n    2 : change existing token\n    3 : new quorum\n    4 : new vote duration\n    */\n\n  struct Candidate {\n    uint id;\n    uint candType;\n    string name;\n    uint roundSupply;\n    uint roundDuration;\n    address candidateAddress;\n    uint votes;\n    address[] voters;\n    uint timestamp;\n  }\n\n  struct GToken {\n    string name;\n    uint roundSupply;\n    uint roundDuration;\n    uint timestamp;\n  }\n\n  struct UToken {\n    uint tokenId;\n    uint gTokenBalance;\n    uint xBalance;\n    uint last_sent;\n  }\n\n  mapping (address => string) names;\n  mapping (address => UToken[]) userTokens;\n  mapping (string => uint) invitationLinks;\n  DaoGroup[] daoGroups;\n  GToken[] allTokens;\n\n  // TODO : these two at least, have to become mappings, BUT REFACTOR QUITE\n  Candidate[] allCandidates;\n\n  constructor() {\n  }\n\n  function createGroup(string calldata _name) public returns(bool) {\n    address[] memory addr = new address[](1);\n    addr[0] = msg.sender;\n    uint[] memory defaultTokens;\n    uint[] memory defaultCandidates;\n    uint threshold = 5;\n    uint voteduration = 1209600; // 14 days\n    string memory invLink = generateInvitationLink(_name);\n    DaoGroup memory new_group = DaoGroup({ \n      name: _name, \n      members: addr, \n      tokenIds: defaultTokens, \n      candidateIds: defaultCandidates, \n      voteThreshold: threshold,\n      voteDuration: voteduration,\n      invitationLink: invLink\n    });\n    daoGroups.push(new_group);\n    // check invitation link doesn't exist already\n    if ( daoGroups.length-1 != 0 ) {\n      require ( invitationLinks[invLink] == 0 );\n    }\n    invitationLinks[invLink]=daoGroups.length-1;\n    return true;\n  }\n\n  function getGroup(uint _gid) public view returns(DaoGroup memory) {\n    return daoGroups[_gid];\n  }\n  \n  function checkInvitationLink(string calldata link) public view returns (uint) {    \n    uint groupInv =  invitationLinks[link];\n    if (isAddressInGroup(groupInv, msg.sender)) {\n      return 0;      \n    }\n    uint l = daoGroups[groupInv].candidateIds.length;\n    uint[] memory candidateIds = new uint[](l+1);\n    for (uint i = 0; i < l; i++) {\n      candidateIds[i] = daoGroups[groupInv].candidateIds[i];\n      if ( allCandidates[candidateIds[i]].candidateAddress == msg.sender ){\n        return 0;\n      }\n    }    \n    return groupInv;\n  }\n\n  function generateInvitationLink(string memory name) private view returns (string memory) {\n      uint invLength = 15;\n      string memory newString = new string(invLength);\n      bytes memory finalString = bytes(newString);\n      bytes memory originString = \"abcdefghijklmnopqrstuvxyz1234567890\";\n      for (uint i=0; i< invLength-1; i++) {\n          uint r = uint(keccak256(abi.encodePacked(block.timestamp, block.difficulty, msg.sender, string(finalString), name))) % originString.length;\n          finalString[i] = originString[r];\n      }\n      return string(finalString);\n  }    \n\n  \n/*\n*   Tokens\n*\n*/\n\n  function getToken(uint _tokenid) public view returns(GToken memory) {\n    return allTokens[_tokenid];\n  }\n\n  function createGToken(uint tokid, string memory _name, uint _supply, uint _duration, bool present, uint _groupId) private returns(bool){\n    require(isAddressInGroup(_groupId, msg.sender), \"member cannot vote!\" );\n\n    if (present) {\n      require(isTokenInGroup(tokid, _groupId), \"token not allowed\");\n      allTokens[tokid].name = _name;\n      allTokens[tokid].roundSupply = _supply;\n      allTokens[tokid].roundDuration = _duration;\n    } \n    else {\n      allTokens.push(GToken({\n        name: _name,\n        roundSupply: _supply,\n        roundDuration: _duration,\n        timestamp: block.timestamp\n      }));\n      uint l = allTokens.length;\n      daoGroups[_groupId].tokenIds.push(l-1);\n    }\n    return true;\n  }\n\n\n// temporary struct to make the output of a token more verbose\n\n  struct EToken {\n    uint tokenId;\n    uint gTokenBalance;\n    uint xBalance;\n    uint blocktimestamp;\n    uint newtime;\n    uint residualtime;\n  }\n\n  function getUserTokens(uint gid) public view returns(EToken[] memory) {\n    require(isAddressInGroup(gid, msg.sender), \"user not authorized\"); \n    uint l = daoGroups[gid].tokenIds.length;\n    uint m = userTokens[msg.sender].length;\n    UToken[] memory utokens = new UToken[](l);\n    EToken[] memory etokens = new EToken[](l);\n\n    for ( uint w = 0; w < l; w++ ) { // all the tokens of this group \n      uint tokid = daoGroups[gid].tokenIds[w];\n      utokens[w] = UToken ({ tokenId: tokid, gTokenBalance: 0, xBalance: allTokens[tokid].roundSupply, last_sent: 0});\n      uint newtime = allTokens[tokid].timestamp + allTokens[tokid].roundDuration;\n\n      for ( uint j = 0; j < m; j++ ) { // all the tokens of this user\n        if (userTokens[msg.sender][j].tokenId == tokid) {\n          utokens[w].gTokenBalance = userTokens[msg.sender][j].gTokenBalance;\n          utokens[w].last_sent = userTokens[msg.sender][j].last_sent;\n          if ( ( block.timestamp < newtime )  || ( utokens[w].last_sent < allTokens[tokid].timestamp ) ) {\n            utokens[w].xBalance = userTokens[msg.sender][j].xBalance;\n          }\n        }\n      }\n      etokens[w].tokenId = utokens[w].tokenId;\n      etokens[w].gTokenBalance = utokens[w].gTokenBalance;\n      etokens[w].xBalance = utokens[w].xBalance;\n      etokens[w].blocktimestamp = block.timestamp;\n\n      // expiration time calculation\n      while (newtime < block.timestamp) {\n        newtime += allTokens[tokid].roundDuration;\n      }\n      etokens[w].newtime = newtime;\n\n      // residual time calculation\n      while ( ( newtime - block.timestamp ) > allTokens[tokid].roundDuration ) {\n        newtime -= allTokens[tokid].roundDuration;\n      }\n      etokens[w].residualtime = newtime - block.timestamp;\n    }\n    return etokens;\n  }\n\n  function transferToken(uint _tokenId, address receiver, uint value) public returns(bool) {\n    UToken memory _tokSender;\n    bool matchFoundSender = false;\n    uint s;\n    uint r;\n    for (s = 0; s < userTokens[msg.sender].length ; s++) {\n      if (userTokens[msg.sender][s].tokenId == _tokenId) {\n        _tokSender = userTokens[msg.sender][s];\n        matchFoundSender = true;\n        break;\n      }\n    }\n    if (matchFoundSender == false){\n      _tokSender = UToken({ tokenId: _tokenId, gTokenBalance: 0, xBalance: allTokens[_tokenId].roundSupply, last_sent: 0});\n    }\n\n    uint newtimestamp = allTokens[_tokenId].timestamp + allTokens[_tokenId].roundDuration;\n    if (block.timestamp > newtimestamp ) {\n      _tokSender.xBalance = allTokens[_tokenId].roundSupply;\n\n      while ( block.timestamp > (newtimestamp + allTokens[_tokenId].roundDuration)) {\n        newtimestamp += allTokens[_tokenId].roundDuration;\n      }\n      \n      allTokens[_tokenId].timestamp=newtimestamp;\n    }\n    \n    require(_tokSender.xBalance >= value, \"non hai abbastanza token\");\n    UToken memory _tokReceiver;\n    bool matchFoundReceiver = false;\n    for ( r = 0; r < userTokens[receiver].length ; r++) {\n      if (userTokens[receiver][r].tokenId == _tokenId) {\n        _tokReceiver = userTokens[receiver][r];\n        matchFoundReceiver = true;\n        break;\n      }\n    }\n    if ( matchFoundReceiver == false){\n      _tokReceiver= UToken({ tokenId: _tokenId, gTokenBalance: 0, xBalance: allTokens[_tokenId].roundSupply, last_sent: 0});\n    }\n    _tokSender.xBalance -= value;\n    _tokSender.last_sent = block.timestamp;\n    _tokReceiver.gTokenBalance += value;\n    if (matchFoundSender == true) {\n      userTokens[msg.sender][s] = _tokSender;\n    }\n    else {\n      userTokens[msg.sender].push( UToken({ tokenId: _tokenId, gTokenBalance: 0, xBalance: _tokSender.xBalance, last_sent: _tokSender.last_sent}));\n    }\n    if (matchFoundReceiver == true) {\n      userTokens[receiver][r] = _tokReceiver;\n    }\n    else {\n      userTokens[receiver].push( UToken({ tokenId: _tokenId, gTokenBalance: _tokReceiver.gTokenBalance, xBalance: allTokens[_tokenId].roundSupply, last_sent: 0}));\n    }\n    return true;\n  }\n\n  function isTokenInGroup(uint tokid, uint gid) private view returns(bool) {\n    for ( uint i = 0; i < daoGroups[gid].tokenIds.length; i++){\n      if ( daoGroups[gid].tokenIds[i] == tokid ){\n        return true;\n      }\n    }\n    return false;\n  }\n\n  \n // obsolete, to be removed. replaced by getToken. Remove it from one call from js  \n  function getGroupNamefromId(uint _id) public view returns(string memory) {\n    return daoGroups[_id].name;\n  }\n\n // obsolete, to be removed. replaced by getToken. Remove it from one call from js  \n  function getGroupAddressfromId(uint _id) public view returns(address[] memory) {\n    return daoGroups[_id].members;\n  }\n\n\n/*  \n*   Tokens Candidates\n*\n*/\n\n\n  // propose token change\n  function changeToken(uint val, string memory name, uint supply, uint duration, uint gid, uint candtype) public returns(bool) {\n\n    if ( candtype == 0 ) {\n      require(!isAddressInGroup(gid, msg.sender), \"member already present!\");\n      require( invitationLinks[name] == gid, \"link not authorized\" ); \n      require( gid != 0, \"group not authorized\" );\n    } else {\n      require(isAddressInGroup(gid, msg.sender), \"member not allowed!\");\n    }\n\n    // if token is marked as present make sure it really exists and belongs to the right group\n    if ( candtype == 2 ) {\n      require(isTokenInGroup(val, gid), \"token not allowed\");\n    }\n    if (candtype == 3) {\n      require(val <= 10, \"invalid quorum\");\n    }\n\n    uint l = daoGroups[gid].candidateIds.length;\n    uint[] memory candidateIds = new uint[](l+1);\n    \n    for (uint i = 0; i < l; i++) {\n      candidateIds[i] = daoGroups[gid].candidateIds[i];\n      if ( ( candtype == 0 ) &&  ( allCandidates[candidateIds[i]].candidateAddress == msg.sender ) ) {\n        require ( !candidateValid(allCandidates[candidateIds[i]].timestamp, gid), \"candidate already added\" ); \n      }\n    }\n\n    // generate a new candidate\n    address[] memory vot = new address[](0);\n    allCandidates.push(Candidate({\n      id: val,\n      candType: candtype,\n      name: name,\n      roundSupply: supply,\n      roundDuration: duration,\n      candidateAddress: msg.sender,\n      votes: 0,\n      voters: vot,\n      timestamp: block.timestamp\n    }));\n\n    // update candidate list in the group\n    candidateIds[l] = allCandidates.length-1;\n    daoGroups[gid].candidateIds = candidateIds;\n\n    return true;\n\n  }\n/*\n * New PROPOSALS API\n * Commented for now (run out of gas cannot compile)\n *\n\nfunction proposeQuorum(uint val, uint gid) public returns(bool) {\n  require(val <= 10, \"invalid quorum\");\n  changeToken(val, \"\", 0, 0, gid, 3);\n  return true; \n}\n\nstruct quorumProposal {\n  uint proposalId;\n  address proposer;\n  uint votes;\n  bool voted;\n  uint timestamp;\n  uint quorum;\n}\n\nfunction getQuorumProposals(uint gid) public view returns (quorumProposal[] memory) {\n  require(isAddressInGroup(gid, msg.sender), \"member not allowed!\" );\n  uint l = daoGroups[gid].candidateIds.length;\n  quorumProposal[] memory proposals = new quorumProposal[](l);\n  quorumProposal memory proposal;\n  Candidate memory candidate;\n  uint counter = 0;\n  for (uint i = 0; i < l; i++) {\n    uint c = daoGroups[gid].candidateIds[i];\n    candidate = allCandidates[c];\n    if (candidate.candType == 3) {\n      proposal.proposalId = allCandidates[c].id;\n      proposal.proposer = allCandidates[c].candidateAddress;\n      proposal.votes = allCandidates[c].votes;\n      proposal.voted = false;\n      for (uint q=0; q < allCandidates[c].voters.length ; q++ ) {\n        if ( allCandidates[c].voters[q] == msg.sender) {\n          proposal.voted = true;\n        }\n      }\n      proposal.timestamp = allCandidates[c].timestamp;\n      proposal.quorum = allCandidates[c].id;\n      proposals[counter] = proposal;\n      counter++;\n    }\n  }\n  return proposals;\n}\n*/\n\n// hide voters expose voted\nstruct ECandidate {\n  uint id;\n  uint candType;\n  string name;\n  uint roundSupply;\n  uint roundDuration;\n  address candidateAddress;\n  uint votes;\n  bool voted;\n  uint timestamp;\n}\n\n  // get candidate tokens of a group\n  function getGroupCandidates(uint gid) public view returns(ECandidate[] memory) {\n    require(isAddressInGroup(gid, msg.sender), \"member not allowed!\" );\n    uint l = daoGroups[gid].candidateIds.length;\n    ECandidate[] memory candidates = new ECandidate[](l);\n    for (uint i = 0; i < l; i++) {\n      uint c = daoGroups[gid].candidateIds[i];\n      candidates[i].id = allCandidates[c].id;\n      candidates[i].candType = allCandidates[c].candType;\n      candidates[i].name = allCandidates[c].name;\n      candidates[i].roundSupply = allCandidates[c].roundSupply;\n      candidates[i].roundDuration = allCandidates[c].roundDuration;\n      candidates[i].candidateAddress = allCandidates[c].candidateAddress;\n      candidates[i].votes = allCandidates[c].votes;\n      candidates[i].voted = false;\n      for (uint q=0; q < allCandidates[c].voters.length ; q++ ) {\n        if ( allCandidates[c].voters[q] == msg.sender) {\n          candidates[i].voted = true;\n        }\n      }\n      if ( candidateValid(allCandidates[c].timestamp, gid) ) {\n        candidates[i].timestamp = allCandidates[c].timestamp;\n      } else {\n        candidates[i].timestamp = 0;\n      }\n    }\n    return candidates;\n  }\n\n  function candidateValid(uint candidateTimestamp, uint gid) private view returns(bool) {\n    return ( ( candidateTimestamp + daoGroups[gid].voteDuration) > block.timestamp );\n  }\n\n  // vote candidate token and eventually promote the change if quorum is passed\n  function voteCandidate(uint gid, uint candTokId, uint vote) public returns(bool) {\n    require(isAddressInGroup(gid, msg.sender), \"member cannot vote!\" );\n\n    // find candidate\n    Candidate memory candidate;\n    // check it exists in the group\n    uint l = daoGroups[gid].candidateIds.length;\n    bool candidateFound = false; \n    for (uint i = 0; i < l; i++) {\n      if (daoGroups[gid].candidateIds[i] == candTokId) {\n        candidate = allCandidates[candTokId];\n        candidateFound = true;\n        break;\n      }\n    }\n    require(candidateFound, \"candidate token doesn't exists\");\n    require(candidateValid(candidate.timestamp, gid), \"candidate invalid\");\n\n    // add voter (this would be the same if we merge)\n    uint m = candidate.voters.length;\n    address[] memory v = new address[](m+1);\n    for (uint i = 0; i < m; i++) {\n      require(candidate.voters[i] != msg.sender, \"address already voted!\");\n      v[i]=candidate.voters[i];\n    }\n    v[m]=msg.sender;\n    candidate.voters=v;\n\n    // assign vote   \n    if (vote > 0) {\n      candidate.votes += 1;\n    }\n    \n    // write on chain\n    allCandidates[candTokId] = candidate;\n\n    // check if candidate win\n    uint quorum = getQuorum(gid);\n    if ( candidate.votes > quorum ) {\n      if ( candidate.candType == 0 ) {\n        addAddresstoGroup(gid, candidate.candidateAddress);\n      }       \n      if ( ( candidate.candType == 1 ) || ( candidate.candType == 2 ) ) {\n        createGToken(candidate.id, candidate.name, candidate.roundSupply, candidate.roundDuration, (candidate.candType == 2), gid);\n      }\n      if ( candidate.candType == 3 ) {\n        daoGroups[gid].voteThreshold = candidate.id;  \n      } \n      if ( candidate.candType == 4 ) {\n        daoGroups[gid].voteDuration = candidate.id;  \n      } \n\n      // remove element from candidates array\n      uint[] memory newCandidateIds = new uint[](l-1);\n      uint index;\n      uint k;\n      for (k = 0; k < l; k++) {\n        if ( daoGroups[gid].candidateIds[k] == candTokId ) {\n          index = k;\n          break;\n        }\n      }\n      for (k = 0; k < l; k++) {\n        if ( k < index) {\n          newCandidateIds[k] = daoGroups[gid].candidateIds[k];\n        }\n        if ( k > index) {\n          newCandidateIds[k-1] = daoGroups[gid].candidateIds[k];\n        }\n      }\n      \n      daoGroups[gid].candidateIds = newCandidateIds;\n\n    }\n\n    return true;\n  }\n\n  function getQuorum(uint gid) private view returns(uint) {\n    require(isAddressInGroup(gid, msg.sender));\n    return daoGroups[gid].members.length * daoGroups[gid].voteThreshold / 10 ;\n  }\n\n/*\n*\n*   Group Members\n*/\n\n  function addAddresstoGroup(uint gid, address addr) private returns(bool) {\n    require(!isAddressInGroup(gid, addr), \"member already present!\" );\n    uint l = daoGroups[gid].members.length;\n    address[] memory members = new address[](l+1);\n    for (uint i = 0; i < l; i++) {\n      members[i] = daoGroups[gid].members[i];\n    }\n    members[l] = addr;\n    daoGroups[gid].members = members;\n    return true;\n  }\n\n  function removeMeFromGroup(uint gid) public returns(bool) {\n    require(isAddressInGroup(gid, msg.sender), \"member not in group!\" );\n\n    uint l = daoGroups[gid].members.length;\n    address[] memory members = new address[](l-1);\n    uint index;\n    uint k;\n    for (k = 0; k < l; k++) {\n      if ( daoGroups[gid].members[k] != msg.sender ) {\n        index = k;\n        break;\n      }\n    }\n    for (k = 0; k < l; k++) {\n      if ( k < index) {\n        members[k] = daoGroups[gid].members[k];\n      }\n      if ( k > index) {\n        members[k-1] = daoGroups[gid].members[k];\n      }\n    }\n    daoGroups[gid].members = members;\n    return true;\n  }\n\n\n\n  function isAddressInGroup(uint gid, address addr) private view returns(bool) {\n    bool exists = false;\n    for (uint i = 0; i < daoGroups[gid].members.length; i++) {\n      if( daoGroups[gid].members[i] == addr ) {\n        exists=true;\n        break;\n      }\n    }\n    return exists;\n  }\n\n  function myGroups() public view returns(uint[] memory) {\n    uint lg = daoGroups.length;\n    uint[] memory mygroups;\n    for (uint i = 0; i < lg; i++) {\n      uint lm = daoGroups[i].members.length;\n      for (uint q = 0; q < lm; q++) {\n        if(daoGroups[i].members[q] == msg.sender) {\n          uint gl = mygroups.length;\n          uint[] memory groups = new uint[](gl+1);\n          for (uint w = 0; w < gl; w++) {\n            groups[w] = mygroups[w];\n          }\n          groups[gl] = i;\n          mygroups = groups;\n        }\n      }\n    }\n    return mygroups;\n  }\n\n  function groupNameByInvitation(uint gid, string calldata invitation) public view returns(string memory){\n    require( invitationLinks[invitation] == gid, \"user not authorized\" ); \n    return daoGroups[gid].name;\n  }\n  \n  // names are public\n  function nameOf(address owner) public view returns(string memory) {\n    return names[owner];\n  }\n\n  function nameSet(string calldata name) public returns(bool) {\n    names[msg.sender]=name;\n    return true;\n  }\n\n}\n",
  "sourcePath": "/home/fabian/kuoricinidao/contracts/polygon/KuoriciniDao.sol",
  "compiler": {
    "name": "solc",
    "version": "0.8.11+commit.d7f03943.Emscripten.clang"
  },
  "schemaVersion": "3.4.4",
  "updatedAt": "2022-08-21T22:07:52.247Z",
  "devdoc": {
    "kind": "dev",
    "methods": {},
    "version": 1
  },
  "userdoc": {
    "kind": "user",
    "methods": {},
    "version": 1
  }
}