{
  "contractName": "KuoriciniDao",
  "abi": [
    {
      "inputs": [],
      "stateMutability": "nonpayable",
      "type": "constructor"
    },
    {
      "inputs": [
        {
          "internalType": "string",
          "name": "_name",
          "type": "string"
        }
      ],
      "name": "createGroup",
      "outputs": [
        {
          "internalType": "bool",
          "name": "",
          "type": "bool"
        }
      ],
      "stateMutability": "nonpayable",
      "type": "function"
    },
    {
      "inputs": [
        {
          "internalType": "uint256",
          "name": "_gid",
          "type": "uint256"
        }
      ],
      "name": "getGroup",
      "outputs": [
        {
          "components": [
            {
              "internalType": "string",
              "name": "name",
              "type": "string"
            },
            {
              "internalType": "address[]",
              "name": "members",
              "type": "address[]"
            },
            {
              "internalType": "uint256[]",
              "name": "tokenIds",
              "type": "uint256[]"
            },
            {
              "internalType": "uint256[]",
              "name": "candidatesIds",
              "type": "uint256[]"
            },
            {
              "internalType": "uint256",
              "name": "voteThreshold",
              "type": "uint256"
            }
          ],
          "internalType": "struct KuoriciniDao.DaoGroup",
          "name": "",
          "type": "tuple"
        }
      ],
      "stateMutability": "view",
      "type": "function",
      "constant": true
    },
    {
      "inputs": [
        {
          "internalType": "uint256",
          "name": "_tokenid",
          "type": "uint256"
        }
      ],
      "name": "getToken",
      "outputs": [
        {
          "components": [
            {
              "internalType": "string",
              "name": "name",
              "type": "string"
            },
            {
              "internalType": "uint256",
              "name": "roundSupply",
              "type": "uint256"
            },
            {
              "internalType": "uint256",
              "name": "roundDuration",
              "type": "uint256"
            },
            {
              "internalType": "uint256",
              "name": "timestamp",
              "type": "uint256"
            }
          ],
          "internalType": "struct KuoriciniDao.GToken",
          "name": "",
          "type": "tuple"
        }
      ],
      "stateMutability": "view",
      "type": "function",
      "constant": true
    },
    {
      "inputs": [
        {
          "internalType": "string",
          "name": "_name",
          "type": "string"
        },
        {
          "internalType": "uint256",
          "name": "_supply",
          "type": "uint256"
        },
        {
          "internalType": "uint256",
          "name": "_duration",
          "type": "uint256"
        },
        {
          "internalType": "uint256",
          "name": "_groupId",
          "type": "uint256"
        }
      ],
      "name": "createGToken",
      "outputs": [
        {
          "internalType": "bool",
          "name": "",
          "type": "bool"
        }
      ],
      "stateMutability": "nonpayable",
      "type": "function"
    },
    {
      "inputs": [
        {
          "internalType": "uint256",
          "name": "_gid",
          "type": "uint256"
        }
      ],
      "name": "getUserTokens",
      "outputs": [
        {
          "components": [
            {
              "internalType": "uint256",
              "name": "tokenId",
              "type": "uint256"
            },
            {
              "internalType": "uint256",
              "name": "gTokenBalance",
              "type": "uint256"
            },
            {
              "internalType": "uint256",
              "name": "xBalance",
              "type": "uint256"
            }
          ],
          "internalType": "struct KuoriciniDao.UToken[]",
          "name": "",
          "type": "tuple[]"
        }
      ],
      "stateMutability": "view",
      "type": "function",
      "constant": true
    },
    {
      "inputs": [
        {
          "internalType": "uint256",
          "name": "_tokenId",
          "type": "uint256"
        },
        {
          "internalType": "address",
          "name": "receiver",
          "type": "address"
        },
        {
          "internalType": "uint256",
          "name": "value",
          "type": "uint256"
        }
      ],
      "name": "transferToken",
      "outputs": [
        {
          "internalType": "bool",
          "name": "",
          "type": "bool"
        }
      ],
      "stateMutability": "nonpayable",
      "type": "function"
    },
    {
      "inputs": [
        {
          "internalType": "uint256",
          "name": "_id",
          "type": "uint256"
        }
      ],
      "name": "getGroupNamefromId",
      "outputs": [
        {
          "internalType": "string",
          "name": "",
          "type": "string"
        }
      ],
      "stateMutability": "view",
      "type": "function",
      "constant": true
    },
    {
      "inputs": [
        {
          "internalType": "uint256",
          "name": "_id",
          "type": "uint256"
        }
      ],
      "name": "getGroupAddressfromId",
      "outputs": [
        {
          "internalType": "address[]",
          "name": "",
          "type": "address[]"
        }
      ],
      "stateMutability": "view",
      "type": "function",
      "constant": true
    },
    {
      "inputs": [
        {
          "internalType": "uint256",
          "name": "_gid",
          "type": "uint256"
        },
        {
          "internalType": "address",
          "name": "candAddr",
          "type": "address"
        }
      ],
      "name": "addCandidate",
      "outputs": [
        {
          "internalType": "bool",
          "name": "",
          "type": "bool"
        }
      ],
      "stateMutability": "nonpayable",
      "type": "function"
    },
    {
      "inputs": [
        {
          "internalType": "uint256",
          "name": "gid",
          "type": "uint256"
        },
        {
          "internalType": "address",
          "name": "candAddr",
          "type": "address"
        },
        {
          "internalType": "int256",
          "name": "vote",
          "type": "int256"
        }
      ],
      "name": "voteCandidate",
      "outputs": [
        {
          "internalType": "bool",
          "name": "",
          "type": "bool"
        }
      ],
      "stateMutability": "nonpayable",
      "type": "function"
    },
    {
      "inputs": [
        {
          "internalType": "uint256",
          "name": "gid",
          "type": "uint256"
        }
      ],
      "name": "getGroupCandidates",
      "outputs": [
        {
          "components": [
            {
              "internalType": "address",
              "name": "candidateAddress",
              "type": "address"
            },
            {
              "internalType": "int256",
              "name": "votes",
              "type": "int256"
            },
            {
              "internalType": "address[]",
              "name": "voters",
              "type": "address[]"
            }
          ],
          "internalType": "struct KuoriciniDao.Candidate[]",
          "name": "",
          "type": "tuple[]"
        }
      ],
      "stateMutability": "view",
      "type": "function",
      "constant": true
    },
    {
      "inputs": [
        {
          "internalType": "uint256",
          "name": "_id",
          "type": "uint256"
        },
        {
          "internalType": "address",
          "name": "_addr",
          "type": "address"
        }
      ],
      "name": "addAddresstoMembers",
      "outputs": [
        {
          "internalType": "bool",
          "name": "",
          "type": "bool"
        }
      ],
      "stateMutability": "nonpayable",
      "type": "function"
    },
    {
      "inputs": [],
      "name": "myGroups",
      "outputs": [
        {
          "internalType": "uint256[]",
          "name": "",
          "type": "uint256[]"
        }
      ],
      "stateMutability": "view",
      "type": "function",
      "constant": true
    },
    {
      "inputs": [
        {
          "internalType": "address",
          "name": "owner",
          "type": "address"
        }
      ],
      "name": "nameOf",
      "outputs": [
        {
          "internalType": "string",
          "name": "",
          "type": "string"
        }
      ],
      "stateMutability": "view",
      "type": "function",
      "constant": true
    },
    {
      "inputs": [
        {
          "internalType": "string",
          "name": "name",
          "type": "string"
        }
      ],
      "name": "nameSet",
      "outputs": [
        {
          "internalType": "bool",
          "name": "",
          "type": "bool"
        }
      ],
      "stateMutability": "nonpayable",
      "type": "function"
    },
    {
      "inputs": [],
      "name": "tellmeNow",
      "outputs": [
        {
          "internalType": "uint256",
          "name": "",
          "type": "uint256"
        }
      ],
      "stateMutability": "view",
      "type": "function",
      "constant": true
    },
    {
      "inputs": [
        {
          "internalType": "uint256",
          "name": "_tokenId",
          "type": "uint256"
        },
        {
          "internalType": "uint256",
          "name": "_groupId",
          "type": "uint256"
        }
      ],
      "name": "resetRound",
      "outputs": [
        {
          "internalType": "bool",
          "name": "",
          "type": "bool"
        }
      ],
      "stateMutability": "nonpayable",
      "type": "function"
    }
  ],
  "bytecode": "0x608060405234801561001057600080fd5b50613c7a806100206000396000f3fe608060405234801561001057600080fd5b506004361061010b5760003560e01c8063c3f93437116100a2578063dbb5313f11610071578063dbb5313f1461032c578063dc2ddcae1461035c578063e4b50cb81461038c578063edeefa31146103bc578063f5c57382146103ec5761010b565b8063c3f9343714610290578063ceb60654146102ae578063d17bd40b146102de578063dabd71cf1461030e5761010b565b8063558f8f04116100de578063558f8f04146101d05780635af18a6014610200578063857af37b1461023057806396f714fc146102605761010b565b8063088cab181461011057806310f9a5f71461014057806333c57ccd146101705780635565c48a146101a0575b600080fd5b61012a60048036038101906101259190612ce4565b61041c565b6040516101379190612f2c565b60405180910390f35b61015a60048036038101906101559190612f4e565b61064c565b6040516101679190612fa9565b60405180910390f35b61018a60048036038101906101859190612ff0565b6108aa565b6040516101979190612fa9565b60405180910390f35b6101ba60048036038101906101b5919061305c565b610c5c565b6040516101c79190612fa9565b60405180910390f35b6101ea60048036038101906101e59190612ce4565b6110ad565b6040516101f7919061311e565b60405180910390f35b61021a600480360381019061021591906131a5565b611160565b6040516102279190612fa9565b60405180910390f35b61024a60048036038101906102459190612ce4565b61129f565b60405161025791906132c6565b60405180910390f35b61027a60048036038101906102759190612ff0565b611356565b6040516102879190612fa9565b60405180910390f35b61029861158a565b6040516102a591906133a6565b60405180910390f35b6102c860048036038101906102c39190612ce4565b61177f565b6040516102d5919061350c565b60405180910390f35b6102f860048036038101906102f39190612ce4565b611995565b604051610305919061361f565b60405180910390f35b610316611d28565b6040516103239190613650565b60405180910390f35b6103466004803603810190610341919061366b565b611d30565b6040516103539190612fa9565b60405180910390f35b610376600480360381019061037191906136be565b612518565b6040516103839190612fa9565b60405180910390f35b6103a660048036038101906103a19190612ce4565b6126e9565b6040516103b3919061376e565b60405180910390f35b6103d660048036038101906103d191906136be565b6127d5565b6040516103e39190612fa9565b60405180910390f35b61040660048036038101906104019190613790565b61282f565b60405161041391906132c6565b60405180910390f35b6060600060028381548110610434576104336137bd565b5b906000526020600020906005020160030180549050905060008167ffffffffffffffff811115610467576104666137ec565b5b6040519080825280602002602001820160405280156104a057816020015b61048d6129f5565b8152602001906001900390816104855790505b50905060005b82811015610641576000600286815481106104c4576104c36137bd565b5b906000526020600020906005020160030182815481106104e7576104e66137bd565b5b9060005260206000200154905060048181548110610508576105076137bd565b5b90600052602060002090600302016040518060600160405290816000820160009054906101000a900473ffffffffffffffffffffffffffffffffffffffff1673ffffffffffffffffffffffffffffffffffffffff1673ffffffffffffffffffffffffffffffffffffffff168152602001600182015481526020016002820180548060200260200160405190810160405280929190818152602001828054801561060657602002820191906000526020600020905b8160009054906101000a900473ffffffffffffffffffffffffffffffffffffffff1673ffffffffffffffffffffffffffffffffffffffff16815260200190600101908083116105bc575b505050505081525050838381518110610622576106216137bd565b5b60200260200101819052505080806106399061384a565b9150506104a6565b508092505050919050565b60008060028381548110610663576106626137bd565b5b90600052602060002090600502016001018054806020026020016040519081016040528092919081815260200182805480156106f457602002820191906000526020600020905b8160009054906101000a900473ffffffffffffffffffffffffffffffffffffffff1673ffffffffffffffffffffffffffffffffffffffff16815260200190600101908083116106aa575b5050505050905060008151905060005b8181101561089d576000838281518110610721576107206137bd565b5b602002602001015190506000600160008373ffffffffffffffffffffffffffffffffffffffff1673ffffffffffffffffffffffffffffffffffffffff16815260200190815260200160002080549050905060005b818110156108875788600160008573ffffffffffffffffffffffffffffffffffffffff1673ffffffffffffffffffffffffffffffffffffffff16815260200190815260200160002082815481106107cf576107ce6137bd565b5b906000526020600020906003020160000154141561087457600389815481106107fb576107fa6137bd565b5b906000526020600020906004020160010154600160008573ffffffffffffffffffffffffffffffffffffffff1673ffffffffffffffffffffffffffffffffffffffff168152602001908152602001600020828154811061085e5761085d6137bd565b5b9060005260206000209060030201600201819055505b808061087f9061384a565b915050610775565b50505080806108959061384a565b915050610704565b5060019250505092915050565b60006108b683836128ff565b156108f6576040517f08c379a00000000000000000000000000000000000000000000000000000000081526004016108ed906138df565b60405180910390fd5b60006002848154811061090c5761090b6137bd565b5b9060005260206000209060050201600301805490509050600060018261093291906138ff565b67ffffffffffffffff81111561094b5761094a6137ec565b5b6040519080825280602002602001820160405280156109795781602001602082028036833780820191505090505b50905060005b82811015610ac9576002868154811061099b5761099a6137bd565b5b906000526020600020906005020160030181815481106109be576109bd6137bd565b5b90600052602060002001548282815181106109dc576109db6137bd565b5b6020026020010181815250508473ffffffffffffffffffffffffffffffffffffffff166004838381518110610a1457610a136137bd565b5b602002602001015181548110610a2d57610a2c6137bd565b5b906000526020600020906003020160000160009054906101000a900473ffffffffffffffffffffffffffffffffffffffff1673ffffffffffffffffffffffffffffffffffffffff161415610ab6576040517f08c379a0000000000000000000000000000000000000000000000000000000008152600401610aad906139a1565b60405180910390fd5b8080610ac19061384a565b91505061097f565b5060008067ffffffffffffffff811115610ae657610ae56137ec565b5b604051908082528060200260200182016040528015610b145781602001602082028036833780820191505090505b509050600460405180606001604052808773ffffffffffffffffffffffffffffffffffffffff1681526020016000815260200183815250908060018154018082558091505060019003906000526020600020906003020160009091909190915060008201518160000160006101000a81548173ffffffffffffffffffffffffffffffffffffffff021916908373ffffffffffffffffffffffffffffffffffffffff160217905550602082015181600101556040820151816002019080519060200190610be1929190612a2c565b5050506001600480549050610bf691906139c1565b828481518110610c0957610c086137bd565b5b6020026020010181815250508160028781548110610c2a57610c296137bd565b5b90600052602060002090600502016003019080519060200190610c4e929190612ab6565b506001935050505092915050565b60008060028581548110610c7357610c726137bd565b5b9060005260206000209060050201600301805490509050610c926129f5565b6000806000905083811015610e8357600060028981548110610cb757610cb66137bd565b5b90600052602060002090600502016003018281548110610cda57610cd96137bd565b5b906000526020600020015490508773ffffffffffffffffffffffffffffffffffffffff1660048281548110610d1257610d116137bd565b5b906000526020600020906003020160000160009054906101000a900473ffffffffffffffffffffffffffffffffffffffff1673ffffffffffffffffffffffffffffffffffffffff161415610e815760048181548110610d7457610d736137bd565b5b90600052602060002090600302016040518060600160405290816000820160009054906101000a900473ffffffffffffffffffffffffffffffffffffffff1673ffffffffffffffffffffffffffffffffffffffff1673ffffffffffffffffffffffffffffffffffffffff1681526020016001820154815260200160028201805480602002602001604051908101604052809291908181526020018280548015610e7257602002820191906000526020600020905b8160009054906101000a900473ffffffffffffffffffffffffffffffffffffffff1673ffffffffffffffffffffffffffffffffffffffff1681526020019060010190808311610e28575b50505050508152505093508092505b505b506000851315610eac57600182602001818151610ea091906139f5565b91508181525050610ec7565b600182602001818151610ebf9190613a89565b915081815250505b81604001515192506000600184610ede91906138ff565b67ffffffffffffffff811115610ef757610ef66137ec565b5b604051908082528060200260200182016040528015610f255781602001602082028036833780820191505090505b50905060005b84811015610fb25783604001518181518110610f4a57610f496137bd565b5b6020026020010151828281518110610f6557610f646137bd565b5b602002602001019073ffffffffffffffffffffffffffffffffffffffff16908173ffffffffffffffffffffffffffffffffffffffff16815250508080610faa9061384a565b915050610f2b565b5033818581518110610fc757610fc66137bd565b5b602002602001019073ffffffffffffffffffffffffffffffffffffffff16908173ffffffffffffffffffffffffffffffffffffffff1681525050808360400181905250826004838154811061101f5761101e6137bd565b5b906000526020600020906003020160008201518160000160006101000a81548173ffffffffffffffffffffffffffffffffffffffff021916908373ffffffffffffffffffffffffffffffffffffffff16021790555060208201518160010155604082015181600201908051906020019061109a929190612a2c565b5090505060019450505050509392505050565b6060600282815481106110c3576110c26137bd565b5b906000526020600020906005020160010180548060200260200160405190810160405280929190818152602001828054801561115457602002820191906000526020600020905b8160009054906101000a900473ffffffffffffffffffffffffffffffffffffffff1673ffffffffffffffffffffffffffffffffffffffff168152602001906001019080831161110a575b50505050509050919050565b60006003604051806080016040528088888080601f016020809104026020016040519081016040528093929190818152602001838380828437600081840152601f19601f820116905080830192505050505050508152602001868152602001858152602001428152509080600181540180825580915050600190039060005260206000209060040201600090919091909150600082015181600001908051906020019061120e929190612b03565b506020820151816001015560408201518160020155606082015181600301555050600060038054905090506002838154811061124d5761124c6137bd565b5b906000526020600020906005020160020160018261126b91906139c1565b9080600181540180825580915050600190039060005260206000200160009091909190915055600191505095945050505050565b6060600282815481106112b5576112b46137bd565b5b906000526020600020906005020160000180546112d190613b4c565b80601f01602080910402602001604051908101604052809291908181526020018280546112fd90613b4c565b801561134a5780601f1061131f5761010080835404028352916020019161134a565b820191906000526020600020905b81548152906001019060200180831161132d57829003601f168201915b50505050509050919050565b600061136283836128ff565b156113a2576040517f08c379a0000000000000000000000000000000000000000000000000000000008152600401611399906138df565b60405180910390fd5b6000600284815481106113b8576113b76137bd565b5b906000526020600020906005020160010180549050905060006001826113de91906138ff565b67ffffffffffffffff8111156113f7576113f66137ec565b5b6040519080825280602002602001820160405280156114255781602001602082028036833780820191505090505b50905060005b828110156114f55760028681548110611447576114466137bd565b5b9060005260206000209060050201600101818154811061146a576114696137bd565b5b9060005260206000200160009054906101000a900473ffffffffffffffffffffffffffffffffffffffff168282815181106114a8576114a76137bd565b5b602002602001019073ffffffffffffffffffffffffffffffffffffffff16908173ffffffffffffffffffffffffffffffffffffffff168152505080806114ed9061384a565b91505061142b565b508381838151811061150a576115096137bd565b5b602002602001019073ffffffffffffffffffffffffffffffffffffffff16908173ffffffffffffffffffffffffffffffffffffffff16815250508060028681548110611559576115586137bd565b5b9060005260206000209060050201600101908051906020019061157d929190612a2c565b5060019250505092915050565b606060006002805490509050606060005b82811015611776576000600282815481106115b9576115b86137bd565b5b906000526020600020906005020160010180549050905060005b81811015611761573373ffffffffffffffffffffffffffffffffffffffff1660028481548110611606576116056137bd565b5b90600052602060002090600502016001018281548110611629576116286137bd565b5b9060005260206000200160009054906101000a900473ffffffffffffffffffffffffffffffffffffffff1673ffffffffffffffffffffffffffffffffffffffff16141561174e57600084519050600060018261168591906138ff565b67ffffffffffffffff81111561169e5761169d6137ec565b5b6040519080825280602002602001820160405280156116cc5781602001602082028036833780820191505090505b50905060005b82811015611727578681815181106116ed576116ec6137bd565b5b6020026020010151828281518110611708576117076137bd565b5b602002602001018181525050808061171f9061384a565b9150506116d2565b508481838151811061173c5761173b6137bd565b5b60200260200101818152505080955050505b80806117599061384a565b9150506115d3565b5050808061176e9061384a565b91505061159b565b50809250505090565b611787612b89565b6002828154811061179b5761179a6137bd565b5b90600052602060002090600502016040518060a00160405290816000820180546117c490613b4c565b80601f01602080910402602001604051908101604052809291908181526020018280546117f090613b4c565b801561183d5780601f106118125761010080835404028352916020019161183d565b820191906000526020600020905b81548152906001019060200180831161182057829003601f168201915b50505050508152602001600182018054806020026020016040519081016040528092919081815260200182805480156118cb57602002820191906000526020600020905b8160009054906101000a900473ffffffffffffffffffffffffffffffffffffffff1673ffffffffffffffffffffffffffffffffffffffff1681526020019060010190808311611881575b505050505081526020016002820180548060200260200160405190810160405280929190818152602001828054801561192357602002820191906000526020600020905b81548152602001906001019080831161190f575b505050505081526020016003820180548060200260200160405190810160405280929190818152602001828054801561197b57602002820191906000526020600020905b815481526020019060010190808311611967575b505050505081526020016004820154815250509050919050565b60606000600283815481106119ad576119ac6137bd565b5b906000526020600020906005020160020180549050905060008167ffffffffffffffff8111156119e0576119df6137ec565b5b604051908082528060200260200182016040528015611a1957816020015b611a06612bb8565b8152602001906001900390816119fe5790505b50905060005b82811015611d1d57600060028681548110611a3d57611a3c6137bd565b5b90600052602060002090600502016002018281548110611a6057611a5f6137bd565b5b906000526020600020015490506000600160003373ffffffffffffffffffffffffffffffffffffffff1673ffffffffffffffffffffffffffffffffffffffff1681526020019081526020016000208054905090506000805b82811015611c995783600160003373ffffffffffffffffffffffffffffffffffffffff1673ffffffffffffffffffffffffffffffffffffffff1681526020019081526020016000208281548110611b1257611b116137bd565b5b9060005260206000209060030201600001541415611c8657600160003373ffffffffffffffffffffffffffffffffffffffff1673ffffffffffffffffffffffffffffffffffffffff1681526020019081526020016000208181548110611b7b57611b7a6137bd565b5b90600052602060002090600302016040518060600160405290816000820154815260200160018201548152602001600282015481525050868681518110611bc557611bc46137bd565b5b6020026020010181905250600060038581548110611be657611be56137bd565b5b90600052602060002090600402016002015460038681548110611c0c57611c0b6137bd565b5b906000526020600020906004020160030154611c2891906138ff565b905080421115611c7c5760038581548110611c4657611c456137bd565b5b906000526020600020906004020160010154878781518110611c6b57611c6a6137bd565b5b602002602001015160400181815250505b6001925050611c99565b8080611c919061384a565b915050611ab8565b50600015158115151415611d075760405180606001604052808481526020016000815260200160038581548110611cd357611cd26137bd565b5b906000526020600020906004020160010154815250858581518110611cfb57611cfa6137bd565b5b60200260200101819052505b5050508080611d159061384a565b915050611a1f565b508092505050919050565b600042905090565b6000611d3a612bb8565b60008080600091505b600160003373ffffffffffffffffffffffffffffffffffffffff1673ffffffffffffffffffffffffffffffffffffffff16815260200190815260200160002080549050821015611e9d5787600160003373ffffffffffffffffffffffffffffffffffffffff1673ffffffffffffffffffffffffffffffffffffffff1681526020019081526020016000208381548110611ddf57611dde6137bd565b5b9060005260206000209060030201600001541415611e8a57600160003373ffffffffffffffffffffffffffffffffffffffff1673ffffffffffffffffffffffffffffffffffffffff1681526020019081526020016000208281548110611e4857611e476137bd565b5b90600052602060002090600302016040518060600160405290816000820154815260200160018201548152602001600282015481525050935060019250611e9d565b8180611e959061384a565b925050611d43565b600015158315151415611eee5760405180606001604052808981526020016000815260200160038a81548110611ed657611ed56137bd565b5b90600052602060002090600402016001015481525093505b600160038981548110611f0457611f036137bd565b5b906000526020600020906004020160020154611f209190613b7e565b60038981548110611f3457611f336137bd565b5b906000526020600020906004020160030154611f5091906138ff565b4211156120395760038881548110611f6b57611f6a6137bd565b5b906000526020600020906004020160010154846040018181525050600060038981548110611f9c57611f9b6137bd565b5b906000526020600020906004020160030154905060005b4282101561200c578060038b81548110611fd057611fcf6137bd565b5b906000526020600020906004020160020154611fec9190613b7e565b82611ff791906138ff565b915080806120049061384a565b915050611fb3565b508060038a81548110612022576120216137bd565b5b906000526020600020906004020160030181905550505b8584604001511015612080576040517f08c379a000000000000000000000000000000000000000000000000000000000815260040161207790613c24565b60405180910390fd5b612088612bb8565b60008092505b600160008a73ffffffffffffffffffffffffffffffffffffffff1673ffffffffffffffffffffffffffffffffffffffff168152602001908152602001600020805490508310156121e85789600160008b73ffffffffffffffffffffffffffffffffffffffff1673ffffffffffffffffffffffffffffffffffffffff168152602001908152602001600020848154811061212a576121296137bd565b5b90600052602060002090600302016000015414156121d557600160008a73ffffffffffffffffffffffffffffffffffffffff1673ffffffffffffffffffffffffffffffffffffffff1681526020019081526020016000208381548110612193576121926137bd565b5b906000526020600020906003020160405180606001604052908160008201548152602001600182015481526020016002820154815250509150600190506121e8565b82806121e09061384a565b93505061208e565b6000151581151514156122395760405180606001604052808b81526020016000815260200160038c81548110612221576122206137bd565b5b90600052602060002090600402016001015481525091505b878660400181815161224b91906139c1565b91508181525050878260200181815161226491906138ff565b915081815250506001151585151514156122fe5785600160003373ffffffffffffffffffffffffffffffffffffffff1673ffffffffffffffffffffffffffffffffffffffff16815260200190815260200160002085815481106122ca576122c96137bd565b5b90600052602060002090600302016000820151816000015560208201518160010155604082015181600201559050506123a7565b600160003373ffffffffffffffffffffffffffffffffffffffff1673ffffffffffffffffffffffffffffffffffffffff16815260200190815260200160002060405180606001604052808c8152602001600081526020018860400151815250908060018154018082558091505060019003906000526020600020906003020160009091909190915060008201518160000155602082015181600101556040820151816002015550505b60011515811515141561243a5781600160008b73ffffffffffffffffffffffffffffffffffffffff1673ffffffffffffffffffffffffffffffffffffffff1681526020019081526020016000208481548110612406576124056137bd565b5b9060005260206000209060030201600082015181600001556020820151816001015560408201518160020155905050612507565b600160008a73ffffffffffffffffffffffffffffffffffffffff1673ffffffffffffffffffffffffffffffffffffffff16815260200190815260200160002060405180606001604052808c81526020018460200151815260200160038d815481106124a8576124a76137bd565b5b906000526020600020906004020160010154815250908060018154018082558091505060019003906000526020600020906003020160009091909190915060008201518160000155602082015181600101556040820151816002015550505b600196505050505050509392505050565b600080600167ffffffffffffffff811115612536576125356137ec565b5b6040519080825280602002602001820160405280156125645781602001602082028036833780820191505090505b509050338160008151811061257c5761257b6137bd565b5b602002602001019073ffffffffffffffffffffffffffffffffffffffff16908173ffffffffffffffffffffffffffffffffffffffff168152505060608060006005905060006040518060a0016040528089898080601f016020809104026020016040519081016040528093929190818152602001838380828437600081840152601f19601f82011690508083019250505050505050815260200186815260200185815260200184815260200183815250905060028190806001815401808255809150506001900390600052602060002090600502016000909190919091506000820151816000019080519060200190612676929190612b03565b506020820151816001019080519060200190612693929190612a2c565b5060408201518160020190805190602001906126b0929190612ab6565b5060608201518160030190805190602001906126cd929190612ab6565b5060808201518160040155505060019550505050505092915050565b6126f1612bd9565b60038281548110612705576127046137bd565b5b906000526020600020906004020160405180608001604052908160008201805461272e90613b4c565b80601f016020809104026020016040519081016040528092919081815260200182805461275a90613b4c565b80156127a75780601f1061277c576101008083540402835291602001916127a7565b820191906000526020600020905b81548152906001019060200180831161278a57829003601f168201915b5050505050815260200160018201548152602001600282015481526020016003820154815250509050919050565b600082826000803373ffffffffffffffffffffffffffffffffffffffff1673ffffffffffffffffffffffffffffffffffffffff1681526020019081526020016000209190612824929190612c01565b506001905092915050565b60606000808373ffffffffffffffffffffffffffffffffffffffff1673ffffffffffffffffffffffffffffffffffffffff168152602001908152602001600020805461287a90613b4c565b80601f01602080910402602001604051908101604052809291908181526020018280546128a690613b4c565b80156128f35780601f106128c8576101008083540402835291602001916128f3565b820191906000526020600020905b8154815290600101906020018083116128d657829003601f168201915b50505050509050919050565b6000806000905060005b6002858154811061291d5761291c6137bd565b5b9060005260206000209060050201600101805490508110156129ea578373ffffffffffffffffffffffffffffffffffffffff1660028681548110612964576129636137bd565b5b90600052602060002090600502016001018281548110612987576129866137bd565b5b9060005260206000200160009054906101000a900473ffffffffffffffffffffffffffffffffffffffff1673ffffffffffffffffffffffffffffffffffffffff1614156129d757600191506129ea565b80806129e29061384a565b915050612909565b508091505092915050565b6040518060600160405280600073ffffffffffffffffffffffffffffffffffffffff16815260200160008152602001606081525090565b828054828255906000526020600020908101928215612aa5579160200282015b82811115612aa45782518260006101000a81548173ffffffffffffffffffffffffffffffffffffffff021916908373ffffffffffffffffffffffffffffffffffffffff16021790555091602001919060010190612a4c565b5b509050612ab29190612c87565b5090565b828054828255906000526020600020908101928215612af2579160200282015b82811115612af1578251825591602001919060010190612ad6565b5b509050612aff9190612c87565b5090565b828054612b0f90613b4c565b90600052602060002090601f016020900481019282612b315760008555612b78565b82601f10612b4a57805160ff1916838001178555612b78565b82800160010185558215612b78579182015b82811115612b77578251825591602001919060010190612b5c565b5b509050612b859190612c87565b5090565b6040518060a0016040528060608152602001606081526020016060815260200160608152602001600081525090565b60405180606001604052806000815260200160008152602001600081525090565b6040518060800160405280606081526020016000815260200160008152602001600081525090565b828054612c0d90613b4c565b90600052602060002090601f016020900481019282612c2f5760008555612c76565b82601f10612c4857803560ff1916838001178555612c76565b82800160010185558215612c76579182015b82811115612c75578235825591602001919060010190612c5a565b5b509050612c839190612c87565b5090565b5b80821115612ca0576000816000905550600101612c88565b5090565b600080fd5b600080fd5b6000819050919050565b612cc181612cae565b8114612ccc57600080fd5b50565b600081359050612cde81612cb8565b92915050565b600060208284031215612cfa57612cf9612ca4565b5b6000612d0884828501612ccf565b91505092915050565b600081519050919050565b600082825260208201905092915050565b6000819050602082019050919050565b600073ffffffffffffffffffffffffffffffffffffffff82169050919050565b6000612d6882612d3d565b9050919050565b612d7881612d5d565b82525050565b6000819050919050565b612d9181612d7e565b82525050565b600081519050919050565b600082825260208201905092915050565b6000819050602082019050919050565b6000612dcf8383612d6f565b60208301905092915050565b6000602082019050919050565b6000612df382612d97565b612dfd8185612da2565b9350612e0883612db3565b8060005b83811015612e39578151612e208882612dc3565b9750612e2b83612ddb565b925050600181019050612e0c565b5085935050505092915050565b6000606083016000830151612e5e6000860182612d6f565b506020830151612e716020860182612d88565b5060408301518482036040860152612e898282612de8565b9150508091505092915050565b6000612ea28383612e46565b905092915050565b6000602082019050919050565b6000612ec282612d11565b612ecc8185612d1c565b935083602082028501612ede85612d2d565b8060005b85811015612f1a5784840389528151612efb8582612e96565b9450612f0683612eaa565b925060208a01995050600181019050612ee2565b50829750879550505050505092915050565b60006020820190508181036000830152612f468184612eb7565b905092915050565b60008060408385031215612f6557612f64612ca4565b5b6000612f7385828601612ccf565b9250506020612f8485828601612ccf565b9150509250929050565b60008115159050919050565b612fa381612f8e565b82525050565b6000602082019050612fbe6000830184612f9a565b92915050565b612fcd81612d5d565b8114612fd857600080fd5b50565b600081359050612fea81612fc4565b92915050565b6000806040838503121561300757613006612ca4565b5b600061301585828601612ccf565b925050602061302685828601612fdb565b9150509250929050565b61303981612d7e565b811461304457600080fd5b50565b60008135905061305681613030565b92915050565b60008060006060848603121561307557613074612ca4565b5b600061308386828701612ccf565b935050602061309486828701612fdb565b92505060406130a586828701613047565b9150509250925092565b600082825260208201905092915050565b60006130cb82612d97565b6130d581856130af565b93506130e083612db3565b8060005b838110156131115781516130f88882612dc3565b975061310383612ddb565b9250506001810190506130e4565b5085935050505092915050565b6000602082019050818103600083015261313881846130c0565b905092915050565b600080fd5b600080fd5b600080fd5b60008083601f84011261316557613164613140565b5b8235905067ffffffffffffffff81111561318257613181613145565b5b60208301915083600182028301111561319e5761319d61314a565b5b9250929050565b6000806000806000608086880312156131c1576131c0612ca4565b5b600086013567ffffffffffffffff8111156131df576131de612ca9565b5b6131eb8882890161314f565b955095505060206131fe88828901612ccf565b935050604061320f88828901612ccf565b925050606061322088828901612ccf565b9150509295509295909350565b600081519050919050565b600082825260208201905092915050565b60005b8381101561326757808201518184015260208101905061324c565b83811115613276576000848401525b50505050565b6000601f19601f8301169050919050565b60006132988261322d565b6132a28185613238565b93506132b2818560208601613249565b6132bb8161327c565b840191505092915050565b600060208201905081810360008301526132e0818461328d565b905092915050565b600081519050919050565b600082825260208201905092915050565b6000819050602082019050919050565b61331d81612cae565b82525050565b600061332f8383613314565b60208301905092915050565b6000602082019050919050565b6000613353826132e8565b61335d81856132f3565b935061336883613304565b8060005b838110156133995781516133808882613323565b975061338b8361333b565b92505060018101905061336c565b5085935050505092915050565b600060208201905081810360008301526133c08184613348565b905092915050565b600082825260208201905092915050565b60006133e48261322d565b6133ee81856133c8565b93506133fe818560208601613249565b6134078161327c565b840191505092915050565b600082825260208201905092915050565b600061342e826132e8565b6134388185613412565b935061344383613304565b8060005b8381101561347457815161345b8882613323565b97506134668361333b565b925050600181019050613447565b5085935050505092915050565b600060a083016000830151848203600086015261349e82826133d9565b915050602083015184820360208601526134b88282612de8565b915050604083015184820360408601526134d28282613423565b915050606083015184820360608601526134ec8282613423565b91505060808301516135016080860182613314565b508091505092915050565b600060208201905081810360008301526135268184613481565b905092915050565b600081519050919050565b600082825260208201905092915050565b6000819050602082019050919050565b6060820160008201516135706000850182613314565b5060208201516135836020850182613314565b5060408201516135966040850182613314565b50505050565b60006135a8838361355a565b60608301905092915050565b6000602082019050919050565b60006135cc8261352e565b6135d68185613539565b93506135e18361354a565b8060005b838110156136125781516135f9888261359c565b9750613604836135b4565b9250506001810190506135e5565b5085935050505092915050565b6000602082019050818103600083015261363981846135c1565b905092915050565b61364a81612cae565b82525050565b60006020820190506136656000830184613641565b92915050565b60008060006060848603121561368457613683612ca4565b5b600061369286828701612ccf565b93505060206136a386828701612fdb565b92505060406136b486828701612ccf565b9150509250925092565b600080602083850312156136d5576136d4612ca4565b5b600083013567ffffffffffffffff8111156136f3576136f2612ca9565b5b6136ff8582860161314f565b92509250509250929050565b6000608083016000830151848203600086015261372882826133d9565b915050602083015161373d6020860182613314565b5060408301516137506040860182613314565b5060608301516137636060860182613314565b508091505092915050565b60006020820190508181036000830152613788818461370b565b905092915050565b6000602082840312156137a6576137a5612ca4565b5b60006137b484828501612fdb565b91505092915050565b7f4e487b7100000000000000000000000000000000000000000000000000000000600052603260045260246000fd5b7f4e487b7100000000000000000000000000000000000000000000000000000000600052604160045260246000fd5b7f4e487b7100000000000000000000000000000000000000000000000000000000600052601160045260246000fd5b600061385582612cae565b91507fffffffffffffffffffffffffffffffffffffffffffffffffffffffffffffffff8214156138885761388761381b565b5b600182019050919050565b7f6d656d62657220616c72656164792070726573656e7421000000000000000000600082015250565b60006138c9601783613238565b91506138d482613893565b602082019050919050565b600060208201905081810360008301526138f8816138bc565b9050919050565b600061390a82612cae565b915061391583612cae565b9250827fffffffffffffffffffffffffffffffffffffffffffffffffffffffffffffffff0382111561394a5761394961381b565b5b828201905092915050565b7f63616e64696461746520616c7265616479206164646564210000000000000000600082015250565b600061398b601883613238565b915061399682613955565b602082019050919050565b600060208201905081810360008301526139ba8161397e565b9050919050565b60006139cc82612cae565b91506139d783612cae565b9250828210156139ea576139e961381b565b5b828203905092915050565b6000613a0082612d7e565b9150613a0b83612d7e565b9250817f7fffffffffffffffffffffffffffffffffffffffffffffffffffffffffffffff03831360008312151615613a4657613a4561381b565b5b817f8000000000000000000000000000000000000000000000000000000000000000038312600083121615613a7e57613a7d61381b565b5b828201905092915050565b6000613a9482612d7e565b9150613a9f83612d7e565b9250827f800000000000000000000000000000000000000000000000000000000000000001821260008412151615613ada57613ad961381b565b5b827f7fffffffffffffffffffffffffffffffffffffffffffffffffffffffffffffff018213600084121615613b1257613b1161381b565b5b828203905092915050565b7f4e487b7100000000000000000000000000000000000000000000000000000000600052602260045260246000fd5b60006002820490506001821680613b6457607f821691505b60208210811415613b7857613b77613b1d565b5b50919050565b6000613b8982612cae565b9150613b9483612cae565b9250817fffffffffffffffffffffffffffffffffffffffffffffffffffffffffffffffff0483118215151615613bcd57613bcc61381b565b5b828202905092915050565b7f6e6f6e2068616920616262617374616e7a6120746f6b656e0000000000000000600082015250565b6000613c0e601883613238565b9150613c1982613bd8565b602082019050919050565b60006020820190508181036000830152613c3d81613c01565b905091905056fea2646970667358221220e5aaabfb0801edd882e4e2a77601b5004978cb7da4c0273351dad02b7a2cfa8064736f6c634300080b0033",
  "immutableReferences": {},
  "source": "// SPDX-License-Identifier: MIT\npragma solidity ^0.8.0;\n\nimport \"./Voting.sol\";\n\ncontract KuoriciniDao {\n\n  struct DaoGroup {\n    string name;\n    address[] members;\n    uint[] tokenIds;\n    uint[] candidatesIds;\n    uint voteThreshold;\n  }\n  \n  struct Candidate {\n    address candidateAddress;\n    int votes;\n    address[] voters;\n  }\n\n  struct GToken {\n    string name;\n    uint roundSupply;\n    uint roundDuration;\n    uint timestamp;\n  }\n\n  struct UToken {\n    uint tokenId;\n    uint gTokenBalance;\n    uint xBalance;\n  }\n\n  mapping (address => string) names;\n  mapping (address => UToken[]) userTokens;\n  DaoGroup[] daoGroups;\n  GToken[] allTokens;\n  Candidate[] allCandidates;\n\n  constructor() public {\n  }\n\n  function createGroup(string calldata _name) public returns(bool) {\n    address[] memory addr = new address[](1);\n    addr[0] = msg.sender;\n    uint[] memory defaultTokens;\n    uint[] memory defaultCandidates;\n    uint threshold = 5;\n    DaoGroup memory new_group = DaoGroup({ name: _name, members: addr, tokenIds: defaultTokens, candidatesIds: defaultCandidates, voteThreshold: threshold });\n    daoGroups.push(new_group);\n    return true;\n  }\n\n  function getGroup(uint _gid) public view returns(DaoGroup memory) {\n    return daoGroups[_gid];\n  }\n\n\n/*\n*   Tokens\n*\n*/\n\n  function getToken(uint _tokenid) public view returns(GToken memory) {\n    return allTokens[_tokenid];\n  }\n\n  \n  function createGToken(string calldata _name, uint _supply, uint _duration, uint _groupId) public returns(bool){\n    allTokens.push(GToken({\n      name: _name,\n      roundSupply: _supply,\n      roundDuration: _duration,\n      timestamp: block.timestamp\n    }));\n    uint l = allTokens.length;\n    daoGroups[_groupId].tokenIds.push(l-1);\n    return true;\n  }\n\n  function getUserTokens(uint _gid) public view returns(UToken[] memory) {\n    uint l = daoGroups[_gid].tokenIds.length;\n    UToken[] memory _userTokens = new UToken[](l);\n    for (uint w = 0; w < l; w++) {\n      uint q = daoGroups[_gid].tokenIds[w];\n      uint m = userTokens[msg.sender].length;\n      bool matchFound = false;\n      for (uint j = 0; j < m; j++) {\n        if (userTokens[msg.sender][j].tokenId == q) {\n          _userTokens[w]=userTokens[msg.sender][j];\n          uint newtime = allTokens[q].timestamp + allTokens[q].roundDuration;\n          if (block.timestamp > newtime ) {\n            _userTokens[w].xBalance = allTokens[q].roundSupply;\n          }      \n          matchFound = true;\n          break;\n        }\n      }\n      if (matchFound == false) {\n        _userTokens[w]=UToken({ tokenId: q, gTokenBalance: 0, xBalance: allTokens[q].roundSupply});\n      }\n    }\n    return _userTokens;\n  }\n\n\n\n  function transferToken(uint _tokenId, address receiver, uint value) public returns(bool) {\n    UToken memory _tokSender;\n    bool matchFoundSender = false;\n    uint s;\n    uint r;\n    for (s = 0; s < userTokens[msg.sender].length ; s++) {\n      if (userTokens[msg.sender][s].tokenId == _tokenId) {\n        _tokSender = userTokens[msg.sender][s];\n        matchFoundSender = true;\n        break;\n      }\n    }\n    if (matchFoundSender == false){\n      _tokSender = UToken({ tokenId: _tokenId, gTokenBalance: 0, xBalance: allTokens[_tokenId].roundSupply});\n    }\n    \n    if (block.timestamp > (allTokens[_tokenId].timestamp + allTokens[_tokenId].roundDuration * 1 seconds) ) {\n      _tokSender.xBalance = allTokens[_tokenId].roundSupply;\n      uint _newTimestamp = allTokens[_tokenId].timestamp;\n      for (uint k = 0; _newTimestamp < block.timestamp ; k++) {\n        _newTimestamp += allTokens[_tokenId].roundDuration * k; \n      }\n      allTokens[_tokenId].timestamp=_newTimestamp;\n    }\n    \n    require(_tokSender.xBalance >= value, \"non hai abbastanza token\");\n    UToken memory _tokReceiver;\n    bool matchFoundReceiver = false;\n    for ( r = 0; r < userTokens[receiver].length ; r++) {\n      if (userTokens[receiver][r].tokenId == _tokenId) {\n        _tokReceiver = userTokens[receiver][r];\n        matchFoundReceiver = true;\n        break;\n      }\n    }\n    if ( matchFoundReceiver == false){\n      _tokReceiver= UToken({ tokenId: _tokenId, gTokenBalance: 0, xBalance: allTokens[_tokenId].roundSupply});\n    }\n    _tokSender.xBalance -= value;\n    _tokReceiver.gTokenBalance += value;\n    if (matchFoundSender == true) {\n      userTokens[msg.sender][s] = _tokSender;\n    }\n    else {\n      userTokens[msg.sender].push( UToken({ tokenId: _tokenId, gTokenBalance: 0, xBalance: _tokSender.xBalance}));\n    }\n    if (matchFoundReceiver == true) {\n      userTokens[receiver][r] = _tokReceiver;\n    }\n    else {\n      userTokens[receiver].push( UToken({ tokenId: _tokenId, gTokenBalance: _tokReceiver.gTokenBalance, xBalance: allTokens[_tokenId].roundSupply}));\n    }\n    return true;\n  }\n\n  function getGroupNamefromId(uint _id) public view returns(string memory) {\n    return daoGroups[_id].name;\n  }\n\n  function getGroupAddressfromId(uint _id) public view returns(address[] memory) {\n    return daoGroups[_id].members;\n  }\n\n/*  \n*   Candidates\n*\n*/\n\n  function addCandidate(uint _gid, address candAddr) public returns(bool) {\n    require(!isAddressInGroup(_gid, candAddr), \"member already present!\");\n    // todo: check that group exists\n    // todo: check that msg.sender is allowed to add\n    // check if candidate already present in current candidate list\n    uint l = daoGroups[_gid].candidatesIds.length;\n    uint[] memory candidatesIds = new uint[](l+1);\n    for (uint i = 0; i < l; i++) {\n      candidatesIds[i] = daoGroups[_gid].candidatesIds[i];\n      require(allCandidates[candidatesIds[i]].candidateAddress != candAddr, \"candidate already added!\");\n    }\n    // generate a new candidate\n    address[] memory vot = new address[](0);\n    allCandidates.push(Candidate({\n      candidateAddress: candAddr,\n      votes: 0,\n      voters: vot\n    }));\n    // update candidate list in the group\n    candidatesIds[l] = allCandidates.length-1;\n    daoGroups[_gid].candidatesIds = candidatesIds;\n\n    return true;\n  }\n  \n  function voteCandidate(uint gid, address candAddr, int vote) public returns(bool) {\n    // todo: check if msg.sender eligible to cast vote\n    // find candidate \n    uint l = daoGroups[gid].candidatesIds.length;\n    Candidate memory candidate;\n    uint candidateId;\n    for (uint i = 0; i < l; i++) {\n      uint c = daoGroups[gid].candidatesIds[i];\n      if (allCandidates[c].candidateAddress == candAddr) {\n        candidate = allCandidates[c];\n        candidateId = c;\n      }\n      break;\n    }\n    // assign vote\n    if (vote > 0) {\n      candidate.votes += 1;\n    }\n    else {\n      candidate.votes -= 1;\n    }\n    // add voter\n    l = candidate.voters.length;\n    address[] memory v = new address[](l+1);\n    for (uint i = 0; i < l; i++) {\n      v[i]=candidate.voters[i];\n    }\n    v[l]=msg.sender;\n    candidate.voters=v;\n    // todo: check if threshold is passed and add move candidate to member\n    // **\n    // write on chain\n    allCandidates[candidateId] = candidate;    \n    return true;\n  }\n\n  function getGroupCandidates(uint gid) public view returns(Candidate[] memory) {\n    // todo: check that group exists and msg.sender is allowed to get this info\n    uint l = daoGroups[gid].candidatesIds.length;\n    Candidate[] memory candidates = new Candidate[](l);\n    for (uint i = 0; i < l; i++) {\n      uint c = daoGroups[gid].candidatesIds[i];\n      candidates[i] = allCandidates[c];\n    }\n    return candidates;\n  }\n\n/*\n*\n*   Group Members\n*/\n\n  function addAddresstoMembers(uint _id, address _addr) public returns(bool) {\n    require(!isAddressInGroup(_id, _addr), \"member already present!\" );\n    uint l = daoGroups[_id].members.length;\n    address[] memory members = new address[](l+1);\n    for (uint i = 0; i < l; i++) {\n      members[i] = daoGroups[_id].members[i];\n    }\n    members[l] = _addr;\n    daoGroups[_id].members = members;\n    return true;\n  }\n\n  function isAddressInGroup(uint gid, address addr) private returns(bool) {\n    bool exists = false;\n    for (uint i = 0; i < daoGroups[gid].members.length; i++) {\n      if( daoGroups[gid].members[i] == addr ) {\n        exists=true;\n        break;\n      }\n    }\n    return exists;\n  }\n\n  function myGroups() public view returns(uint[] memory) {\n    uint lg = daoGroups.length;\n    uint[] memory myGroups;\n    for (uint i = 0; i < lg; i++) {\n      uint lm = daoGroups[i].members.length;\n      for (uint q = 0; q < lm; q++) {\n        if(daoGroups[i].members[q] == msg.sender) {\n          uint gl = myGroups.length;\n          uint[] memory groups = new uint[](gl+1);\n          for (uint w = 0; w < gl; w++) {\n            groups[w] = myGroups[w];\n          }\n          groups[gl] = i;\n          myGroups = groups;\n        }\n      }\n    }\n    return myGroups;\n  }\n\n\n  function nameOf(address owner) public view returns(string memory) {\n    return names[owner];\n  }\n\n  function nameSet(string calldata name) public returns(bool) {\n    names[msg.sender]=name;\n    return true;\n  }\n\n/*\n*   Round functions that probably should be removed\n*    \n*/\n\n  function tellmeNow() public view returns (uint) {\n    return block.timestamp;\n  }\n\n  function resetRound(uint _tokenId, uint _groupId) public returns(bool) {\n    address[] memory _members = daoGroups[_groupId].members;\n    uint l = _members.length;\n    for (uint s = 0; s < l ; s++) {\n      address member = _members[s];\n      uint lu = userTokens[member].length;\n      for (uint w = 0; w < lu; w++) {\n        if (userTokens[member][w].tokenId == _tokenId) {\n          userTokens[member][w].xBalance = allTokens[_tokenId].roundSupply;\n        }\n      }\n    }\n    return true;\n  }\n\n}\n",
  "sourcePath": "/home/fabian/kuoricinidao/contracts/KuoriciniDao.sol",
  "compiler": {
    "name": "solc",
    "version": "0.8.11+commit.d7f03943.Emscripten.clang"
  },
  "schemaVersion": "3.4.5",
  "updatedAt": "2022-04-21T15:34:52.936Z",
  "networkType": "ethereum",
  "devdoc": {
    "kind": "dev",
    "methods": {},
    "version": 1
  },
  "userdoc": {
    "kind": "user",
    "methods": {},
    "version": 1
  }
}