{
  "contractName": "KuoriciniDao",
  "abi": [
    {
      "inputs": [],
      "stateMutability": "nonpayable",
      "type": "constructor"
    },
    {
      "inputs": [
        {
          "internalType": "string",
          "name": "_name",
          "type": "string"
        }
      ],
      "name": "createGroup",
      "outputs": [
        {
          "internalType": "bool",
          "name": "",
          "type": "bool"
        }
      ],
      "stateMutability": "nonpayable",
      "type": "function"
    },
    {
      "inputs": [
        {
          "internalType": "uint256",
          "name": "_gid",
          "type": "uint256"
        }
      ],
      "name": "getGroup",
      "outputs": [
        {
          "components": [
            {
              "internalType": "string",
              "name": "name",
              "type": "string"
            },
            {
              "internalType": "address[]",
              "name": "members",
              "type": "address[]"
            },
            {
              "internalType": "uint256[]",
              "name": "tokenIds",
              "type": "uint256[]"
            },
            {
              "internalType": "uint256[]",
              "name": "candidatesIds",
              "type": "uint256[]"
            },
            {
              "internalType": "uint256",
              "name": "voteThreshold",
              "type": "uint256"
            }
          ],
          "internalType": "struct KuoriciniDao.DaoGroup",
          "name": "",
          "type": "tuple"
        }
      ],
      "stateMutability": "view",
      "type": "function",
      "constant": true
    },
    {
      "inputs": [
        {
          "internalType": "string",
          "name": "name",
          "type": "string"
        }
      ],
      "name": "invitationLink",
      "outputs": [
        {
          "internalType": "bytes",
          "name": "",
          "type": "bytes"
        }
      ],
      "stateMutability": "view",
      "type": "function",
      "constant": true
    },
    {
      "inputs": [
        {
          "internalType": "uint256",
          "name": "_tokenid",
          "type": "uint256"
        }
      ],
      "name": "getToken",
      "outputs": [
        {
          "components": [
            {
              "internalType": "string",
              "name": "name",
              "type": "string"
            },
            {
              "internalType": "uint256",
              "name": "roundSupply",
              "type": "uint256"
            },
            {
              "internalType": "uint256",
              "name": "roundDuration",
              "type": "uint256"
            },
            {
              "internalType": "uint256",
              "name": "timestamp",
              "type": "uint256"
            }
          ],
          "internalType": "struct KuoriciniDao.GToken",
          "name": "",
          "type": "tuple"
        }
      ],
      "stateMutability": "view",
      "type": "function",
      "constant": true
    },
    {
      "inputs": [
        {
          "internalType": "string",
          "name": "_name",
          "type": "string"
        },
        {
          "internalType": "uint256",
          "name": "_supply",
          "type": "uint256"
        },
        {
          "internalType": "uint256",
          "name": "_duration",
          "type": "uint256"
        },
        {
          "internalType": "uint256",
          "name": "_groupId",
          "type": "uint256"
        }
      ],
      "name": "createGToken",
      "outputs": [
        {
          "internalType": "bool",
          "name": "",
          "type": "bool"
        }
      ],
      "stateMutability": "nonpayable",
      "type": "function"
    },
    {
      "inputs": [
        {
          "internalType": "uint256",
          "name": "_gid",
          "type": "uint256"
        }
      ],
      "name": "getUserTokens",
      "outputs": [
        {
          "components": [
            {
              "internalType": "uint256",
              "name": "tokenId",
              "type": "uint256"
            },
            {
              "internalType": "uint256",
              "name": "gTokenBalance",
              "type": "uint256"
            },
            {
              "internalType": "uint256",
              "name": "xBalance",
              "type": "uint256"
            }
          ],
          "internalType": "struct KuoriciniDao.UToken[]",
          "name": "",
          "type": "tuple[]"
        }
      ],
      "stateMutability": "view",
      "type": "function",
      "constant": true
    },
    {
      "inputs": [
        {
          "internalType": "uint256",
          "name": "_tokenId",
          "type": "uint256"
        },
        {
          "internalType": "address",
          "name": "receiver",
          "type": "address"
        },
        {
          "internalType": "uint256",
          "name": "value",
          "type": "uint256"
        }
      ],
      "name": "transferToken",
      "outputs": [
        {
          "internalType": "bool",
          "name": "",
          "type": "bool"
        }
      ],
      "stateMutability": "nonpayable",
      "type": "function"
    },
    {
      "inputs": [
        {
          "internalType": "uint256",
          "name": "_id",
          "type": "uint256"
        }
      ],
      "name": "getGroupNamefromId",
      "outputs": [
        {
          "internalType": "string",
          "name": "",
          "type": "string"
        }
      ],
      "stateMutability": "view",
      "type": "function",
      "constant": true
    },
    {
      "inputs": [
        {
          "internalType": "uint256",
          "name": "_id",
          "type": "uint256"
        }
      ],
      "name": "getGroupAddressfromId",
      "outputs": [
        {
          "internalType": "address[]",
          "name": "",
          "type": "address[]"
        }
      ],
      "stateMutability": "view",
      "type": "function",
      "constant": true
    },
    {
      "inputs": [
        {
          "internalType": "uint256",
          "name": "_gid",
          "type": "uint256"
        },
        {
          "internalType": "address",
          "name": "candAddr",
          "type": "address"
        }
      ],
      "name": "addCandidate",
      "outputs": [
        {
          "internalType": "bool",
          "name": "",
          "type": "bool"
        }
      ],
      "stateMutability": "nonpayable",
      "type": "function"
    },
    {
      "inputs": [
        {
          "internalType": "uint256",
          "name": "gid",
          "type": "uint256"
        },
        {
          "internalType": "address",
          "name": "candAddr",
          "type": "address"
        },
        {
          "internalType": "int256",
          "name": "vote",
          "type": "int256"
        }
      ],
      "name": "voteCandidate",
      "outputs": [
        {
          "internalType": "bool",
          "name": "",
          "type": "bool"
        }
      ],
      "stateMutability": "nonpayable",
      "type": "function"
    },
    {
      "inputs": [
        {
          "internalType": "uint256",
          "name": "gid",
          "type": "uint256"
        }
      ],
      "name": "getGroupCandidates",
      "outputs": [
        {
          "components": [
            {
              "internalType": "address",
              "name": "candidateAddress",
              "type": "address"
            },
            {
              "internalType": "uint256",
              "name": "votes",
              "type": "uint256"
            },
            {
              "internalType": "address[]",
              "name": "voters",
              "type": "address[]"
            }
          ],
          "internalType": "struct KuoriciniDao.Candidate[]",
          "name": "",
          "type": "tuple[]"
        }
      ],
      "stateMutability": "view",
      "type": "function",
      "constant": true
    },
    {
      "inputs": [
        {
          "internalType": "uint256",
          "name": "_id",
          "type": "uint256"
        },
        {
          "internalType": "address",
          "name": "_addr",
          "type": "address"
        }
      ],
      "name": "addAddresstoMembers",
      "outputs": [
        {
          "internalType": "bool",
          "name": "",
          "type": "bool"
        }
      ],
      "stateMutability": "nonpayable",
      "type": "function"
    },
    {
      "inputs": [],
      "name": "myGroups",
      "outputs": [
        {
          "internalType": "uint256[]",
          "name": "",
          "type": "uint256[]"
        }
      ],
      "stateMutability": "view",
      "type": "function",
      "constant": true
    },
    {
      "inputs": [
        {
          "internalType": "address",
          "name": "owner",
          "type": "address"
        }
      ],
      "name": "nameOf",
      "outputs": [
        {
          "internalType": "string",
          "name": "",
          "type": "string"
        }
      ],
      "stateMutability": "view",
      "type": "function",
      "constant": true
    },
    {
      "inputs": [
        {
          "internalType": "string",
          "name": "name",
          "type": "string"
        }
      ],
      "name": "nameSet",
      "outputs": [
        {
          "internalType": "bool",
          "name": "",
          "type": "bool"
        }
      ],
      "stateMutability": "nonpayable",
      "type": "function"
    },
    {
      "inputs": [],
      "name": "tellmeNow",
      "outputs": [
        {
          "internalType": "uint256",
          "name": "",
          "type": "uint256"
        }
      ],
      "stateMutability": "view",
      "type": "function",
      "constant": true
    },
    {
      "inputs": [
        {
          "internalType": "uint256",
          "name": "_tokenId",
          "type": "uint256"
        },
        {
          "internalType": "uint256",
          "name": "_groupId",
          "type": "uint256"
        }
      ],
      "name": "resetRound",
      "outputs": [
        {
          "internalType": "bool",
          "name": "",
          "type": "bool"
        }
      ],
      "stateMutability": "nonpayable",
      "type": "function"
    }
  ],
  "bytecode": "0x608060405234801561001057600080fd5b50613fed806100206000396000f3fe608060405234801561001057600080fd5b50600436106101165760003560e01c8063c3f93437116100a2578063dbb5313f11610071578063dbb5313f14610367578063dc2ddcae14610397578063e4b50cb8146103c7578063edeefa31146103f7578063f5c573821461042757610116565b8063c3f93437146102cb578063ceb60654146102e9578063d17bd40b14610319578063dabd71cf1461034957610116565b8063558f8f04116100e9578063558f8f04146101db57806356f666711461020b5780635af18a601461023b578063857af37b1461026b57806396f714fc1461029b57610116565b8063088cab181461011b57806310f9a5f71461014b57806333c57ccd1461017b5780635565c48a146101ab575b600080fd5b61013560048036038101906101309190612e4e565b610457565b604051610142919061308c565b60405180910390f35b610165600480360381019061016091906130ae565b610687565b6040516101729190613109565b60405180910390f35b61019560048036038101906101909190613150565b6108e5565b6040516101a29190613109565b60405180910390f35b6101c560048036038101906101c091906131c6565b610c97565b6040516101d29190613109565b60405180910390f35b6101f560048036038101906101f09190612e4e565b6110c9565b6040516102029190613288565b60405180910390f35b610225600480360381019061022091906133f0565b61117c565b60405161023291906134c1565b60405180910390f35b61025560048036038101906102509190613543565b6112c0565b6040516102629190613109565b60405180910390f35b61028560048036038101906102809190612e4e565b6113ff565b6040516102929190613620565b60405180910390f35b6102b560048036038101906102b09190613150565b6114b6565b6040516102c29190613109565b60405180910390f35b6102d36116ea565b6040516102e091906136f1565b60405180910390f35b61030360048036038101906102fe9190612e4e565b6118df565b6040516103109190613857565b60405180910390f35b610333600480360381019061032e9190612e4e565b611af5565b604051610340919061396a565b60405180910390f35b610351611e88565b60405161035e919061399b565b60405180910390f35b610381600480360381019061037c91906139b6565b611e90565b60405161038e9190613109565b60405180910390f35b6103b160048036038101906103ac9190613a09565b612678565b6040516103be9190613109565b60405180910390f35b6103e160048036038101906103dc9190612e4e565b612849565b6040516103ee9190613ab9565b60405180910390f35b610411600480360381019061040c9190613a09565b612935565b60405161041e9190613109565b60405180910390f35b610441600480360381019061043c9190613adb565b61298f565b60405161044e9190613620565b60405180910390f35b606060006002838154811061046f5761046e613b08565b5b906000526020600020906005020160030180549050905060008167ffffffffffffffff8111156104a2576104a16132c5565b5b6040519080825280602002602001820160405280156104db57816020015b6104c8612b55565b8152602001906001900390816104c05790505b50905060005b8281101561067c576000600286815481106104ff576104fe613b08565b5b9060005260206000209060050201600301828154811061052257610521613b08565b5b906000526020600020015490506004818154811061054357610542613b08565b5b90600052602060002090600302016040518060600160405290816000820160009054906101000a900473ffffffffffffffffffffffffffffffffffffffff1673ffffffffffffffffffffffffffffffffffffffff1673ffffffffffffffffffffffffffffffffffffffff168152602001600182015481526020016002820180548060200260200160405190810160405280929190818152602001828054801561064157602002820191906000526020600020905b8160009054906101000a900473ffffffffffffffffffffffffffffffffffffffff1673ffffffffffffffffffffffffffffffffffffffff16815260200190600101908083116105f7575b50505050508152505083838151811061065d5761065c613b08565b5b602002602001018190525050808061067490613b66565b9150506104e1565b508092505050919050565b6000806002838154811061069e5761069d613b08565b5b906000526020600020906005020160010180548060200260200160405190810160405280929190818152602001828054801561072f57602002820191906000526020600020905b8160009054906101000a900473ffffffffffffffffffffffffffffffffffffffff1673ffffffffffffffffffffffffffffffffffffffff16815260200190600101908083116106e5575b5050505050905060008151905060005b818110156108d857600083828151811061075c5761075b613b08565b5b602002602001015190506000600160008373ffffffffffffffffffffffffffffffffffffffff1673ffffffffffffffffffffffffffffffffffffffff16815260200190815260200160002080549050905060005b818110156108c25788600160008573ffffffffffffffffffffffffffffffffffffffff1673ffffffffffffffffffffffffffffffffffffffff168152602001908152602001600020828154811061080a57610809613b08565b5b90600052602060002090600302016000015414156108af576003898154811061083657610835613b08565b5b906000526020600020906004020160010154600160008573ffffffffffffffffffffffffffffffffffffffff1673ffffffffffffffffffffffffffffffffffffffff168152602001908152602001600020828154811061089957610898613b08565b5b9060005260206000209060030201600201819055505b80806108ba90613b66565b9150506107b0565b50505080806108d090613b66565b91505061073f565b5060019250505092915050565b60006108f18383612a5f565b15610931576040517f08c379a000000000000000000000000000000000000000000000000000000000815260040161092890613bfb565b60405180910390fd5b60006002848154811061094757610946613b08565b5b9060005260206000209060050201600301805490509050600060018261096d9190613c1b565b67ffffffffffffffff811115610986576109856132c5565b5b6040519080825280602002602001820160405280156109b45781602001602082028036833780820191505090505b50905060005b82811015610b0457600286815481106109d6576109d5613b08565b5b906000526020600020906005020160030181815481106109f9576109f8613b08565b5b9060005260206000200154828281518110610a1757610a16613b08565b5b6020026020010181815250508473ffffffffffffffffffffffffffffffffffffffff166004838381518110610a4f57610a4e613b08565b5b602002602001015181548110610a6857610a67613b08565b5b906000526020600020906003020160000160009054906101000a900473ffffffffffffffffffffffffffffffffffffffff1673ffffffffffffffffffffffffffffffffffffffff161415610af1576040517f08c379a0000000000000000000000000000000000000000000000000000000008152600401610ae890613cbd565b60405180910390fd5b8080610afc90613b66565b9150506109ba565b5060008067ffffffffffffffff811115610b2157610b206132c5565b5b604051908082528060200260200182016040528015610b4f5781602001602082028036833780820191505090505b509050600460405180606001604052808773ffffffffffffffffffffffffffffffffffffffff1681526020016000815260200183815250908060018154018082558091505060019003906000526020600020906003020160009091909190915060008201518160000160006101000a81548173ffffffffffffffffffffffffffffffffffffffff021916908373ffffffffffffffffffffffffffffffffffffffff160217905550602082015181600101556040820151816002019080519060200190610c1c929190612b8c565b5050506001600480549050610c319190613cdd565b828481518110610c4457610c43613b08565b5b6020026020010181815250508160028781548110610c6557610c64613b08565b5b90600052602060002090600502016003019080519060200190610c89929190612c16565b506001935050505092915050565b60008060028581548110610cae57610cad613b08565b5b9060005260206000209060050201600301805490509050610ccd612b55565b6000806000905083811015610ebe57600060028981548110610cf257610cf1613b08565b5b90600052602060002090600502016003018281548110610d1557610d14613b08565b5b906000526020600020015490508773ffffffffffffffffffffffffffffffffffffffff1660048281548110610d4d57610d4c613b08565b5b906000526020600020906003020160000160009054906101000a900473ffffffffffffffffffffffffffffffffffffffff1673ffffffffffffffffffffffffffffffffffffffff161415610ebc5760048181548110610daf57610dae613b08565b5b90600052602060002090600302016040518060600160405290816000820160009054906101000a900473ffffffffffffffffffffffffffffffffffffffff1673ffffffffffffffffffffffffffffffffffffffff1673ffffffffffffffffffffffffffffffffffffffff1681526020016001820154815260200160028201805480602002602001604051908101604052809291908181526020018280548015610ead57602002820191906000526020600020905b8160009054906101000a900473ffffffffffffffffffffffffffffffffffffffff1673ffffffffffffffffffffffffffffffffffffffff1681526020019060010190808311610e63575b50505050508152505093508092505b505b506000851315610ee357600182602001818151610edb9190613c1b565b915081815250505b81604001515192506000600184610efa9190613c1b565b67ffffffffffffffff811115610f1357610f126132c5565b5b604051908082528060200260200182016040528015610f415781602001602082028036833780820191505090505b50905060005b84811015610fce5783604001518181518110610f6657610f65613b08565b5b6020026020010151828281518110610f8157610f80613b08565b5b602002602001019073ffffffffffffffffffffffffffffffffffffffff16908173ffffffffffffffffffffffffffffffffffffffff16815250508080610fc690613b66565b915050610f47565b5033818581518110610fe357610fe2613b08565b5b602002602001019073ffffffffffffffffffffffffffffffffffffffff16908173ffffffffffffffffffffffffffffffffffffffff1681525050808360400181905250826004838154811061103b5761103a613b08565b5b906000526020600020906003020160008201518160000160006101000a81548173ffffffffffffffffffffffffffffffffffffffff021916908373ffffffffffffffffffffffffffffffffffffffff1602179055506020820151816001015560408201518160020190805190602001906110b6929190612b8c565b5090505060019450505050509392505050565b6060600282815481106110df576110de613b08565b5b906000526020600020906005020160010180548060200260200160405190810160405280929190818152602001828054801561117057602002820191906000526020600020905b8160009054906101000a900473ffffffffffffffffffffffffffffffffffffffff1673ffffffffffffffffffffffffffffffffffffffff1681526020019060010190808311611126575b50505050509050919050565b60606000600a67ffffffffffffffff81111561119b5761119a6132c5565b5b6040519080825280601f01601f1916602001820160405280156111cd5781602001600182028036833780820191505090505b50905060008190506000604051806060016040528060238152602001613f9560239139905060005b60098110156112b45760008251424433878b60405160200161121b959493929190613db6565b6040516020818303038152906040528051906020012060001c61123e9190613e3c565b905082818151811061125357611252613b08565b5b602001015160f81c60f81b84838151811061127157611270613b08565b5b60200101907effffffffffffffffffffffffffffffffffffffffffffffffffffffffffffff1916908160001a9053505080806112ac90613b66565b9150506111f5565b50819350505050919050565b60006003604051806080016040528088888080601f016020809104026020016040519081016040528093929190818152602001838380828437600081840152601f19601f820116905080830192505050505050508152602001868152602001858152602001428152509080600181540180825580915050600190039060005260206000209060040201600090919091909150600082015181600001908051906020019061136e929190612c63565b50602082015181600101556040820151816002015560608201518160030155505060006003805490509050600283815481106113ad576113ac613b08565b5b90600052602060002090600502016002016001826113cb9190613cdd565b9080600181540180825580915050600190039060005260206000200160009091909190915055600191505095945050505050565b60606002828154811061141557611414613b08565b5b9060005260206000209060050201600001805461143190613e9c565b80601f016020809104026020016040519081016040528092919081815260200182805461145d90613e9c565b80156114aa5780601f1061147f576101008083540402835291602001916114aa565b820191906000526020600020905b81548152906001019060200180831161148d57829003601f168201915b50505050509050919050565b60006114c28383612a5f565b15611502576040517f08c379a00000000000000000000000000000000000000000000000000000000081526004016114f990613bfb565b60405180910390fd5b60006002848154811061151857611517613b08565b5b9060005260206000209060050201600101805490509050600060018261153e9190613c1b565b67ffffffffffffffff811115611557576115566132c5565b5b6040519080825280602002602001820160405280156115855781602001602082028036833780820191505090505b50905060005b8281101561165557600286815481106115a7576115a6613b08565b5b906000526020600020906005020160010181815481106115ca576115c9613b08565b5b9060005260206000200160009054906101000a900473ffffffffffffffffffffffffffffffffffffffff1682828151811061160857611607613b08565b5b602002602001019073ffffffffffffffffffffffffffffffffffffffff16908173ffffffffffffffffffffffffffffffffffffffff1681525050808061164d90613b66565b91505061158b565b508381838151811061166a57611669613b08565b5b602002602001019073ffffffffffffffffffffffffffffffffffffffff16908173ffffffffffffffffffffffffffffffffffffffff168152505080600286815481106116b9576116b8613b08565b5b906000526020600020906005020160010190805190602001906116dd929190612b8c565b5060019250505092915050565b606060006002805490509050606060005b828110156118d65760006002828154811061171957611718613b08565b5b906000526020600020906005020160010180549050905060005b818110156118c1573373ffffffffffffffffffffffffffffffffffffffff166002848154811061176657611765613b08565b5b9060005260206000209060050201600101828154811061178957611788613b08565b5b9060005260206000200160009054906101000a900473ffffffffffffffffffffffffffffffffffffffff1673ffffffffffffffffffffffffffffffffffffffff1614156118ae5760008451905060006001826117e59190613c1b565b67ffffffffffffffff8111156117fe576117fd6132c5565b5b60405190808252806020026020018201604052801561182c5781602001602082028036833780820191505090505b50905060005b828110156118875786818151811061184d5761184c613b08565b5b602002602001015182828151811061186857611867613b08565b5b602002602001018181525050808061187f90613b66565b915050611832565b508481838151811061189c5761189b613b08565b5b60200260200101818152505080955050505b80806118b990613b66565b915050611733565b505080806118ce90613b66565b9150506116fb565b50809250505090565b6118e7612ce9565b600282815481106118fb576118fa613b08565b5b90600052602060002090600502016040518060a001604052908160008201805461192490613e9c565b80601f016020809104026020016040519081016040528092919081815260200182805461195090613e9c565b801561199d5780601f106119725761010080835404028352916020019161199d565b820191906000526020600020905b81548152906001019060200180831161198057829003601f168201915b5050505050815260200160018201805480602002602001604051908101604052809291908181526020018280548015611a2b57602002820191906000526020600020905b8160009054906101000a900473ffffffffffffffffffffffffffffffffffffffff1673ffffffffffffffffffffffffffffffffffffffff16815260200190600101908083116119e1575b5050505050815260200160028201805480602002602001604051908101604052809291908181526020018280548015611a8357602002820191906000526020600020905b815481526020019060010190808311611a6f575b5050505050815260200160038201805480602002602001604051908101604052809291908181526020018280548015611adb57602002820191906000526020600020905b815481526020019060010190808311611ac7575b505050505081526020016004820154815250509050919050565b6060600060028381548110611b0d57611b0c613b08565b5b906000526020600020906005020160020180549050905060008167ffffffffffffffff811115611b4057611b3f6132c5565b5b604051908082528060200260200182016040528015611b7957816020015b611b66612d18565b815260200190600190039081611b5e5790505b50905060005b82811015611e7d57600060028681548110611b9d57611b9c613b08565b5b90600052602060002090600502016002018281548110611bc057611bbf613b08565b5b906000526020600020015490506000600160003373ffffffffffffffffffffffffffffffffffffffff1673ffffffffffffffffffffffffffffffffffffffff1681526020019081526020016000208054905090506000805b82811015611df95783600160003373ffffffffffffffffffffffffffffffffffffffff1673ffffffffffffffffffffffffffffffffffffffff1681526020019081526020016000208281548110611c7257611c71613b08565b5b9060005260206000209060030201600001541415611de657600160003373ffffffffffffffffffffffffffffffffffffffff1673ffffffffffffffffffffffffffffffffffffffff1681526020019081526020016000208181548110611cdb57611cda613b08565b5b90600052602060002090600302016040518060600160405290816000820154815260200160018201548152602001600282015481525050868681518110611d2557611d24613b08565b5b6020026020010181905250600060038581548110611d4657611d45613b08565b5b90600052602060002090600402016002015460038681548110611d6c57611d6b613b08565b5b906000526020600020906004020160030154611d889190613c1b565b905080421115611ddc5760038581548110611da657611da5613b08565b5b906000526020600020906004020160010154878781518110611dcb57611dca613b08565b5b602002602001015160400181815250505b6001925050611df9565b8080611df190613b66565b915050611c18565b50600015158115151415611e675760405180606001604052808481526020016000815260200160038581548110611e3357611e32613b08565b5b906000526020600020906004020160010154815250858581518110611e5b57611e5a613b08565b5b60200260200101819052505b5050508080611e7590613b66565b915050611b7f565b508092505050919050565b600042905090565b6000611e9a612d18565b60008080600091505b600160003373ffffffffffffffffffffffffffffffffffffffff1673ffffffffffffffffffffffffffffffffffffffff16815260200190815260200160002080549050821015611ffd5787600160003373ffffffffffffffffffffffffffffffffffffffff1673ffffffffffffffffffffffffffffffffffffffff1681526020019081526020016000208381548110611f3f57611f3e613b08565b5b9060005260206000209060030201600001541415611fea57600160003373ffffffffffffffffffffffffffffffffffffffff1673ffffffffffffffffffffffffffffffffffffffff1681526020019081526020016000208281548110611fa857611fa7613b08565b5b90600052602060002090600302016040518060600160405290816000820154815260200160018201548152602001600282015481525050935060019250611ffd565b8180611ff590613b66565b925050611ea3565b60001515831515141561204e5760405180606001604052808981526020016000815260200160038a8154811061203657612035613b08565b5b90600052602060002090600402016001015481525093505b60016003898154811061206457612063613b08565b5b9060005260206000209060040201600201546120809190613ece565b6003898154811061209457612093613b08565b5b9060005260206000209060040201600301546120b09190613c1b565b42111561219957600388815481106120cb576120ca613b08565b5b9060005260206000209060040201600101548460400181815250506000600389815481106120fc576120fb613b08565b5b906000526020600020906004020160030154905060005b4282101561216c578060038b815481106121305761212f613b08565b5b90600052602060002090600402016002015461214c9190613ece565b826121579190613c1b565b9150808061216490613b66565b915050612113565b508060038a8154811061218257612181613b08565b5b906000526020600020906004020160030181905550505b85846040015110156121e0576040517f08c379a00000000000000000000000000000000000000000000000000000000081526004016121d790613f74565b60405180910390fd5b6121e8612d18565b60008092505b600160008a73ffffffffffffffffffffffffffffffffffffffff1673ffffffffffffffffffffffffffffffffffffffff168152602001908152602001600020805490508310156123485789600160008b73ffffffffffffffffffffffffffffffffffffffff1673ffffffffffffffffffffffffffffffffffffffff168152602001908152602001600020848154811061228a57612289613b08565b5b906000526020600020906003020160000154141561233557600160008a73ffffffffffffffffffffffffffffffffffffffff1673ffffffffffffffffffffffffffffffffffffffff16815260200190815260200160002083815481106122f3576122f2613b08565b5b90600052602060002090600302016040518060600160405290816000820154815260200160018201548152602001600282015481525050915060019050612348565b828061234090613b66565b9350506121ee565b6000151581151514156123995760405180606001604052808b81526020016000815260200160038c8154811061238157612380613b08565b5b90600052602060002090600402016001015481525091505b87866040018181516123ab9190613cdd565b9150818152505087826020018181516123c49190613c1b565b9150818152505060011515851515141561245e5785600160003373ffffffffffffffffffffffffffffffffffffffff1673ffffffffffffffffffffffffffffffffffffffff168152602001908152602001600020858154811061242a57612429613b08565b5b9060005260206000209060030201600082015181600001556020820151816001015560408201518160020155905050612507565b600160003373ffffffffffffffffffffffffffffffffffffffff1673ffffffffffffffffffffffffffffffffffffffff16815260200190815260200160002060405180606001604052808c8152602001600081526020018860400151815250908060018154018082558091505060019003906000526020600020906003020160009091909190915060008201518160000155602082015181600101556040820151816002015550505b60011515811515141561259a5781600160008b73ffffffffffffffffffffffffffffffffffffffff1673ffffffffffffffffffffffffffffffffffffffff168152602001908152602001600020848154811061256657612565613b08565b5b9060005260206000209060030201600082015181600001556020820151816001015560408201518160020155905050612667565b600160008a73ffffffffffffffffffffffffffffffffffffffff1673ffffffffffffffffffffffffffffffffffffffff16815260200190815260200160002060405180606001604052808c81526020018460200151815260200160038d8154811061260857612607613b08565b5b906000526020600020906004020160010154815250908060018154018082558091505060019003906000526020600020906003020160009091909190915060008201518160000155602082015181600101556040820151816002015550505b600196505050505050509392505050565b600080600167ffffffffffffffff811115612696576126956132c5565b5b6040519080825280602002602001820160405280156126c45781602001602082028036833780820191505090505b50905033816000815181106126dc576126db613b08565b5b602002602001019073ffffffffffffffffffffffffffffffffffffffff16908173ffffffffffffffffffffffffffffffffffffffff168152505060608060006005905060006040518060a0016040528089898080601f016020809104026020016040519081016040528093929190818152602001838380828437600081840152601f19601f820116905080830192505050505050508152602001868152602001858152602001848152602001838152509050600281908060018154018082558091505060019003906000526020600020906005020160009091909190915060008201518160000190805190602001906127d6929190612c63565b5060208201518160010190805190602001906127f3929190612b8c565b506040820151816002019080519060200190612810929190612c16565b50606082015181600301908051906020019061282d929190612c16565b5060808201518160040155505060019550505050505092915050565b612851612d39565b6003828154811061286557612864613b08565b5b906000526020600020906004020160405180608001604052908160008201805461288e90613e9c565b80601f01602080910402602001604051908101604052809291908181526020018280546128ba90613e9c565b80156129075780601f106128dc57610100808354040283529160200191612907565b820191906000526020600020905b8154815290600101906020018083116128ea57829003601f168201915b5050505050815260200160018201548152602001600282015481526020016003820154815250509050919050565b600082826000803373ffffffffffffffffffffffffffffffffffffffff1673ffffffffffffffffffffffffffffffffffffffff1681526020019081526020016000209190612984929190612d61565b506001905092915050565b60606000808373ffffffffffffffffffffffffffffffffffffffff1673ffffffffffffffffffffffffffffffffffffffff16815260200190815260200160002080546129da90613e9c565b80601f0160208091040260200160405190810160405280929190818152602001828054612a0690613e9c565b8015612a535780601f10612a2857610100808354040283529160200191612a53565b820191906000526020600020905b815481529060010190602001808311612a3657829003601f168201915b50505050509050919050565b6000806000905060005b60028581548110612a7d57612a7c613b08565b5b906000526020600020906005020160010180549050811015612b4a578373ffffffffffffffffffffffffffffffffffffffff1660028681548110612ac457612ac3613b08565b5b90600052602060002090600502016001018281548110612ae757612ae6613b08565b5b9060005260206000200160009054906101000a900473ffffffffffffffffffffffffffffffffffffffff1673ffffffffffffffffffffffffffffffffffffffff161415612b375760019150612b4a565b8080612b4290613b66565b915050612a69565b508091505092915050565b6040518060600160405280600073ffffffffffffffffffffffffffffffffffffffff16815260200160008152602001606081525090565b828054828255906000526020600020908101928215612c05579160200282015b82811115612c045782518260006101000a81548173ffffffffffffffffffffffffffffffffffffffff021916908373ffffffffffffffffffffffffffffffffffffffff16021790555091602001919060010190612bac565b5b509050612c129190612de7565b5090565b828054828255906000526020600020908101928215612c52579160200282015b82811115612c51578251825591602001919060010190612c36565b5b509050612c5f9190612de7565b5090565b828054612c6f90613e9c565b90600052602060002090601f016020900481019282612c915760008555612cd8565b82601f10612caa57805160ff1916838001178555612cd8565b82800160010185558215612cd8579182015b82811115612cd7578251825591602001919060010190612cbc565b5b509050612ce59190612de7565b5090565b6040518060a0016040528060608152602001606081526020016060815260200160608152602001600081525090565b60405180606001604052806000815260200160008152602001600081525090565b6040518060800160405280606081526020016000815260200160008152602001600081525090565b828054612d6d90613e9c565b90600052602060002090601f016020900481019282612d8f5760008555612dd6565b82601f10612da857803560ff1916838001178555612dd6565b82800160010185558215612dd6579182015b82811115612dd5578235825591602001919060010190612dba565b5b509050612de39190612de7565b5090565b5b80821115612e00576000816000905550600101612de8565b5090565b6000604051905090565b600080fd5b600080fd5b6000819050919050565b612e2b81612e18565b8114612e3657600080fd5b50565b600081359050612e4881612e22565b92915050565b600060208284031215612e6457612e63612e0e565b5b6000612e7284828501612e39565b91505092915050565b600081519050919050565b600082825260208201905092915050565b6000819050602082019050919050565b600073ffffffffffffffffffffffffffffffffffffffff82169050919050565b6000612ed282612ea7565b9050919050565b612ee281612ec7565b82525050565b612ef181612e18565b82525050565b600081519050919050565b600082825260208201905092915050565b6000819050602082019050919050565b6000612f2f8383612ed9565b60208301905092915050565b6000602082019050919050565b6000612f5382612ef7565b612f5d8185612f02565b9350612f6883612f13565b8060005b83811015612f99578151612f808882612f23565b9750612f8b83612f3b565b925050600181019050612f6c565b5085935050505092915050565b6000606083016000830151612fbe6000860182612ed9565b506020830151612fd16020860182612ee8565b5060408301518482036040860152612fe98282612f48565b9150508091505092915050565b60006130028383612fa6565b905092915050565b6000602082019050919050565b600061302282612e7b565b61302c8185612e86565b93508360208202850161303e85612e97565b8060005b8581101561307a578484038952815161305b8582612ff6565b94506130668361300a565b925060208a01995050600181019050613042565b50829750879550505050505092915050565b600060208201905081810360008301526130a68184613017565b905092915050565b600080604083850312156130c5576130c4612e0e565b5b60006130d385828601612e39565b92505060206130e485828601612e39565b9150509250929050565b60008115159050919050565b613103816130ee565b82525050565b600060208201905061311e60008301846130fa565b92915050565b61312d81612ec7565b811461313857600080fd5b50565b60008135905061314a81613124565b92915050565b6000806040838503121561316757613166612e0e565b5b600061317585828601612e39565b92505060206131868582860161313b565b9150509250929050565b6000819050919050565b6131a381613190565b81146131ae57600080fd5b50565b6000813590506131c08161319a565b92915050565b6000806000606084860312156131df576131de612e0e565b5b60006131ed86828701612e39565b93505060206131fe8682870161313b565b925050604061320f868287016131b1565b9150509250925092565b600082825260208201905092915050565b600061323582612ef7565b61323f8185613219565b935061324a83612f13565b8060005b8381101561327b5781516132628882612f23565b975061326d83612f3b565b92505060018101905061324e565b5085935050505092915050565b600060208201905081810360008301526132a2818461322a565b905092915050565b600080fd5b600080fd5b6000601f19601f8301169050919050565b7f4e487b7100000000000000000000000000000000000000000000000000000000600052604160045260246000fd5b6132fd826132b4565b810181811067ffffffffffffffff8211171561331c5761331b6132c5565b5b80604052505050565b600061332f612e04565b905061333b82826132f4565b919050565b600067ffffffffffffffff82111561335b5761335a6132c5565b5b613364826132b4565b9050602081019050919050565b82818337600083830152505050565b600061339361338e84613340565b613325565b9050828152602081018484840111156133af576133ae6132af565b5b6133ba848285613371565b509392505050565b600082601f8301126133d7576133d66132aa565b5b81356133e7848260208601613380565b91505092915050565b60006020828403121561340657613405612e0e565b5b600082013567ffffffffffffffff81111561342457613423612e13565b5b613430848285016133c2565b91505092915050565b600081519050919050565b600082825260208201905092915050565b60005b83811015613473578082015181840152602081019050613458565b83811115613482576000848401525b50505050565b600061349382613439565b61349d8185613444565b93506134ad818560208601613455565b6134b6816132b4565b840191505092915050565b600060208201905081810360008301526134db8184613488565b905092915050565b600080fd5b600080fd5b60008083601f840112613503576135026132aa565b5b8235905067ffffffffffffffff8111156135205761351f6134e3565b5b60208301915083600182028301111561353c5761353b6134e8565b5b9250929050565b60008060008060006080868803121561355f5761355e612e0e565b5b600086013567ffffffffffffffff81111561357d5761357c612e13565b5b613589888289016134ed565b9550955050602061359c88828901612e39565b93505060406135ad88828901612e39565b92505060606135be88828901612e39565b9150509295509295909350565b600081519050919050565b600082825260208201905092915050565b60006135f2826135cb565b6135fc81856135d6565b935061360c818560208601613455565b613615816132b4565b840191505092915050565b6000602082019050818103600083015261363a81846135e7565b905092915050565b600081519050919050565b600082825260208201905092915050565b6000819050602082019050919050565b600061367a8383612ee8565b60208301905092915050565b6000602082019050919050565b600061369e82613642565b6136a8818561364d565b93506136b38361365e565b8060005b838110156136e45781516136cb888261366e565b97506136d683613686565b9250506001810190506136b7565b5085935050505092915050565b6000602082019050818103600083015261370b8184613693565b905092915050565b600082825260208201905092915050565b600061372f826135cb565b6137398185613713565b9350613749818560208601613455565b613752816132b4565b840191505092915050565b600082825260208201905092915050565b600061377982613642565b613783818561375d565b935061378e8361365e565b8060005b838110156137bf5781516137a6888261366e565b97506137b183613686565b925050600181019050613792565b5085935050505092915050565b600060a08301600083015184820360008601526137e98282613724565b915050602083015184820360208601526138038282612f48565b9150506040830151848203604086015261381d828261376e565b91505060608301518482036060860152613837828261376e565b915050608083015161384c6080860182612ee8565b508091505092915050565b6000602082019050818103600083015261387181846137cc565b905092915050565b600081519050919050565b600082825260208201905092915050565b6000819050602082019050919050565b6060820160008201516138bb6000850182612ee8565b5060208201516138ce6020850182612ee8565b5060408201516138e16040850182612ee8565b50505050565b60006138f383836138a5565b60608301905092915050565b6000602082019050919050565b600061391782613879565b6139218185613884565b935061392c83613895565b8060005b8381101561395d57815161394488826138e7565b975061394f836138ff565b925050600181019050613930565b5085935050505092915050565b60006020820190508181036000830152613984818461390c565b905092915050565b61399581612e18565b82525050565b60006020820190506139b0600083018461398c565b92915050565b6000806000606084860312156139cf576139ce612e0e565b5b60006139dd86828701612e39565b93505060206139ee8682870161313b565b92505060406139ff86828701612e39565b9150509250925092565b60008060208385031215613a2057613a1f612e0e565b5b600083013567ffffffffffffffff811115613a3e57613a3d612e13565b5b613a4a858286016134ed565b92509250509250929050565b60006080830160008301518482036000860152613a738282613724565b9150506020830151613a886020860182612ee8565b506040830151613a9b6040860182612ee8565b506060830151613aae6060860182612ee8565b508091505092915050565b60006020820190508181036000830152613ad38184613a56565b905092915050565b600060208284031215613af157613af0612e0e565b5b6000613aff8482850161313b565b91505092915050565b7f4e487b7100000000000000000000000000000000000000000000000000000000600052603260045260246000fd5b7f4e487b7100000000000000000000000000000000000000000000000000000000600052601160045260246000fd5b6000613b7182612e18565b91507fffffffffffffffffffffffffffffffffffffffffffffffffffffffffffffffff821415613ba457613ba3613b37565b5b600182019050919050565b7f6d656d62657220616c72656164792070726573656e7421000000000000000000600082015250565b6000613be56017836135d6565b9150613bf082613baf565b602082019050919050565b60006020820190508181036000830152613c1481613bd8565b9050919050565b6000613c2682612e18565b9150613c3183612e18565b9250827fffffffffffffffffffffffffffffffffffffffffffffffffffffffffffffffff03821115613c6657613c65613b37565b5b828201905092915050565b7f63616e64696461746520616c7265616479206164646564210000000000000000600082015250565b6000613ca76018836135d6565b9150613cb282613c71565b602082019050919050565b60006020820190508181036000830152613cd681613c9a565b9050919050565b6000613ce882612e18565b9150613cf383612e18565b925082821015613d0657613d05613b37565b5b828203905092915050565b6000819050919050565b613d2c613d2782612e18565b613d11565b82525050565b60008160601b9050919050565b6000613d4a82613d32565b9050919050565b6000613d5c82613d3f565b9050919050565b613d74613d6f82612ec7565b613d51565b82525050565b600081905092915050565b6000613d90826135cb565b613d9a8185613d7a565b9350613daa818560208601613455565b80840191505092915050565b6000613dc28288613d1b565b602082019150613dd28287613d1b565b602082019150613de28286613d63565b601482019150613df28285613d85565b9150613dfe8284613d85565b91508190509695505050505050565b7f4e487b7100000000000000000000000000000000000000000000000000000000600052601260045260246000fd5b6000613e4782612e18565b9150613e5283612e18565b925082613e6257613e61613e0d565b5b828206905092915050565b7f4e487b7100000000000000000000000000000000000000000000000000000000600052602260045260246000fd5b60006002820490506001821680613eb457607f821691505b60208210811415613ec857613ec7613e6d565b5b50919050565b6000613ed982612e18565b9150613ee483612e18565b9250817fffffffffffffffffffffffffffffffffffffffffffffffffffffffffffffffff0483118215151615613f1d57613f1c613b37565b5b828202905092915050565b7f6e6f6e2068616920616262617374616e7a6120746f6b656e0000000000000000600082015250565b6000613f5e6018836135d6565b9150613f6982613f28565b602082019050919050565b60006020820190508181036000830152613f8d81613f51565b905091905056fe6162636465666768696a6b6c6d6e6f7071727374757678797a31323334353637383930a2646970667358221220991a9dbde111c74fea2736ed48cb6db96f0203f38fd5275a40c4abe3ce81208364736f6c634300080b0033",
  "immutableReferences": {},
  "source": "// SPDX-License-Identifier: MIT\npragma solidity ^0.8.0;\n\nimport \"./Voting.sol\";\n\ncontract KuoriciniDao {\n\n  struct DaoGroup {\n    string name;\n    address[] members;\n    uint[] tokenIds;\n    uint[] candidatesIds;\n    uint voteThreshold;\n  }\n  \n  struct Candidate {\n    address candidateAddress;\n    uint votes;\n    address[] voters;\n  }\n\n  struct GToken {\n    string name;\n    uint roundSupply;\n    uint roundDuration;\n    uint timestamp;\n  }\n\n  struct UToken {\n    uint tokenId;\n    uint gTokenBalance;\n    uint xBalance;\n  }\n\n  mapping (address => string) names;\n  mapping (address => UToken[]) userTokens;\n//  mapping (string )\n  DaoGroup[] daoGroups;\n  GToken[] allTokens;\n  Candidate[] allCandidates;\n\n  constructor() public {\n  }\n\n  function createGroup(string calldata _name) public returns(bool) {\n    address[] memory addr = new address[](1);\n    addr[0] = msg.sender;\n    uint[] memory defaultTokens;\n    uint[] memory defaultCandidates;\n    uint threshold = 5;\n    DaoGroup memory new_group = DaoGroup({ name: _name, members: addr, tokenIds: defaultTokens, candidatesIds: defaultCandidates, voteThreshold: threshold });\n    daoGroups.push(new_group);\n    return true;\n  }\n\n  function getGroup(uint _gid) public view returns(DaoGroup memory) {\n    return daoGroups[_gid];\n  }\n  \n  function invitationLink(string memory name) public view returns (bytes memory) {\n      string memory newString = new string(10);\n      bytes memory finalString = bytes(newString);\n      bytes memory originString = \"abcdefghijklmnopqrstuvxyz1234567890\";\n      for (uint i=0; i< 9; i++) {\n          uint r = uint(keccak256(abi.encodePacked(block.timestamp, block.difficulty, msg.sender, string(finalString), name))) % originString.length;\n          finalString[i] = originString[r];\n      }\n      return finalString;\n  }    \n\n/*\n*   Tokens\n*\n*/\n\n  function getToken(uint _tokenid) public view returns(GToken memory) {\n    return allTokens[_tokenid];\n  }\n\n  \n  function createGToken(string calldata _name, uint _supply, uint _duration, uint _groupId) public returns(bool){\n    allTokens.push(GToken({\n      name: _name,\n      roundSupply: _supply,\n      roundDuration: _duration,\n      timestamp: block.timestamp\n    }));\n    uint l = allTokens.length;\n    daoGroups[_groupId].tokenIds.push(l-1);\n    return true;\n  }\n\n  function getUserTokens(uint _gid) public view returns(UToken[] memory) {\n    uint l = daoGroups[_gid].tokenIds.length;\n    UToken[] memory _userTokens = new UToken[](l);\n    for (uint w = 0; w < l; w++) {\n      uint q = daoGroups[_gid].tokenIds[w];\n      uint m = userTokens[msg.sender].length;\n      bool matchFound = false;\n      for (uint j = 0; j < m; j++) {\n        if (userTokens[msg.sender][j].tokenId == q) {\n          _userTokens[w]=userTokens[msg.sender][j];\n          uint newtime = allTokens[q].timestamp + allTokens[q].roundDuration;\n          if (block.timestamp > newtime ) {\n            _userTokens[w].xBalance = allTokens[q].roundSupply;\n          }      \n          matchFound = true;\n          break;\n        }\n      }\n      if (matchFound == false) {\n        _userTokens[w]=UToken({ tokenId: q, gTokenBalance: 0, xBalance: allTokens[q].roundSupply});\n      }\n    }\n    return _userTokens;\n  }\n\n\n\n  function transferToken(uint _tokenId, address receiver, uint value) public returns(bool) {\n    UToken memory _tokSender;\n    bool matchFoundSender = false;\n    uint s;\n    uint r;\n    for (s = 0; s < userTokens[msg.sender].length ; s++) {\n      if (userTokens[msg.sender][s].tokenId == _tokenId) {\n        _tokSender = userTokens[msg.sender][s];\n        matchFoundSender = true;\n        break;\n      }\n    }\n    if (matchFoundSender == false){\n      _tokSender = UToken({ tokenId: _tokenId, gTokenBalance: 0, xBalance: allTokens[_tokenId].roundSupply});\n    }\n    \n    if (block.timestamp > (allTokens[_tokenId].timestamp + allTokens[_tokenId].roundDuration * 1 seconds) ) {\n      _tokSender.xBalance = allTokens[_tokenId].roundSupply;\n      uint _newTimestamp = allTokens[_tokenId].timestamp;\n      for (uint k = 0; _newTimestamp < block.timestamp ; k++) {\n        _newTimestamp += allTokens[_tokenId].roundDuration * k; \n      }\n      allTokens[_tokenId].timestamp=_newTimestamp;\n    }\n    \n    require(_tokSender.xBalance >= value, \"non hai abbastanza token\");\n    UToken memory _tokReceiver;\n    bool matchFoundReceiver = false;\n    for ( r = 0; r < userTokens[receiver].length ; r++) {\n      if (userTokens[receiver][r].tokenId == _tokenId) {\n        _tokReceiver = userTokens[receiver][r];\n        matchFoundReceiver = true;\n        break;\n      }\n    }\n    if ( matchFoundReceiver == false){\n      _tokReceiver= UToken({ tokenId: _tokenId, gTokenBalance: 0, xBalance: allTokens[_tokenId].roundSupply});\n    }\n    _tokSender.xBalance -= value;\n    _tokReceiver.gTokenBalance += value;\n    if (matchFoundSender == true) {\n      userTokens[msg.sender][s] = _tokSender;\n    }\n    else {\n      userTokens[msg.sender].push( UToken({ tokenId: _tokenId, gTokenBalance: 0, xBalance: _tokSender.xBalance}));\n    }\n    if (matchFoundReceiver == true) {\n      userTokens[receiver][r] = _tokReceiver;\n    }\n    else {\n      userTokens[receiver].push( UToken({ tokenId: _tokenId, gTokenBalance: _tokReceiver.gTokenBalance, xBalance: allTokens[_tokenId].roundSupply}));\n    }\n    return true;\n  }\n\n  function getGroupNamefromId(uint _id) public view returns(string memory) {\n    return daoGroups[_id].name;\n  }\n\n  function getGroupAddressfromId(uint _id) public view returns(address[] memory) {\n    return daoGroups[_id].members;\n  }\n\n/*  \n*   Candidates\n*\n*/\n\n  function addCandidate(uint _gid, address candAddr) public returns(bool) {\n    require(!isAddressInGroup(_gid, candAddr), \"member already present!\");\n    // todo: check that group exists\n    // todo: check that msg.sender is allowed to add\n    // check if candidate already present in current candidate list\n    uint l = daoGroups[_gid].candidatesIds.length;\n    uint[] memory candidatesIds = new uint[](l+1);\n    for (uint i = 0; i < l; i++) {\n      candidatesIds[i] = daoGroups[_gid].candidatesIds[i];\n      require(allCandidates[candidatesIds[i]].candidateAddress != candAddr, \"candidate already added!\");\n    }\n    // generate a new candidate\n    address[] memory vot = new address[](0);\n    allCandidates.push(Candidate({\n      candidateAddress: candAddr,\n      votes: 0,\n      voters: vot\n    }));\n    // update candidate list in the group\n    candidatesIds[l] = allCandidates.length-1;\n    daoGroups[_gid].candidatesIds = candidatesIds;\n\n    return true;\n  }\n  \n  function voteCandidate(uint gid, address candAddr, int vote) public returns(bool) {\n    // todo: check if msg.sender eligible to cast vote\n    // find candidate \n    uint l = daoGroups[gid].candidatesIds.length;\n    Candidate memory candidate;\n    uint candidateId;\n    for (uint i = 0; i < l; i++) {\n      uint c = daoGroups[gid].candidatesIds[i];\n      if (allCandidates[c].candidateAddress == candAddr) {\n        candidate = allCandidates[c];\n        candidateId = c;\n      }\n      break;\n    }\n    // assign vote\n    if (vote > 0) {\n      candidate.votes += 1;\n    }\n    // add voter\n    l = candidate.voters.length;\n    address[] memory v = new address[](l+1);\n    for (uint i = 0; i < l; i++) {\n      v[i]=candidate.voters[i];\n    }\n    v[l]=msg.sender;\n    candidate.voters=v;\n    // todo: check if threshold is passed and add move candidate to member\n    // **\n    // write on chain\n    allCandidates[candidateId] = candidate;    \n    return true;\n  }\n\n  function getGroupCandidates(uint gid) public view returns(Candidate[] memory) {\n    // todo: check that group exists and msg.sender is allowed to get this info\n    uint l = daoGroups[gid].candidatesIds.length;\n    Candidate[] memory candidates = new Candidate[](l);\n    for (uint i = 0; i < l; i++) {\n      uint c = daoGroups[gid].candidatesIds[i];\n      candidates[i] = allCandidates[c];\n    }\n    return candidates;\n  }\n\n/*\n*\n*   Group Members\n*/\n\n  function addAddresstoMembers(uint _id, address _addr) public returns(bool) {\n    require(!isAddressInGroup(_id, _addr), \"member already present!\" );\n    uint l = daoGroups[_id].members.length;\n    address[] memory members = new address[](l+1);\n    for (uint i = 0; i < l; i++) {\n      members[i] = daoGroups[_id].members[i];\n    }\n    members[l] = _addr;\n    daoGroups[_id].members = members;\n    return true;\n  }\n\n  function isAddressInGroup(uint gid, address addr) private returns(bool) {\n    bool exists = false;\n    for (uint i = 0; i < daoGroups[gid].members.length; i++) {\n      if( daoGroups[gid].members[i] == addr ) {\n        exists=true;\n        break;\n      }\n    }\n    return exists;\n  }\n\n  function myGroups() public view returns(uint[] memory) {\n    uint lg = daoGroups.length;\n    uint[] memory myGroups;\n    for (uint i = 0; i < lg; i++) {\n      uint lm = daoGroups[i].members.length;\n      for (uint q = 0; q < lm; q++) {\n        if(daoGroups[i].members[q] == msg.sender) {\n          uint gl = myGroups.length;\n          uint[] memory groups = new uint[](gl+1);\n          for (uint w = 0; w < gl; w++) {\n            groups[w] = myGroups[w];\n          }\n          groups[gl] = i;\n          myGroups = groups;\n        }\n      }\n    }\n    return myGroups;\n  }\n\n\n  function nameOf(address owner) public view returns(string memory) {\n    return names[owner];\n  }\n\n  function nameSet(string calldata name) public returns(bool) {\n    names[msg.sender]=name;\n    return true;\n  }\n\n/*\n*   Round functions that probably should be removed\n*    \n*/\n\n  function tellmeNow() public view returns (uint) {\n    return block.timestamp;\n  }\n\n  function resetRound(uint _tokenId, uint _groupId) public returns(bool) {\n    address[] memory _members = daoGroups[_groupId].members;\n    uint l = _members.length;\n    for (uint s = 0; s < l ; s++) {\n      address member = _members[s];\n      uint lu = userTokens[member].length;\n      for (uint w = 0; w < lu; w++) {\n        if (userTokens[member][w].tokenId == _tokenId) {\n          userTokens[member][w].xBalance = allTokens[_tokenId].roundSupply;\n        }\n      }\n    }\n    return true;\n  }\n\n}\n",
  "sourcePath": "/home/fabian/kuoricinidao/contracts/KuoriciniDao.sol",
  "compiler": {
    "name": "solc",
    "version": "0.8.11+commit.d7f03943.Emscripten.clang"
  },
  "schemaVersion": "3.4.4",
  "updatedAt": "2022-04-25T12:44:25.558Z",
  "networkType": "ethereum",
  "devdoc": {
    "kind": "dev",
    "methods": {},
    "version": 1
  },
  "userdoc": {
    "kind": "user",
    "methods": {},
    "version": 1
  }
}