{
  "contractName": "KuoriciniDao",
  "abi": [
    {
      "inputs": [],
      "stateMutability": "nonpayable",
      "type": "constructor"
    },
    {
      "inputs": [
        {
          "internalType": "string",
          "name": "_name",
          "type": "string"
        }
      ],
      "name": "createGroup",
      "outputs": [
        {
          "internalType": "bool",
          "name": "",
          "type": "bool"
        }
      ],
      "stateMutability": "nonpayable",
      "type": "function"
    },
    {
      "inputs": [
        {
          "internalType": "uint256",
          "name": "_gid",
          "type": "uint256"
        }
      ],
      "name": "getGroup",
      "outputs": [
        {
          "components": [
            {
              "internalType": "string",
              "name": "name",
              "type": "string"
            },
            {
              "internalType": "address[]",
              "name": "members",
              "type": "address[]"
            },
            {
              "internalType": "uint256[]",
              "name": "tokenIds",
              "type": "uint256[]"
            },
            {
              "internalType": "uint256[]",
              "name": "candidateIds",
              "type": "uint256[]"
            },
            {
              "internalType": "uint256",
              "name": "voteThreshold",
              "type": "uint256"
            },
            {
              "internalType": "uint256",
              "name": "voteDuration",
              "type": "uint256"
            },
            {
              "internalType": "string",
              "name": "invitationLink",
              "type": "string"
            }
          ],
          "internalType": "struct KuoriciniDao.DaoGroup",
          "name": "",
          "type": "tuple"
        }
      ],
      "stateMutability": "view",
      "type": "function",
      "constant": true
    },
    {
      "inputs": [
        {
          "internalType": "string",
          "name": "link",
          "type": "string"
        }
      ],
      "name": "checkInvitationLink",
      "outputs": [
        {
          "internalType": "uint256",
          "name": "",
          "type": "uint256"
        }
      ],
      "stateMutability": "view",
      "type": "function",
      "constant": true
    },
    {
      "inputs": [
        {
          "internalType": "uint256",
          "name": "_tokenid",
          "type": "uint256"
        }
      ],
      "name": "getToken",
      "outputs": [
        {
          "components": [
            {
              "internalType": "string",
              "name": "name",
              "type": "string"
            },
            {
              "internalType": "uint256",
              "name": "roundSupply",
              "type": "uint256"
            },
            {
              "internalType": "uint256",
              "name": "roundDuration",
              "type": "uint256"
            },
            {
              "internalType": "uint256",
              "name": "timestamp",
              "type": "uint256"
            }
          ],
          "internalType": "struct KuoriciniDao.GToken",
          "name": "",
          "type": "tuple"
        }
      ],
      "stateMutability": "view",
      "type": "function",
      "constant": true
    },
    {
      "inputs": [
        {
          "internalType": "uint256",
          "name": "gid",
          "type": "uint256"
        }
      ],
      "name": "getUserTokens",
      "outputs": [
        {
          "components": [
            {
              "internalType": "uint256",
              "name": "tokenId",
              "type": "uint256"
            },
            {
              "internalType": "uint256",
              "name": "gTokenBalance",
              "type": "uint256"
            },
            {
              "internalType": "uint256",
              "name": "xBalance",
              "type": "uint256"
            },
            {
              "internalType": "uint256",
              "name": "blocktimestamp",
              "type": "uint256"
            },
            {
              "internalType": "uint256",
              "name": "newtime",
              "type": "uint256"
            },
            {
              "internalType": "uint256",
              "name": "residualtime",
              "type": "uint256"
            }
          ],
          "internalType": "struct KuoriciniDao.EToken[]",
          "name": "",
          "type": "tuple[]"
        }
      ],
      "stateMutability": "view",
      "type": "function",
      "constant": true
    },
    {
      "inputs": [
        {
          "internalType": "uint256",
          "name": "_tokenId",
          "type": "uint256"
        },
        {
          "internalType": "address",
          "name": "receiver",
          "type": "address"
        },
        {
          "internalType": "uint256",
          "name": "value",
          "type": "uint256"
        }
      ],
      "name": "transferToken",
      "outputs": [
        {
          "internalType": "bool",
          "name": "",
          "type": "bool"
        }
      ],
      "stateMutability": "nonpayable",
      "type": "function"
    },
    {
      "inputs": [
        {
          "internalType": "uint256",
          "name": "_id",
          "type": "uint256"
        }
      ],
      "name": "getGroupNamefromId",
      "outputs": [
        {
          "internalType": "string",
          "name": "",
          "type": "string"
        }
      ],
      "stateMutability": "view",
      "type": "function",
      "constant": true
    },
    {
      "inputs": [
        {
          "internalType": "uint256",
          "name": "_id",
          "type": "uint256"
        }
      ],
      "name": "getGroupAddressfromId",
      "outputs": [
        {
          "internalType": "address[]",
          "name": "",
          "type": "address[]"
        }
      ],
      "stateMutability": "view",
      "type": "function",
      "constant": true
    },
    {
      "inputs": [
        {
          "internalType": "uint256",
          "name": "val",
          "type": "uint256"
        },
        {
          "internalType": "string",
          "name": "name",
          "type": "string"
        },
        {
          "internalType": "uint256",
          "name": "supply",
          "type": "uint256"
        },
        {
          "internalType": "uint256",
          "name": "duration",
          "type": "uint256"
        },
        {
          "internalType": "uint256",
          "name": "gid",
          "type": "uint256"
        },
        {
          "internalType": "uint256",
          "name": "candtype",
          "type": "uint256"
        }
      ],
      "name": "changeToken",
      "outputs": [
        {
          "internalType": "bool",
          "name": "",
          "type": "bool"
        }
      ],
      "stateMutability": "nonpayable",
      "type": "function"
    },
    {
      "inputs": [
        {
          "internalType": "uint256",
          "name": "gid",
          "type": "uint256"
        }
      ],
      "name": "getGroupCandidates",
      "outputs": [
        {
          "components": [
            {
              "internalType": "uint256",
              "name": "id",
              "type": "uint256"
            },
            {
              "internalType": "uint256",
              "name": "candType",
              "type": "uint256"
            },
            {
              "internalType": "string",
              "name": "name",
              "type": "string"
            },
            {
              "internalType": "uint256",
              "name": "roundSupply",
              "type": "uint256"
            },
            {
              "internalType": "uint256",
              "name": "roundDuration",
              "type": "uint256"
            },
            {
              "internalType": "address",
              "name": "candidateAddress",
              "type": "address"
            },
            {
              "internalType": "uint256",
              "name": "votes",
              "type": "uint256"
            },
            {
              "internalType": "address[]",
              "name": "voters",
              "type": "address[]"
            },
            {
              "internalType": "uint256",
              "name": "timestamp",
              "type": "uint256"
            }
          ],
          "internalType": "struct KuoriciniDao.Candidate[]",
          "name": "",
          "type": "tuple[]"
        }
      ],
      "stateMutability": "view",
      "type": "function",
      "constant": true
    },
    {
      "inputs": [
        {
          "internalType": "uint256",
          "name": "gid",
          "type": "uint256"
        },
        {
          "internalType": "uint256",
          "name": "candTokId",
          "type": "uint256"
        },
        {
          "internalType": "uint256",
          "name": "vote",
          "type": "uint256"
        }
      ],
      "name": "voteCandidate",
      "outputs": [
        {
          "internalType": "bool",
          "name": "",
          "type": "bool"
        }
      ],
      "stateMutability": "nonpayable",
      "type": "function"
    },
    {
      "inputs": [
        {
          "internalType": "uint256",
          "name": "gid",
          "type": "uint256"
        }
      ],
      "name": "removeMeFromGroup",
      "outputs": [
        {
          "internalType": "bool",
          "name": "",
          "type": "bool"
        }
      ],
      "stateMutability": "nonpayable",
      "type": "function"
    },
    {
      "inputs": [],
      "name": "myGroups",
      "outputs": [
        {
          "internalType": "uint256[]",
          "name": "",
          "type": "uint256[]"
        }
      ],
      "stateMutability": "view",
      "type": "function",
      "constant": true
    },
    {
      "inputs": [
        {
          "internalType": "uint256",
          "name": "gid",
          "type": "uint256"
        },
        {
          "internalType": "string",
          "name": "invitation",
          "type": "string"
        }
      ],
      "name": "groupNameByInvitation",
      "outputs": [
        {
          "internalType": "string",
          "name": "",
          "type": "string"
        }
      ],
      "stateMutability": "view",
      "type": "function",
      "constant": true
    },
    {
      "inputs": [
        {
          "internalType": "address",
          "name": "owner",
          "type": "address"
        }
      ],
      "name": "nameOf",
      "outputs": [
        {
          "internalType": "string",
          "name": "",
          "type": "string"
        }
      ],
      "stateMutability": "view",
      "type": "function",
      "constant": true
    },
    {
      "inputs": [
        {
          "internalType": "string",
          "name": "name",
          "type": "string"
        }
      ],
      "name": "nameSet",
      "outputs": [
        {
          "internalType": "bool",
          "name": "",
          "type": "bool"
        }
      ],
      "stateMutability": "nonpayable",
      "type": "function"
    }
  ],
  "bytecode": "0x608060405234801561001057600080fd5b506157f080620000216000396000f3fe608060405234801561001057600080fd5b50600436106101005760003560e01c8063ceb6065411610097578063dc2ddcae11610066578063dc2ddcae14610333578063e4b50cb814610363578063edeefa3114610393578063f5c57382146103c357610100565b8063ceb6065414610273578063d17bd40b146102a3578063d5503235146102d3578063dbb5313f1461030357610100565b8063857af37b116100d3578063857af37b146101c557806395449f2b146101f5578063c3f9343714610225578063cc02711c1461024357610100565b806301fa665514610105578063088cab1814610135578063558f8f0414610165578063837d8cec14610195575b600080fd5b61011f600480360381019061011a919061419f565b6103f3565b60405161012c9190614298565b60405180910390f35b61014f600480360381019061014a91906142ba565b61050e565b60405161015c91906145be565b60405180910390f35b61017f600480360381019061017a91906142ba565b610891565b60405161018c919061464f565b60405180910390f35b6101af60048036038101906101aa91906147a1565b610944565b6040516101bc9190614865565b60405180910390f35b6101df60048036038101906101da91906142ba565b610f66565b6040516101ec9190614298565b60405180910390f35b61020f600480360381019061020a9190614880565b61101d565b60405161021c91906148dc565b60405180910390f35b61022d61120f565b60405161023a91906149a6565b60405180910390f35b61025d600480360381019061025891906149c8565b611404565b60405161026a9190614865565b60405180910390f35b61028d600480360381019061028891906142ba565b611d11565b60405161029a9190614b42565b60405180910390f35b6102bd60048036038101906102b891906142ba565b611fc3565b6040516102ca9190614c8e565b60405180910390f35b6102ed60048036038101906102e891906142ba565b612597565b6040516102fa9190614865565b60405180910390f35b61031d60048036038101906103189190614cdc565b61290a565b60405161032a9190614865565b60405180910390f35b61034d60048036038101906103489190614880565b6130d5565b60405161035a9190614865565b60405180910390f35b61037d600480360381019061037891906142ba565b6133ad565b60405161038a9190614d92565b60405180910390f35b6103ad60048036038101906103a89190614880565b613499565b6040516103ba9190614865565b60405180910390f35b6103dd60048036038101906103d89190614db4565b6134f3565b6040516103ea9190614298565b60405180910390f35b60608360028484604051610408929190614e11565b90815260200160405180910390205414610457576040517f08c379a000000000000000000000000000000000000000000000000000000000815260040161044e90614e76565b60405180910390fd5b6003848154811061046b5761046a614e96565b5b9060005260206000209060070201600001805461048790614ef4565b80601f01602080910402602001604051908101604052809291908181526020018280546104b390614ef4565b80156105005780601f106104d557610100808354040283529160200191610500565b820191906000526020600020905b8154815290600101906020018083116104e357829003601f168201915b505050505090509392505050565b606061051a82336135c3565b610559576040517f08c379a000000000000000000000000000000000000000000000000000000000815260040161055090614f72565b60405180910390fd5b60006003838154811061056f5761056e614e96565b5b906000526020600020906007020160030180549050905060008167ffffffffffffffff8111156105a2576105a1614676565b5b6040519080825280602002602001820160405280156105db57816020015b6105c8613dd2565b8152602001906001900390816105c05790505b5090506000805b8381101561088557600060038781548110610600576105ff614e96565b5b9060005260206000209060070201600301828154811061062357610622614e96565b5b9060005260206000200154905061065f6005828154811061064757610646614e96565b5b906000526020600020906009020160080154886136b9565b15610871576005818154811061067857610677614e96565b5b90600052602060002090600902016040518061012001604052908160008201548152602001600182015481526020016002820180546106b690614ef4565b80601f01602080910402602001604051908101604052809291908181526020018280546106e290614ef4565b801561072f5780601f106107045761010080835404028352916020019161072f565b820191906000526020600020905b81548152906001019060200180831161071257829003601f168201915b5050505050815260200160038201548152602001600482015481526020016005820160009054906101000a900473ffffffffffffffffffffffffffffffffffffffff1673ffffffffffffffffffffffffffffffffffffffff1673ffffffffffffffffffffffffffffffffffffffff168152602001600682015481526020016007820180548060200260200160405190810160405280929190818152602001828054801561083157602002820191906000526020600020905b8160009054906101000a900473ffffffffffffffffffffffffffffffffffffffff1673ffffffffffffffffffffffffffffffffffffffff16815260200190600101908083116107e7575b5050505050815260200160088201548152505084848151811061085757610856614e96565b5b6020026020010181905250828061086d90614fc1565b9350505b50808061087d90614fc1565b9150506105e2565b50819350505050919050565b6060600382815481106108a7576108a6614e96565b5b906000526020600020906007020160010180548060200260200160405190810160405280929190818152602001828054801561093857602002820191906000526020600020905b8160009054906101000a900473ffffffffffffffffffffffffffffffffffffffff1673ffffffffffffffffffffffffffffffffffffffff16815260200190600101908083116108ee575b50505050509050919050565b600080821415610a415761095883336135c3565b15610998576040517f08c379a000000000000000000000000000000000000000000000000000000000815260040161098f90615056565b60405180910390fd5b826002876040516109a991906150a7565b908152602001604051809103902054146109f8576040517f08c379a00000000000000000000000000000000000000000000000000000000081526004016109ef9061510a565b60405180910390fd5b6000831415610a3c576040517f08c379a0000000000000000000000000000000000000000000000000000000008152600401610a3390615176565b60405180910390fd5b610a8b565b610a4b83336135c3565b610a8a576040517f08c379a0000000000000000000000000000000000000000000000000000000008152600401610a8190614f72565b60405180910390fd5b5b6002821415610ade57610a9e87846136f6565b610add576040517f08c379a0000000000000000000000000000000000000000000000000000000008152600401610ad4906151e2565b60405180910390fd5b5b6003821415610b2c57600a871115610b2b576040517f08c379a0000000000000000000000000000000000000000000000000000000008152600401610b229061524e565b60405180910390fd5b5b600060038481548110610b4257610b41614e96565b5b90600052602060002090600702016003018054905090506000600182610b68919061526e565b67ffffffffffffffff811115610b8157610b80614676565b5b604051908082528060200260200182016040528015610baf5781602001602082028036833780820191505090505b50905060005b82811015610d5a5760038681548110610bd157610bd0614e96565b5b90600052602060002090600702016003018181548110610bf457610bf3614e96565b5b9060005260206000200154828281518110610c1257610c11614e96565b5b602002602001018181525050600085148015610cb857503373ffffffffffffffffffffffffffffffffffffffff166005838381518110610c5557610c54614e96565b5b602002602001015181548110610c6e57610c6d614e96565b5b906000526020600020906009020160050160009054906101000a900473ffffffffffffffffffffffffffffffffffffffff1673ffffffffffffffffffffffffffffffffffffffff16145b15610d4757610d066005838381518110610cd557610cd4614e96565b5b602002602001015181548110610cee57610ced614e96565b5b906000526020600020906009020160080154876136b9565b15610d46576040517f08c379a0000000000000000000000000000000000000000000000000000000008152600401610d3d90615310565b60405180910390fd5b5b8080610d5290614fc1565b915050610bb5565b5060008067ffffffffffffffff811115610d7757610d76614676565b5b604051908082528060200260200182016040528015610da55781602001602082028036833780820191505090505b50905060056040518061012001604052808c81526020018781526020018b81526020018a81526020018981526020013373ffffffffffffffffffffffffffffffffffffffff1681526020016000815260200183815260200142815250908060018154018082558091505060019003906000526020600020906009020160009091909190915060008201518160000155602082015181600101556040820151816002019080519060200190610e5a929190613e34565b50606082015181600301556080820151816004015560a08201518160050160006101000a81548173ffffffffffffffffffffffffffffffffffffffff021916908373ffffffffffffffffffffffffffffffffffffffff16021790555060c0820151816006015560e0820151816007019080519060200190610edc929190613eba565b50610100820151816008015550506001600580549050610efc9190615330565b828481518110610f0f57610f0e614e96565b5b6020026020010181815250508160038781548110610f3057610f2f614e96565b5b90600052602060002090600702016003019080519060200190610f54929190613f44565b50600193505050509695505050505050565b606060038281548110610f7c57610f7b614e96565b5b90600052602060002090600702016000018054610f9890614ef4565b80601f0160208091040260200160405190810160405280929190818152602001828054610fc490614ef4565b80156110115780601f10610fe657610100808354040283529160200191611011565b820191906000526020600020905b815481529060010190602001808311610ff457829003601f168201915b50505050509050919050565b60008060028484604051611032929190614e11565b908152602001604051809103902054905061104d81336135c3565b1561105c576000915050611209565b60006003828154811061107257611071614e96565b5b90600052602060002090600702016003018054905090506000600182611098919061526e565b67ffffffffffffffff8111156110b1576110b0614676565b5b6040519080825280602002602001820160405280156110df5781602001602082028036833780820191505090505b50905060005b82811015611201576003848154811061110157611100614e96565b5b9060005260206000209060070201600301818154811061112457611123614e96565b5b906000526020600020015482828151811061114257611141614e96565b5b6020026020010181815250503373ffffffffffffffffffffffffffffffffffffffff16600583838151811061117a57611179614e96565b5b60200260200101518154811061119357611192614e96565b5b906000526020600020906009020160050160009054906101000a900473ffffffffffffffffffffffffffffffffffffffff1673ffffffffffffffffffffffffffffffffffffffff1614156111ee576000945050505050611209565b80806111f990614fc1565b9150506110e5565b508293505050505b92915050565b606060006003805490509050606060005b828110156113fb5760006003828154811061123e5761123d614e96565b5b906000526020600020906007020160010180549050905060005b818110156113e6573373ffffffffffffffffffffffffffffffffffffffff166003848154811061128b5761128a614e96565b5b906000526020600020906007020160010182815481106112ae576112ad614e96565b5b9060005260206000200160009054906101000a900473ffffffffffffffffffffffffffffffffffffffff1673ffffffffffffffffffffffffffffffffffffffff1614156113d357600084519050600060018261130a919061526e565b67ffffffffffffffff81111561132357611322614676565b5b6040519080825280602002602001820160405280156113515781602001602082028036833780820191505090505b50905060005b828110156113ac5786818151811061137257611371614e96565b5b602002602001015182828151811061138d5761138c614e96565b5b60200260200101818152505080806113a490614fc1565b915050611357565b50848183815181106113c1576113c0614e96565b5b60200260200101818152505080955050505b80806113de90614fc1565b915050611258565b505080806113f390614fc1565b915050611220565b50809250505090565b600061141084336135c3565b61144f576040517f08c379a0000000000000000000000000000000000000000000000000000000008152600401611446906153b0565b60405180910390fd5b611457613dd2565b60006003868154811061146d5761146c614e96565b5b90600052602060002090600702016003018054905090506000805b828110156116d75786600389815481106114a5576114a4614e96565b5b906000526020600020906007020160030182815481106114c8576114c7614e96565b5b906000526020600020015414156116c457600587815481106114ed576114ec614e96565b5b906000526020600020906009020160405180610120016040529081600082015481526020016001820154815260200160028201805461152b90614ef4565b80601f016020809104026020016040519081016040528092919081815260200182805461155790614ef4565b80156115a45780601f10611579576101008083540402835291602001916115a4565b820191906000526020600020905b81548152906001019060200180831161158757829003601f168201915b5050505050815260200160038201548152602001600482015481526020016005820160009054906101000a900473ffffffffffffffffffffffffffffffffffffffff1673ffffffffffffffffffffffffffffffffffffffff1673ffffffffffffffffffffffffffffffffffffffff16815260200160068201548152602001600782018054806020026020016040519081016040528092919081815260200182805480156116a657602002820191906000526020600020905b8160009054906101000a900473ffffffffffffffffffffffffffffffffffffffff1673ffffffffffffffffffffffffffffffffffffffff168152602001906001019080831161165c575b505050505081526020016008820154815250509350600191506116d7565b80806116cf90614fc1565b915050611488565b5080611718576040517f08c379a000000000000000000000000000000000000000000000000000000000815260040161170f9061541c565b60405180910390fd5b611727836101000151886136b9565b611766576040517f08c379a000000000000000000000000000000000000000000000000000000000815260040161175d90615488565b60405180910390fd5b60008360e00151519050600060018261177f919061526e565b67ffffffffffffffff81111561179857611797614676565b5b6040519080825280602002602001820160405280156117c65781602001602082028036833780820191505090505b50905060005b828110156118e0573373ffffffffffffffffffffffffffffffffffffffff168660e00151828151811061180257611801614e96565b5b602002602001015173ffffffffffffffffffffffffffffffffffffffff161415611861576040517f08c379a0000000000000000000000000000000000000000000000000000000008152600401611858906154f4565b60405180910390fd5b8560e00151818151811061187857611877614e96565b5b602002602001015182828151811061189357611892614e96565b5b602002602001019073ffffffffffffffffffffffffffffffffffffffff16908173ffffffffffffffffffffffffffffffffffffffff168152505080806118d890614fc1565b9150506117cc565b50338183815181106118f5576118f4614e96565b5b602002602001019073ffffffffffffffffffffffffffffffffffffffff16908173ffffffffffffffffffffffffffffffffffffffff1681525050808560e00181905250600087111561195c5760018560c001818151611954919061526e565b915081815250505b846005898154811061197157611970614e96565b5b9060005260206000209060090201600082015181600001556020820151816001015560408201518160020190805190602001906119af929190613e34565b50606082015181600301556080820151816004015560a08201518160050160006101000a81548173ffffffffffffffffffffffffffffffffffffffff021916908373ffffffffffffffffffffffffffffffffffffffff16021790555060c0820151816006015560e0820151816007019080519060200190611a31929190613eba565b5061010082015181600801559050506000611a4b8a6137a0565b9050808660c001511115611d0057600086602001511415611a7657611a748a8760a00151613821565b505b600186602001511480611a8d575060028660200151145b15611ab957611ab7866000015187604001518860600151896080015160028b60200151148f613a55565b505b600386602001511415611af557856000015160038b81548110611adf57611ade614e96565b5b9060005260206000209060070201600401819055505b6000600186611b049190615330565b67ffffffffffffffff811115611b1d57611b1c614676565b5b604051908082528060200260200182016040528015611b4b5781602001602082028036833780820191505090505b509050600080600090505b87811015611bc2578b60038e81548110611b7357611b72614e96565b5b90600052602060002090600702016003018281548110611b9657611b95614e96565b5b90600052602060002001541415611baf57809150611bc2565b8080611bba90614fc1565b915050611b56565b600090505b87811015611cc25781811015611c395760038d81548110611beb57611bea614e96565b5b90600052602060002090600702016003018181548110611c0e57611c0d614e96565b5b9060005260206000200154838281518110611c2c57611c2b614e96565b5b6020026020010181815250505b81811115611caf5760038d81548110611c5557611c54614e96565b5b90600052602060002090600702016003018181548110611c7857611c77614e96565b5b906000526020600020015483600183611c919190615330565b81518110611ca257611ca1614e96565b5b6020026020010181815250505b8080611cba90614fc1565b915050611bc7565b8260038e81548110611cd757611cd6614e96565b5b90600052602060002090600702016003019080519060200190611cfb929190613f44565b505050505b600196505050505050509392505050565b611d19613f91565b60038281548110611d2d57611d2c614e96565b5b90600052602060002090600702016040518060e0016040529081600082018054611d5690614ef4565b80601f0160208091040260200160405190810160405280929190818152602001828054611d8290614ef4565b8015611dcf5780601f10611da457610100808354040283529160200191611dcf565b820191906000526020600020905b815481529060010190602001808311611db257829003601f168201915b5050505050815260200160018201805480602002602001604051908101604052809291908181526020018280548015611e5d57602002820191906000526020600020905b8160009054906101000a900473ffffffffffffffffffffffffffffffffffffffff1673ffffffffffffffffffffffffffffffffffffffff1681526020019060010190808311611e13575b5050505050815260200160028201805480602002602001604051908101604052809291908181526020018280548015611eb557602002820191906000526020600020905b815481526020019060010190808311611ea1575b5050505050815260200160038201805480602002602001604051908101604052809291908181526020018280548015611f0d57602002820191906000526020600020905b815481526020019060010190808311611ef9575b505050505081526020016004820154815260200160058201548152602001600682018054611f3a90614ef4565b80601f0160208091040260200160405190810160405280929190818152602001828054611f6690614ef4565b8015611fb35780601f10611f8857610100808354040283529160200191611fb3565b820191906000526020600020905b815481529060010190602001808311611f9657829003601f168201915b5050505050815250509050919050565b6060611fcf82336135c3565b61200e576040517f08c379a000000000000000000000000000000000000000000000000000000000815260040161200590614e76565b60405180910390fd5b60006003838154811061202457612023614e96565b5b90600052602060002090600702016002018054905090506000600160003373ffffffffffffffffffffffffffffffffffffffff1673ffffffffffffffffffffffffffffffffffffffff16815260200190815260200160002080549050905060008267ffffffffffffffff81111561209e5761209d614676565b5b6040519080825280602002602001820160405280156120d757816020015b6120c4613fce565b8152602001906001900390816120bc5790505b50905060008367ffffffffffffffff8111156120f6576120f5614676565b5b60405190808252806020026020018201604052801561212f57816020015b61211c613fef565b8152602001906001900390816121145790505b50905060005b8481101561258a5760006003888154811061215357612152614e96565b5b9060005260206000209060070201600201828154811061217657612175614e96565b5b90600052602060002001549050604051806060016040528082815260200160008152602001600483815481106121af576121ae614e96565b5b9060005260206000209060040201600101548152508483815181106121d7576121d6614e96565b5b6020026020010181905250600080600483815481106121f9576121f8614e96565b5b9060005260206000209060040201600201546004848154811061221f5761221e614e96565b5b90600052602060002090600402016003015461223b919061526e565b90505b42811015612297576004838154811061225a57612259614e96565b5b906000526020600020906004020160020154826122779190615514565b81612282919061526e565b9050818061228f90614fc1565b92505061223e565b60005b878110156124365783600160003373ffffffffffffffffffffffffffffffffffffffff1673ffffffffffffffffffffffffffffffffffffffff16815260200190815260200160002082815481106122f4576122f3614e96565b5b906000526020600020906003020160000154141561242357600160003373ffffffffffffffffffffffffffffffffffffffff1673ffffffffffffffffffffffffffffffffffffffff168152602001908152602001600020818154811061235d5761235c614e96565b5b90600052602060002090600302016001015487868151811061238257612381614e96565b5b60200260200101516020018181525050600083141561242257600160003373ffffffffffffffffffffffffffffffffffffffff1673ffffffffffffffffffffffffffffffffffffffff16815260200190815260200160002081815481106123ec576123eb614e96565b5b90600052602060002090600302016002015487868151811061241157612410614e96565b5b602002602001015160400181815250505b5b808061242e90614fc1565b91505061229a565b5085848151811061244a57612449614e96565b5b60200260200101516000015185858151811061246957612468614e96565b5b6020026020010151600001818152505085848151811061248c5761248b614e96565b5b6020026020010151602001518585815181106124ab576124aa614e96565b5b602002602001015160200181815250508584815181106124ce576124cd614e96565b5b6020026020010151604001518585815181106124ed576124ec614e96565b5b602002602001015160400181815250504285858151811061251157612510614e96565b5b602002602001015160600181815250508085858151811061253557612534614e96565b5b6020026020010151608001818152505042816125519190615330565b85858151811061256457612563614e96565b5b602002602001015160a0018181525050505050808061258290614fc1565b915050612135565b5080945050505050919050565b60006125a382336135c3565b6125e2576040517f08c379a00000000000000000000000000000000000000000000000000000000081526004016125d9906155ba565b60405180910390fd5b6000600383815481106125f8576125f7614e96565b5b9060005260206000209060070201600101805490509050600060018261261e9190615330565b67ffffffffffffffff81111561263757612636614676565b5b6040519080825280602002602001820160405280156126655781602001602082028036833780820191505090505b509050600080600090505b83811015612727573373ffffffffffffffffffffffffffffffffffffffff16600387815481106126a3576126a2614e96565b5b906000526020600020906007020160010182815481106126c6576126c5614e96565b5b9060005260206000200160009054906101000a900473ffffffffffffffffffffffffffffffffffffffff1673ffffffffffffffffffffffffffffffffffffffff161461271457809150612727565b808061271f90614fc1565b915050612670565b600090505b838110156128c357818110156127ec57600386815481106127505761274f614e96565b5b9060005260206000209060070201600101818154811061277357612772614e96565b5b9060005260206000200160009054906101000a900473ffffffffffffffffffffffffffffffffffffffff168382815181106127b1576127b0614e96565b5b602002602001019073ffffffffffffffffffffffffffffffffffffffff16908173ffffffffffffffffffffffffffffffffffffffff16815250505b818111156128b0576003868154811061280857612807614e96565b5b9060005260206000209060070201600101818154811061282b5761282a614e96565b5b9060005260206000200160009054906101000a900473ffffffffffffffffffffffffffffffffffffffff16836001836128649190615330565b8151811061287557612874614e96565b5b602002602001019073ffffffffffffffffffffffffffffffffffffffff16908173ffffffffffffffffffffffffffffffffffffffff16815250505b80806128bb90614fc1565b91505061272c565b82600387815481106128d8576128d7614e96565b5b906000526020600020906007020160010190805190602001906128fc929190613eba565b506001945050505050919050565b6000612914613fce565b60008080600091505b600160003373ffffffffffffffffffffffffffffffffffffffff1673ffffffffffffffffffffffffffffffffffffffff16815260200190815260200160002080549050821015612a775787600160003373ffffffffffffffffffffffffffffffffffffffff1673ffffffffffffffffffffffffffffffffffffffff16815260200190815260200160002083815481106129b9576129b8614e96565b5b9060005260206000209060030201600001541415612a6457600160003373ffffffffffffffffffffffffffffffffffffffff1673ffffffffffffffffffffffffffffffffffffffff1681526020019081526020016000208281548110612a2257612a21614e96565b5b90600052602060002090600302016040518060600160405290816000820154815260200160018201548152602001600282015481525050935060019250612a77565b8180612a6f90614fc1565b92505061291d565b600015158315151415612ac85760405180606001604052808981526020016000815260200160048a81548110612ab057612aaf614e96565b5b90600052602060002090600402016001015481525093505b600060048981548110612ade57612add614e96565b5b90600052602060002090600402016002015460048a81548110612b0457612b03614e96565b5b906000526020600020906004020160030154612b20919061526e565b905080421115612bf55760048981548110612b3e57612b3d614e96565b5b9060005260206000209060040201600101548560400181815250505b60048981548110612b6e57612b6d614e96565b5b90600052602060002090600402016002015481612b8b919061526e565b421115612bca5760048981548110612ba657612ba5614e96565b5b90600052602060002090600402016002015481612bc3919061526e565b9050612b5a565b8060048a81548110612bdf57612bde614e96565b5b9060005260206000209060040201600301819055505b8685604001511015612c3c576040517f08c379a0000000000000000000000000000000000000000000000000000000008152600401612c3390615626565b60405180910390fd5b612c44613fce565b60008093505b600160008b73ffffffffffffffffffffffffffffffffffffffff1673ffffffffffffffffffffffffffffffffffffffff16815260200190815260200160002080549050841015612da4578a600160008c73ffffffffffffffffffffffffffffffffffffffff1673ffffffffffffffffffffffffffffffffffffffff1681526020019081526020016000208581548110612ce657612ce5614e96565b5b9060005260206000209060030201600001541415612d9157600160008b73ffffffffffffffffffffffffffffffffffffffff1673ffffffffffffffffffffffffffffffffffffffff1681526020019081526020016000208481548110612d4f57612d4e614e96565b5b90600052602060002090600302016040518060600160405290816000820154815260200160018201548152602001600282015481525050915060019050612da4565b8380612d9c90614fc1565b945050612c4a565b600015158115151415612df55760405180606001604052808c81526020016000815260200160048d81548110612ddd57612ddc614e96565b5b90600052602060002090600402016001015481525091505b8887604001818151612e079190615330565b915081815250508882602001818151612e20919061526e565b91508181525050600115158615151415612eba5786600160003373ffffffffffffffffffffffffffffffffffffffff1673ffffffffffffffffffffffffffffffffffffffff1681526020019081526020016000208681548110612e8657612e85614e96565b5b9060005260206000209060030201600082015181600001556020820151816001015560408201518160020155905050612f63565b600160003373ffffffffffffffffffffffffffffffffffffffff1673ffffffffffffffffffffffffffffffffffffffff16815260200190815260200160002060405180606001604052808d8152602001600081526020018960400151815250908060018154018082558091505060019003906000526020600020906003020160009091909190915060008201518160000155602082015181600101556040820151816002015550505b600115158115151415612ff65781600160008c73ffffffffffffffffffffffffffffffffffffffff1673ffffffffffffffffffffffffffffffffffffffff1681526020019081526020016000208581548110612fc257612fc1614e96565b5b90600052602060002090600302016000820151816000015560208201518160010155604082015181600201559050506130c3565b600160008b73ffffffffffffffffffffffffffffffffffffffff1673ffffffffffffffffffffffffffffffffffffffff16815260200190815260200160002060405180606001604052808d81526020018460200151815260200160048e8154811061306457613063614e96565b5b906000526020600020906004020160010154815250908060018154018082558091505060019003906000526020600020906003020160009091909190915060008201518160000155602082015181600101556040820151816002015550505b60019750505050505050509392505050565b600080600167ffffffffffffffff8111156130f3576130f2614676565b5b6040519080825280602002602001820160405280156131215781602001602082028036833780820191505090505b509050338160008151811061313957613138614e96565b5b602002602001019073ffffffffffffffffffffffffffffffffffffffff16908173ffffffffffffffffffffffffffffffffffffffff1681525050606080600060059050600062127500905060006131d389898080601f016020809104026020016040519081016040528093929190818152602001838380828437600081840152601f19601f82011690508083019250505050505050613c7d565b905060006040518060e001604052808b8b8080601f016020809104026020016040519081016040528093929190818152602001838380828437600081840152601f19601f82011690508083019250505050505050815260200188815260200187815260200186815260200185815260200184815260200183815250905060038190806001815401808255809150506001900390600052602060002090600702016000909190919091506000820151816000019080519060200190613298929190613e34565b5060208201518160010190805190602001906132b5929190613eba565b5060408201518160020190805190602001906132d2929190613f44565b5060608201518160030190805190602001906132ef929190613f44565b506080820151816004015560a0820151816005015560c0820151816006019080519060200190613320929190613e34565b505050600060016003805490506133379190615330565b1461336857600060028360405161334e91906150a7565b9081526020016040518091039020541461336757600080fd5b5b600160038054905061337a9190615330565b60028360405161338a91906150a7565b908152602001604051809103902081905550600197505050505050505092915050565b6133b5614025565b600482815481106133c9576133c8614e96565b5b90600052602060002090600402016040518060800160405290816000820180546133f290614ef4565b80601f016020809104026020016040519081016040528092919081815260200182805461341e90614ef4565b801561346b5780601f106134405761010080835404028352916020019161346b565b820191906000526020600020905b81548152906001019060200180831161344e57829003601f168201915b5050505050815260200160018201548152602001600282015481526020016003820154815250509050919050565b600082826000803373ffffffffffffffffffffffffffffffffffffffff1673ffffffffffffffffffffffffffffffffffffffff16815260200190815260200160002091906134e892919061404d565b506001905092915050565b60606000808373ffffffffffffffffffffffffffffffffffffffff1673ffffffffffffffffffffffffffffffffffffffff168152602001908152602001600020805461353e90614ef4565b80601f016020809104026020016040519081016040528092919081815260200182805461356a90614ef4565b80156135b75780601f1061358c576101008083540402835291602001916135b7565b820191906000526020600020905b81548152906001019060200180831161359a57829003601f168201915b50505050509050919050565b6000806000905060005b600385815481106135e1576135e0614e96565b5b9060005260206000209060070201600101805490508110156136ae578373ffffffffffffffffffffffffffffffffffffffff166003868154811061362857613627614e96565b5b9060005260206000209060070201600101828154811061364b5761364a614e96565b5b9060005260206000200160009054906101000a900473ffffffffffffffffffffffffffffffffffffffff1673ffffffffffffffffffffffffffffffffffffffff16141561369b57600191506136ae565b80806136a690614fc1565b9150506135cd565b508091505092915050565b600042600383815481106136d0576136cf614e96565b5b906000526020600020906007020160050154846136ed919061526e565b11905092915050565b600080600090505b6003838154811061371257613711614e96565b5b90600052602060002090600702016002018054905081101561379457836003848154811061374357613742614e96565b5b9060005260206000209060070201600201828154811061376657613765614e96565b5b9060005260206000200154141561378157600191505061379a565b808061378c90614fc1565b9150506136fe565b50600090505b92915050565b60006137ac82336135c3565b6137b557600080fd5b600a600383815481106137cb576137ca614e96565b5b906000526020600020906007020160040154600384815481106137f1576137f0614e96565b5b9060005260206000209060070201600101805490506138109190615514565b61381a9190615675565b9050919050565b600061382d83836135c3565b1561386d576040517f08c379a000000000000000000000000000000000000000000000000000000000815260040161386490615056565b60405180910390fd5b60006003848154811061388357613882614e96565b5b906000526020600020906007020160010180549050905060006001826138a9919061526e565b67ffffffffffffffff8111156138c2576138c1614676565b5b6040519080825280602002602001820160405280156138f05781602001602082028036833780820191505090505b50905060005b828110156139c0576003868154811061391257613911614e96565b5b9060005260206000209060070201600101818154811061393557613934614e96565b5b9060005260206000200160009054906101000a900473ffffffffffffffffffffffffffffffffffffffff1682828151811061397357613972614e96565b5b602002602001019073ffffffffffffffffffffffffffffffffffffffff16908173ffffffffffffffffffffffffffffffffffffffff168152505080806139b890614fc1565b9150506138f6565b50838183815181106139d5576139d4614e96565b5b602002602001019073ffffffffffffffffffffffffffffffffffffffff16908173ffffffffffffffffffffffffffffffffffffffff16815250508060038681548110613a2457613a23614e96565b5b90600052602060002090600702016001019080519060200190613a48929190613eba565b5060019250505092915050565b6000613a6182336135c3565b613aa0576040517f08c379a0000000000000000000000000000000000000000000000000000000008152600401613a97906153b0565b60405180910390fd5b8215613b8257613ab087836136f6565b613aef576040517f08c379a0000000000000000000000000000000000000000000000000000000008152600401613ae6906151e2565b60405180910390fd5b8560048881548110613b0457613b03614e96565b5b90600052602060002090600402016000019080519060200190613b28929190613e34565b508460048881548110613b3e57613b3d614e96565b5b9060005260206000209060040201600101819055508360048881548110613b6857613b67614e96565b5b906000526020600020906004020160020181905550613c6f565b600460405180608001604052808881526020018781526020018681526020014281525090806001815401808255809150506001900390600052602060002090600402016000909190919091506000820151816000019080519060200190613bea929190613e34565b5060208201518160010155604082015181600201556060820151816003015550506000600480549050905060038381548110613c2957613c28614e96565b5b9060005260206000209060070201600201600182613c479190615330565b9080600181540180825580915050600190039060005260206000200160009091909190915055505b600190509695505050505050565b60606000600f905060008167ffffffffffffffff811115613ca157613ca0614676565b5b6040519080825280601f01601f191660200182016040528015613cd35781602001600182028036833780820191505090505b5090506000819050600060405180606001604052806023815260200161579860239139905060005b600185613d089190615330565b811015613dc55760008251424433878c604051602001613d2c95949392919061570f565b6040516020818303038152906040528051906020012060001c613d4f9190615766565b9050828181518110613d6457613d63614e96565b5b602001015160f81c60f81b848381518110613d8257613d81614e96565b5b60200101907effffffffffffffffffffffffffffffffffffffffffffffffffffffffffffff1916908160001a905350508080613dbd90614fc1565b915050613cfb565b5081945050505050919050565b6040518061012001604052806000815260200160008152602001606081526020016000815260200160008152602001600073ffffffffffffffffffffffffffffffffffffffff1681526020016000815260200160608152602001600081525090565b828054613e4090614ef4565b90600052602060002090601f016020900481019282613e625760008555613ea9565b82601f10613e7b57805160ff1916838001178555613ea9565b82800160010185558215613ea9579182015b82811115613ea8578251825591602001919060010190613e8d565b5b509050613eb691906140d3565b5090565b828054828255906000526020600020908101928215613f33579160200282015b82811115613f325782518260006101000a81548173ffffffffffffffffffffffffffffffffffffffff021916908373ffffffffffffffffffffffffffffffffffffffff16021790555091602001919060010190613eda565b5b509050613f4091906140d3565b5090565b828054828255906000526020600020908101928215613f80579160200282015b82811115613f7f578251825591602001919060010190613f64565b5b509050613f8d91906140d3565b5090565b6040518060e00160405280606081526020016060815260200160608152602001606081526020016000815260200160008152602001606081525090565b60405180606001604052806000815260200160008152602001600081525090565b6040518060c001604052806000815260200160008152602001600081526020016000815260200160008152602001600081525090565b6040518060800160405280606081526020016000815260200160008152602001600081525090565b82805461405990614ef4565b90600052602060002090601f01602090048101928261407b57600085556140c2565b82601f1061409457803560ff19168380011785556140c2565b828001600101855582156140c2579182015b828111156140c15782358255916020019190600101906140a6565b5b5090506140cf91906140d3565b5090565b5b808211156140ec5760008160009055506001016140d4565b5090565b6000604051905090565b600080fd5b600080fd5b6000819050919050565b61411781614104565b811461412257600080fd5b50565b6000813590506141348161410e565b92915050565b600080fd5b600080fd5b600080fd5b60008083601f84011261415f5761415e61413a565b5b8235905067ffffffffffffffff81111561417c5761417b61413f565b5b60208301915083600182028301111561419857614197614144565b5b9250929050565b6000806000604084860312156141b8576141b76140fa565b5b60006141c686828701614125565b935050602084013567ffffffffffffffff8111156141e7576141e66140ff565b5b6141f386828701614149565b92509250509250925092565b600081519050919050565b600082825260208201905092915050565b60005b8381101561423957808201518184015260208101905061421e565b83811115614248576000848401525b50505050565b6000601f19601f8301169050919050565b600061426a826141ff565b614274818561420a565b935061428481856020860161421b565b61428d8161424e565b840191505092915050565b600060208201905081810360008301526142b2818461425f565b905092915050565b6000602082840312156142d0576142cf6140fa565b5b60006142de84828501614125565b91505092915050565b600081519050919050565b600082825260208201905092915050565b6000819050602082019050919050565b61431c81614104565b82525050565b600082825260208201905092915050565b600061433e826141ff565b6143488185614322565b935061435881856020860161421b565b6143618161424e565b840191505092915050565b600073ffffffffffffffffffffffffffffffffffffffff82169050919050565b60006143978261436c565b9050919050565b6143a78161438c565b82525050565b600081519050919050565b600082825260208201905092915050565b6000819050602082019050919050565b60006143e5838361439e565b60208301905092915050565b6000602082019050919050565b6000614409826143ad565b61441381856143b8565b935061441e836143c9565b8060005b8381101561444f57815161443688826143d9565b9750614441836143f1565b925050600181019050614422565b5085935050505092915050565b6000610120830160008301516144756000860182614313565b5060208301516144886020860182614313565b50604083015184820360408601526144a08282614333565b91505060608301516144b56060860182614313565b5060808301516144c86080860182614313565b5060a08301516144db60a086018261439e565b5060c08301516144ee60c0860182614313565b5060e083015184820360e086015261450682826143fe565b91505061010083015161451d610100860182614313565b508091505092915050565b6000614534838361445c565b905092915050565b6000602082019050919050565b6000614554826142e7565b61455e81856142f2565b93508360208202850161457085614303565b8060005b858110156145ac578484038952815161458d8582614528565b94506145988361453c565b925060208a01995050600181019050614574565b50829750879550505050505092915050565b600060208201905081810360008301526145d88184614549565b905092915050565b600082825260208201905092915050565b60006145fc826143ad565b61460681856145e0565b9350614611836143c9565b8060005b8381101561464257815161462988826143d9565b9750614634836143f1565b925050600181019050614615565b5085935050505092915050565b6000602082019050818103600083015261466981846145f1565b905092915050565b600080fd5b7f4e487b7100000000000000000000000000000000000000000000000000000000600052604160045260246000fd5b6146ae8261424e565b810181811067ffffffffffffffff821117156146cd576146cc614676565b5b80604052505050565b60006146e06140f0565b90506146ec82826146a5565b919050565b600067ffffffffffffffff82111561470c5761470b614676565b5b6147158261424e565b9050602081019050919050565b82818337600083830152505050565b600061474461473f846146f1565b6146d6565b9050828152602081018484840111156147605761475f614671565b5b61476b848285614722565b509392505050565b600082601f8301126147885761478761413a565b5b8135614798848260208601614731565b91505092915050565b60008060008060008060c087890312156147be576147bd6140fa565b5b60006147cc89828a01614125565b965050602087013567ffffffffffffffff8111156147ed576147ec6140ff565b5b6147f989828a01614773565b955050604061480a89828a01614125565b945050606061481b89828a01614125565b935050608061482c89828a01614125565b92505060a061483d89828a01614125565b9150509295509295509295565b60008115159050919050565b61485f8161484a565b82525050565b600060208201905061487a6000830184614856565b92915050565b60008060208385031215614897576148966140fa565b5b600083013567ffffffffffffffff8111156148b5576148b46140ff565b5b6148c185828601614149565b92509250509250929050565b6148d681614104565b82525050565b60006020820190506148f160008301846148cd565b92915050565b600081519050919050565b600082825260208201905092915050565b6000819050602082019050919050565b600061492f8383614313565b60208301905092915050565b6000602082019050919050565b6000614953826148f7565b61495d8185614902565b935061496883614913565b8060005b838110156149995781516149808882614923565b975061498b8361493b565b92505060018101905061496c565b5085935050505092915050565b600060208201905081810360008301526149c08184614948565b905092915050565b6000806000606084860312156149e1576149e06140fa565b5b60006149ef86828701614125565b9350506020614a0086828701614125565b9250506040614a1186828701614125565b9150509250925092565b600082825260208201905092915050565b6000614a37826148f7565b614a418185614a1b565b9350614a4c83614913565b8060005b83811015614a7d578151614a648882614923565b9750614a6f8361493b565b925050600181019050614a50565b5085935050505092915050565b600060e0830160008301518482036000860152614aa78282614333565b91505060208301518482036020860152614ac182826143fe565b91505060408301518482036040860152614adb8282614a2c565b91505060608301518482036060860152614af58282614a2c565b9150506080830151614b0a6080860182614313565b5060a0830151614b1d60a0860182614313565b5060c083015184820360c0860152614b358282614333565b9150508091505092915050565b60006020820190508181036000830152614b5c8184614a8a565b905092915050565b600081519050919050565b600082825260208201905092915050565b6000819050602082019050919050565b60c082016000820151614ba66000850182614313565b506020820151614bb96020850182614313565b506040820151614bcc6040850182614313565b506060820151614bdf6060850182614313565b506080820151614bf26080850182614313565b5060a0820151614c0560a0850182614313565b50505050565b6000614c178383614b90565b60c08301905092915050565b6000602082019050919050565b6000614c3b82614b64565b614c458185614b6f565b9350614c5083614b80565b8060005b83811015614c81578151614c688882614c0b565b9750614c7383614c23565b925050600181019050614c54565b5085935050505092915050565b60006020820190508181036000830152614ca88184614c30565b905092915050565b614cb98161438c565b8114614cc457600080fd5b50565b600081359050614cd681614cb0565b92915050565b600080600060608486031215614cf557614cf46140fa565b5b6000614d0386828701614125565b9350506020614d1486828701614cc7565b9250506040614d2586828701614125565b9150509250925092565b60006080830160008301518482036000860152614d4c8282614333565b9150506020830151614d616020860182614313565b506040830151614d746040860182614313565b506060830151614d876060860182614313565b508091505092915050565b60006020820190508181036000830152614dac8184614d2f565b905092915050565b600060208284031215614dca57614dc96140fa565b5b6000614dd884828501614cc7565b91505092915050565b600081905092915050565b6000614df88385614de1565b9350614e05838584614722565b82840190509392505050565b6000614e1e828486614dec565b91508190509392505050565b7f75736572206e6f7420617574686f72697a656400000000000000000000000000600082015250565b6000614e6060138361420a565b9150614e6b82614e2a565b602082019050919050565b60006020820190508181036000830152614e8f81614e53565b9050919050565b7f4e487b7100000000000000000000000000000000000000000000000000000000600052603260045260246000fd5b7f4e487b7100000000000000000000000000000000000000000000000000000000600052602260045260246000fd5b60006002820490506001821680614f0c57607f821691505b60208210811415614f2057614f1f614ec5565b5b50919050565b7f6d656d626572206e6f7420616c6c6f7765642100000000000000000000000000600082015250565b6000614f5c60138361420a565b9150614f6782614f26565b602082019050919050565b60006020820190508181036000830152614f8b81614f4f565b9050919050565b7f4e487b7100000000000000000000000000000000000000000000000000000000600052601160045260246000fd5b6000614fcc82614104565b91507fffffffffffffffffffffffffffffffffffffffffffffffffffffffffffffffff821415614fff57614ffe614f92565b5b600182019050919050565b7f6d656d62657220616c72656164792070726573656e7421000000000000000000600082015250565b600061504060178361420a565b915061504b8261500a565b602082019050919050565b6000602082019050818103600083015261506f81615033565b9050919050565b6000615081826141ff565b61508b8185614de1565b935061509b81856020860161421b565b80840191505092915050565b60006150b38284615076565b915081905092915050565b7f6c696e6b206e6f7420617574686f72697a656400000000000000000000000000600082015250565b60006150f460138361420a565b91506150ff826150be565b602082019050919050565b60006020820190508181036000830152615123816150e7565b9050919050565b7f67726f7570206e6f7420617574686f72697a6564000000000000000000000000600082015250565b600061516060148361420a565b915061516b8261512a565b602082019050919050565b6000602082019050818103600083015261518f81615153565b9050919050565b7f746f6b656e206e6f7420616c6c6f776564000000000000000000000000000000600082015250565b60006151cc60118361420a565b91506151d782615196565b602082019050919050565b600060208201905081810360008301526151fb816151bf565b9050919050565b7f696e76616c69642071756f72756d000000000000000000000000000000000000600082015250565b6000615238600e8361420a565b915061524382615202565b602082019050919050565b600060208201905081810360008301526152678161522b565b9050919050565b600061527982614104565b915061528483614104565b9250827fffffffffffffffffffffffffffffffffffffffffffffffffffffffffffffffff038211156152b9576152b8614f92565b5b828201905092915050565b7f63616e64696461746520616c7265616479206164646564000000000000000000600082015250565b60006152fa60178361420a565b9150615305826152c4565b602082019050919050565b60006020820190508181036000830152615329816152ed565b9050919050565b600061533b82614104565b915061534683614104565b92508282101561535957615358614f92565b5b828203905092915050565b7f6d656d6265722063616e6e6f7420766f74652100000000000000000000000000600082015250565b600061539a60138361420a565b91506153a582615364565b602082019050919050565b600060208201905081810360008301526153c98161538d565b9050919050565b7f63616e64696461746520746f6b656e20646f65736e2774206578697374730000600082015250565b6000615406601e8361420a565b9150615411826153d0565b602082019050919050565b60006020820190508181036000830152615435816153f9565b9050919050565b7f63616e64696461746520696e76616c6964000000000000000000000000000000600082015250565b600061547260118361420a565b915061547d8261543c565b602082019050919050565b600060208201905081810360008301526154a181615465565b9050919050565b7f6164647265737320616c726561647920766f7465642100000000000000000000600082015250565b60006154de60168361420a565b91506154e9826154a8565b602082019050919050565b6000602082019050818103600083015261550d816154d1565b9050919050565b600061551f82614104565b915061552a83614104565b9250817fffffffffffffffffffffffffffffffffffffffffffffffffffffffffffffffff048311821515161561556357615562614f92565b5b828202905092915050565b7f6d656d626572206e6f7420696e2067726f757021000000000000000000000000600082015250565b60006155a460148361420a565b91506155af8261556e565b602082019050919050565b600060208201905081810360008301526155d381615597565b9050919050565b7f6e6f6e2068616920616262617374616e7a6120746f6b656e0000000000000000600082015250565b600061561060188361420a565b915061561b826155da565b602082019050919050565b6000602082019050818103600083015261563f81615603565b9050919050565b7f4e487b7100000000000000000000000000000000000000000000000000000000600052601260045260246000fd5b600061568082614104565b915061568b83614104565b92508261569b5761569a615646565b5b828204905092915050565b6000819050919050565b6156c16156bc82614104565b6156a6565b82525050565b60008160601b9050919050565b60006156df826156c7565b9050919050565b60006156f1826156d4565b9050919050565b6157096157048261438c565b6156e6565b82525050565b600061571b82886156b0565b60208201915061572b82876156b0565b60208201915061573b82866156f8565b60148201915061574b8285615076565b91506157578284615076565b91508190509695505050505050565b600061577182614104565b915061577c83614104565b92508261578c5761578b615646565b5b82820690509291505056fe6162636465666768696a6b6c6d6e6f7071727374757678797a31323334353637383930a2646970667358221220fd581e0b9a549ae019587a0573c0bcfc9598aa75785642690353ac7df427587364736f6c634300080b0033",
  "immutableReferences": {},
  "source": "// SPDX-License-Identifier: MIT\npragma solidity ^0.8.0;\n\ncontract KuoriciniDao {\n\n  struct DaoGroup {\n    string name;\n    address[] members;\n    uint[] tokenIds;\n    uint[] candidateIds;\n    uint voteThreshold;\n    uint voteDuration;\n    string invitationLink;\n  }\n  \n    /* CandType\n    0 : new address\n    1 : new token\n    2 : change existing token\n    3 : new quorum\n    */\n\n  struct Candidate {\n    uint id;\n    uint candType;\n    string name;\n    uint roundSupply;\n    uint roundDuration;\n    address candidateAddress;\n    uint votes;\n    address[] voters;\n    uint timestamp;\n  }\n\n  struct GToken {\n    string name;\n    uint roundSupply;\n    uint roundDuration;\n    uint timestamp;\n  }\n\n  struct UToken {\n    uint tokenId;\n    uint gTokenBalance;\n    uint xBalance;\n  }\n\n  mapping (address => string) names;\n  mapping (address => UToken[]) userTokens;\n  mapping (string => uint) invitationLinks;\n  DaoGroup[] daoGroups;\n  GToken[] allTokens;\n\n  // TODO : these two at least, have to become mappings, BUT REFACTOR QUITE\n  Candidate[] allCandidates;\n\n  constructor() {\n  }\n\n  function createGroup(string calldata _name) public returns(bool) {\n    address[] memory addr = new address[](1);\n    addr[0] = msg.sender;\n    uint[] memory defaultTokens;\n    uint[] memory defaultCandidates;\n    uint threshold = 5;\n    uint voteduration = 1209600; // 14 days\n    string memory invLink = generateInvitationLink(_name);\n    DaoGroup memory new_group = DaoGroup({ \n      name: _name, \n      members: addr, \n      tokenIds: defaultTokens, \n      candidateIds: defaultCandidates, \n      voteThreshold: threshold,\n      voteDuration: voteduration,\n      invitationLink: invLink\n    });\n    daoGroups.push(new_group);\n    // check invitation link doesn't exist already\n    if ( daoGroups.length-1 != 0 ) {\n      require ( invitationLinks[invLink] == 0 );\n    }\n    invitationLinks[invLink]=daoGroups.length-1;\n    return true;\n  }\n\n  function getGroup(uint _gid) public view returns(DaoGroup memory) {\n    return daoGroups[_gid];\n  }\n  \n  function checkInvitationLink(string calldata link) public view returns (uint) {    \n    uint groupInv =  invitationLinks[link];\n    if (isAddressInGroup(groupInv, msg.sender)) {\n      return 0;      \n    }\n    uint l = daoGroups[groupInv].candidateIds.length;\n    uint[] memory candidateIds = new uint[](l+1);\n    for (uint i = 0; i < l; i++) {\n      candidateIds[i] = daoGroups[groupInv].candidateIds[i];\n      if ( allCandidates[candidateIds[i]].candidateAddress == msg.sender ){\n        return 0;\n      }\n    }    \n    return groupInv;\n  }\n\n  function generateInvitationLink(string memory name) private view returns (string memory) {\n      uint invLength = 15;\n      string memory newString = new string(invLength);\n      bytes memory finalString = bytes(newString);\n      bytes memory originString = \"abcdefghijklmnopqrstuvxyz1234567890\";\n      for (uint i=0; i< invLength-1; i++) {\n          uint r = uint(keccak256(abi.encodePacked(block.timestamp, block.difficulty, msg.sender, string(finalString), name))) % originString.length;\n          finalString[i] = originString[r];\n      }\n      return string(finalString);\n  }    \n\n  \n/*\n*   Tokens\n*\n*/\n\n  function getToken(uint _tokenid) public view returns(GToken memory) {\n    return allTokens[_tokenid];\n  }\n\n  function createGToken(uint tokid, string memory _name, uint _supply, uint _duration, bool present, uint _groupId) private returns(bool){\n    require(isAddressInGroup(_groupId, msg.sender), \"member cannot vote!\" );\n\n    if (present) {\n      require(isTokenInGroup(tokid, _groupId), \"token not allowed\");\n      allTokens[tokid].name = _name;\n      allTokens[tokid].roundSupply = _supply;\n      allTokens[tokid].roundDuration = _duration;\n    } \n    else {\n      allTokens.push(GToken({\n        name: _name,\n        roundSupply: _supply,\n        roundDuration: _duration,\n        timestamp: block.timestamp\n      }));\n      uint l = allTokens.length;\n      daoGroups[_groupId].tokenIds.push(l-1);\n    }\n    return true;\n  }\n\n\n// temporary struct to make the output of a token more verbose\n\n  struct EToken {\n    uint tokenId;\n    uint gTokenBalance;\n    uint xBalance;\n    uint blocktimestamp;\n    uint newtime;\n    uint residualtime;\n  }\n\n  function getUserTokens(uint gid) public view returns(EToken[] memory) {\n    require(isAddressInGroup(gid, msg.sender), \"user not authorized\"); \n    uint l = daoGroups[gid].tokenIds.length;\n    uint m = userTokens[msg.sender].length;\n    UToken[] memory utokens = new UToken[](l);\n    EToken[] memory etokens = new EToken[](l);\n\n    for ( uint w = 0; w < l; w++ ) { // all the tokens of this group \n      uint tokid = daoGroups[gid].tokenIds[w];\n      utokens[w] = UToken ({ tokenId: tokid, gTokenBalance: 0, xBalance: allTokens[tokid].roundSupply});\n      uint x = 0;\n      uint newtime = allTokens[tokid].timestamp + allTokens[tokid].roundDuration;\n      for (x ; newtime < block.timestamp; x++) {\n        newtime = newtime + x * allTokens[tokid].roundDuration;\n      }\n\n      for ( uint j = 0; j < m; j++ ) { // all the tokens of this user\n        if (userTokens[msg.sender][j].tokenId == tokid) {\n          utokens[w].gTokenBalance = userTokens[msg.sender][j].gTokenBalance;\n          if (x == 0 ) {\n            utokens[w].xBalance = userTokens[msg.sender][j].xBalance;\n          }\n        }\n      }\n      etokens[w].tokenId = utokens[w].tokenId;\n      etokens[w].gTokenBalance = utokens[w].gTokenBalance;\n      etokens[w].xBalance = utokens[w].xBalance;\n      etokens[w].blocktimestamp = block.timestamp;\n      etokens[w].newtime = newtime;\n      etokens[w].residualtime = newtime - block.timestamp;\n    }\n    return etokens;\n  }\n\n  function transferToken(uint _tokenId, address receiver, uint value) public returns(bool) {\n    UToken memory _tokSender;\n    bool matchFoundSender = false;\n    uint s;\n    uint r;\n    for (s = 0; s < userTokens[msg.sender].length ; s++) {\n      if (userTokens[msg.sender][s].tokenId == _tokenId) {\n        _tokSender = userTokens[msg.sender][s];\n        matchFoundSender = true;\n        break;\n      }\n    }\n    if (matchFoundSender == false){\n      _tokSender = UToken({ tokenId: _tokenId, gTokenBalance: 0, xBalance: allTokens[_tokenId].roundSupply});\n    }\n\n    uint newtimestamp = allTokens[_tokenId].timestamp + allTokens[_tokenId].roundDuration;\n    if (block.timestamp > newtimestamp ) {\n      _tokSender.xBalance = allTokens[_tokenId].roundSupply;\n\n      while ( block.timestamp > (newtimestamp + allTokens[_tokenId].roundDuration)) {\n        newtimestamp += allTokens[_tokenId].roundDuration;\n      }\n      \n      allTokens[_tokenId].timestamp=newtimestamp;\n    }\n    \n    require(_tokSender.xBalance >= value, \"non hai abbastanza token\");\n    UToken memory _tokReceiver;\n    bool matchFoundReceiver = false;\n    for ( r = 0; r < userTokens[receiver].length ; r++) {\n      if (userTokens[receiver][r].tokenId == _tokenId) {\n        _tokReceiver = userTokens[receiver][r];\n        matchFoundReceiver = true;\n        break;\n      }\n    }\n    if ( matchFoundReceiver == false){\n      _tokReceiver= UToken({ tokenId: _tokenId, gTokenBalance: 0, xBalance: allTokens[_tokenId].roundSupply});\n    }\n    _tokSender.xBalance -= value;\n    _tokReceiver.gTokenBalance += value;\n    if (matchFoundSender == true) {\n      userTokens[msg.sender][s] = _tokSender;\n    }\n    else {\n      userTokens[msg.sender].push( UToken({ tokenId: _tokenId, gTokenBalance: 0, xBalance: _tokSender.xBalance}));\n    }\n    if (matchFoundReceiver == true) {\n      userTokens[receiver][r] = _tokReceiver;\n    }\n    else {\n      userTokens[receiver].push( UToken({ tokenId: _tokenId, gTokenBalance: _tokReceiver.gTokenBalance, xBalance: allTokens[_tokenId].roundSupply}));\n    }\n    return true;\n  }\n\n  function isTokenInGroup(uint tokid, uint gid) private view returns(bool) {\n    for ( uint i = 0; i < daoGroups[gid].tokenIds.length; i++){\n      if ( daoGroups[gid].tokenIds[i] == tokid ){\n        return true;\n      }\n    }\n    return false;\n  }\n\n  \n // obsolete, to be removed. replaced by getToken. Remove it from one call from js  \n  function getGroupNamefromId(uint _id) public view returns(string memory) {\n    return daoGroups[_id].name;\n  }\n\n // obsolete, to be removed. replaced by getToken. Remove it from one call from js  \n  function getGroupAddressfromId(uint _id) public view returns(address[] memory) {\n    return daoGroups[_id].members;\n  }\n\n\n/*  \n*   Tokens Candidates\n*\n*/\n\n\n  // propose token change\n  function changeToken(uint val, string memory name, uint supply, uint duration, uint gid, uint candtype) public returns(bool) {\n\n    if ( candtype == 0 ) {\n      require(!isAddressInGroup(gid, msg.sender), \"member already present!\");\n      require( invitationLinks[name] == gid, \"link not authorized\" ); \n      require( gid != 0, \"group not authorized\" );\n    } else {\n      require(isAddressInGroup(gid, msg.sender), \"member not allowed!\");\n    }\n\n    // if token is marked as present make sure it really exists and belongs to the right group\n    if ( candtype == 2 ) {\n      require(isTokenInGroup(val, gid), \"token not allowed\");\n    }\n    if (candtype == 3) {\n      require(val <= 10, \"invalid quorum\");\n    }\n\n    uint l = daoGroups[gid].candidateIds.length;\n    uint[] memory candidateIds = new uint[](l+1);\n    \n    for (uint i = 0; i < l; i++) {\n      candidateIds[i] = daoGroups[gid].candidateIds[i];\n      if ( ( candtype == 0 ) &&  ( allCandidates[candidateIds[i]].candidateAddress == msg.sender ) ) {\n        require ( !candidateValid(allCandidates[candidateIds[i]].timestamp, gid), \"candidate already added\" ); \n      }\n    }\n\n    // generate a new candidate\n    address[] memory vot = new address[](0);\n    allCandidates.push(Candidate({\n      id: val,\n      candType: candtype,\n      name: name,\n      roundSupply: supply,\n      roundDuration: duration,\n      candidateAddress: msg.sender,\n      votes: 0,\n      voters: vot,\n      timestamp: block.timestamp\n    }));\n\n    // update candidate list in the group\n    candidateIds[l] = allCandidates.length-1;\n    daoGroups[gid].candidateIds = candidateIds;\n\n    return true;\n\n  }\n/*\n * New PROPOSALS API\n * Commented for now (run out of gas cannot compile)\n *\n\nfunction proposeQuorum(uint val, uint gid) public returns(bool) {\n  require(val <= 10, \"invalid quorum\");\n  changeToken(val, \"\", 0, 0, gid, 3);\n  return true; \n}\n\nstruct quorumProposal {\n  uint proposalId;\n  address proposer;\n  uint votes;\n  bool voted;\n  uint timestamp;\n  uint quorum;\n}\n\nfunction getQuorumProposals(uint gid) public view returns (quorumProposal[] memory) {\n  require(isAddressInGroup(gid, msg.sender), \"member not allowed!\" );\n  uint l = daoGroups[gid].candidateIds.length;\n  quorumProposal[] memory proposals = new quorumProposal[](l);\n  quorumProposal memory proposal;\n  Candidate memory candidate;\n  uint counter = 0;\n  for (uint i = 0; i < l; i++) {\n    uint c = daoGroups[gid].candidateIds[i];\n    candidate = allCandidates[c];\n    if (candidate.candType == 3) {\n      proposal.proposalId = allCandidates[c].id;\n      proposal.proposer = allCandidates[c].candidateAddress;\n      proposal.votes = allCandidates[c].votes;\n      proposal.voted = false;\n      for (uint q=0; q < allCandidates[c].voters.length ; q++ ) {\n        if ( allCandidates[c].voters[q] == msg.sender) {\n          proposal.voted = true;\n        }\n      }\n      proposal.timestamp = allCandidates[c].timestamp;\n      proposal.quorum = allCandidates[c].id;\n      proposals[counter] = proposal;\n      counter++;\n    }\n  }\n  return proposals;\n}\n*/\n\n  // get candidate tokens of a group\n  function getGroupCandidates(uint gid) public view returns(Candidate[] memory) {\n    require(isAddressInGroup(gid, msg.sender), \"member not allowed!\" );\n    uint l = daoGroups[gid].candidateIds.length;\n    Candidate[] memory candidates = new Candidate[](l);\n    uint pos = 0;\n    for (uint i = 0; i < l; i++) {\n      uint c = daoGroups[gid].candidateIds[i];\n      if ( candidateValid(allCandidates[c].timestamp, gid) ) {\n        candidates[pos] = allCandidates[c];\n        pos++;\n      }\n    }\n    return candidates;\n  }\n\n  function candidateValid(uint candidateTimestamp, uint gid) private view returns(bool) {\n    return ( ( candidateTimestamp + daoGroups[gid].voteDuration) > block.timestamp );\n  }\n\n  // vote candidate token and eventually promote the change if quorum is passed\n  function voteCandidate(uint gid, uint candTokId, uint vote) public returns(bool) {\n    require(isAddressInGroup(gid, msg.sender), \"member cannot vote!\" );\n\n    // find candidate\n    Candidate memory candidate;\n    // check it exists in the group\n    uint l = daoGroups[gid].candidateIds.length;\n    bool candidateFound = false; \n    for (uint i = 0; i < l; i++) {\n      if (daoGroups[gid].candidateIds[i] == candTokId) {\n        candidate = allCandidates[candTokId];\n        candidateFound = true;\n        break;\n      }\n    }\n    require(candidateFound, \"candidate token doesn't exists\");\n    require(candidateValid(candidate.timestamp, gid), \"candidate invalid\");\n\n    // add voter (this would be the same if we merge)\n    uint m = candidate.voters.length;\n    address[] memory v = new address[](m+1);\n    for (uint i = 0; i < m; i++) {\n      require(candidate.voters[i] != msg.sender, \"address already voted!\");\n      v[i]=candidate.voters[i];\n    }\n    v[m]=msg.sender;\n    candidate.voters=v;\n\n    // assign vote   \n    if (vote > 0) {\n      candidate.votes += 1;\n    }\n    \n    // write on chain\n    allCandidates[candTokId] = candidate;\n\n    // check if candidate win\n    uint quorum = getQuorum(gid);\n    if ( candidate.votes > quorum ) {\n      if ( candidate.candType == 0 ) {\n        addAddresstoGroup(gid, candidate.candidateAddress);\n      }       \n      if ( ( candidate.candType == 1 ) || ( candidate.candType == 2 ) ) {\n        createGToken(candidate.id, candidate.name, candidate.roundSupply, candidate.roundDuration, (candidate.candType == 2), gid);\n      }\n      if ( candidate.candType == 3 ) {\n        daoGroups[gid].voteThreshold = candidate.id;  \n      } \n\n      // remove element from candidates array\n      uint[] memory newCandidateIds = new uint[](l-1);\n      uint index;\n      uint k;\n      for (k = 0; k < l; k++) {\n        if ( daoGroups[gid].candidateIds[k] == candTokId ) {\n          index = k;\n          break;\n        }\n      }\n      for (k = 0; k < l; k++) {\n        if ( k < index) {\n          newCandidateIds[k] = daoGroups[gid].candidateIds[k];\n        }\n        if ( k > index) {\n          newCandidateIds[k-1] = daoGroups[gid].candidateIds[k];\n        }\n      }\n      \n      daoGroups[gid].candidateIds = newCandidateIds;\n\n    }\n\n    return true;\n  }\n\n  function getQuorum(uint gid) private view returns(uint) {\n    require(isAddressInGroup(gid, msg.sender));\n    return daoGroups[gid].members.length * daoGroups[gid].voteThreshold / 10 ;\n  }\n\n/*\n*\n*   Group Members\n*/\n\n  function addAddresstoGroup(uint gid, address addr) private returns(bool) {\n    require(!isAddressInGroup(gid, addr), \"member already present!\" );\n    uint l = daoGroups[gid].members.length;\n    address[] memory members = new address[](l+1);\n    for (uint i = 0; i < l; i++) {\n      members[i] = daoGroups[gid].members[i];\n    }\n    members[l] = addr;\n    daoGroups[gid].members = members;\n    return true;\n  }\n\n  function removeMeFromGroup(uint gid) public returns(bool) {\n    require(isAddressInGroup(gid, msg.sender), \"member not in group!\" );\n\n    uint l = daoGroups[gid].members.length;\n    address[] memory members = new address[](l-1);\n    uint index;\n    uint k;\n    for (k = 0; k < l; k++) {\n      if ( daoGroups[gid].members[k] != msg.sender ) {\n        index = k;\n        break;\n      }\n    }\n    for (k = 0; k < l; k++) {\n      if ( k < index) {\n        members[k] = daoGroups[gid].members[k];\n      }\n      if ( k > index) {\n        members[k-1] = daoGroups[gid].members[k];\n      }\n    }\n    daoGroups[gid].members = members;\n    return true;\n  }\n\n\n\n  function isAddressInGroup(uint gid, address addr) private view returns(bool) {\n    bool exists = false;\n    for (uint i = 0; i < daoGroups[gid].members.length; i++) {\n      if( daoGroups[gid].members[i] == addr ) {\n        exists=true;\n        break;\n      }\n    }\n    return exists;\n  }\n\n  function myGroups() public view returns(uint[] memory) {\n    uint lg = daoGroups.length;\n    uint[] memory mygroups;\n    for (uint i = 0; i < lg; i++) {\n      uint lm = daoGroups[i].members.length;\n      for (uint q = 0; q < lm; q++) {\n        if(daoGroups[i].members[q] == msg.sender) {\n          uint gl = mygroups.length;\n          uint[] memory groups = new uint[](gl+1);\n          for (uint w = 0; w < gl; w++) {\n            groups[w] = mygroups[w];\n          }\n          groups[gl] = i;\n          mygroups = groups;\n        }\n      }\n    }\n    return mygroups;\n  }\n\n  function groupNameByInvitation(uint gid, string calldata invitation) public view returns(string memory){\n    require( invitationLinks[invitation] == gid, \"user not authorized\" ); \n    return daoGroups[gid].name;\n  }\n  \n  // names are public\n  function nameOf(address owner) public view returns(string memory) {\n    return names[owner];\n  }\n\n  function nameSet(string calldata name) public returns(bool) {\n    names[msg.sender]=name;\n    return true;\n  }\n\n\n}\n",
  "sourcePath": "/home/fabian/kuoricinidao/contracts/polygon/KuoriciniDao.sol",
  "compiler": {
    "name": "solc",
    "version": "0.8.11+commit.d7f03943.Emscripten.clang"
  },
  "schemaVersion": "3.4.5",
  "updatedAt": "2022-08-08T19:47:59.242Z",
  "networkType": "ethereum",
  "devdoc": {
    "kind": "dev",
    "methods": {},
    "version": 1
  },
  "userdoc": {
    "kind": "user",
    "methods": {},
    "version": 1
  }
}