{
  "contractName": "KuoriciniDao",
  "abi": [
    {
      "inputs": [],
      "stateMutability": "nonpayable",
      "type": "constructor"
    },
    {
      "inputs": [
        {
          "internalType": "string",
          "name": "_name",
          "type": "string"
        }
      ],
      "name": "createGroup",
      "outputs": [
        {
          "internalType": "bool",
          "name": "",
          "type": "bool"
        }
      ],
      "stateMutability": "nonpayable",
      "type": "function"
    },
    {
      "inputs": [
        {
          "internalType": "uint256",
          "name": "_tokenid",
          "type": "uint256"
        }
      ],
      "name": "getToken",
      "outputs": [
        {
          "components": [
            {
              "internalType": "string",
              "name": "name",
              "type": "string"
            },
            {
              "internalType": "uint256",
              "name": "roundSupply",
              "type": "uint256"
            },
            {
              "internalType": "uint256",
              "name": "roundDuration",
              "type": "uint256"
            },
            {
              "internalType": "uint256",
              "name": "timestamp",
              "type": "uint256"
            }
          ],
          "internalType": "struct KuoriciniDao.GToken",
          "name": "",
          "type": "tuple"
        }
      ],
      "stateMutability": "view",
      "type": "function"
    },
    {
      "inputs": [
        {
          "internalType": "uint256",
          "name": "_gid",
          "type": "uint256"
        }
      ],
      "name": "getGroup",
      "outputs": [
        {
          "components": [
            {
              "internalType": "string",
              "name": "name",
              "type": "string"
            },
            {
              "internalType": "address[]",
              "name": "members",
              "type": "address[]"
            },
            {
              "internalType": "uint256[]",
              "name": "tokenIds",
              "type": "uint256[]"
            }
          ],
          "internalType": "struct KuoriciniDao.DaoGroup",
          "name": "",
          "type": "tuple"
        }
      ],
      "stateMutability": "view",
      "type": "function"
    },
    {
      "inputs": [
        {
          "internalType": "string",
          "name": "_name",
          "type": "string"
        },
        {
          "internalType": "uint256",
          "name": "_supply",
          "type": "uint256"
        },
        {
          "internalType": "uint256",
          "name": "_duration",
          "type": "uint256"
        },
        {
          "internalType": "uint256",
          "name": "_groupId",
          "type": "uint256"
        }
      ],
      "name": "createGToken",
      "outputs": [
        {
          "internalType": "bool",
          "name": "",
          "type": "bool"
        }
      ],
      "stateMutability": "nonpayable",
      "type": "function"
    },
    {
      "inputs": [
        {
          "internalType": "uint256",
          "name": "_gid",
          "type": "uint256"
        }
      ],
      "name": "getUserTokens",
      "outputs": [
        {
          "components": [
            {
              "internalType": "uint256",
              "name": "tokenId",
              "type": "uint256"
            },
            {
              "internalType": "uint256",
              "name": "gTokenBalance",
              "type": "uint256"
            },
            {
              "internalType": "uint256",
              "name": "xBalance",
              "type": "uint256"
            }
          ],
          "internalType": "struct KuoriciniDao.UToken[]",
          "name": "",
          "type": "tuple[]"
        }
      ],
      "stateMutability": "view",
      "type": "function"
    },
    {
      "inputs": [
        {
          "internalType": "uint256",
          "name": "_tokenId",
          "type": "uint256"
        },
        {
          "internalType": "address",
          "name": "receiver",
          "type": "address"
        },
        {
          "internalType": "uint256",
          "name": "value",
          "type": "uint256"
        }
      ],
      "name": "transferToken",
      "outputs": [
        {
          "internalType": "bool",
          "name": "",
          "type": "bool"
        }
      ],
      "stateMutability": "nonpayable",
      "type": "function"
    },
    {
      "inputs": [
        {
          "internalType": "uint256",
          "name": "_id",
          "type": "uint256"
        }
      ],
      "name": "getGroupNamefromId",
      "outputs": [
        {
          "internalType": "string",
          "name": "",
          "type": "string"
        }
      ],
      "stateMutability": "view",
      "type": "function"
    },
    {
      "inputs": [
        {
          "internalType": "uint256",
          "name": "_id",
          "type": "uint256"
        }
      ],
      "name": "getGroupAddressfromId",
      "outputs": [
        {
          "internalType": "address[]",
          "name": "",
          "type": "address[]"
        }
      ],
      "stateMutability": "view",
      "type": "function"
    },
    {
      "inputs": [
        {
          "internalType": "uint256",
          "name": "_id",
          "type": "uint256"
        },
        {
          "internalType": "address",
          "name": "_addr",
          "type": "address"
        }
      ],
      "name": "addAddresstoMembers",
      "outputs": [
        {
          "internalType": "bool",
          "name": "",
          "type": "bool"
        }
      ],
      "stateMutability": "nonpayable",
      "type": "function"
    },
    {
      "inputs": [],
      "name": "myGroups",
      "outputs": [
        {
          "internalType": "uint256[]",
          "name": "",
          "type": "uint256[]"
        }
      ],
      "stateMutability": "view",
      "type": "function"
    },
    {
      "inputs": [],
      "name": "tellmeNow",
      "outputs": [
        {
          "internalType": "uint256",
          "name": "",
          "type": "uint256"
        }
      ],
      "stateMutability": "view",
      "type": "function"
    },
    {
      "inputs": [
        {
          "internalType": "address",
          "name": "owner",
          "type": "address"
        }
      ],
      "name": "nameOf",
      "outputs": [
        {
          "internalType": "string",
          "name": "",
          "type": "string"
        }
      ],
      "stateMutability": "view",
      "type": "function"
    },
    {
      "inputs": [
        {
          "internalType": "string",
          "name": "name",
          "type": "string"
        }
      ],
      "name": "nameSet",
      "outputs": [
        {
          "internalType": "bool",
          "name": "",
          "type": "bool"
        }
      ],
      "stateMutability": "nonpayable",
      "type": "function"
    },
    {
      "inputs": [
        {
          "internalType": "uint256",
          "name": "_tokenId",
          "type": "uint256"
        },
        {
          "internalType": "uint256",
          "name": "_groupId",
          "type": "uint256"
        }
      ],
      "name": "resetRound",
      "outputs": [
        {
          "internalType": "bool",
          "name": "",
          "type": "bool"
        }
      ],
      "stateMutability": "nonpayable",
      "type": "function"
    }
  ],
  "bytecode": "0x608060405234801561001057600080fd5b50612b79806100206000396000f3fe608060405234801561001057600080fd5b50600436106100ea5760003560e01c8063d17bd40b1161008c578063dc2ddcae11610066578063dc2ddcae146102ab578063e4b50cb8146102db578063edeefa311461030b578063f5c573821461033b576100ea565b8063d17bd40b1461022d578063dabd71cf1461025d578063dbb5313f1461027b576100ea565b8063857af37b116100c8578063857af37b1461017f57806396f714fc146101af578063c3f93437146101df578063ceb60654146101fd576100ea565b806310f9a5f7146100ef578063558f8f041461011f5780635af18a601461014f575b600080fd5b61010960048036038101906101049190611fdc565b61036b565b6040516101169190612037565b60405180910390f35b61013960048036038101906101349190612052565b6105c9565b604051610146919061216f565b60405180910390f35b610169600480360381019061016491906121f6565b61067c565b6040516101769190612037565b60405180910390f35b61019960048036038101906101949190612052565b6107bb565b6040516101a69190612317565b60405180910390f35b6101c960048036038101906101c49190612365565b610872565b6040516101d69190612037565b60405180910390f35b6101e7610a5b565b6040516101f49190612463565b60405180910390f35b61021760048036038101906102129190612052565b610c50565b604051610224919061260b565b60405180910390f35b61024760048036038101906102429190612052565b610e04565b604051610254919061271e565b60405180910390f35b610265611197565b604051610272919061274f565b60405180910390f35b6102956004803603810190610290919061276a565b61119f565b6040516102a29190612037565b60405180910390f35b6102c560048036038101906102c091906127bd565b611987565b6040516102d29190612037565b60405180910390f35b6102f560048036038101906102f09190612052565b611b1c565b604051610302919061286d565b60405180910390f35b610325600480360381019061032091906127bd565b611c08565b6040516103329190612037565b60405180910390f35b6103556004803603810190610350919061288f565b611c62565b6040516103629190612317565b60405180910390f35b60008060028381548110610382576103816128bc565b5b906000526020600020906003020160010180548060200260200160405190810160405280929190818152602001828054801561041357602002820191906000526020600020905b8160009054906101000a900473ffffffffffffffffffffffffffffffffffffffff1673ffffffffffffffffffffffffffffffffffffffff16815260200190600101908083116103c9575b5050505050905060008151905060005b818110156105bc5760008382815181106104405761043f6128bc565b5b602002602001015190506000600160008373ffffffffffffffffffffffffffffffffffffffff1673ffffffffffffffffffffffffffffffffffffffff16815260200190815260200160002080549050905060005b818110156105a65788600160008573ffffffffffffffffffffffffffffffffffffffff1673ffffffffffffffffffffffffffffffffffffffff16815260200190815260200160002082815481106104ee576104ed6128bc565b5b9060005260206000209060030201600001541415610593576003898154811061051a576105196128bc565b5b906000526020600020906004020160010154600160008573ffffffffffffffffffffffffffffffffffffffff1673ffffffffffffffffffffffffffffffffffffffff168152602001908152602001600020828154811061057d5761057c6128bc565b5b9060005260206000209060030201600201819055505b808061059e9061291a565b915050610494565b50505080806105b49061291a565b915050610423565b5060019250505092915050565b6060600282815481106105df576105de6128bc565b5b906000526020600020906003020160010180548060200260200160405190810160405280929190818152602001828054801561067057602002820191906000526020600020905b8160009054906101000a900473ffffffffffffffffffffffffffffffffffffffff1673ffffffffffffffffffffffffffffffffffffffff1681526020019060010190808311610626575b50505050509050919050565b60006003604051806080016040528088888080601f016020809104026020016040519081016040528093929190818152602001838380828437600081840152601f19601f820116905080830192505050505050508152602001868152602001858152602001428152509080600181540180825580915050600190039060005260206000209060040201600090919091909150600082015181600001908051906020019061072a929190611d32565b5060208201518160010155604082015181600201556060820151816003015550506000600380549050905060028381548110610769576107686128bc565b5b90600052602060002090600302016002016001826107879190612963565b9080600181540180825580915050600190039060005260206000200160009091909190915055600191505095945050505050565b6060600282815481106107d1576107d06128bc565b5b906000526020600020906003020160000180546107ed906129c6565b80601f0160208091040260200160405190810160405280929190818152602001828054610819906129c6565b80156108665780601f1061083b57610100808354040283529160200191610866565b820191906000526020600020905b81548152906001019060200180831161084957829003601f168201915b50505050509050919050565b60008060028481548110610889576108886128bc565b5b906000526020600020906003020160010180549050905060006001826108af91906129f8565b67ffffffffffffffff8111156108c8576108c7612a4e565b5b6040519080825280602002602001820160405280156108f65781602001602082028036833780820191505090505b50905060005b828110156109c65760028681548110610918576109176128bc565b5b9060005260206000209060030201600101818154811061093b5761093a6128bc565b5b9060005260206000200160009054906101000a900473ffffffffffffffffffffffffffffffffffffffff16828281518110610979576109786128bc565b5b602002602001019073ffffffffffffffffffffffffffffffffffffffff16908173ffffffffffffffffffffffffffffffffffffffff168152505080806109be9061291a565b9150506108fc565b50838183815181106109db576109da6128bc565b5b602002602001019073ffffffffffffffffffffffffffffffffffffffff16908173ffffffffffffffffffffffffffffffffffffffff16815250508060028681548110610a2a57610a296128bc565b5b90600052602060002090600302016001019080519060200190610a4e929190611db8565b5060019250505092915050565b606060006002805490509050606060005b82811015610c4757600060028281548110610a8a57610a896128bc565b5b906000526020600020906003020160010180549050905060005b81811015610c32573373ffffffffffffffffffffffffffffffffffffffff1660028481548110610ad757610ad66128bc565b5b90600052602060002090600302016001018281548110610afa57610af96128bc565b5b9060005260206000200160009054906101000a900473ffffffffffffffffffffffffffffffffffffffff1673ffffffffffffffffffffffffffffffffffffffff161415610c1f576000845190506000600182610b5691906129f8565b67ffffffffffffffff811115610b6f57610b6e612a4e565b5b604051908082528060200260200182016040528015610b9d5781602001602082028036833780820191505090505b50905060005b82811015610bf857868181518110610bbe57610bbd6128bc565b5b6020026020010151828281518110610bd957610bd86128bc565b5b6020026020010181815250508080610bf09061291a565b915050610ba3565b5084818381518110610c0d57610c0c6128bc565b5b60200260200101818152505080955050505b8080610c2a9061291a565b915050610aa4565b50508080610c3f9061291a565b915050610a6c565b50809250505090565b610c58611e42565b60028281548110610c6c57610c6b6128bc565b5b9060005260206000209060030201604051806060016040529081600082018054610c95906129c6565b80601f0160208091040260200160405190810160405280929190818152602001828054610cc1906129c6565b8015610d0e5780601f10610ce357610100808354040283529160200191610d0e565b820191906000526020600020905b815481529060010190602001808311610cf157829003601f168201915b5050505050815260200160018201805480602002602001604051908101604052809291908181526020018280548015610d9c57602002820191906000526020600020905b8160009054906101000a900473ffffffffffffffffffffffffffffffffffffffff1673ffffffffffffffffffffffffffffffffffffffff1681526020019060010190808311610d52575b5050505050815260200160028201805480602002602001604051908101604052809291908181526020018280548015610df457602002820191906000526020600020905b815481526020019060010190808311610de0575b5050505050815250509050919050565b6060600060028381548110610e1c57610e1b6128bc565b5b906000526020600020906003020160020180549050905060008167ffffffffffffffff811115610e4f57610e4e612a4e565b5b604051908082528060200260200182016040528015610e8857816020015b610e75611e63565b815260200190600190039081610e6d5790505b50905060005b8281101561118c57600060028681548110610eac57610eab6128bc565b5b90600052602060002090600302016002018281548110610ecf57610ece6128bc565b5b906000526020600020015490506000600160003373ffffffffffffffffffffffffffffffffffffffff1673ffffffffffffffffffffffffffffffffffffffff1681526020019081526020016000208054905090506000805b828110156111085783600160003373ffffffffffffffffffffffffffffffffffffffff1673ffffffffffffffffffffffffffffffffffffffff1681526020019081526020016000208281548110610f8157610f806128bc565b5b90600052602060002090600302016000015414156110f557600160003373ffffffffffffffffffffffffffffffffffffffff1673ffffffffffffffffffffffffffffffffffffffff1681526020019081526020016000208181548110610fea57610fe96128bc565b5b90600052602060002090600302016040518060600160405290816000820154815260200160018201548152602001600282015481525050868681518110611034576110336128bc565b5b6020026020010181905250600060038581548110611055576110546128bc565b5b9060005260206000209060040201600201546003868154811061107b5761107a6128bc565b5b90600052602060002090600402016003015461109791906129f8565b9050804211156110eb57600385815481106110b5576110b46128bc565b5b9060005260206000209060040201600101548787815181106110da576110d96128bc565b5b602002602001015160400181815250505b6001925050611108565b80806111009061291a565b915050610f27565b506000151581151514156111765760405180606001604052808481526020016000815260200160038581548110611142576111416128bc565b5b90600052602060002090600402016001015481525085858151811061116a576111696128bc565b5b60200260200101819052505b50505080806111849061291a565b915050610e8e565b508092505050919050565b600042905090565b60006111a9611e63565b60008080600091505b600160003373ffffffffffffffffffffffffffffffffffffffff1673ffffffffffffffffffffffffffffffffffffffff1681526020019081526020016000208054905082101561130c5787600160003373ffffffffffffffffffffffffffffffffffffffff1673ffffffffffffffffffffffffffffffffffffffff168152602001908152602001600020838154811061124e5761124d6128bc565b5b90600052602060002090600302016000015414156112f957600160003373ffffffffffffffffffffffffffffffffffffffff1673ffffffffffffffffffffffffffffffffffffffff16815260200190815260200160002082815481106112b7576112b66128bc565b5b9060005260206000209060030201604051806060016040529081600082015481526020016001820154815260200160028201548152505093506001925061130c565b81806113049061291a565b9250506111b2565b60001515831515141561135d5760405180606001604052808981526020016000815260200160038a81548110611345576113446128bc565b5b90600052602060002090600402016001015481525093505b600160038981548110611373576113726128bc565b5b90600052602060002090600402016002015461138f9190612a7d565b600389815481106113a3576113a26128bc565b5b9060005260206000209060040201600301546113bf91906129f8565b4211156114a857600388815481106113da576113d96128bc565b5b90600052602060002090600402016001015484604001818152505060006003898154811061140b5761140a6128bc565b5b906000526020600020906004020160030154905060005b4282101561147b578060038b8154811061143f5761143e6128bc565b5b90600052602060002090600402016002015461145b9190612a7d565b8261146691906129f8565b915080806114739061291a565b915050611422565b508060038a81548110611491576114906128bc565b5b906000526020600020906004020160030181905550505b85846040015110156114ef576040517f08c379a00000000000000000000000000000000000000000000000000000000081526004016114e690612b23565b60405180910390fd5b6114f7611e63565b60008092505b600160008a73ffffffffffffffffffffffffffffffffffffffff1673ffffffffffffffffffffffffffffffffffffffff168152602001908152602001600020805490508310156116575789600160008b73ffffffffffffffffffffffffffffffffffffffff1673ffffffffffffffffffffffffffffffffffffffff1681526020019081526020016000208481548110611599576115986128bc565b5b906000526020600020906003020160000154141561164457600160008a73ffffffffffffffffffffffffffffffffffffffff1673ffffffffffffffffffffffffffffffffffffffff1681526020019081526020016000208381548110611602576116016128bc565b5b90600052602060002090600302016040518060600160405290816000820154815260200160018201548152602001600282015481525050915060019050611657565b828061164f9061291a565b9350506114fd565b6000151581151514156116a85760405180606001604052808b81526020016000815260200160038c815481106116905761168f6128bc565b5b90600052602060002090600402016001015481525091505b87866040018181516116ba9190612963565b9150818152505087826020018181516116d391906129f8565b9150818152505060011515851515141561176d5785600160003373ffffffffffffffffffffffffffffffffffffffff1673ffffffffffffffffffffffffffffffffffffffff1681526020019081526020016000208581548110611739576117386128bc565b5b9060005260206000209060030201600082015181600001556020820151816001015560408201518160020155905050611816565b600160003373ffffffffffffffffffffffffffffffffffffffff1673ffffffffffffffffffffffffffffffffffffffff16815260200190815260200160002060405180606001604052808c8152602001600081526020018860400151815250908060018154018082558091505060019003906000526020600020906003020160009091909190915060008201518160000155602082015181600101556040820151816002015550505b6001151581151514156118a95781600160008b73ffffffffffffffffffffffffffffffffffffffff1673ffffffffffffffffffffffffffffffffffffffff1681526020019081526020016000208481548110611875576118746128bc565b5b9060005260206000209060030201600082015181600001556020820151816001015560408201518160020155905050611976565b600160008a73ffffffffffffffffffffffffffffffffffffffff1673ffffffffffffffffffffffffffffffffffffffff16815260200190815260200160002060405180606001604052808c81526020018460200151815260200160038d81548110611917576119166128bc565b5b906000526020600020906004020160010154815250908060018154018082558091505060019003906000526020600020906003020160009091909190915060008201518160000155602082015181600101556040820151816002015550505b600196505050505050509392505050565b600080600167ffffffffffffffff8111156119a5576119a4612a4e565b5b6040519080825280602002602001820160405280156119d35781602001602082028036833780820191505090505b50905033816000815181106119eb576119ea6128bc565b5b602002602001019073ffffffffffffffffffffffffffffffffffffffff16908173ffffffffffffffffffffffffffffffffffffffff168152505060606000604051806060016040528087878080601f016020809104026020016040519081016040528093929190818152602001838380828437600081840152601f19601f82011690508083019250505050505050815260200184815260200183815250905060028190806001815401808255809150506001900390600052602060002090600302016000909190919091506000820151816000019080519060200190611ad2929190611d32565b506020820151816001019080519060200190611aef929190611db8565b506040820151816002019080519060200190611b0c929190611e84565b5050506001935050505092915050565b611b24611ed1565b60038281548110611b3857611b376128bc565b5b9060005260206000209060040201604051806080016040529081600082018054611b61906129c6565b80601f0160208091040260200160405190810160405280929190818152602001828054611b8d906129c6565b8015611bda5780601f10611baf57610100808354040283529160200191611bda565b820191906000526020600020905b815481529060010190602001808311611bbd57829003601f168201915b5050505050815260200160018201548152602001600282015481526020016003820154815250509050919050565b600082826000803373ffffffffffffffffffffffffffffffffffffffff1673ffffffffffffffffffffffffffffffffffffffff1681526020019081526020016000209190611c57929190611ef9565b506001905092915050565b60606000808373ffffffffffffffffffffffffffffffffffffffff1673ffffffffffffffffffffffffffffffffffffffff1681526020019081526020016000208054611cad906129c6565b80601f0160208091040260200160405190810160405280929190818152602001828054611cd9906129c6565b8015611d265780601f10611cfb57610100808354040283529160200191611d26565b820191906000526020600020905b815481529060010190602001808311611d0957829003601f168201915b50505050509050919050565b828054611d3e906129c6565b90600052602060002090601f016020900481019282611d605760008555611da7565b82601f10611d7957805160ff1916838001178555611da7565b82800160010185558215611da7579182015b82811115611da6578251825591602001919060010190611d8b565b5b509050611db49190611f7f565b5090565b828054828255906000526020600020908101928215611e31579160200282015b82811115611e305782518260006101000a81548173ffffffffffffffffffffffffffffffffffffffff021916908373ffffffffffffffffffffffffffffffffffffffff16021790555091602001919060010190611dd8565b5b509050611e3e9190611f7f565b5090565b60405180606001604052806060815260200160608152602001606081525090565b60405180606001604052806000815260200160008152602001600081525090565b828054828255906000526020600020908101928215611ec0579160200282015b82811115611ebf578251825591602001919060010190611ea4565b5b509050611ecd9190611f7f565b5090565b6040518060800160405280606081526020016000815260200160008152602001600081525090565b828054611f05906129c6565b90600052602060002090601f016020900481019282611f275760008555611f6e565b82601f10611f4057803560ff1916838001178555611f6e565b82800160010185558215611f6e579182015b82811115611f6d578235825591602001919060010190611f52565b5b509050611f7b9190611f7f565b5090565b5b80821115611f98576000816000905550600101611f80565b5090565b600080fd5b600080fd5b6000819050919050565b611fb981611fa6565b8114611fc457600080fd5b50565b600081359050611fd681611fb0565b92915050565b60008060408385031215611ff357611ff2611f9c565b5b600061200185828601611fc7565b925050602061201285828601611fc7565b9150509250929050565b60008115159050919050565b6120318161201c565b82525050565b600060208201905061204c6000830184612028565b92915050565b60006020828403121561206857612067611f9c565b5b600061207684828501611fc7565b91505092915050565b600081519050919050565b600082825260208201905092915050565b6000819050602082019050919050565b600073ffffffffffffffffffffffffffffffffffffffff82169050919050565b60006120d6826120ab565b9050919050565b6120e6816120cb565b82525050565b60006120f883836120dd565b60208301905092915050565b6000602082019050919050565b600061211c8261207f565b612126818561208a565b93506121318361209b565b8060005b8381101561216257815161214988826120ec565b975061215483612104565b925050600181019050612135565b5085935050505092915050565b600060208201905081810360008301526121898184612111565b905092915050565b600080fd5b600080fd5b600080fd5b60008083601f8401126121b6576121b5612191565b5b8235905067ffffffffffffffff8111156121d3576121d2612196565b5b6020830191508360018202830111156121ef576121ee61219b565b5b9250929050565b60008060008060006080868803121561221257612211611f9c565b5b600086013567ffffffffffffffff8111156122305761222f611fa1565b5b61223c888289016121a0565b9550955050602061224f88828901611fc7565b935050604061226088828901611fc7565b925050606061227188828901611fc7565b9150509295509295909350565b600081519050919050565b600082825260208201905092915050565b60005b838110156122b857808201518184015260208101905061229d565b838111156122c7576000848401525b50505050565b6000601f19601f8301169050919050565b60006122e98261227e565b6122f38185612289565b935061230381856020860161229a565b61230c816122cd565b840191505092915050565b6000602082019050818103600083015261233181846122de565b905092915050565b612342816120cb565b811461234d57600080fd5b50565b60008135905061235f81612339565b92915050565b6000806040838503121561237c5761237b611f9c565b5b600061238a85828601611fc7565b925050602061239b85828601612350565b9150509250929050565b600081519050919050565b600082825260208201905092915050565b6000819050602082019050919050565b6123da81611fa6565b82525050565b60006123ec83836123d1565b60208301905092915050565b6000602082019050919050565b6000612410826123a5565b61241a81856123b0565b9350612425836123c1565b8060005b8381101561245657815161243d88826123e0565b9750612448836123f8565b925050600181019050612429565b5085935050505092915050565b6000602082019050818103600083015261247d8184612405565b905092915050565b600082825260208201905092915050565b60006124a18261227e565b6124ab8185612485565b93506124bb81856020860161229a565b6124c4816122cd565b840191505092915050565b600082825260208201905092915050565b60006124eb8261207f565b6124f581856124cf565b93506125008361209b565b8060005b8381101561253157815161251888826120ec565b975061252383612104565b925050600181019050612504565b5085935050505092915050565b600082825260208201905092915050565b600061255a826123a5565b612564818561253e565b935061256f836123c1565b8060005b838110156125a057815161258788826123e0565b9750612592836123f8565b925050600181019050612573565b5085935050505092915050565b600060608301600083015184820360008601526125ca8282612496565b915050602083015184820360208601526125e482826124e0565b915050604083015184820360408601526125fe828261254f565b9150508091505092915050565b6000602082019050818103600083015261262581846125ad565b905092915050565b600081519050919050565b600082825260208201905092915050565b6000819050602082019050919050565b60608201600082015161266f60008501826123d1565b50602082015161268260208501826123d1565b50604082015161269560408501826123d1565b50505050565b60006126a78383612659565b60608301905092915050565b6000602082019050919050565b60006126cb8261262d565b6126d58185612638565b93506126e083612649565b8060005b838110156127115781516126f8888261269b565b9750612703836126b3565b9250506001810190506126e4565b5085935050505092915050565b6000602082019050818103600083015261273881846126c0565b905092915050565b61274981611fa6565b82525050565b60006020820190506127646000830184612740565b92915050565b60008060006060848603121561278357612782611f9c565b5b600061279186828701611fc7565b93505060206127a286828701612350565b92505060406127b386828701611fc7565b9150509250925092565b600080602083850312156127d4576127d3611f9c565b5b600083013567ffffffffffffffff8111156127f2576127f1611fa1565b5b6127fe858286016121a0565b92509250509250929050565b600060808301600083015184820360008601526128278282612496565b915050602083015161283c60208601826123d1565b50604083015161284f60408601826123d1565b50606083015161286260608601826123d1565b508091505092915050565b60006020820190508181036000830152612887818461280a565b905092915050565b6000602082840312156128a5576128a4611f9c565b5b60006128b384828501612350565b91505092915050565b7f4e487b7100000000000000000000000000000000000000000000000000000000600052603260045260246000fd5b7f4e487b7100000000000000000000000000000000000000000000000000000000600052601160045260246000fd5b600061292582611fa6565b91507fffffffffffffffffffffffffffffffffffffffffffffffffffffffffffffffff821415612958576129576128eb565b5b600182019050919050565b600061296e82611fa6565b915061297983611fa6565b92508282101561298c5761298b6128eb565b5b828203905092915050565b7f4e487b7100000000000000000000000000000000000000000000000000000000600052602260045260246000fd5b600060028204905060018216806129de57607f821691505b602082108114156129f2576129f1612997565b5b50919050565b6000612a0382611fa6565b9150612a0e83611fa6565b9250827fffffffffffffffffffffffffffffffffffffffffffffffffffffffffffffffff03821115612a4357612a426128eb565b5b828201905092915050565b7f4e487b7100000000000000000000000000000000000000000000000000000000600052604160045260246000fd5b6000612a8882611fa6565b9150612a9383611fa6565b9250817fffffffffffffffffffffffffffffffffffffffffffffffffffffffffffffffff0483118215151615612acc57612acb6128eb565b5b828202905092915050565b7f6e6f6e2068616920616262617374616e7a6120746f6b656e0000000000000000600082015250565b6000612b0d601883612289565b9150612b1882612ad7565b602082019050919050565b60006020820190508181036000830152612b3c81612b00565b905091905056fea2646970667358221220ad1aef769dbe2f0c77712fe1682638ef3ae32ed4746c2650a1327abcf894451164736f6c634300080b0033",
  "immutableReferences": {},
  "source": "// SPDX-License-Identifier: MIT\npragma solidity ^0.8.0;\n\ncontract KuoriciniDao {\n\n  struct DaoGroup {\n    string name;\n    address[] members;\n    uint[] tokenIds;\n  }\n\n  struct GToken {\n    string name;\n    uint roundSupply;\n    uint roundDuration;\n    uint timestamp;\n  }\n\n  struct UToken {\n    uint tokenId;\n    uint gTokenBalance;\n    uint xBalance;\n  }\n\n  mapping (address => string) names;\n  mapping (address => UToken[]) userTokens;\n  DaoGroup[] daoGroups;\n  GToken[] allTokens;\n\n  constructor() public {\n//    names[msg.sender] = \"asdrubale\";\n//    allTokens.push(GToken('kuori',10,10800,block.timestamp));\n//    allTokens.push(GToken('matite',5,21600,block.timestamp));\n//    allTokens.push(GToken('lampadine',7,86400,block.timestamp));\n  }\n\n  function createGroup(string calldata _name) public returns(bool) {\n    address[] memory addr = new address[](1);\n    addr[0] = msg.sender;\n    uint[] memory defaultTokens;\n//    uint[] memory defaultTokens = new uint[](3);\n//    defaultTokens[0] = 0;\n//    defaultTokens[1] = 2;\n//    defaultTokens[2] = 1;\n    DaoGroup memory new_group = DaoGroup({ name: _name, members: addr, tokenIds: defaultTokens });\n    daoGroups.push(new_group);\n    return true;\n  }\n\n  function getToken(uint _tokenid) public view returns(GToken memory) {\n    return allTokens[_tokenid];\n  }\n\n  function getGroup(uint _gid) public view returns(DaoGroup memory) {\n    return daoGroups[_gid];\n  }\n  \n  function createGToken(string calldata _name, uint _supply, uint _duration, uint _groupId) public returns(bool){\n    allTokens.push(GToken({\n      name: _name,\n      roundSupply: _supply,\n      roundDuration: _duration,\n      timestamp: block.timestamp\n    }));\n    uint l = allTokens.length;\n    daoGroups[_groupId].tokenIds.push(l-1);\n    return true;\n  }\n\n  function getUserTokens(uint _gid) public view returns(UToken[] memory) {\n    uint l = daoGroups[_gid].tokenIds.length;\n    UToken[] memory _userTokens = new UToken[](l);\n    for (uint w = 0; w < l; w++) {\n      uint q = daoGroups[_gid].tokenIds[w];\n      uint m = userTokens[msg.sender].length;\n      bool matchFound = false;\n      for (uint j = 0; j < m; j++) {\n        if (userTokens[msg.sender][j].tokenId == q) {\n          _userTokens[w]=userTokens[msg.sender][j];\n          uint newtime = allTokens[q].timestamp + allTokens[q].roundDuration;\n          if (block.timestamp > newtime ) {\n            _userTokens[w].xBalance = allTokens[q].roundSupply;\n          }      \n          matchFound = true;\n          break;\n        }\n      }\n      if (matchFound == false) {\n        _userTokens[w]=UToken({ tokenId: q, gTokenBalance: 0, xBalance: allTokens[q].roundSupply});\n      }\n    }\n    return _userTokens;\n  }\n\n  function transferToken(uint _tokenId, address receiver, uint value) public returns(bool) {\n    UToken memory _tokSender;\n    bool matchFoundSender = false;\n    uint s;\n    uint r;\n    for (s = 0; s < userTokens[msg.sender].length ; s++) {\n      if (userTokens[msg.sender][s].tokenId == _tokenId) {\n        _tokSender = userTokens[msg.sender][s];\n        matchFoundSender = true;\n        break;\n      }\n    }\n    if (matchFoundSender == false){\n      _tokSender = UToken({ tokenId: _tokenId, gTokenBalance: 0, xBalance: allTokens[_tokenId].roundSupply});\n    }\n    \n    if (block.timestamp > (allTokens[_tokenId].timestamp + allTokens[_tokenId].roundDuration * 1 seconds) ) {\n      _tokSender.xBalance = allTokens[_tokenId].roundSupply;\n      uint _newTimestamp = allTokens[_tokenId].timestamp;\n      for (uint k = 0; _newTimestamp < block.timestamp ; k++) {\n        _newTimestamp += allTokens[_tokenId].roundDuration * k; \n      }\n      allTokens[_tokenId].timestamp=_newTimestamp;\n    }\n    \n    require(_tokSender.xBalance >= value, \"non hai abbastanza token\");\n    UToken memory _tokReceiver;\n    bool matchFoundReceiver = false;\n    for ( r = 0; r < userTokens[receiver].length ; r++) {\n      if (userTokens[receiver][r].tokenId == _tokenId) {\n        _tokReceiver = userTokens[receiver][r];\n        matchFoundReceiver = true;\n        break;\n      }\n    }\n    if ( matchFoundReceiver == false){\n      _tokReceiver= UToken({ tokenId: _tokenId, gTokenBalance: 0, xBalance: allTokens[_tokenId].roundSupply});\n    }\n    _tokSender.xBalance -= value;\n    _tokReceiver.gTokenBalance += value;\n    if (matchFoundSender == true) {\n      userTokens[msg.sender][s] = _tokSender;\n    }\n    else {\n      userTokens[msg.sender].push( UToken({ tokenId: _tokenId, gTokenBalance: 0, xBalance: _tokSender.xBalance}));\n    }\n    if (matchFoundReceiver == true) {\n      userTokens[receiver][r] = _tokReceiver;\n    }\n    else {\n      userTokens[receiver].push( UToken({ tokenId: _tokenId, gTokenBalance: _tokReceiver.gTokenBalance, xBalance: allTokens[_tokenId].roundSupply}));\n    }\n    return true;\n  }\n\n  function getGroupNamefromId(uint _id) public view returns(string memory) {\n    return daoGroups[_id].name;\n  }\n\n  function getGroupAddressfromId(uint _id) public view returns(address[] memory) {\n    return daoGroups[_id].members;\n  }\n\n  function addAddresstoMembers(uint _id, address _addr) public returns(bool) {\n    uint l = daoGroups[_id].members.length;\n    address[] memory members = new address[](l+1);\n    for (uint i = 0; i < l; i++) {\n      members[i] = daoGroups[_id].members[i];\n    }\n    members[l] = _addr;\n    daoGroups[_id].members = members;\n    return true;\n  }\n\n  function myGroups() public view returns(uint[] memory) {\n    uint lg = daoGroups.length;\n    uint[] memory myGroups;\n    for (uint i = 0; i < lg; i++) {\n      uint lm = daoGroups[i].members.length;\n      for (uint q = 0; q < lm; q++) {\n        if(daoGroups[i].members[q] == msg.sender) {\n          uint gl = myGroups.length;\n          uint[] memory groups = new uint[](gl+1);\n          for (uint w = 0; w < gl; w++) {\n            groups[w] = myGroups[w];\n          }\n          groups[gl] = i;\n          myGroups = groups;\n        }\n      }\n    }\n    return myGroups;\n  }\n\n  function tellmeNow() public view returns (uint) {\n    return block.timestamp;\n  }\n\n  function nameOf(address owner) public view returns(string memory) {\n    return names[owner];\n  }\n\n  function nameSet(string calldata name) public returns(bool) {\n    names[msg.sender]=name;\n    return true;\n  }\n\n  function resetRound(uint _tokenId, uint _groupId) public returns(bool) {\n    address[] memory _members = daoGroups[_groupId].members;\n    uint l = _members.length;\n    for (uint s = 0; s < l ; s++) {\n      address member = _members[s];\n      uint lu = userTokens[member].length;\n      for (uint w = 0; w < lu; w++) {\n        if (userTokens[member][w].tokenId == _tokenId) {\n          userTokens[member][w].xBalance = allTokens[_tokenId].roundSupply;\n        }\n      }\n    }\n    return true;\n  }\n\n}\n",
  "sourcePath": "/home/fabian/kuoricinidao/contracts/KuoriciniDao.sol",
  "compiler": {
    "name": "solc",
    "version": "0.8.11+commit.d7f03943.Emscripten.clang"
  },
  "schemaVersion": "3.4.4",
  "updatedAt": "2022-04-05T13:27:42.719Z",
  "devdoc": {
    "kind": "dev",
    "methods": {},
    "version": 1
  },
  "userdoc": {
    "kind": "user",
    "methods": {},
    "version": 1
  }
}