{
  "contractName": "KuoriciniDao",
  "abi": [
    {
      "inputs": [],
      "stateMutability": "nonpayable",
      "type": "constructor"
    },
    {
      "anonymous": false,
      "inputs": [
        {
          "indexed": true,
          "internalType": "address",
          "name": "from",
          "type": "address"
        },
        {
          "indexed": true,
          "internalType": "address",
          "name": "to",
          "type": "address"
        },
        {
          "indexed": false,
          "internalType": "uint256",
          "name": "value",
          "type": "uint256"
        }
      ],
      "name": "Transfer",
      "type": "event"
    },
    {
      "inputs": [],
      "name": "symbol",
      "outputs": [
        {
          "internalType": "string",
          "name": "",
          "type": "string"
        }
      ],
      "stateMutability": "view",
      "type": "function",
      "constant": true
    },
    {
      "inputs": [
        {
          "internalType": "string",
          "name": "groupName",
          "type": "string"
        }
      ],
      "name": "createGroup",
      "outputs": [
        {
          "internalType": "bool",
          "name": "",
          "type": "bool"
        }
      ],
      "stateMutability": "nonpayable",
      "type": "function"
    },
    {
      "inputs": [],
      "name": "allGroups",
      "outputs": [
        {
          "components": [
            {
              "internalType": "string",
              "name": "name",
              "type": "string"
            },
            {
              "internalType": "address[]",
              "name": "members",
              "type": "address[]"
            }
          ],
          "internalType": "struct KuoriciniDao.DaoGroup[]",
          "name": "",
          "type": "tuple[]"
        }
      ],
      "stateMutability": "view",
      "type": "function",
      "constant": true
    },
    {
      "inputs": [
        {
          "internalType": "address",
          "name": "owner",
          "type": "address"
        }
      ],
      "name": "balanceOf",
      "outputs": [
        {
          "internalType": "uint256",
          "name": "",
          "type": "uint256"
        }
      ],
      "stateMutability": "view",
      "type": "function",
      "constant": true
    },
    {
      "inputs": [
        {
          "internalType": "address",
          "name": "owner",
          "type": "address"
        }
      ],
      "name": "nameOf",
      "outputs": [
        {
          "internalType": "string",
          "name": "",
          "type": "string"
        }
      ],
      "stateMutability": "view",
      "type": "function",
      "constant": true
    },
    {
      "inputs": [
        {
          "internalType": "string",
          "name": "name",
          "type": "string"
        }
      ],
      "name": "setName",
      "outputs": [
        {
          "internalType": "bool",
          "name": "",
          "type": "bool"
        }
      ],
      "stateMutability": "nonpayable",
      "type": "function"
    },
    {
      "inputs": [
        {
          "internalType": "address",
          "name": "to",
          "type": "address"
        },
        {
          "internalType": "uint256",
          "name": "value",
          "type": "uint256"
        }
      ],
      "name": "transfer",
      "outputs": [
        {
          "internalType": "bool",
          "name": "",
          "type": "bool"
        }
      ],
      "stateMutability": "nonpayable",
      "type": "function"
    }
  ],
  "bytecode": "0x60806040526040518060400160405280600581526020017f4b554f52490000000000000000000000000000000000000000000000000000008152506003908051906020019062000051929190620000ab565b503480156200005f57600080fd5b50600a600160003373ffffffffffffffffffffffffffffffffffffffff1673ffffffffffffffffffffffffffffffffffffffff16815260200190815260200160002081905550620001c0565b828054620000b9906200018a565b90600052602060002090601f016020900481019282620000dd576000855562000129565b82601f10620000f857805160ff191683800117855562000129565b8280016001018555821562000129579182015b82811115620001285782518255916020019190600101906200010b565b5b5090506200013891906200013c565b5090565b5b80821115620001575760008160009055506001016200013d565b5090565b7f4e487b7100000000000000000000000000000000000000000000000000000000600052602260045260246000fd5b60006002820490506001821680620001a357607f821691505b60208210811415620001ba57620001b96200015b565b5b50919050565b61112f80620001d06000396000f3fe608060405234801561001057600080fd5b506004361061007d5760003560e01c8063acefeec21161005b578063acefeec214610100578063c47f00271461011e578063dc2ddcae1461014e578063f5c573821461017e5761007d565b806370a082311461008257806395d89b41146100b2578063a9059cbb146100d0575b600080fd5b61009c60048036038101906100979190610a75565b6101ae565b6040516100a99190610abb565b60405180910390f35b6100ba6101f7565b6040516100c79190610b6f565b60405180910390f35b6100ea60048036038101906100e59190610bbd565b610285565b6040516100f79190610c18565b60405180910390f35b610108610424565b6040516101159190610e41565b60405180910390f35b61013860048036038101906101339190610ec8565b6105a3565b6040516101459190610c18565b60405180910390f35b61016860048036038101906101639190610ec8565b6105fe565b6040516101759190610c18565b60405180910390f35b61019860048036038101906101939190610a75565b61076f565b6040516101a59190610b6f565b60405180910390f35b6000600160008373ffffffffffffffffffffffffffffffffffffffff1673ffffffffffffffffffffffffffffffffffffffff168152602001908152602001600020549050919050565b6003805461020490610f44565b80601f016020809104026020016040519081016040528092919081815260200182805461023090610f44565b801561027d5780601f106102525761010080835404028352916020019161027d565b820191906000526020600020905b81548152906001019060200180831161026057829003601f168201915b505050505081565b600081600160003373ffffffffffffffffffffffffffffffffffffffff1673ffffffffffffffffffffffffffffffffffffffff168152602001908152602001600020541015610309576040517f08c379a000000000000000000000000000000000000000000000000000000000815260040161030090610fc2565b60405180910390fd5b81600160008573ffffffffffffffffffffffffffffffffffffffff1673ffffffffffffffffffffffffffffffffffffffff16815260200190815260200160002060008282546103589190611011565b9250508190555081600160003373ffffffffffffffffffffffffffffffffffffffff1673ffffffffffffffffffffffffffffffffffffffff16815260200190815260200160002060008282546103ae9190611067565b925050819055508273ffffffffffffffffffffffffffffffffffffffff163373ffffffffffffffffffffffffffffffffffffffff167fddf252ad1be2c89b69c2b068fc378daa952ba7f163c4a11628f55a4df523b3ef846040516104129190610abb565b60405180910390a36001905092915050565b60606000805480602002602001604051908101604052809291908181526020016000905b8282101561059a578382906000526020600020906002020160405180604001604052908160008201805461047b90610f44565b80601f01602080910402602001604051908101604052809291908181526020018280546104a790610f44565b80156104f45780601f106104c9576101008083540402835291602001916104f4565b820191906000526020600020905b8154815290600101906020018083116104d757829003601f168201915b505050505081526020016001820180548060200260200160405190810160405280929190818152602001828054801561058257602002820191906000526020600020905b8160009054906101000a900473ffffffffffffffffffffffffffffffffffffffff1673ffffffffffffffffffffffffffffffffffffffff1681526020019060010190808311610538575b50505050508152505081526020019060010190610448565b50505050905090565b60008282600260003373ffffffffffffffffffffffffffffffffffffffff1673ffffffffffffffffffffffffffffffffffffffff16815260200190815260200160002091906105f3929190610840565b506001905092915050565b60006106086108c6565b83838080601f016020809104026020016040519081016040528093929190818152602001838380828437600081840152601f19601f8201169050808301925050505050505081600001819052506000600167ffffffffffffffff8111156106725761067161109b565b5b6040519080825280602002602001820160405280156106a05781602001602082028036833780820191505090505b50905033816000815181106106b8576106b76110ca565b5b602002602001019073ffffffffffffffffffffffffffffffffffffffff16908173ffffffffffffffffffffffffffffffffffffffff1681525050808260200181905250600082908060018154018082558091505060019003906000526020600020906002020160009091909190915060008201518160000190805190602001906107439291906108e0565b506020820151816001019080519060200190610760929190610966565b50505060019250505092915050565b6060600260008373ffffffffffffffffffffffffffffffffffffffff1673ffffffffffffffffffffffffffffffffffffffff16815260200190815260200160002080546107bb90610f44565b80601f01602080910402602001604051908101604052809291908181526020018280546107e790610f44565b80156108345780601f1061080957610100808354040283529160200191610834565b820191906000526020600020905b81548152906001019060200180831161081757829003601f168201915b50505050509050919050565b82805461084c90610f44565b90600052602060002090601f01602090048101928261086e57600085556108b5565b82601f1061088757803560ff19168380011785556108b5565b828001600101855582156108b5579182015b828111156108b4578235825591602001919060010190610899565b5b5090506108c291906109f0565b5090565b604051806040016040528060608152602001606081525090565b8280546108ec90610f44565b90600052602060002090601f01602090048101928261090e5760008555610955565b82601f1061092757805160ff1916838001178555610955565b82800160010185558215610955579182015b82811115610954578251825591602001919060010190610939565b5b50905061096291906109f0565b5090565b8280548282559060005260206000209081019282156109df579160200282015b828111156109de5782518260006101000a81548173ffffffffffffffffffffffffffffffffffffffff021916908373ffffffffffffffffffffffffffffffffffffffff16021790555091602001919060010190610986565b5b5090506109ec91906109f0565b5090565b5b80821115610a095760008160009055506001016109f1565b5090565b600080fd5b600080fd5b600073ffffffffffffffffffffffffffffffffffffffff82169050919050565b6000610a4282610a17565b9050919050565b610a5281610a37565b8114610a5d57600080fd5b50565b600081359050610a6f81610a49565b92915050565b600060208284031215610a8b57610a8a610a0d565b5b6000610a9984828501610a60565b91505092915050565b6000819050919050565b610ab581610aa2565b82525050565b6000602082019050610ad06000830184610aac565b92915050565b600081519050919050565b600082825260208201905092915050565b60005b83811015610b10578082015181840152602081019050610af5565b83811115610b1f576000848401525b50505050565b6000601f19601f8301169050919050565b6000610b4182610ad6565b610b4b8185610ae1565b9350610b5b818560208601610af2565b610b6481610b25565b840191505092915050565b60006020820190508181036000830152610b898184610b36565b905092915050565b610b9a81610aa2565b8114610ba557600080fd5b50565b600081359050610bb781610b91565b92915050565b60008060408385031215610bd457610bd3610a0d565b5b6000610be285828601610a60565b9250506020610bf385828601610ba8565b9150509250929050565b60008115159050919050565b610c1281610bfd565b82525050565b6000602082019050610c2d6000830184610c09565b92915050565b600081519050919050565b600082825260208201905092915050565b6000819050602082019050919050565b600082825260208201905092915050565b6000610c7b82610ad6565b610c858185610c5f565b9350610c95818560208601610af2565b610c9e81610b25565b840191505092915050565b600081519050919050565b600082825260208201905092915050565b6000819050602082019050919050565b610cde81610a37565b82525050565b6000610cf08383610cd5565b60208301905092915050565b6000602082019050919050565b6000610d1482610ca9565b610d1e8185610cb4565b9350610d2983610cc5565b8060005b83811015610d5a578151610d418882610ce4565b9750610d4c83610cfc565b925050600181019050610d2d565b5085935050505092915050565b60006040830160008301518482036000860152610d848282610c70565b91505060208301518482036020860152610d9e8282610d09565b9150508091505092915050565b6000610db78383610d67565b905092915050565b6000602082019050919050565b6000610dd782610c33565b610de18185610c3e565b935083602082028501610df385610c4f565b8060005b85811015610e2f5784840389528151610e108582610dab565b9450610e1b83610dbf565b925060208a01995050600181019050610df7565b50829750879550505050505092915050565b60006020820190508181036000830152610e5b8184610dcc565b905092915050565b600080fd5b600080fd5b600080fd5b60008083601f840112610e8857610e87610e63565b5b8235905067ffffffffffffffff811115610ea557610ea4610e68565b5b602083019150836001820283011115610ec157610ec0610e6d565b5b9250929050565b60008060208385031215610edf57610ede610a0d565b5b600083013567ffffffffffffffff811115610efd57610efc610a12565b5b610f0985828601610e72565b92509250509250929050565b7f4e487b7100000000000000000000000000000000000000000000000000000000600052602260045260246000fd5b60006002820490506001821680610f5c57607f821691505b60208210811415610f7057610f6f610f15565b5b50919050565b7f6e6f6e2068616920616262617374616e7a61206b756f72690000000000000000600082015250565b6000610fac601883610ae1565b9150610fb782610f76565b602082019050919050565b60006020820190508181036000830152610fdb81610f9f565b9050919050565b7f4e487b7100000000000000000000000000000000000000000000000000000000600052601160045260246000fd5b600061101c82610aa2565b915061102783610aa2565b9250827fffffffffffffffffffffffffffffffffffffffffffffffffffffffffffffffff0382111561105c5761105b610fe2565b5b828201905092915050565b600061107282610aa2565b915061107d83610aa2565b9250828210156110905761108f610fe2565b5b828203905092915050565b7f4e487b7100000000000000000000000000000000000000000000000000000000600052604160045260246000fd5b7f4e487b7100000000000000000000000000000000000000000000000000000000600052603260045260246000fdfea2646970667358221220b87c997ab9ca33a8f1ec4561bd4cd4822b9021ba655b3e3137f29af1c3fdab3364736f6c634300080b0033",
  "immutableReferences": {},
  "source": "// SPDX-License-Identifier: MIT\npragma solidity >=0.4.22 <0.9.0;\n\ncontract KuoriciniDao {\n\nstruct DaoGroup {\n  string name;\n  address[] members;\n}\n\nDaoGroup[] daoGroups;\n\nmapping (address => uint) balances;\nmapping (address => string) names;\nstring public symbol=\"KUORI\";\nevent Transfer(address indexed from, address indexed to, uint value);\n\nconstructor() public {\n  balances[msg.sender] = 10;\n}\n\nfunction createGroup(string calldata groupName) public returns(bool){\n  DaoGroup memory newGroup;\n  newGroup.name=groupName;\n  address[] memory _members = new address[](1);\n  _members[0]=msg.sender;\n  newGroup.members=_members;\n  daoGroups.push(newGroup);\n  return true;\n}\n\nfunction allGroups() public view returns(DaoGroup[] memory){\n  return daoGroups;\n} \n\nfunction balanceOf(address owner) public view returns(uint) {\n  return balances[owner];\n}\n\nfunction nameOf(address owner) public view returns(string memory) {\n  return names[owner];\n}\n\nfunction setName(string calldata name) public returns(bool){\n  names[msg.sender]=name;\n  return true;\n}\n\nfunction transfer(address to, uint value) public returns(bool) {\n  require(balances[msg.sender] >= value, \"non hai abbastanza kuori\");\n  balances[to] += value;\n  balances[msg.sender] -= value;\n  emit Transfer(msg.sender, to, value);\n  return true;\n}\n\n}\n",
  "sourcePath": "/home/fabian/kuoricinidao/contracts/KuoriciniDao.sol",
  "compiler": {
    "name": "solc",
    "version": "0.8.11+commit.d7f03943.Emscripten.clang"
  },
  "schemaVersion": "3.4.4",
  "updatedAt": "2022-04-13T12:55:20.077Z",
  "networkType": "ethereum",
  "devdoc": {
    "kind": "dev",
    "methods": {},
    "version": 1
  },
  "userdoc": {
    "kind": "user",
    "methods": {},
    "version": 1
  }
}