{
  "contractName": "KuoriciniDao",
  "abi": [
    {
      "inputs": [],
      "stateMutability": "nonpayable",
      "type": "constructor"
    },
    {
      "inputs": [
        {
          "internalType": "string",
          "name": "_name",
          "type": "string"
        }
      ],
      "name": "createGroup",
      "outputs": [
        {
          "internalType": "bool",
          "name": "",
          "type": "bool"
        }
      ],
      "stateMutability": "nonpayable",
      "type": "function"
    },
    {
      "inputs": [
        {
          "internalType": "uint256",
          "name": "_gid",
          "type": "uint256"
        }
      ],
      "name": "getGroup",
      "outputs": [
        {
          "components": [
            {
              "internalType": "string",
              "name": "name",
              "type": "string"
            },
            {
              "internalType": "address[]",
              "name": "members",
              "type": "address[]"
            },
            {
              "internalType": "uint256[]",
              "name": "tokenIds",
              "type": "uint256[]"
            },
            {
              "internalType": "uint256[]",
              "name": "candidatesIds",
              "type": "uint256[]"
            },
            {
              "internalType": "uint256",
              "name": "voteThreshold",
              "type": "uint256"
            }
          ],
          "internalType": "struct KuoriciniDao.DaoGroup",
          "name": "",
          "type": "tuple"
        }
      ],
      "stateMutability": "view",
      "type": "function",
      "constant": true
    },
    {
      "inputs": [
        {
          "internalType": "string",
          "name": "name",
          "type": "string"
        }
      ],
      "name": "random",
      "outputs": [
        {
          "internalType": "uint256",
          "name": "",
          "type": "uint256"
        }
      ],
      "stateMutability": "view",
      "type": "function",
      "constant": true
    },
    {
      "inputs": [
        {
          "internalType": "uint256",
          "name": "_tokenid",
          "type": "uint256"
        }
      ],
      "name": "getToken",
      "outputs": [
        {
          "components": [
            {
              "internalType": "string",
              "name": "name",
              "type": "string"
            },
            {
              "internalType": "uint256",
              "name": "roundSupply",
              "type": "uint256"
            },
            {
              "internalType": "uint256",
              "name": "roundDuration",
              "type": "uint256"
            },
            {
              "internalType": "uint256",
              "name": "timestamp",
              "type": "uint256"
            }
          ],
          "internalType": "struct KuoriciniDao.GToken",
          "name": "",
          "type": "tuple"
        }
      ],
      "stateMutability": "view",
      "type": "function",
      "constant": true
    },
    {
      "inputs": [
        {
          "internalType": "string",
          "name": "_name",
          "type": "string"
        },
        {
          "internalType": "uint256",
          "name": "_supply",
          "type": "uint256"
        },
        {
          "internalType": "uint256",
          "name": "_duration",
          "type": "uint256"
        },
        {
          "internalType": "uint256",
          "name": "_groupId",
          "type": "uint256"
        }
      ],
      "name": "createGToken",
      "outputs": [
        {
          "internalType": "bool",
          "name": "",
          "type": "bool"
        }
      ],
      "stateMutability": "nonpayable",
      "type": "function"
    },
    {
      "inputs": [
        {
          "internalType": "uint256",
          "name": "_gid",
          "type": "uint256"
        }
      ],
      "name": "getUserTokens",
      "outputs": [
        {
          "components": [
            {
              "internalType": "uint256",
              "name": "tokenId",
              "type": "uint256"
            },
            {
              "internalType": "uint256",
              "name": "gTokenBalance",
              "type": "uint256"
            },
            {
              "internalType": "uint256",
              "name": "xBalance",
              "type": "uint256"
            }
          ],
          "internalType": "struct KuoriciniDao.UToken[]",
          "name": "",
          "type": "tuple[]"
        }
      ],
      "stateMutability": "view",
      "type": "function",
      "constant": true
    },
    {
      "inputs": [
        {
          "internalType": "uint256",
          "name": "_tokenId",
          "type": "uint256"
        },
        {
          "internalType": "address",
          "name": "receiver",
          "type": "address"
        },
        {
          "internalType": "uint256",
          "name": "value",
          "type": "uint256"
        }
      ],
      "name": "transferToken",
      "outputs": [
        {
          "internalType": "bool",
          "name": "",
          "type": "bool"
        }
      ],
      "stateMutability": "nonpayable",
      "type": "function"
    },
    {
      "inputs": [
        {
          "internalType": "uint256",
          "name": "_id",
          "type": "uint256"
        }
      ],
      "name": "getGroupNamefromId",
      "outputs": [
        {
          "internalType": "string",
          "name": "",
          "type": "string"
        }
      ],
      "stateMutability": "view",
      "type": "function",
      "constant": true
    },
    {
      "inputs": [
        {
          "internalType": "uint256",
          "name": "_id",
          "type": "uint256"
        }
      ],
      "name": "getGroupAddressfromId",
      "outputs": [
        {
          "internalType": "address[]",
          "name": "",
          "type": "address[]"
        }
      ],
      "stateMutability": "view",
      "type": "function",
      "constant": true
    },
    {
      "inputs": [
        {
          "internalType": "uint256",
          "name": "_gid",
          "type": "uint256"
        },
        {
          "internalType": "address",
          "name": "candAddr",
          "type": "address"
        }
      ],
      "name": "addCandidate",
      "outputs": [
        {
          "internalType": "bool",
          "name": "",
          "type": "bool"
        }
      ],
      "stateMutability": "nonpayable",
      "type": "function"
    },
    {
      "inputs": [
        {
          "internalType": "uint256",
          "name": "gid",
          "type": "uint256"
        },
        {
          "internalType": "address",
          "name": "candAddr",
          "type": "address"
        },
        {
          "internalType": "int256",
          "name": "vote",
          "type": "int256"
        }
      ],
      "name": "voteCandidate",
      "outputs": [
        {
          "internalType": "bool",
          "name": "",
          "type": "bool"
        }
      ],
      "stateMutability": "nonpayable",
      "type": "function"
    },
    {
      "inputs": [
        {
          "internalType": "uint256",
          "name": "gid",
          "type": "uint256"
        }
      ],
      "name": "getGroupCandidates",
      "outputs": [
        {
          "components": [
            {
              "internalType": "address",
              "name": "candidateAddress",
              "type": "address"
            },
            {
              "internalType": "uint256",
              "name": "votes",
              "type": "uint256"
            },
            {
              "internalType": "address[]",
              "name": "voters",
              "type": "address[]"
            }
          ],
          "internalType": "struct KuoriciniDao.Candidate[]",
          "name": "",
          "type": "tuple[]"
        }
      ],
      "stateMutability": "view",
      "type": "function",
      "constant": true
    },
    {
      "inputs": [
        {
          "internalType": "uint256",
          "name": "_id",
          "type": "uint256"
        },
        {
          "internalType": "address",
          "name": "_addr",
          "type": "address"
        }
      ],
      "name": "addAddresstoMembers",
      "outputs": [
        {
          "internalType": "bool",
          "name": "",
          "type": "bool"
        }
      ],
      "stateMutability": "nonpayable",
      "type": "function"
    },
    {
      "inputs": [],
      "name": "myGroups",
      "outputs": [
        {
          "internalType": "uint256[]",
          "name": "",
          "type": "uint256[]"
        }
      ],
      "stateMutability": "view",
      "type": "function",
      "constant": true
    },
    {
      "inputs": [
        {
          "internalType": "address",
          "name": "owner",
          "type": "address"
        }
      ],
      "name": "nameOf",
      "outputs": [
        {
          "internalType": "string",
          "name": "",
          "type": "string"
        }
      ],
      "stateMutability": "view",
      "type": "function",
      "constant": true
    },
    {
      "inputs": [
        {
          "internalType": "string",
          "name": "name",
          "type": "string"
        }
      ],
      "name": "nameSet",
      "outputs": [
        {
          "internalType": "bool",
          "name": "",
          "type": "bool"
        }
      ],
      "stateMutability": "nonpayable",
      "type": "function"
    },
    {
      "inputs": [],
      "name": "tellmeNow",
      "outputs": [
        {
          "internalType": "uint256",
          "name": "",
          "type": "uint256"
        }
      ],
      "stateMutability": "view",
      "type": "function",
      "constant": true
    },
    {
      "inputs": [
        {
          "internalType": "uint256",
          "name": "_tokenId",
          "type": "uint256"
        },
        {
          "internalType": "uint256",
          "name": "_groupId",
          "type": "uint256"
        }
      ],
      "name": "resetRound",
      "outputs": [
        {
          "internalType": "bool",
          "name": "",
          "type": "bool"
        }
      ],
      "stateMutability": "nonpayable",
      "type": "function"
    }
  ],
  "bytecode": "0x608060405234801561001057600080fd5b50613cfc806100206000396000f3fe608060405234801561001057600080fd5b50600436106101165760003560e01c8063c3f93437116100a2578063dbb5313f11610071578063dbb5313f14610367578063dc2ddcae14610397578063e4b50cb8146103c7578063edeefa31146103f7578063f5c573821461042757610116565b8063c3f93437146102cb578063ceb60654146102e9578063d17bd40b14610319578063dabd71cf1461034957610116565b80635565c48a116100e95780635565c48a146101db578063558f8f041461020b5780635af18a601461023b578063857af37b1461026b57806396f714fc1461029b57610116565b8063088cab181461011b57806310f9a5f71461014b57806322b8d0441461017b57806333c57ccd146101ab575b600080fd5b61013560048036038101906101309190612d49565b610457565b6040516101429190612f87565b60405180910390f35b61016560048036038101906101609190612fa9565b610687565b6040516101729190613004565b60405180910390f35b61019560048036038101906101909190613084565b6108e5565b6040516101a291906130e0565b60405180910390f35b6101c560048036038101906101c09190613127565b61092e565b6040516101d29190613004565b60405180910390f35b6101f560048036038101906101f0919061319d565b610ce0565b6040516102029190613004565b60405180910390f35b61022560048036038101906102209190612d49565b611112565b604051610232919061325f565b60405180910390f35b61025560048036038101906102509190613281565b6111c5565b6040516102629190613004565b60405180910390f35b61028560048036038101906102809190612d49565b611304565b60405161029291906133a2565b60405180910390f35b6102b560048036038101906102b09190613127565b6113bb565b6040516102c29190613004565b60405180910390f35b6102d36115ef565b6040516102e09190613473565b60405180910390f35b61030360048036038101906102fe9190612d49565b6117e4565b60405161031091906135d9565b60405180910390f35b610333600480360381019061032e9190612d49565b6119fa565b60405161034091906136ec565b60405180910390f35b610351611d8d565b60405161035e91906130e0565b60405180910390f35b610381600480360381019061037c919061370e565b611d95565b60405161038e9190613004565b60405180910390f35b6103b160048036038101906103ac9190613084565b61257d565b6040516103be9190613004565b60405180910390f35b6103e160048036038101906103dc9190612d49565b61274e565b6040516103ee91906137c4565b60405180910390f35b610411600480360381019061040c9190613084565b61283a565b60405161041e9190613004565b60405180910390f35b610441600480360381019061043c91906137e6565b612894565b60405161044e91906133a2565b60405180910390f35b606060006002838154811061046f5761046e613813565b5b906000526020600020906005020160030180549050905060008167ffffffffffffffff8111156104a2576104a1613842565b5b6040519080825280602002602001820160405280156104db57816020015b6104c8612a5a565b8152602001906001900390816104c05790505b50905060005b8281101561067c576000600286815481106104ff576104fe613813565b5b9060005260206000209060050201600301828154811061052257610521613813565b5b906000526020600020015490506004818154811061054357610542613813565b5b90600052602060002090600302016040518060600160405290816000820160009054906101000a900473ffffffffffffffffffffffffffffffffffffffff1673ffffffffffffffffffffffffffffffffffffffff1673ffffffffffffffffffffffffffffffffffffffff168152602001600182015481526020016002820180548060200260200160405190810160405280929190818152602001828054801561064157602002820191906000526020600020905b8160009054906101000a900473ffffffffffffffffffffffffffffffffffffffff1673ffffffffffffffffffffffffffffffffffffffff16815260200190600101908083116105f7575b50505050508152505083838151811061065d5761065c613813565b5b6020026020010181905250508080610674906138a0565b9150506104e1565b508092505050919050565b6000806002838154811061069e5761069d613813565b5b906000526020600020906005020160010180548060200260200160405190810160405280929190818152602001828054801561072f57602002820191906000526020600020905b8160009054906101000a900473ffffffffffffffffffffffffffffffffffffffff1673ffffffffffffffffffffffffffffffffffffffff16815260200190600101908083116106e5575b5050505050905060008151905060005b818110156108d857600083828151811061075c5761075b613813565b5b602002602001015190506000600160008373ffffffffffffffffffffffffffffffffffffffff1673ffffffffffffffffffffffffffffffffffffffff16815260200190815260200160002080549050905060005b818110156108c25788600160008573ffffffffffffffffffffffffffffffffffffffff1673ffffffffffffffffffffffffffffffffffffffff168152602001908152602001600020828154811061080a57610809613813565b5b90600052602060002090600302016000015414156108af576003898154811061083657610835613813565b5b906000526020600020906004020160010154600160008573ffffffffffffffffffffffffffffffffffffffff1673ffffffffffffffffffffffffffffffffffffffff168152602001908152602001600020828154811061089957610898613813565b5b9060005260206000209060030201600201819055505b80806108ba906138a0565b9150506107b0565b50505080806108d0906138a0565b91505061073f565b5060019250505092915050565b60006103e84244338686604051602001610903959493929190613991565b6040516020818303038152906040528051906020012060001c6109269190613a0c565b905092915050565b600061093a8383612964565b1561097a576040517f08c379a000000000000000000000000000000000000000000000000000000000815260040161097190613a89565b60405180910390fd5b6000600284815481106109905761098f613813565b5b906000526020600020906005020160030180549050905060006001826109b69190613aa9565b67ffffffffffffffff8111156109cf576109ce613842565b5b6040519080825280602002602001820160405280156109fd5781602001602082028036833780820191505090505b50905060005b82811015610b4d5760028681548110610a1f57610a1e613813565b5b90600052602060002090600502016003018181548110610a4257610a41613813565b5b9060005260206000200154828281518110610a6057610a5f613813565b5b6020026020010181815250508473ffffffffffffffffffffffffffffffffffffffff166004838381518110610a9857610a97613813565b5b602002602001015181548110610ab157610ab0613813565b5b906000526020600020906003020160000160009054906101000a900473ffffffffffffffffffffffffffffffffffffffff1673ffffffffffffffffffffffffffffffffffffffff161415610b3a576040517f08c379a0000000000000000000000000000000000000000000000000000000008152600401610b3190613b4b565b60405180910390fd5b8080610b45906138a0565b915050610a03565b5060008067ffffffffffffffff811115610b6a57610b69613842565b5b604051908082528060200260200182016040528015610b985781602001602082028036833780820191505090505b509050600460405180606001604052808773ffffffffffffffffffffffffffffffffffffffff1681526020016000815260200183815250908060018154018082558091505060019003906000526020600020906003020160009091909190915060008201518160000160006101000a81548173ffffffffffffffffffffffffffffffffffffffff021916908373ffffffffffffffffffffffffffffffffffffffff160217905550602082015181600101556040820151816002019080519060200190610c65929190612a91565b5050506001600480549050610c7a9190613b6b565b828481518110610c8d57610c8c613813565b5b6020026020010181815250508160028781548110610cae57610cad613813565b5b90600052602060002090600502016003019080519060200190610cd2929190612b1b565b506001935050505092915050565b60008060028581548110610cf757610cf6613813565b5b9060005260206000209060050201600301805490509050610d16612a5a565b6000806000905083811015610f0757600060028981548110610d3b57610d3a613813565b5b90600052602060002090600502016003018281548110610d5e57610d5d613813565b5b906000526020600020015490508773ffffffffffffffffffffffffffffffffffffffff1660048281548110610d9657610d95613813565b5b906000526020600020906003020160000160009054906101000a900473ffffffffffffffffffffffffffffffffffffffff1673ffffffffffffffffffffffffffffffffffffffff161415610f055760048181548110610df857610df7613813565b5b90600052602060002090600302016040518060600160405290816000820160009054906101000a900473ffffffffffffffffffffffffffffffffffffffff1673ffffffffffffffffffffffffffffffffffffffff1673ffffffffffffffffffffffffffffffffffffffff1681526020016001820154815260200160028201805480602002602001604051908101604052809291908181526020018280548015610ef657602002820191906000526020600020905b8160009054906101000a900473ffffffffffffffffffffffffffffffffffffffff1673ffffffffffffffffffffffffffffffffffffffff1681526020019060010190808311610eac575b50505050508152505093508092505b505b506000851315610f2c57600182602001818151610f249190613aa9565b915081815250505b81604001515192506000600184610f439190613aa9565b67ffffffffffffffff811115610f5c57610f5b613842565b5b604051908082528060200260200182016040528015610f8a5781602001602082028036833780820191505090505b50905060005b848110156110175783604001518181518110610faf57610fae613813565b5b6020026020010151828281518110610fca57610fc9613813565b5b602002602001019073ffffffffffffffffffffffffffffffffffffffff16908173ffffffffffffffffffffffffffffffffffffffff1681525050808061100f906138a0565b915050610f90565b503381858151811061102c5761102b613813565b5b602002602001019073ffffffffffffffffffffffffffffffffffffffff16908173ffffffffffffffffffffffffffffffffffffffff1681525050808360400181905250826004838154811061108457611083613813565b5b906000526020600020906003020160008201518160000160006101000a81548173ffffffffffffffffffffffffffffffffffffffff021916908373ffffffffffffffffffffffffffffffffffffffff1602179055506020820151816001015560408201518160020190805190602001906110ff929190612a91565b5090505060019450505050509392505050565b60606002828154811061112857611127613813565b5b90600052602060002090600502016001018054806020026020016040519081016040528092919081815260200182805480156111b957602002820191906000526020600020905b8160009054906101000a900473ffffffffffffffffffffffffffffffffffffffff1673ffffffffffffffffffffffffffffffffffffffff168152602001906001019080831161116f575b50505050509050919050565b60006003604051806080016040528088888080601f016020809104026020016040519081016040528093929190818152602001838380828437600081840152601f19601f8201169050808301925050505050505081526020018681526020018581526020014281525090806001815401808255809150506001900390600052602060002090600402016000909190919091506000820151816000019080519060200190611273929190612b68565b50602082015181600101556040820151816002015560608201518160030155505060006003805490509050600283815481106112b2576112b1613813565b5b90600052602060002090600502016002016001826112d09190613b6b565b9080600181540180825580915050600190039060005260206000200160009091909190915055600191505095945050505050565b60606002828154811061131a57611319613813565b5b9060005260206000209060050201600001805461133690613bce565b80601f016020809104026020016040519081016040528092919081815260200182805461136290613bce565b80156113af5780601f10611384576101008083540402835291602001916113af565b820191906000526020600020905b81548152906001019060200180831161139257829003601f168201915b50505050509050919050565b60006113c78383612964565b15611407576040517f08c379a00000000000000000000000000000000000000000000000000000000081526004016113fe90613a89565b60405180910390fd5b60006002848154811061141d5761141c613813565b5b906000526020600020906005020160010180549050905060006001826114439190613aa9565b67ffffffffffffffff81111561145c5761145b613842565b5b60405190808252806020026020018201604052801561148a5781602001602082028036833780820191505090505b50905060005b8281101561155a57600286815481106114ac576114ab613813565b5b906000526020600020906005020160010181815481106114cf576114ce613813565b5b9060005260206000200160009054906101000a900473ffffffffffffffffffffffffffffffffffffffff1682828151811061150d5761150c613813565b5b602002602001019073ffffffffffffffffffffffffffffffffffffffff16908173ffffffffffffffffffffffffffffffffffffffff16815250508080611552906138a0565b915050611490565b508381838151811061156f5761156e613813565b5b602002602001019073ffffffffffffffffffffffffffffffffffffffff16908173ffffffffffffffffffffffffffffffffffffffff168152505080600286815481106115be576115bd613813565b5b906000526020600020906005020160010190805190602001906115e2929190612a91565b5060019250505092915050565b606060006002805490509050606060005b828110156117db5760006002828154811061161e5761161d613813565b5b906000526020600020906005020160010180549050905060005b818110156117c6573373ffffffffffffffffffffffffffffffffffffffff166002848154811061166b5761166a613813565b5b9060005260206000209060050201600101828154811061168e5761168d613813565b5b9060005260206000200160009054906101000a900473ffffffffffffffffffffffffffffffffffffffff1673ffffffffffffffffffffffffffffffffffffffff1614156117b35760008451905060006001826116ea9190613aa9565b67ffffffffffffffff81111561170357611702613842565b5b6040519080825280602002602001820160405280156117315781602001602082028036833780820191505090505b50905060005b8281101561178c5786818151811061175257611751613813565b5b602002602001015182828151811061176d5761176c613813565b5b6020026020010181815250508080611784906138a0565b915050611737565b50848183815181106117a1576117a0613813565b5b60200260200101818152505080955050505b80806117be906138a0565b915050611638565b505080806117d3906138a0565b915050611600565b50809250505090565b6117ec612bee565b60028281548110611800576117ff613813565b5b90600052602060002090600502016040518060a001604052908160008201805461182990613bce565b80601f016020809104026020016040519081016040528092919081815260200182805461185590613bce565b80156118a25780601f10611877576101008083540402835291602001916118a2565b820191906000526020600020905b81548152906001019060200180831161188557829003601f168201915b505050505081526020016001820180548060200260200160405190810160405280929190818152602001828054801561193057602002820191906000526020600020905b8160009054906101000a900473ffffffffffffffffffffffffffffffffffffffff1673ffffffffffffffffffffffffffffffffffffffff16815260200190600101908083116118e6575b505050505081526020016002820180548060200260200160405190810160405280929190818152602001828054801561198857602002820191906000526020600020905b815481526020019060010190808311611974575b50505050508152602001600382018054806020026020016040519081016040528092919081815260200182805480156119e057602002820191906000526020600020905b8154815260200190600101908083116119cc575b505050505081526020016004820154815250509050919050565b6060600060028381548110611a1257611a11613813565b5b906000526020600020906005020160020180549050905060008167ffffffffffffffff811115611a4557611a44613842565b5b604051908082528060200260200182016040528015611a7e57816020015b611a6b612c1d565b815260200190600190039081611a635790505b50905060005b82811015611d8257600060028681548110611aa257611aa1613813565b5b90600052602060002090600502016002018281548110611ac557611ac4613813565b5b906000526020600020015490506000600160003373ffffffffffffffffffffffffffffffffffffffff1673ffffffffffffffffffffffffffffffffffffffff1681526020019081526020016000208054905090506000805b82811015611cfe5783600160003373ffffffffffffffffffffffffffffffffffffffff1673ffffffffffffffffffffffffffffffffffffffff1681526020019081526020016000208281548110611b7757611b76613813565b5b9060005260206000209060030201600001541415611ceb57600160003373ffffffffffffffffffffffffffffffffffffffff1673ffffffffffffffffffffffffffffffffffffffff1681526020019081526020016000208181548110611be057611bdf613813565b5b90600052602060002090600302016040518060600160405290816000820154815260200160018201548152602001600282015481525050868681518110611c2a57611c29613813565b5b6020026020010181905250600060038581548110611c4b57611c4a613813565b5b90600052602060002090600402016002015460038681548110611c7157611c70613813565b5b906000526020600020906004020160030154611c8d9190613aa9565b905080421115611ce15760038581548110611cab57611caa613813565b5b906000526020600020906004020160010154878781518110611cd057611ccf613813565b5b602002602001015160400181815250505b6001925050611cfe565b8080611cf6906138a0565b915050611b1d565b50600015158115151415611d6c5760405180606001604052808481526020016000815260200160038581548110611d3857611d37613813565b5b906000526020600020906004020160010154815250858581518110611d6057611d5f613813565b5b60200260200101819052505b5050508080611d7a906138a0565b915050611a84565b508092505050919050565b600042905090565b6000611d9f612c1d565b60008080600091505b600160003373ffffffffffffffffffffffffffffffffffffffff1673ffffffffffffffffffffffffffffffffffffffff16815260200190815260200160002080549050821015611f025787600160003373ffffffffffffffffffffffffffffffffffffffff1673ffffffffffffffffffffffffffffffffffffffff1681526020019081526020016000208381548110611e4457611e43613813565b5b9060005260206000209060030201600001541415611eef57600160003373ffffffffffffffffffffffffffffffffffffffff1673ffffffffffffffffffffffffffffffffffffffff1681526020019081526020016000208281548110611ead57611eac613813565b5b90600052602060002090600302016040518060600160405290816000820154815260200160018201548152602001600282015481525050935060019250611f02565b8180611efa906138a0565b925050611da8565b600015158315151415611f535760405180606001604052808981526020016000815260200160038a81548110611f3b57611f3a613813565b5b90600052602060002090600402016001015481525093505b600160038981548110611f6957611f68613813565b5b906000526020600020906004020160020154611f859190613c00565b60038981548110611f9957611f98613813565b5b906000526020600020906004020160030154611fb59190613aa9565b42111561209e5760038881548110611fd057611fcf613813565b5b90600052602060002090600402016001015484604001818152505060006003898154811061200157612000613813565b5b906000526020600020906004020160030154905060005b42821015612071578060038b8154811061203557612034613813565b5b9060005260206000209060040201600201546120519190613c00565b8261205c9190613aa9565b91508080612069906138a0565b915050612018565b508060038a8154811061208757612086613813565b5b906000526020600020906004020160030181905550505b85846040015110156120e5576040517f08c379a00000000000000000000000000000000000000000000000000000000081526004016120dc90613ca6565b60405180910390fd5b6120ed612c1d565b60008092505b600160008a73ffffffffffffffffffffffffffffffffffffffff1673ffffffffffffffffffffffffffffffffffffffff1681526020019081526020016000208054905083101561224d5789600160008b73ffffffffffffffffffffffffffffffffffffffff1673ffffffffffffffffffffffffffffffffffffffff168152602001908152602001600020848154811061218f5761218e613813565b5b906000526020600020906003020160000154141561223a57600160008a73ffffffffffffffffffffffffffffffffffffffff1673ffffffffffffffffffffffffffffffffffffffff16815260200190815260200160002083815481106121f8576121f7613813565b5b9060005260206000209060030201604051806060016040529081600082015481526020016001820154815260200160028201548152505091506001905061224d565b8280612245906138a0565b9350506120f3565b60001515811515141561229e5760405180606001604052808b81526020016000815260200160038c8154811061228657612285613813565b5b90600052602060002090600402016001015481525091505b87866040018181516122b09190613b6b565b9150818152505087826020018181516122c99190613aa9565b915081815250506001151585151514156123635785600160003373ffffffffffffffffffffffffffffffffffffffff1673ffffffffffffffffffffffffffffffffffffffff168152602001908152602001600020858154811061232f5761232e613813565b5b906000526020600020906003020160008201518160000155602082015181600101556040820151816002015590505061240c565b600160003373ffffffffffffffffffffffffffffffffffffffff1673ffffffffffffffffffffffffffffffffffffffff16815260200190815260200160002060405180606001604052808c8152602001600081526020018860400151815250908060018154018082558091505060019003906000526020600020906003020160009091909190915060008201518160000155602082015181600101556040820151816002015550505b60011515811515141561249f5781600160008b73ffffffffffffffffffffffffffffffffffffffff1673ffffffffffffffffffffffffffffffffffffffff168152602001908152602001600020848154811061246b5761246a613813565b5b906000526020600020906003020160008201518160000155602082015181600101556040820151816002015590505061256c565b600160008a73ffffffffffffffffffffffffffffffffffffffff1673ffffffffffffffffffffffffffffffffffffffff16815260200190815260200160002060405180606001604052808c81526020018460200151815260200160038d8154811061250d5761250c613813565b5b906000526020600020906004020160010154815250908060018154018082558091505060019003906000526020600020906003020160009091909190915060008201518160000155602082015181600101556040820151816002015550505b600196505050505050509392505050565b600080600167ffffffffffffffff81111561259b5761259a613842565b5b6040519080825280602002602001820160405280156125c95781602001602082028036833780820191505090505b50905033816000815181106125e1576125e0613813565b5b602002602001019073ffffffffffffffffffffffffffffffffffffffff16908173ffffffffffffffffffffffffffffffffffffffff168152505060608060006005905060006040518060a0016040528089898080601f016020809104026020016040519081016040528093929190818152602001838380828437600081840152601f19601f820116905080830192505050505050508152602001868152602001858152602001848152602001838152509050600281908060018154018082558091505060019003906000526020600020906005020160009091909190915060008201518160000190805190602001906126db929190612b68565b5060208201518160010190805190602001906126f8929190612a91565b506040820151816002019080519060200190612715929190612b1b565b506060820151816003019080519060200190612732929190612b1b565b5060808201518160040155505060019550505050505092915050565b612756612c3e565b6003828154811061276a57612769613813565b5b906000526020600020906004020160405180608001604052908160008201805461279390613bce565b80601f01602080910402602001604051908101604052809291908181526020018280546127bf90613bce565b801561280c5780601f106127e15761010080835404028352916020019161280c565b820191906000526020600020905b8154815290600101906020018083116127ef57829003601f168201915b5050505050815260200160018201548152602001600282015481526020016003820154815250509050919050565b600082826000803373ffffffffffffffffffffffffffffffffffffffff1673ffffffffffffffffffffffffffffffffffffffff1681526020019081526020016000209190612889929190612c66565b506001905092915050565b60606000808373ffffffffffffffffffffffffffffffffffffffff1673ffffffffffffffffffffffffffffffffffffffff16815260200190815260200160002080546128df90613bce565b80601f016020809104026020016040519081016040528092919081815260200182805461290b90613bce565b80156129585780601f1061292d57610100808354040283529160200191612958565b820191906000526020600020905b81548152906001019060200180831161293b57829003601f168201915b50505050509050919050565b6000806000905060005b6002858154811061298257612981613813565b5b906000526020600020906005020160010180549050811015612a4f578373ffffffffffffffffffffffffffffffffffffffff16600286815481106129c9576129c8613813565b5b906000526020600020906005020160010182815481106129ec576129eb613813565b5b9060005260206000200160009054906101000a900473ffffffffffffffffffffffffffffffffffffffff1673ffffffffffffffffffffffffffffffffffffffff161415612a3c5760019150612a4f565b8080612a47906138a0565b91505061296e565b508091505092915050565b6040518060600160405280600073ffffffffffffffffffffffffffffffffffffffff16815260200160008152602001606081525090565b828054828255906000526020600020908101928215612b0a579160200282015b82811115612b095782518260006101000a81548173ffffffffffffffffffffffffffffffffffffffff021916908373ffffffffffffffffffffffffffffffffffffffff16021790555091602001919060010190612ab1565b5b509050612b179190612cec565b5090565b828054828255906000526020600020908101928215612b57579160200282015b82811115612b56578251825591602001919060010190612b3b565b5b509050612b649190612cec565b5090565b828054612b7490613bce565b90600052602060002090601f016020900481019282612b965760008555612bdd565b82601f10612baf57805160ff1916838001178555612bdd565b82800160010185558215612bdd579182015b82811115612bdc578251825591602001919060010190612bc1565b5b509050612bea9190612cec565b5090565b6040518060a0016040528060608152602001606081526020016060815260200160608152602001600081525090565b60405180606001604052806000815260200160008152602001600081525090565b6040518060800160405280606081526020016000815260200160008152602001600081525090565b828054612c7290613bce565b90600052602060002090601f016020900481019282612c945760008555612cdb565b82601f10612cad57803560ff1916838001178555612cdb565b82800160010185558215612cdb579182015b82811115612cda578235825591602001919060010190612cbf565b5b509050612ce89190612cec565b5090565b5b80821115612d05576000816000905550600101612ced565b5090565b600080fd5b600080fd5b6000819050919050565b612d2681612d13565b8114612d3157600080fd5b50565b600081359050612d4381612d1d565b92915050565b600060208284031215612d5f57612d5e612d09565b5b6000612d6d84828501612d34565b91505092915050565b600081519050919050565b600082825260208201905092915050565b6000819050602082019050919050565b600073ffffffffffffffffffffffffffffffffffffffff82169050919050565b6000612dcd82612da2565b9050919050565b612ddd81612dc2565b82525050565b612dec81612d13565b82525050565b600081519050919050565b600082825260208201905092915050565b6000819050602082019050919050565b6000612e2a8383612dd4565b60208301905092915050565b6000602082019050919050565b6000612e4e82612df2565b612e588185612dfd565b9350612e6383612e0e565b8060005b83811015612e94578151612e7b8882612e1e565b9750612e8683612e36565b925050600181019050612e67565b5085935050505092915050565b6000606083016000830151612eb96000860182612dd4565b506020830151612ecc6020860182612de3565b5060408301518482036040860152612ee48282612e43565b9150508091505092915050565b6000612efd8383612ea1565b905092915050565b6000602082019050919050565b6000612f1d82612d76565b612f278185612d81565b935083602082028501612f3985612d92565b8060005b85811015612f755784840389528151612f568582612ef1565b9450612f6183612f05565b925060208a01995050600181019050612f3d565b50829750879550505050505092915050565b60006020820190508181036000830152612fa18184612f12565b905092915050565b60008060408385031215612fc057612fbf612d09565b5b6000612fce85828601612d34565b9250506020612fdf85828601612d34565b9150509250929050565b60008115159050919050565b612ffe81612fe9565b82525050565b60006020820190506130196000830184612ff5565b92915050565b600080fd5b600080fd5b600080fd5b60008083601f8401126130445761304361301f565b5b8235905067ffffffffffffffff81111561306157613060613024565b5b60208301915083600182028301111561307d5761307c613029565b5b9250929050565b6000806020838503121561309b5761309a612d09565b5b600083013567ffffffffffffffff8111156130b9576130b8612d0e565b5b6130c58582860161302e565b92509250509250929050565b6130da81612d13565b82525050565b60006020820190506130f560008301846130d1565b92915050565b61310481612dc2565b811461310f57600080fd5b50565b600081359050613121816130fb565b92915050565b6000806040838503121561313e5761313d612d09565b5b600061314c85828601612d34565b925050602061315d85828601613112565b9150509250929050565b6000819050919050565b61317a81613167565b811461318557600080fd5b50565b60008135905061319781613171565b92915050565b6000806000606084860312156131b6576131b5612d09565b5b60006131c486828701612d34565b93505060206131d586828701613112565b92505060406131e686828701613188565b9150509250925092565b600082825260208201905092915050565b600061320c82612df2565b61321681856131f0565b935061322183612e0e565b8060005b838110156132525781516132398882612e1e565b975061324483612e36565b925050600181019050613225565b5085935050505092915050565b600060208201905081810360008301526132798184613201565b905092915050565b60008060008060006080868803121561329d5761329c612d09565b5b600086013567ffffffffffffffff8111156132bb576132ba612d0e565b5b6132c78882890161302e565b955095505060206132da88828901612d34565b93505060406132eb88828901612d34565b92505060606132fc88828901612d34565b9150509295509295909350565b600081519050919050565b600082825260208201905092915050565b60005b83811015613343578082015181840152602081019050613328565b83811115613352576000848401525b50505050565b6000601f19601f8301169050919050565b600061337482613309565b61337e8185613314565b935061338e818560208601613325565b61339781613358565b840191505092915050565b600060208201905081810360008301526133bc8184613369565b905092915050565b600081519050919050565b600082825260208201905092915050565b6000819050602082019050919050565b60006133fc8383612de3565b60208301905092915050565b6000602082019050919050565b6000613420826133c4565b61342a81856133cf565b9350613435836133e0565b8060005b8381101561346657815161344d88826133f0565b975061345883613408565b925050600181019050613439565b5085935050505092915050565b6000602082019050818103600083015261348d8184613415565b905092915050565b600082825260208201905092915050565b60006134b182613309565b6134bb8185613495565b93506134cb818560208601613325565b6134d481613358565b840191505092915050565b600082825260208201905092915050565b60006134fb826133c4565b61350581856134df565b9350613510836133e0565b8060005b8381101561354157815161352888826133f0565b975061353383613408565b925050600181019050613514565b5085935050505092915050565b600060a083016000830151848203600086015261356b82826134a6565b915050602083015184820360208601526135858282612e43565b9150506040830151848203604086015261359f82826134f0565b915050606083015184820360608601526135b982826134f0565b91505060808301516135ce6080860182612de3565b508091505092915050565b600060208201905081810360008301526135f3818461354e565b905092915050565b600081519050919050565b600082825260208201905092915050565b6000819050602082019050919050565b60608201600082015161363d6000850182612de3565b5060208201516136506020850182612de3565b5060408201516136636040850182612de3565b50505050565b60006136758383613627565b60608301905092915050565b6000602082019050919050565b6000613699826135fb565b6136a38185613606565b93506136ae83613617565b8060005b838110156136df5781516136c68882613669565b97506136d183613681565b9250506001810190506136b2565b5085935050505092915050565b60006020820190508181036000830152613706818461368e565b905092915050565b60008060006060848603121561372757613726612d09565b5b600061373586828701612d34565b935050602061374686828701613112565b925050604061375786828701612d34565b9150509250925092565b6000608083016000830151848203600086015261377e82826134a6565b91505060208301516137936020860182612de3565b5060408301516137a66040860182612de3565b5060608301516137b96060860182612de3565b508091505092915050565b600060208201905081810360008301526137de8184613761565b905092915050565b6000602082840312156137fc576137fb612d09565b5b600061380a84828501613112565b91505092915050565b7f4e487b7100000000000000000000000000000000000000000000000000000000600052603260045260246000fd5b7f4e487b7100000000000000000000000000000000000000000000000000000000600052604160045260246000fd5b7f4e487b7100000000000000000000000000000000000000000000000000000000600052601160045260246000fd5b60006138ab82612d13565b91507fffffffffffffffffffffffffffffffffffffffffffffffffffffffffffffffff8214156138de576138dd613871565b5b600182019050919050565b6000819050919050565b6139046138ff82612d13565b6138e9565b82525050565b60008160601b9050919050565b60006139228261390a565b9050919050565b600061393482613917565b9050919050565b61394c61394782612dc2565b613929565b82525050565b600081905092915050565b82818337600083830152505050565b60006139788385613952565b935061398583858461395d565b82840190509392505050565b600061399d82886138f3565b6020820191506139ad82876138f3565b6020820191506139bd828661393b565b6014820191506139ce82848661396c565b91508190509695505050505050565b7f4e487b7100000000000000000000000000000000000000000000000000000000600052601260045260246000fd5b6000613a1782612d13565b9150613a2283612d13565b925082613a3257613a316139dd565b5b828206905092915050565b7f6d656d62657220616c72656164792070726573656e7421000000000000000000600082015250565b6000613a73601783613314565b9150613a7e82613a3d565b602082019050919050565b60006020820190508181036000830152613aa281613a66565b9050919050565b6000613ab482612d13565b9150613abf83612d13565b9250827fffffffffffffffffffffffffffffffffffffffffffffffffffffffffffffffff03821115613af457613af3613871565b5b828201905092915050565b7f63616e64696461746520616c7265616479206164646564210000000000000000600082015250565b6000613b35601883613314565b9150613b4082613aff565b602082019050919050565b60006020820190508181036000830152613b6481613b28565b9050919050565b6000613b7682612d13565b9150613b8183612d13565b925082821015613b9457613b93613871565b5b828203905092915050565b7f4e487b7100000000000000000000000000000000000000000000000000000000600052602260045260246000fd5b60006002820490506001821680613be657607f821691505b60208210811415613bfa57613bf9613b9f565b5b50919050565b6000613c0b82612d13565b9150613c1683612d13565b9250817fffffffffffffffffffffffffffffffffffffffffffffffffffffffffffffffff0483118215151615613c4f57613c4e613871565b5b828202905092915050565b7f6e6f6e2068616920616262617374616e7a6120746f6b656e0000000000000000600082015250565b6000613c90601883613314565b9150613c9b82613c5a565b602082019050919050565b60006020820190508181036000830152613cbf81613c83565b905091905056fea2646970667358221220507f98ee256836a407b0fa68c570123b4e93d953abb92934564deccf4e8a367264736f6c634300080b0033",
  "immutableReferences": {},
  "source": "// SPDX-License-Identifier: MIT\npragma solidity ^0.8.0;\n\nimport \"./Voting.sol\";\n\ncontract KuoriciniDao {\n\n  struct DaoGroup {\n    string name;\n    address[] members;\n    uint[] tokenIds;\n    uint[] candidatesIds;\n    uint voteThreshold;\n  }\n  \n  struct Candidate {\n    address candidateAddress;\n    uint votes;\n    address[] voters;\n  }\n\n  struct GToken {\n    string name;\n    uint roundSupply;\n    uint roundDuration;\n    uint timestamp;\n  }\n\n  struct UToken {\n    uint tokenId;\n    uint gTokenBalance;\n    uint xBalance;\n  }\n\n  mapping (address => string) names;\n  mapping (address => UToken[]) userTokens;\n//  mapping (string )\n  DaoGroup[] daoGroups;\n  GToken[] allTokens;\n  Candidate[] allCandidates;\n\n  constructor() public {\n  }\n\n  function createGroup(string calldata _name) public returns(bool) {\n    address[] memory addr = new address[](1);\n    addr[0] = msg.sender;\n    uint[] memory defaultTokens;\n    uint[] memory defaultCandidates;\n    uint threshold = 5;\n    DaoGroup memory new_group = DaoGroup({ name: _name, members: addr, tokenIds: defaultTokens, candidatesIds: defaultCandidates, voteThreshold: threshold });\n    daoGroups.push(new_group);\n    return true;\n  }\n\n  function getGroup(uint _gid) public view returns(DaoGroup memory) {\n    return daoGroups[_gid];\n  }\n\n  function random(string calldata name) public view returns (uint) {\n    return uint(keccak256(abi.encodePacked(block.timestamp, block.difficulty, msg.sender, name))) % 1000;\n  }   \n\n/*\n*   Tokens\n*\n*/\n\n  function getToken(uint _tokenid) public view returns(GToken memory) {\n    return allTokens[_tokenid];\n  }\n\n  \n  function createGToken(string calldata _name, uint _supply, uint _duration, uint _groupId) public returns(bool){\n    allTokens.push(GToken({\n      name: _name,\n      roundSupply: _supply,\n      roundDuration: _duration,\n      timestamp: block.timestamp\n    }));\n    uint l = allTokens.length;\n    daoGroups[_groupId].tokenIds.push(l-1);\n    return true;\n  }\n\n  function getUserTokens(uint _gid) public view returns(UToken[] memory) {\n    uint l = daoGroups[_gid].tokenIds.length;\n    UToken[] memory _userTokens = new UToken[](l);\n    for (uint w = 0; w < l; w++) {\n      uint q = daoGroups[_gid].tokenIds[w];\n      uint m = userTokens[msg.sender].length;\n      bool matchFound = false;\n      for (uint j = 0; j < m; j++) {\n        if (userTokens[msg.sender][j].tokenId == q) {\n          _userTokens[w]=userTokens[msg.sender][j];\n          uint newtime = allTokens[q].timestamp + allTokens[q].roundDuration;\n          if (block.timestamp > newtime ) {\n            _userTokens[w].xBalance = allTokens[q].roundSupply;\n          }      \n          matchFound = true;\n          break;\n        }\n      }\n      if (matchFound == false) {\n        _userTokens[w]=UToken({ tokenId: q, gTokenBalance: 0, xBalance: allTokens[q].roundSupply});\n      }\n    }\n    return _userTokens;\n  }\n\n\n\n  function transferToken(uint _tokenId, address receiver, uint value) public returns(bool) {\n    UToken memory _tokSender;\n    bool matchFoundSender = false;\n    uint s;\n    uint r;\n    for (s = 0; s < userTokens[msg.sender].length ; s++) {\n      if (userTokens[msg.sender][s].tokenId == _tokenId) {\n        _tokSender = userTokens[msg.sender][s];\n        matchFoundSender = true;\n        break;\n      }\n    }\n    if (matchFoundSender == false){\n      _tokSender = UToken({ tokenId: _tokenId, gTokenBalance: 0, xBalance: allTokens[_tokenId].roundSupply});\n    }\n    \n    if (block.timestamp > (allTokens[_tokenId].timestamp + allTokens[_tokenId].roundDuration * 1 seconds) ) {\n      _tokSender.xBalance = allTokens[_tokenId].roundSupply;\n      uint _newTimestamp = allTokens[_tokenId].timestamp;\n      for (uint k = 0; _newTimestamp < block.timestamp ; k++) {\n        _newTimestamp += allTokens[_tokenId].roundDuration * k; \n      }\n      allTokens[_tokenId].timestamp=_newTimestamp;\n    }\n    \n    require(_tokSender.xBalance >= value, \"non hai abbastanza token\");\n    UToken memory _tokReceiver;\n    bool matchFoundReceiver = false;\n    for ( r = 0; r < userTokens[receiver].length ; r++) {\n      if (userTokens[receiver][r].tokenId == _tokenId) {\n        _tokReceiver = userTokens[receiver][r];\n        matchFoundReceiver = true;\n        break;\n      }\n    }\n    if ( matchFoundReceiver == false){\n      _tokReceiver= UToken({ tokenId: _tokenId, gTokenBalance: 0, xBalance: allTokens[_tokenId].roundSupply});\n    }\n    _tokSender.xBalance -= value;\n    _tokReceiver.gTokenBalance += value;\n    if (matchFoundSender == true) {\n      userTokens[msg.sender][s] = _tokSender;\n    }\n    else {\n      userTokens[msg.sender].push( UToken({ tokenId: _tokenId, gTokenBalance: 0, xBalance: _tokSender.xBalance}));\n    }\n    if (matchFoundReceiver == true) {\n      userTokens[receiver][r] = _tokReceiver;\n    }\n    else {\n      userTokens[receiver].push( UToken({ tokenId: _tokenId, gTokenBalance: _tokReceiver.gTokenBalance, xBalance: allTokens[_tokenId].roundSupply}));\n    }\n    return true;\n  }\n\n  function getGroupNamefromId(uint _id) public view returns(string memory) {\n    return daoGroups[_id].name;\n  }\n\n  function getGroupAddressfromId(uint _id) public view returns(address[] memory) {\n    return daoGroups[_id].members;\n  }\n\n/*  \n*   Candidates\n*\n*/\n\n  function addCandidate(uint _gid, address candAddr) public returns(bool) {\n    require(!isAddressInGroup(_gid, candAddr), \"member already present!\");\n    // todo: check that group exists\n    // todo: check that msg.sender is allowed to add\n    // check if candidate already present in current candidate list\n    uint l = daoGroups[_gid].candidatesIds.length;\n    uint[] memory candidatesIds = new uint[](l+1);\n    for (uint i = 0; i < l; i++) {\n      candidatesIds[i] = daoGroups[_gid].candidatesIds[i];\n      require(allCandidates[candidatesIds[i]].candidateAddress != candAddr, \"candidate already added!\");\n    }\n    // generate a new candidate\n    address[] memory vot = new address[](0);\n    allCandidates.push(Candidate({\n      candidateAddress: candAddr,\n      votes: 0,\n      voters: vot\n    }));\n    // update candidate list in the group\n    candidatesIds[l] = allCandidates.length-1;\n    daoGroups[_gid].candidatesIds = candidatesIds;\n\n    return true;\n  }\n  \n  function voteCandidate(uint gid, address candAddr, int vote) public returns(bool) {\n    // todo: check if msg.sender eligible to cast vote\n    // find candidate \n    uint l = daoGroups[gid].candidatesIds.length;\n    Candidate memory candidate;\n    uint candidateId;\n    for (uint i = 0; i < l; i++) {\n      uint c = daoGroups[gid].candidatesIds[i];\n      if (allCandidates[c].candidateAddress == candAddr) {\n        candidate = allCandidates[c];\n        candidateId = c;\n      }\n      break;\n    }\n    // assign vote\n    if (vote > 0) {\n      candidate.votes += 1;\n    }\n    // add voter\n    l = candidate.voters.length;\n    address[] memory v = new address[](l+1);\n    for (uint i = 0; i < l; i++) {\n      v[i]=candidate.voters[i];\n    }\n    v[l]=msg.sender;\n    candidate.voters=v;\n    // todo: check if threshold is passed and add move candidate to member\n    // **\n    // write on chain\n    allCandidates[candidateId] = candidate;    \n    return true;\n  }\n\n  function getGroupCandidates(uint gid) public view returns(Candidate[] memory) {\n    // todo: check that group exists and msg.sender is allowed to get this info\n    uint l = daoGroups[gid].candidatesIds.length;\n    Candidate[] memory candidates = new Candidate[](l);\n    for (uint i = 0; i < l; i++) {\n      uint c = daoGroups[gid].candidatesIds[i];\n      candidates[i] = allCandidates[c];\n    }\n    return candidates;\n  }\n\n/*\n*\n*   Group Members\n*/\n\n  function addAddresstoMembers(uint _id, address _addr) public returns(bool) {\n    require(!isAddressInGroup(_id, _addr), \"member already present!\" );\n    uint l = daoGroups[_id].members.length;\n    address[] memory members = new address[](l+1);\n    for (uint i = 0; i < l; i++) {\n      members[i] = daoGroups[_id].members[i];\n    }\n    members[l] = _addr;\n    daoGroups[_id].members = members;\n    return true;\n  }\n\n  function isAddressInGroup(uint gid, address addr) private returns(bool) {\n    bool exists = false;\n    for (uint i = 0; i < daoGroups[gid].members.length; i++) {\n      if( daoGroups[gid].members[i] == addr ) {\n        exists=true;\n        break;\n      }\n    }\n    return exists;\n  }\n\n  function myGroups() public view returns(uint[] memory) {\n    uint lg = daoGroups.length;\n    uint[] memory myGroups;\n    for (uint i = 0; i < lg; i++) {\n      uint lm = daoGroups[i].members.length;\n      for (uint q = 0; q < lm; q++) {\n        if(daoGroups[i].members[q] == msg.sender) {\n          uint gl = myGroups.length;\n          uint[] memory groups = new uint[](gl+1);\n          for (uint w = 0; w < gl; w++) {\n            groups[w] = myGroups[w];\n          }\n          groups[gl] = i;\n          myGroups = groups;\n        }\n      }\n    }\n    return myGroups;\n  }\n\n\n  function nameOf(address owner) public view returns(string memory) {\n    return names[owner];\n  }\n\n  function nameSet(string calldata name) public returns(bool) {\n    names[msg.sender]=name;\n    return true;\n  }\n\n/*\n*   Round functions that probably should be removed\n*    \n*/\n\n  function tellmeNow() public view returns (uint) {\n    return block.timestamp;\n  }\n\n  function resetRound(uint _tokenId, uint _groupId) public returns(bool) {\n    address[] memory _members = daoGroups[_groupId].members;\n    uint l = _members.length;\n    for (uint s = 0; s < l ; s++) {\n      address member = _members[s];\n      uint lu = userTokens[member].length;\n      for (uint w = 0; w < lu; w++) {\n        if (userTokens[member][w].tokenId == _tokenId) {\n          userTokens[member][w].xBalance = allTokens[_tokenId].roundSupply;\n        }\n      }\n    }\n    return true;\n  }\n\n}\n",
  "sourcePath": "/home/fabian/kuoricinidao/contracts/KuoriciniDao.sol",
  "compiler": {
    "name": "solc",
    "version": "0.8.11+commit.d7f03943.Emscripten.clang"
  },
  "schemaVersion": "3.4.5",
  "updatedAt": "2022-04-24T16:34:14.199Z",
  "networkType": "ethereum",
  "devdoc": {
    "kind": "dev",
    "methods": {},
    "version": 1
  },
  "userdoc": {
    "kind": "user",
    "methods": {},
    "version": 1
  }
}