{
  "contractName": "KuoriciniDao",
  "abi": [
    {
      "inputs": [
        {
          "internalType": "address",
          "name": "_addr",
          "type": "address"
        }
      ],
      "stateMutability": "nonpayable",
      "type": "constructor"
    },
    {
      "anonymous": false,
      "inputs": [
        {
          "indexed": true,
          "internalType": "address",
          "name": "from",
          "type": "address"
        },
        {
          "indexed": true,
          "internalType": "address",
          "name": "to",
          "type": "address"
        },
        {
          "indexed": false,
          "internalType": "uint256",
          "name": "value",
          "type": "uint256"
        }
      ],
      "name": "Transfer",
      "type": "event"
    },
    {
      "inputs": [],
      "name": "module_leader",
      "outputs": [
        {
          "internalType": "uint256",
          "name": "age",
          "type": "uint256"
        },
        {
          "internalType": "string",
          "name": "name",
          "type": "string"
        }
      ],
      "stateMutability": "view",
      "type": "function",
      "constant": true
    },
    {
      "inputs": [],
      "name": "symbol",
      "outputs": [
        {
          "internalType": "string",
          "name": "",
          "type": "string"
        }
      ],
      "stateMutability": "view",
      "type": "function",
      "constant": true
    },
    {
      "inputs": [
        {
          "internalType": "uint256",
          "name": "_age",
          "type": "uint256"
        },
        {
          "internalType": "string",
          "name": "_name",
          "type": "string"
        }
      ],
      "name": "modifyLeader",
      "outputs": [
        {
          "internalType": "bool",
          "name": "",
          "type": "bool"
        }
      ],
      "stateMutability": "nonpayable",
      "type": "function"
    },
    {
      "inputs": [],
      "name": "getLeaderAge",
      "outputs": [
        {
          "internalType": "uint256",
          "name": "",
          "type": "uint256"
        }
      ],
      "stateMutability": "view",
      "type": "function",
      "constant": true
    },
    {
      "inputs": [],
      "name": "getLeaderName",
      "outputs": [
        {
          "internalType": "string",
          "name": "",
          "type": "string"
        }
      ],
      "stateMutability": "view",
      "type": "function",
      "constant": true
    },
    {
      "inputs": [
        {
          "internalType": "address",
          "name": "owner",
          "type": "address"
        }
      ],
      "name": "balanceOf",
      "outputs": [
        {
          "internalType": "uint256",
          "name": "",
          "type": "uint256"
        }
      ],
      "stateMutability": "view",
      "type": "function",
      "constant": true
    },
    {
      "inputs": [
        {
          "internalType": "address",
          "name": "owner",
          "type": "address"
        }
      ],
      "name": "nameOf",
      "outputs": [
        {
          "internalType": "string",
          "name": "",
          "type": "string"
        }
      ],
      "stateMutability": "view",
      "type": "function",
      "constant": true
    },
    {
      "inputs": [
        {
          "internalType": "string",
          "name": "name",
          "type": "string"
        }
      ],
      "name": "nameSet",
      "outputs": [
        {
          "internalType": "bool",
          "name": "",
          "type": "bool"
        }
      ],
      "stateMutability": "nonpayable",
      "type": "function"
    },
    {
      "inputs": [
        {
          "internalType": "address",
          "name": "to",
          "type": "address"
        },
        {
          "internalType": "uint256",
          "name": "value",
          "type": "uint256"
        }
      ],
      "name": "transfer",
      "outputs": [
        {
          "internalType": "bool",
          "name": "",
          "type": "bool"
        }
      ],
      "stateMutability": "nonpayable",
      "type": "function"
    },
    {
      "inputs": [],
      "name": "counter",
      "outputs": [
        {
          "internalType": "bool",
          "name": "",
          "type": "bool"
        }
      ],
      "stateMutability": "nonpayable",
      "type": "function"
    },
    {
      "inputs": [],
      "name": "getCount",
      "outputs": [
        {
          "internalType": "uint256",
          "name": "",
          "type": "uint256"
        }
      ],
      "stateMutability": "nonpayable",
      "type": "function"
    }
  ],
  "bytecode": "0x60806040526040518060400160405280600581526020017f4b554f52490000000000000000000000000000000000000000000000000000008152506005908051906020019062000051929190620001f9565b503480156200005f57600080fd5b506040516200147338038062001473833981810160405281019062000085919062000313565b610dac600260003373ffffffffffffffffffffffffffffffffffffffff1673ffffffffffffffffffffffffffffffffffffffff168152602001908152602001600020819055506040518060400160405280600981526020017f617364727562616c650000000000000000000000000000000000000000000000815250600360003373ffffffffffffffffffffffffffffffffffffffff1673ffffffffffffffffffffffffffffffffffffffff168152602001908152602001600020908051906020019062000155929190620001f9565b5080600460006101000a81548173ffffffffffffffffffffffffffffffffffffffff021916908373ffffffffffffffffffffffffffffffffffffffff160217905550607b60008001819055506040518060400160405280600481526020017f6a6f6e690000000000000000000000000000000000000000000000000000000081525060006001019080519060200190620001f1929190620001f9565b5050620003aa565b828054620002079062000374565b90600052602060002090601f0160209004810192826200022b576000855562000277565b82601f106200024657805160ff191683800117855562000277565b8280016001018555821562000277579182015b828111156200027657825182559160200191906001019062000259565b5b5090506200028691906200028a565b5090565b5b80821115620002a55760008160009055506001016200028b565b5090565b600080fd5b600073ffffffffffffffffffffffffffffffffffffffff82169050919050565b6000620002db82620002ae565b9050919050565b620002ed81620002ce565b8114620002f957600080fd5b50565b6000815190506200030d81620002e2565b92915050565b6000602082840312156200032c576200032b620002a9565b5b60006200033c84828501620002fc565b91505092915050565b7f4e487b7100000000000000000000000000000000000000000000000000000000600052602260045260246000fd5b600060028204905060018216806200038d57607f821691505b60208210811415620003a457620003a362000345565b5b50919050565b6110b980620003ba6000396000f3fe608060405234801561001057600080fd5b50600436106100a95760003560e01c8063a9059cbb11610071578063a9059cbb14610156578063c73ebc7414610186578063cf7b918c146101b6578063edeefa31146101d4578063f5c5738214610204578063feb4ff1314610234576100a9565b806361bc221a146100ae578063631f5a10146100cc57806370a08231146100ea57806395d89b411461011a578063a87d942c14610138575b600080fd5b6100b6610253565b6040516100c391906109df565b60405180910390f35b6100d46102f0565b6040516100e19190610a13565b60405180910390f35b61010460048036038101906100ff9190610aa0565b6102fc565b6040516101119190610a13565b60405180910390f35b610122610345565b60405161012f9190610b66565b60405180910390f35b6101406103d3565b60405161014d9190610a13565b60405180910390f35b610170600480360381019061016b9190610bb4565b61046d565b60405161017d91906109df565b60405180910390f35b6101a0600480360381019061019b9190610d29565b61060c565b6040516101ad91906109df565b60405180910390f35b6101be610640565b6040516101cb9190610b66565b60405180910390f35b6101ee60048036038101906101e99190610de5565b6106d5565b6040516101fb91906109df565b60405180910390f35b61021e60048036038101906102199190610aa0565b610730565b60405161022b9190610b66565b60405180910390f35b61023c610801565b60405161024a929190610e32565b60405180910390f35b6000600460009054906101000a900473ffffffffffffffffffffffffffffffffffffffff1673ffffffffffffffffffffffffffffffffffffffff1663d09de08a6040518163ffffffff1660e01b81526004016020604051808303816000875af11580156102c4573d6000803e3d6000fd5b505050506040513d601f19601f820116820180604052508101906102e89190610e8e565b506001905090565b60008060000154905090565b6000600260008373ffffffffffffffffffffffffffffffffffffffff1673ffffffffffffffffffffffffffffffffffffffff168152602001908152602001600020549050919050565b6005805461035290610eea565b80601f016020809104026020016040519081016040528092919081815260200182805461037e90610eea565b80156103cb5780601f106103a0576101008083540402835291602001916103cb565b820191906000526020600020905b8154815290600101906020018083116103ae57829003601f168201915b505050505081565b6000600460009054906101000a900473ffffffffffffffffffffffffffffffffffffffff1673ffffffffffffffffffffffffffffffffffffffff1663a87d942c6040518163ffffffff1660e01b81526004016020604051808303816000875af1158015610444573d6000803e3d6000fd5b505050506040513d601f19601f820116820180604052508101906104689190610f31565b905090565b600081600260003373ffffffffffffffffffffffffffffffffffffffff1673ffffffffffffffffffffffffffffffffffffffff1681526020019081526020016000205410156104f1576040517f08c379a00000000000000000000000000000000000000000000000000000000081526004016104e890610faa565b60405180910390fd5b81600260008573ffffffffffffffffffffffffffffffffffffffff1673ffffffffffffffffffffffffffffffffffffffff16815260200190815260200160002060008282546105409190610ff9565b9250508190555081600260003373ffffffffffffffffffffffffffffffffffffffff1673ffffffffffffffffffffffffffffffffffffffff1681526020019081526020016000206000828254610596919061104f565b925050819055508273ffffffffffffffffffffffffffffffffffffffff163373ffffffffffffffffffffffffffffffffffffffff167fddf252ad1be2c89b69c2b068fc378daa952ba7f163c4a11628f55a4df523b3ef846040516105fa9190610a13565b60405180910390a36001905092915050565b600080600090508381600001819055508281600101908051906020019061063492919061089b565b50600191505092915050565b60606000600101805461065290610eea565b80601f016020809104026020016040519081016040528092919081815260200182805461067e90610eea565b80156106cb5780601f106106a0576101008083540402835291602001916106cb565b820191906000526020600020905b8154815290600101906020018083116106ae57829003601f168201915b5050505050905090565b60008282600360003373ffffffffffffffffffffffffffffffffffffffff1673ffffffffffffffffffffffffffffffffffffffff1681526020019081526020016000209190610725929190610921565b506001905092915050565b6060600360008373ffffffffffffffffffffffffffffffffffffffff1673ffffffffffffffffffffffffffffffffffffffff168152602001908152602001600020805461077c90610eea565b80601f01602080910402602001604051908101604052809291908181526020018280546107a890610eea565b80156107f55780601f106107ca576101008083540402835291602001916107f5565b820191906000526020600020905b8154815290600101906020018083116107d857829003601f168201915b50505050509050919050565b600080600001549080600101805461081890610eea565b80601f016020809104026020016040519081016040528092919081815260200182805461084490610eea565b80156108915780601f1061086657610100808354040283529160200191610891565b820191906000526020600020905b81548152906001019060200180831161087457829003601f168201915b5050505050905082565b8280546108a790610eea565b90600052602060002090601f0160209004810192826108c95760008555610910565b82601f106108e257805160ff1916838001178555610910565b82800160010185558215610910579182015b8281111561090f5782518255916020019190600101906108f4565b5b50905061091d91906109a7565b5090565b82805461092d90610eea565b90600052602060002090601f01602090048101928261094f5760008555610996565b82601f1061096857803560ff1916838001178555610996565b82800160010185558215610996579182015b8281111561099557823582559160200191906001019061097a565b5b5090506109a391906109a7565b5090565b5b808211156109c05760008160009055506001016109a8565b5090565b60008115159050919050565b6109d9816109c4565b82525050565b60006020820190506109f460008301846109d0565b92915050565b6000819050919050565b610a0d816109fa565b82525050565b6000602082019050610a286000830184610a04565b92915050565b6000604051905090565b600080fd5b600080fd5b600073ffffffffffffffffffffffffffffffffffffffff82169050919050565b6000610a6d82610a42565b9050919050565b610a7d81610a62565b8114610a8857600080fd5b50565b600081359050610a9a81610a74565b92915050565b600060208284031215610ab657610ab5610a38565b5b6000610ac484828501610a8b565b91505092915050565b600081519050919050565b600082825260208201905092915050565b60005b83811015610b07578082015181840152602081019050610aec565b83811115610b16576000848401525b50505050565b6000601f19601f8301169050919050565b6000610b3882610acd565b610b428185610ad8565b9350610b52818560208601610ae9565b610b5b81610b1c565b840191505092915050565b60006020820190508181036000830152610b808184610b2d565b905092915050565b610b91816109fa565b8114610b9c57600080fd5b50565b600081359050610bae81610b88565b92915050565b60008060408385031215610bcb57610bca610a38565b5b6000610bd985828601610a8b565b9250506020610bea85828601610b9f565b9150509250929050565b600080fd5b600080fd5b7f4e487b7100000000000000000000000000000000000000000000000000000000600052604160045260246000fd5b610c3682610b1c565b810181811067ffffffffffffffff82111715610c5557610c54610bfe565b5b80604052505050565b6000610c68610a2e565b9050610c748282610c2d565b919050565b600067ffffffffffffffff821115610c9457610c93610bfe565b5b610c9d82610b1c565b9050602081019050919050565b82818337600083830152505050565b6000610ccc610cc784610c79565b610c5e565b905082815260208101848484011115610ce857610ce7610bf9565b5b610cf3848285610caa565b509392505050565b600082601f830112610d1057610d0f610bf4565b5b8135610d20848260208601610cb9565b91505092915050565b60008060408385031215610d4057610d3f610a38565b5b6000610d4e85828601610b9f565b925050602083013567ffffffffffffffff811115610d6f57610d6e610a3d565b5b610d7b85828601610cfb565b9150509250929050565b600080fd5b600080fd5b60008083601f840112610da557610da4610bf4565b5b8235905067ffffffffffffffff811115610dc257610dc1610d85565b5b602083019150836001820283011115610dde57610ddd610d8a565b5b9250929050565b60008060208385031215610dfc57610dfb610a38565b5b600083013567ffffffffffffffff811115610e1a57610e19610a3d565b5b610e2685828601610d8f565b92509250509250929050565b6000604082019050610e476000830185610a04565b8181036020830152610e598184610b2d565b90509392505050565b610e6b816109c4565b8114610e7657600080fd5b50565b600081519050610e8881610e62565b92915050565b600060208284031215610ea457610ea3610a38565b5b6000610eb284828501610e79565b91505092915050565b7f4e487b7100000000000000000000000000000000000000000000000000000000600052602260045260246000fd5b60006002820490506001821680610f0257607f821691505b60208210811415610f1657610f15610ebb565b5b50919050565b600081519050610f2b81610b88565b92915050565b600060208284031215610f4757610f46610a38565b5b6000610f5584828501610f1c565b91505092915050565b7f6e6f6e2068616920616262617374616e7a61206b756f72690000000000000000600082015250565b6000610f94601883610ad8565b9150610f9f82610f5e565b602082019050919050565b60006020820190508181036000830152610fc381610f87565b9050919050565b7f4e487b7100000000000000000000000000000000000000000000000000000000600052601160045260246000fd5b6000611004826109fa565b915061100f836109fa565b9250827fffffffffffffffffffffffffffffffffffffffffffffffffffffffffffffffff0382111561104457611043610fca565b5b828201905092915050565b600061105a826109fa565b9150611065836109fa565b92508282101561107857611077610fca565b5b82820390509291505056fea2646970667358221220ec9581a5910481398159fb41f3740720027bba24af4cc6126384dff5022828d364736f6c634300080b0033",
  "immutableReferences": {},
  "source": "// SPDX-License-Identifier: MIT\npragma solidity >=0.4.22 <0.9.0;\nimport \"./KuoriciniGroup.sol\";\n\ncontract KuoriciniDao {\n\n  struct Professor {\n    uint age;\n    string name;\n  }\n  Professor public module_leader;\n\n  mapping (address => uint) balances;\n  mapping (address => string) names;\n  KuoriciniGroup kuoricinigroupContract;\n\n  string public symbol=\"KUORI\";\n  event Transfer(address indexed from, address indexed to, uint value);\n\n  constructor(address _addr) public {\n    balances[msg.sender] = 3500;\n    names[msg.sender] = \"asdrubale\";\n    kuoricinigroupContract =  KuoriciniGroup(_addr);\n    module_leader.age = 123;\n    module_leader.name = \"joni\";\n  }\n\n  function modifyLeader(uint _age, string memory _name) public returns(bool) {\n    Professor storage new_module_leader = module_leader;\n    new_module_leader.age = _age;\n    new_module_leader.name = _name;\n    return true;\n  }\n\n  function getLeaderAge() public view returns(uint) {\n    return module_leader.age;\n  }\n\n  function getLeaderName() public view returns(string memory) {\n    return module_leader.name;\n  }\n\n  function balanceOf(address owner) public view returns(uint) {\n    return balances[owner];\n  }\n\n  function nameOf(address owner) public view returns(string memory) {\n    return names[owner];\n  }\n\n  function nameSet(string calldata name) public returns(bool) {\n    names[msg.sender]=name;\n    return true;\n  }\n\n  function transfer(address to, uint value) public returns(bool) {\n    require(balances[msg.sender] >= value, \"non hai abbastanza kuori\");\n    balances[to] += value;\n    balances[msg.sender] -= value;\n    emit Transfer(msg.sender, to, value);\n    return true;\n  }\n\n  function counter() public returns(bool) {\n    kuoricinigroupContract.increment();\n    return true;\n  }\n\n  function getCount() public returns(uint) {\n    return kuoricinigroupContract.getCount();\n    }\n\n}\n",
  "sourcePath": "/home/fabian/kuoricinidao/contracts/KuoriciniDao.sol",
  "compiler": {
    "name": "solc",
    "version": "0.8.11+commit.d7f03943.Emscripten.clang"
  },
  "schemaVersion": "3.4.4",
  "updatedAt": "2022-03-08T10:41:39.050Z",
  "networkType": "ethereum",
  "devdoc": {
    "kind": "dev",
    "methods": {},
    "version": 1
  },
  "userdoc": {
    "kind": "user",
    "methods": {},
    "version": 1
  }
}