{
  "contractName": "KuoriciniDao",
  "abi": [
    {
      "inputs": [],
      "stateMutability": "nonpayable",
      "type": "constructor"
    },
    {
      "inputs": [
        {
          "internalType": "string",
          "name": "groupName",
          "type": "string"
        }
      ],
      "name": "createGroup",
      "outputs": [
        {
          "internalType": "bool",
          "name": "",
          "type": "bool"
        }
      ],
      "stateMutability": "nonpayable",
      "type": "function"
    },
    {
      "inputs": [
        {
          "internalType": "uint256",
          "name": "gid",
          "type": "uint256"
        }
      ],
      "name": "group",
      "outputs": [
        {
          "components": [
            {
              "internalType": "string",
              "name": "name",
              "type": "string"
            },
            {
              "internalType": "address[]",
              "name": "members",
              "type": "address[]"
            },
            {
              "internalType": "uint256[]",
              "name": "tokenIds",
              "type": "uint256[]"
            }
          ],
          "internalType": "struct KuoriciniDao.DaoGroup",
          "name": "",
          "type": "tuple"
        }
      ],
      "stateMutability": "view",
      "type": "function",
      "constant": true
    },
    {
      "inputs": [],
      "name": "myGroups",
      "outputs": [
        {
          "internalType": "uint256[]",
          "name": "",
          "type": "uint256[]"
        }
      ],
      "stateMutability": "view",
      "type": "function",
      "constant": true
    },
    {
      "inputs": [
        {
          "internalType": "address",
          "name": "addr",
          "type": "address"
        },
        {
          "internalType": "uint256",
          "name": "gid",
          "type": "uint256"
        }
      ],
      "name": "addAddresstoGroup",
      "outputs": [
        {
          "internalType": "bool",
          "name": "",
          "type": "bool"
        }
      ],
      "stateMutability": "nonpayable",
      "type": "function"
    },
    {
      "inputs": [
        {
          "internalType": "string",
          "name": "name",
          "type": "string"
        }
      ],
      "name": "setName",
      "outputs": [
        {
          "internalType": "bool",
          "name": "",
          "type": "bool"
        }
      ],
      "stateMutability": "nonpayable",
      "type": "function"
    },
    {
      "inputs": [
        {
          "internalType": "address",
          "name": "owner",
          "type": "address"
        }
      ],
      "name": "nameOf",
      "outputs": [
        {
          "internalType": "string",
          "name": "",
          "type": "string"
        }
      ],
      "stateMutability": "view",
      "type": "function",
      "constant": true
    },
    {
      "inputs": [
        {
          "internalType": "uint256",
          "name": "tokid",
          "type": "uint256"
        },
        {
          "internalType": "uint256",
          "name": "gid",
          "type": "uint256"
        }
      ],
      "name": "getToken",
      "outputs": [
        {
          "components": [
            {
              "internalType": "string",
              "name": "name",
              "type": "string"
            },
            {
              "internalType": "uint256",
              "name": "roundSupply",
              "type": "uint256"
            },
            {
              "internalType": "uint256",
              "name": "roundDuration",
              "type": "uint256"
            },
            {
              "internalType": "uint256",
              "name": "timestamp",
              "type": "uint256"
            }
          ],
          "internalType": "struct KuoriciniDao.GToken",
          "name": "",
          "type": "tuple"
        }
      ],
      "stateMutability": "view",
      "type": "function",
      "constant": true
    },
    {
      "inputs": [
        {
          "internalType": "string",
          "name": "name",
          "type": "string"
        },
        {
          "internalType": "uint256",
          "name": "supply",
          "type": "uint256"
        },
        {
          "internalType": "uint256",
          "name": "duration",
          "type": "uint256"
        },
        {
          "internalType": "uint256",
          "name": "gid",
          "type": "uint256"
        }
      ],
      "name": "createGToken",
      "outputs": [
        {
          "internalType": "bool",
          "name": "",
          "type": "bool"
        }
      ],
      "stateMutability": "nonpayable",
      "type": "function"
    },
    {
      "inputs": [
        {
          "internalType": "uint256",
          "name": "gid",
          "type": "uint256"
        }
      ],
      "name": "getUserTokens",
      "outputs": [
        {
          "components": [
            {
              "internalType": "uint256",
              "name": "tokenId",
              "type": "uint256"
            },
            {
              "internalType": "uint256",
              "name": "balance",
              "type": "uint256"
            },
            {
              "internalType": "uint256",
              "name": "xbalance",
              "type": "uint256"
            }
          ],
          "internalType": "struct KuoriciniDao.UToken[]",
          "name": "",
          "type": "tuple[]"
        }
      ],
      "stateMutability": "view",
      "type": "function",
      "constant": true
    },
    {
      "inputs": [
        {
          "internalType": "uint256",
          "name": "tokenId",
          "type": "uint256"
        },
        {
          "internalType": "address",
          "name": "receiver",
          "type": "address"
        },
        {
          "internalType": "uint256",
          "name": "value",
          "type": "uint256"
        },
        {
          "internalType": "uint256",
          "name": "gid",
          "type": "uint256"
        }
      ],
      "name": "transferToken",
      "outputs": [
        {
          "internalType": "bool",
          "name": "",
          "type": "bool"
        }
      ],
      "stateMutability": "nonpayable",
      "type": "function"
    }
  ],
  "bytecode": "0x608060405234801561001057600080fd5b50612937806100206000396000f3fe608060405234801561001057600080fd5b506004361061009e5760003560e01c8063c3f9343711610066578063c3f9343714610193578063c47f0027146101b1578063d17bd40b146101e1578063dc2ddcae14610211578063f5c57382146102415761009e565b80630bd0e7fa146100a357806348d0b7cb146100d35780635af18a60146101035780635cfb429b14610133578063a4fd3cea14610163575b600080fd5b6100bd60048036038101906100b89190611c25565b610271565b6040516100ca9190611ef7565b60405180910390f35b6100ed60048036038101906100e89190611f45565b61046e565b6040516100fa9190611fc7565b60405180910390f35b61011d60048036038101906101189190612047565b610bf8565b60405161012a9190611fc7565b60405180910390f35b61014d600480360381019061014891906120cf565b610d86565b60405161015a9190611fc7565b60405180910390f35b61017d6004803603810190610178919061210f565b610f11565b60405161018a91906121b2565b60405180910390f35b61019b611047565b6040516101a89190612243565b60405180910390f35b6101cb60048036038101906101c69190612265565b6110dc565b6040516101d89190611fc7565b60405180910390f35b6101fb60048036038101906101f69190611c25565b611137565b60405161020891906123a3565b60405180910390f35b61022b60048036038101906102269190612265565b6114f9565b6040516102389190611fc7565b60405180910390f35b61025b600480360381019061025691906123c5565b61170a565b604051610268919061243c565b60405180910390f35b61027961197b565b61028333836117db565b6102c2576040517f08c379a00000000000000000000000000000000000000000000000000000000081526004016102b9906124aa565b60405180910390fd5b600082815481106102d6576102d56124ca565b5b90600052602060002090600302016040518060600160405290816000820180546102ff90612528565b80601f016020809104026020016040519081016040528092919081815260200182805461032b90612528565b80156103785780601f1061034d57610100808354040283529160200191610378565b820191906000526020600020905b81548152906001019060200180831161035b57829003601f168201915b505050505081526020016001820180548060200260200160405190810160405280929190818152602001828054801561040657602002820191906000526020600020905b8160009054906101000a900473ffffffffffffffffffffffffffffffffffffffff1673ffffffffffffffffffffffffffffffffffffffff16815260200190600101908083116103bc575b505050505081526020016002820180548060200260200160405190810160405280929190818152602001828054801561045e57602002820191906000526020600020905b81548152602001906001019080831161044a575b5050505050815250509050919050565b600061047a33836117db565b6104b9576040517f08c379a00000000000000000000000000000000000000000000000000000000081526004016104b0906125a6565b60405180910390fd5b6104c384836117db565b610502576040517f08c379a00000000000000000000000000000000000000000000000000000000081526004016104f990612612565b60405180910390fd5b61050c85836118d1565b61054b576040517f08c379a00000000000000000000000000000000000000000000000000000000081526004016105429061267e565b60405180910390fd5b600060019050600060018781548110610567576105666124ca565b5b906000526020600020906004020160010154905060005b600460003373ffffffffffffffffffffffffffffffffffffffff1673ffffffffffffffffffffffffffffffffffffffff168152602001908152602001600020805490508110156106b35787600460003373ffffffffffffffffffffffffffffffffffffffff1673ffffffffffffffffffffffffffffffffffffffff168152602001908152602001600020828154811061061a576106196124ca565b5b90600052602060002090600302016000015414156106a057600460003373ffffffffffffffffffffffffffffffffffffffff1673ffffffffffffffffffffffffffffffffffffffff1681526020019081526020016000208181548110610683576106826124ca565b5b9060005260206000209060030201600201549150600092506106b3565b80806106ab906126cd565b91505061057e565b60018089815481106106c8576106c76124ca565b5b9060005260206000209060040201600201546106e49190612716565b600189815481106106f8576106f76124ca565b5b9060005260206000209060040201600301546107149190612770565b4211156107f6576001888154811061072f5761072e6124ca565b5b9060005260206000209060040201600101549150600060018981548110610759576107586124ca565b5b906000526020600020906004020160030154905060005b428210156107c9578060018b8154811061078d5761078c6124ca565b5b9060005260206000209060040201600201546107a99190612716565b826107b49190612770565b915080806107c1906126cd565b915050610770565b508060018a815481106107df576107de6124ca565b5b906000526020600020906004020160030181905550505b85821015610839576040517f08c379a000000000000000000000000000000000000000000000000000000000815260040161083090612812565b60405180910390fd5b6000806001905060005b600460008b73ffffffffffffffffffffffffffffffffffffffff1673ffffffffffffffffffffffffffffffffffffffff16815260200190815260200160002080549050811015610978578a600460008c73ffffffffffffffffffffffffffffffffffffffff1673ffffffffffffffffffffffffffffffffffffffff16815260200190815260200160002082815481106108df576108de6124ca565b5b906000526020600020906003020160000154141561096557600460008b73ffffffffffffffffffffffffffffffffffffffff1673ffffffffffffffffffffffffffffffffffffffff1681526020019081526020016000208181548110610948576109476124ca565b5b906000526020600020906003020160010154925060009150610978565b8080610970906126cd565b915050610843565b88856109849190612832565b945088836109929190612770565b92508515610a4357600460003373ffffffffffffffffffffffffffffffffffffffff1673ffffffffffffffffffffffffffffffffffffffff16815260200190815260200160002060405180606001604052808d8152602001600081526020018781525090806001815401808255809150506001900390600052602060002090600302016000909190919091506000820151816000015560208201518160010155604082015181600201555050610aab565b84600460003373ffffffffffffffffffffffffffffffffffffffff1673ffffffffffffffffffffffffffffffffffffffff1681526020019081526020016000208581548110610a9557610a946124ca565b5b9060005260206000209060030201600201819055505b8115610b7e57600460008b73ffffffffffffffffffffffffffffffffffffffff1673ffffffffffffffffffffffffffffffffffffffff16815260200190815260200160002060405180606001604052808d815260200185815260200160018e81548110610b1b57610b1a6124ca565b5b90600052602060002090600402016001015481525090806001815401808255809150506001900390600052602060002090600302016000909190919091506000820151816000015560208201518160010155604082015181600201555050610be6565b82600460008c73ffffffffffffffffffffffffffffffffffffffff1673ffffffffffffffffffffffffffffffffffffffff1681526020019081526020016000208281548110610bd057610bcf6124ca565b5b9060005260206000209060030201600101819055505b60019650505050505050949350505050565b6000610c0433836117db565b610c43576040517f08c379a0000000000000000000000000000000000000000000000000000000008152600401610c3a906124aa565b60405180910390fd5b6000604051806080016040528088888080601f016020809104026020016040519081016040528093929190818152602001838380828437600081840152601f19601f82011690508083019250505050505050815260200186815260200185815260200142815250905060018190806001815401808255809150506001900390600052602060002090600402016000909190919091506000820151816000019080519060200190610cf492919061199c565b5060208201518160010155604082015181600201556060820151816003015550506000600180549050905060008481548110610d3357610d326124ca565b5b9060005260206000209060030201600201600182610d519190612832565b908060018154018082558091505060019003906000526020600020016000909190919091505560019250505095945050505050565b6000610d9233836117db565b610dd1576040517f08c379a0000000000000000000000000000000000000000000000000000000008152600401610dc8906124aa565b60405180910390fd5b610ddb83836117db565b15610e1b576040517f08c379a0000000000000000000000000000000000000000000000000000000008152600401610e12906128b2565b60405180910390fd5b60008281548110610e2f57610e2e6124ca565b5b9060005260206000209060030201600101839080600181540180825580915050600190039060005260206000200160009091909190916101000a81548173ffffffffffffffffffffffffffffffffffffffff021916908373ffffffffffffffffffffffffffffffffffffffff160217905550600360008473ffffffffffffffffffffffffffffffffffffffff1673ffffffffffffffffffffffffffffffffffffffff1681526020019081526020016000208290806001815401808255809150506001900390600052602060002001600090919091909150556001905092915050565b610f19611a22565b610f2333836117db565b610f62576040517f08c379a0000000000000000000000000000000000000000000000000000000008152600401610f59906124aa565b60405180910390fd5b60018381548110610f7657610f756124ca565b5b9060005260206000209060040201604051806080016040529081600082018054610f9f90612528565b80601f0160208091040260200160405190810160405280929190818152602001828054610fcb90612528565b80156110185780601f10610fed57610100808354040283529160200191611018565b820191906000526020600020905b815481529060010190602001808311610ffb57829003601f168201915b505050505081526020016001820154815260200160028201548152602001600382015481525050905092915050565b6060600360003373ffffffffffffffffffffffffffffffffffffffff1673ffffffffffffffffffffffffffffffffffffffff1681526020019081526020016000208054806020026020016040519081016040528092919081815260200182805480156110d257602002820191906000526020600020905b8154815260200190600101908083116110be575b5050505050905090565b60008282600260003373ffffffffffffffffffffffffffffffffffffffff1673ffffffffffffffffffffffffffffffffffffffff168152602001908152602001600020919061112c929190611a4a565b506001905092915050565b606061114333836117db565b611182576040517f08c379a0000000000000000000000000000000000000000000000000000000008152600401611179906124aa565b60405180910390fd5b6000808381548110611197576111966124ca565b5b90600052602060002090600302016002018054905090506000600460003373ffffffffffffffffffffffffffffffffffffffff1673ffffffffffffffffffffffffffffffffffffffff16815260200190815260200160002080549050905060008267ffffffffffffffff811115611211576112106128d2565b5b60405190808252806020026020018201604052801561124a57816020015b611237611ad0565b81526020019060019003908161122f5790505b50905060005b838110156114ed57600080878154811061126d5761126c6124ca565b5b906000526020600020906003020160020182815481106112905761128f6124ca565b5b90600052602060002001549050604051806060016040528082815260200160008152602001600183815481106112c9576112c86124ca565b5b9060005260206000209060040201600101548152508383815181106112f1576112f06124ca565b5b602002602001018190525060005b848110156114d85781600460003373ffffffffffffffffffffffffffffffffffffffff1673ffffffffffffffffffffffffffffffffffffffff1681526020019081526020016000208281548110611359576113586124ca565b5b90600052602060002090600302016000015414156114c557600460003373ffffffffffffffffffffffffffffffffffffffff1673ffffffffffffffffffffffffffffffffffffffff16815260200190815260200160002081815481106113c2576113c16124ca565b5b9060005260206000209060030201604051806060016040529081600082015481526020016001820154815260200160028201548152505084848151811061140c5761140b6124ca565b5b602002602001018190525060006001838154811061142d5761142c6124ca565b5b90600052602060002090600402016002015460018481548110611453576114526124ca565b5b90600052602060002090600402016003015461146f9190612770565b9050804211156114c3576001838154811061148d5761148c6124ca565b5b9060005260206000209060040201600101548585815181106114b2576114b16124ca565b5b602002602001015160400181815250505b505b80806114d0906126cd565b9150506112ff565b505080806114e5906126cd565b915050611250565b50809350505050919050565b600061150361197b565b83838080601f016020809104026020016040519081016040528093929190818152602001838380828437600081840152601f19601f8201169050808301925050505050505081600001819052506000600167ffffffffffffffff81111561156d5761156c6128d2565b5b60405190808252806020026020018201604052801561159b5781602001602082028036833780820191505090505b50905033816000815181106115b3576115b26124ca565b5b602002602001019073ffffffffffffffffffffffffffffffffffffffff16908173ffffffffffffffffffffffffffffffffffffffff168152505080826020018190525060608083604001819052506000839080600181540180825580915050600190039060005260206000209060030201600090919091909150600082015181600001908051906020019061164992919061199c565b506020820151816001019080519060200190611666929190611af1565b506040820151816002019080519060200190611683929190611b7b565b505050600360003373ffffffffffffffffffffffffffffffffffffffff1673ffffffffffffffffffffffffffffffffffffffff16815260200190815260200160002060016000805490506116d79190612832565b90806001815401808255809150506001900390600052602060002001600090919091909150556001935050505092915050565b6060600260008373ffffffffffffffffffffffffffffffffffffffff1673ffffffffffffffffffffffffffffffffffffffff168152602001908152602001600020805461175690612528565b80601f016020809104026020016040519081016040528092919081815260200182805461178290612528565b80156117cf5780601f106117a4576101008083540402835291602001916117cf565b820191906000526020600020905b8154815290600101906020018083116117b257829003601f168201915b50505050509050919050565b600080600090505b600083815481106117f7576117f66124ca565b5b9060005260206000209060030201600101805490508110156118c5578373ffffffffffffffffffffffffffffffffffffffff166000848154811061183e5761183d6124ca565b5b90600052602060002090600302016001018281548110611861576118606124ca565b5b9060005260206000200160009054906101000a900473ffffffffffffffffffffffffffffffffffffffff1673ffffffffffffffffffffffffffffffffffffffff1614156118b25760019150506118cb565b80806118bd906126cd565b9150506117e3565b50600090505b92915050565b600080600090505b600083815481106118ed576118ec6124ca565b5b90600052602060002090600302016002018054905081101561196f57836000848154811061191e5761191d6124ca565b5b90600052602060002090600302016002018281548110611941576119406124ca565b5b9060005260206000200154141561195c576001915050611975565b8080611967906126cd565b9150506118d9565b50600090505b92915050565b60405180606001604052806060815260200160608152602001606081525090565b8280546119a890612528565b90600052602060002090601f0160209004810192826119ca5760008555611a11565b82601f106119e357805160ff1916838001178555611a11565b82800160010185558215611a11579182015b82811115611a105782518255916020019190600101906119f5565b5b509050611a1e9190611bc8565b5090565b6040518060800160405280606081526020016000815260200160008152602001600081525090565b828054611a5690612528565b90600052602060002090601f016020900481019282611a785760008555611abf565b82601f10611a9157803560ff1916838001178555611abf565b82800160010185558215611abf579182015b82811115611abe578235825591602001919060010190611aa3565b5b509050611acc9190611bc8565b5090565b60405180606001604052806000815260200160008152602001600081525090565b828054828255906000526020600020908101928215611b6a579160200282015b82811115611b695782518260006101000a81548173ffffffffffffffffffffffffffffffffffffffff021916908373ffffffffffffffffffffffffffffffffffffffff16021790555091602001919060010190611b11565b5b509050611b779190611bc8565b5090565b828054828255906000526020600020908101928215611bb7579160200282015b82811115611bb6578251825591602001919060010190611b9b565b5b509050611bc49190611bc8565b5090565b5b80821115611be1576000816000905550600101611bc9565b5090565b600080fd5b600080fd5b6000819050919050565b611c0281611bef565b8114611c0d57600080fd5b50565b600081359050611c1f81611bf9565b92915050565b600060208284031215611c3b57611c3a611be5565b5b6000611c4984828501611c10565b91505092915050565b600081519050919050565b600082825260208201905092915050565b60005b83811015611c8c578082015181840152602081019050611c71565b83811115611c9b576000848401525b50505050565b6000601f19601f8301169050919050565b6000611cbd82611c52565b611cc78185611c5d565b9350611cd7818560208601611c6e565b611ce081611ca1565b840191505092915050565b600081519050919050565b600082825260208201905092915050565b6000819050602082019050919050565b600073ffffffffffffffffffffffffffffffffffffffff82169050919050565b6000611d4282611d17565b9050919050565b611d5281611d37565b82525050565b6000611d648383611d49565b60208301905092915050565b6000602082019050919050565b6000611d8882611ceb565b611d928185611cf6565b9350611d9d83611d07565b8060005b83811015611dce578151611db58882611d58565b9750611dc083611d70565b925050600181019050611da1565b5085935050505092915050565b600081519050919050565b600082825260208201905092915050565b6000819050602082019050919050565b611e1081611bef565b82525050565b6000611e228383611e07565b60208301905092915050565b6000602082019050919050565b6000611e4682611ddb565b611e508185611de6565b9350611e5b83611df7565b8060005b83811015611e8c578151611e738882611e16565b9750611e7e83611e2e565b925050600181019050611e5f565b5085935050505092915050565b60006060830160008301518482036000860152611eb68282611cb2565b91505060208301518482036020860152611ed08282611d7d565b91505060408301518482036040860152611eea8282611e3b565b9150508091505092915050565b60006020820190508181036000830152611f118184611e99565b905092915050565b611f2281611d37565b8114611f2d57600080fd5b50565b600081359050611f3f81611f19565b92915050565b60008060008060808587031215611f5f57611f5e611be5565b5b6000611f6d87828801611c10565b9450506020611f7e87828801611f30565b9350506040611f8f87828801611c10565b9250506060611fa087828801611c10565b91505092959194509250565b60008115159050919050565b611fc181611fac565b82525050565b6000602082019050611fdc6000830184611fb8565b92915050565b600080fd5b600080fd5b600080fd5b60008083601f84011261200757612006611fe2565b5b8235905067ffffffffffffffff81111561202457612023611fe7565b5b6020830191508360018202830111156120405761203f611fec565b5b9250929050565b60008060008060006080868803121561206357612062611be5565b5b600086013567ffffffffffffffff81111561208157612080611bea565b5b61208d88828901611ff1565b955095505060206120a088828901611c10565b93505060406120b188828901611c10565b92505060606120c288828901611c10565b9150509295509295909350565b600080604083850312156120e6576120e5611be5565b5b60006120f485828601611f30565b925050602061210585828601611c10565b9150509250929050565b6000806040838503121561212657612125611be5565b5b600061213485828601611c10565b925050602061214585828601611c10565b9150509250929050565b6000608083016000830151848203600086015261216c8282611cb2565b91505060208301516121816020860182611e07565b5060408301516121946040860182611e07565b5060608301516121a76060860182611e07565b508091505092915050565b600060208201905081810360008301526121cc818461214f565b905092915050565b600082825260208201905092915050565b60006121f082611ddb565b6121fa81856121d4565b935061220583611df7565b8060005b8381101561223657815161221d8882611e16565b975061222883611e2e565b925050600181019050612209565b5085935050505092915050565b6000602082019050818103600083015261225d81846121e5565b905092915050565b6000806020838503121561227c5761227b611be5565b5b600083013567ffffffffffffffff81111561229a57612299611bea565b5b6122a685828601611ff1565b92509250509250929050565b600081519050919050565b600082825260208201905092915050565b6000819050602082019050919050565b6060820160008201516122f46000850182611e07565b5060208201516123076020850182611e07565b50604082015161231a6040850182611e07565b50505050565b600061232c83836122de565b60608301905092915050565b6000602082019050919050565b6000612350826122b2565b61235a81856122bd565b9350612365836122ce565b8060005b8381101561239657815161237d8882612320565b975061238883612338565b925050600181019050612369565b5085935050505092915050565b600060208201905081810360008301526123bd8184612345565b905092915050565b6000602082840312156123db576123da611be5565b5b60006123e984828501611f30565b91505092915050565b600082825260208201905092915050565b600061240e82611c52565b61241881856123f2565b9350612428818560208601611c6e565b61243181611ca1565b840191505092915050565b600060208201905081810360008301526124568184612403565b905092915050565b7f75736572206e6f7420617574686f72697a656400000000000000000000000000600082015250565b60006124946013836123f2565b915061249f8261245e565b602082019050919050565b600060208201905081810360008301526124c381612487565b9050919050565b7f4e487b7100000000000000000000000000000000000000000000000000000000600052603260045260246000fd5b7f4e487b7100000000000000000000000000000000000000000000000000000000600052602260045260246000fd5b6000600282049050600182168061254057607f821691505b60208210811415612554576125536124f9565b5b50919050565b7f73656e646572206e6f7420617574686f72697a65640000000000000000000000600082015250565b60006125906015836123f2565b915061259b8261255a565b602082019050919050565b600060208201905081810360008301526125bf81612583565b9050919050565b7f7265636569766572206e6f7420617574686f72697a6564000000000000000000600082015250565b60006125fc6017836123f2565b9150612607826125c6565b602082019050919050565b6000602082019050818103600083015261262b816125ef565b9050919050565b7f746f6b656e206e6f7420617574686f72697a6564000000000000000000000000600082015250565b60006126686014836123f2565b915061267382612632565b602082019050919050565b600060208201905081810360008301526126978161265b565b9050919050565b7f4e487b7100000000000000000000000000000000000000000000000000000000600052601160045260246000fd5b60006126d882611bef565b91507fffffffffffffffffffffffffffffffffffffffffffffffffffffffffffffffff82141561270b5761270a61269e565b5b600182019050919050565b600061272182611bef565b915061272c83611bef565b9250817fffffffffffffffffffffffffffffffffffffffffffffffffffffffffffffffff04831182151516156127655761276461269e565b5b828202905092915050565b600061277b82611bef565b915061278683611bef565b9250827fffffffffffffffffffffffffffffffffffffffffffffffffffffffffffffffff038211156127bb576127ba61269e565b5b828201905092915050565b7f6e6f6e2068616920616262617374616e7a6120746f6b656e0000000000000000600082015250565b60006127fc6018836123f2565b9150612807826127c6565b602082019050919050565b6000602082019050818103600083015261282b816127ef565b9050919050565b600061283d82611bef565b915061284883611bef565b92508282101561285b5761285a61269e565b5b828203905092915050565b7f6164647265737320616c72656164792070726573656e74000000000000000000600082015250565b600061289c6017836123f2565b91506128a782612866565b602082019050919050565b600060208201905081810360008301526128cb8161288f565b9050919050565b7f4e487b7100000000000000000000000000000000000000000000000000000000600052604160045260246000fdfea2646970667358221220a29d9b7e81b28142f7e818bc1e1193a46296d2a43df9db52054c239f12263b0e64736f6c634300080b0033",
  "immutableReferences": {},
  "source": "// SPDX-License-Identifier: MIT\npragma solidity >=0.4.22 <0.9.0;\n\ncontract KuoriciniDao {\n\nstruct DaoGroup {\n  string name;\n  address[] members;\n  uint[] tokenIds;\n}\n\nstruct GToken {\n  string name;\n  uint roundSupply;\n  uint roundDuration;\n  uint timestamp;\n}\n\nstruct UToken {\n  uint tokenId;\n  uint balance;\n  uint xbalance;\n}\n\nDaoGroup[] daoGroups;\nGToken[] allTokens;\n\nmapping (address => string) names;\nmapping (address => uint[] ) userGroups;\nmapping (address => UToken[] ) userTokens;\n\n\nconstructor() {\n}\n\nfunction createGroup(string calldata groupName) public returns(bool){\n  DaoGroup memory newGroup;\n  newGroup.name=groupName;\n  address[] memory _members = new address[](1);\n  _members[0]=msg.sender;\n  newGroup.members=_members;\n  uint[] memory defaultTokens;\n  newGroup.tokenIds = defaultTokens;\n  daoGroups.push(newGroup);\n  userGroups[msg.sender].push(daoGroups.length-1);\n  return true;\n}\n\nfunction group(uint gid) public view returns(DaoGroup memory){\n  require(isAddressInGroup(msg.sender, gid), \"user not authorized\"); \n  return daoGroups[gid];\n}\n\nfunction myGroups() public view returns(uint[] memory) {\n  return userGroups[msg.sender];\n}\n\nfunction addAddresstoGroup(address addr, uint gid) public returns(bool){\n  require(isAddressInGroup(msg.sender, gid), \"user not authorized\"); \n  require(!isAddressInGroup(addr, gid), \"address already present\"); \n  daoGroups[gid].members.push(addr);\n  userGroups[addr].push(gid);\n  return true;\n} \n\nfunction isAddressInGroup(address addr, uint gid) private view returns(bool) {\n  for ( uint i = 0; i < daoGroups[gid].members.length; i++){\n    if ( daoGroups[gid].members[i] == addr ){\n      return true;\n    }\n  }\n  return false;\n}\n\nfunction setName(string calldata name) public returns(bool){\n  names[msg.sender]=name;\n  return true;\n}\n\nfunction nameOf(address owner) public view returns(string memory) {\n  return names[owner];\n}\n\n\n/* \n*   Tokens\n* \n*/\nfunction getToken(uint tokid, uint gid) public view returns(GToken memory) {\n  require(isAddressInGroup(msg.sender, gid), \"user not authorized\");   \n  return allTokens[tokid];\n}\n\nfunction createGToken(string calldata name, uint supply, uint duration, uint gid) public returns(bool){\n  require(isAddressInGroup(msg.sender, gid), \"user not authorized\");   \n\n  GToken memory newToken = GToken({\n    name: name,\n    roundSupply: supply,\n    roundDuration: duration,\n    timestamp: block.timestamp\n  });\n  allTokens.push(newToken);\n\n  uint l = allTokens.length;\n  daoGroups[gid].tokenIds.push(l-1);\n  return true;\n}\n\nfunction getUserTokens(uint gid) public view returns(UToken[] memory){\n  require(isAddressInGroup(msg.sender, gid), \"user not authorized\");   \n\n  uint l = daoGroups[gid].tokenIds.length;\n  uint m = userTokens[msg.sender].length;\n  UToken[] memory _userTokens = new UToken[](l);\n\n  for ( uint i = 0 ; i < l ; i++ ) { // scorro i tokens del gruppo\n    uint tokid = daoGroups[gid].tokenIds[i];\n    _userTokens[i] = UToken({ tokenId: tokid, balance: 0, xbalance: allTokens[tokid].roundSupply });\n\n    for ( uint j = 0 ; j < m ; j++ ) { // scorro i tokens dell'utente\n      if ( userTokens[msg.sender][j].tokenId == tokid ){\n        _userTokens[i] = userTokens[msg.sender][j];\n\n        uint newtime = allTokens[tokid].timestamp + allTokens[tokid].roundDuration;\n        if ( block.timestamp > newtime ) {\n          _userTokens[i].xbalance = allTokens[tokid].roundSupply;\n        }\n\n      }\n    }\n\n  }\n\n  return _userTokens;\n\n}\n\nfunction transferToken(uint tokenId, address receiver, uint value, uint gid) public returns(bool) {\n  require(isAddressInGroup(msg.sender, gid), \"sender not authorized\");   \n  require(isAddressInGroup(receiver, gid), \"receiver not authorized\");\n  require(isTokenInGroup(tokenId, gid), \"token not authorized\");\n\n  bool senderCreate = true;\n  uint senderxbalance = allTokens[tokenId].roundSupply;\n  uint senderPos = 0;\n  for (senderPos; senderPos < userTokens[msg.sender].length ; senderPos++) {\n    if (userTokens[msg.sender][senderPos].tokenId == tokenId) {\n      senderxbalance = userTokens[msg.sender][senderPos].xbalance;\n      senderCreate = false;\n      break;\n    }\n  }\n  \n  if (block.timestamp > (allTokens[tokenId].timestamp + allTokens[tokenId].roundDuration * 1 seconds) ) {\n    senderxbalance = allTokens[tokenId].roundSupply;\n    uint _newTimestamp = allTokens[tokenId].timestamp;\n    for (uint k = 0; _newTimestamp < block.timestamp ; k++) {\n      _newTimestamp += allTokens[tokenId].roundDuration * k; \n    }\n    allTokens[tokenId].timestamp=_newTimestamp;\n  }\n  \n  require(senderxbalance >= value, \"non hai abbastanza token\");\n\n  uint receiverbalance = 0;\n  bool receiverCreate = true;\n  uint receiverPos = 0;\n\n  for ( receiverPos; receiverPos < userTokens[receiver].length ; receiverPos++) {\n    if (userTokens[receiver][receiverPos].tokenId == tokenId) {\n      receiverbalance = userTokens[receiver][receiverPos].balance;\n      receiverCreate = false;\n      break;\n    }\n  }\n\n  senderxbalance -= value;\n  receiverbalance += value;\n\n  if ( senderCreate ) {\n    userTokens[msg.sender].push( UToken({ tokenId: tokenId, balance: 0, xbalance: senderxbalance}));\n  }\n  else {\n    userTokens[msg.sender][senderPos].xbalance = senderxbalance;\n  }\n  if ( receiverCreate ) {\n    userTokens[receiver].push( UToken({ tokenId: tokenId, balance: receiverbalance, xbalance: allTokens[tokenId].roundSupply}));\n  }\n  else {\n    userTokens[receiver][receiverPos].balance = receiverbalance;\n  }\n  return true;\n}\n\n/*\nfunction transferToken(uint tokenId, address receiver, uint value, uint gid) public returns(bool) {\n  require(isAddressInGroup(msg.sender, gid), \"sender not authorized\");   \n  require(isAddressInGroup(receiver, gid), \"receiver not authorized\");\n  require(isTokenInGroup(tokenId, gid), \"token not authorized\");\n\n  UToken memory tokSender;\n  bool senderCreate = true;\n  uint s;\n  for (s = 0; s < userTokens[msg.sender].length ; s++) {\n    if (userTokens[msg.sender][s].tokenId == tokenId) {\n      tokSender = userTokens[msg.sender][s];\n      senderCreate = false;\n      break;\n    }\n  }\n  if ( senderCreate ) {\n    tokSender = UToken({ tokenId: tokenId, balance: 0, xbalance: allTokens[tokenId].roundSupply});\n  }\n  \n  if (block.timestamp > (allTokens[tokenId].timestamp + allTokens[tokenId].roundDuration * 1 seconds) ) {\n    tokSender.xbalance = allTokens[tokenId].roundSupply;\n    uint _newTimestamp = allTokens[tokenId].timestamp;\n    for (uint k = 0; _newTimestamp < block.timestamp ; k++) {\n      _newTimestamp += allTokens[tokenId].roundDuration * k; \n    }\n    allTokens[tokenId].timestamp=_newTimestamp;\n  }\n  \n  require(tokSender.xbalance >= value, \"non hai abbastanza token\");\n\n  UToken memory tokReceiver;\n  bool receiverCreate = true;\n  uint r;\n\n  for ( r = 0; r < userTokens[receiver].length ; r++) {\n    if (userTokens[receiver][r].tokenId == tokenId) {\n      tokReceiver = userTokens[receiver][r];\n      receiverCreate = false;\n      break;\n    }\n  }\n  if ( receiverCreate ) {\n    tokReceiver= UToken({ tokenId: tokenId, balance: 0, xbalance: allTokens[tokenId].roundSupply});\n  }\n\n  tokSender.xbalance -= value;\n  tokReceiver.balance += value;\n\n  if ( senderCreate ) {\n    userTokens[msg.sender].push( UToken({ tokenId: tokenId, balance: 0, xbalance: tokSender.xbalance}));\n  }\n  else {\n    userTokens[msg.sender][s] = tokSender;\n  }\n  if ( receiverCreate ) {\n    userTokens[receiver].push( UToken({ tokenId: tokenId, balance: tokReceiver.balance, xbalance: allTokens[tokenId].roundSupply}));\n  }\n  else {\n    userTokens[receiver][r] = tokReceiver;\n  }\n  return true;\n}\n*/\n\nfunction isTokenInGroup(uint tokId, uint gid) private view returns(bool) {\n  for ( uint i = 0; i < daoGroups[gid].tokenIds.length; i++){\n    if ( daoGroups[gid].tokenIds[i] == tokId ){\n      return true;\n    }\n  }\n  return false;\n}\n\n}\n",
  "sourcePath": "/home/fabian/kuoricinidao/contracts/KuoriciniDao.sol",
  "compiler": {
    "name": "solc",
    "version": "0.8.11+commit.d7f03943.Emscripten.clang"
  },
  "schemaVersion": "3.4.5",
  "updatedAt": "2022-05-25T08:42:56.537Z",
  "networkType": "ethereum",
  "devdoc": {
    "kind": "dev",
    "methods": {},
    "version": 1
  },
  "userdoc": {
    "kind": "user",
    "methods": {},
    "version": 1
  }
}