{
  "contractName": "KuoriciniDao",
  "abi": [
    {
      "inputs": [],
      "stateMutability": "nonpayable",
      "type": "constructor"
    },
    {
      "inputs": [
        {
          "internalType": "string",
          "name": "groupName",
          "type": "string"
        }
      ],
      "name": "createGroup",
      "outputs": [
        {
          "internalType": "bool",
          "name": "",
          "type": "bool"
        }
      ],
      "stateMutability": "nonpayable",
      "type": "function"
    },
    {
      "inputs": [
        {
          "internalType": "uint256",
          "name": "gid",
          "type": "uint256"
        }
      ],
      "name": "group",
      "outputs": [
        {
          "components": [
            {
              "internalType": "string",
              "name": "name",
              "type": "string"
            },
            {
              "internalType": "address[]",
              "name": "members",
              "type": "address[]"
            },
            {
              "internalType": "uint256[]",
              "name": "tokenIds",
              "type": "uint256[]"
            }
          ],
          "internalType": "struct KuoriciniDao.DaoGroup",
          "name": "",
          "type": "tuple"
        }
      ],
      "stateMutability": "view",
      "type": "function",
      "constant": true
    },
    {
      "inputs": [],
      "name": "myGroups",
      "outputs": [
        {
          "internalType": "uint256[]",
          "name": "",
          "type": "uint256[]"
        }
      ],
      "stateMutability": "view",
      "type": "function",
      "constant": true
    },
    {
      "inputs": [
        {
          "internalType": "address",
          "name": "addr",
          "type": "address"
        },
        {
          "internalType": "uint256",
          "name": "gid",
          "type": "uint256"
        }
      ],
      "name": "addAddresstoGroup",
      "outputs": [
        {
          "internalType": "bool",
          "name": "",
          "type": "bool"
        }
      ],
      "stateMutability": "nonpayable",
      "type": "function"
    },
    {
      "inputs": [
        {
          "internalType": "string",
          "name": "name",
          "type": "string"
        }
      ],
      "name": "setName",
      "outputs": [
        {
          "internalType": "bool",
          "name": "",
          "type": "bool"
        }
      ],
      "stateMutability": "nonpayable",
      "type": "function"
    },
    {
      "inputs": [
        {
          "internalType": "address",
          "name": "owner",
          "type": "address"
        }
      ],
      "name": "nameOf",
      "outputs": [
        {
          "internalType": "string",
          "name": "",
          "type": "string"
        }
      ],
      "stateMutability": "view",
      "type": "function",
      "constant": true
    },
    {
      "inputs": [
        {
          "internalType": "uint256",
          "name": "tokid",
          "type": "uint256"
        },
        {
          "internalType": "uint256",
          "name": "gid",
          "type": "uint256"
        }
      ],
      "name": "getToken",
      "outputs": [
        {
          "components": [
            {
              "internalType": "string",
              "name": "name",
              "type": "string"
            },
            {
              "internalType": "uint256",
              "name": "roundSupply",
              "type": "uint256"
            },
            {
              "internalType": "uint256",
              "name": "roundDuration",
              "type": "uint256"
            },
            {
              "internalType": "uint256",
              "name": "timestamp",
              "type": "uint256"
            }
          ],
          "internalType": "struct KuoriciniDao.GToken",
          "name": "",
          "type": "tuple"
        }
      ],
      "stateMutability": "view",
      "type": "function",
      "constant": true
    },
    {
      "inputs": [
        {
          "internalType": "string",
          "name": "name",
          "type": "string"
        },
        {
          "internalType": "uint256",
          "name": "supply",
          "type": "uint256"
        },
        {
          "internalType": "uint256",
          "name": "duration",
          "type": "uint256"
        },
        {
          "internalType": "uint256",
          "name": "gid",
          "type": "uint256"
        }
      ],
      "name": "createGToken",
      "outputs": [
        {
          "internalType": "bool",
          "name": "",
          "type": "bool"
        }
      ],
      "stateMutability": "nonpayable",
      "type": "function"
    },
    {
      "inputs": [
        {
          "internalType": "uint256",
          "name": "gid",
          "type": "uint256"
        }
      ],
      "name": "getUserTokens",
      "outputs": [
        {
          "components": [
            {
              "internalType": "uint256",
              "name": "tokenId",
              "type": "uint256"
            },
            {
              "internalType": "uint256",
              "name": "balance",
              "type": "uint256"
            },
            {
              "internalType": "uint256",
              "name": "xbalance",
              "type": "uint256"
            }
          ],
          "internalType": "struct KuoriciniDao.UToken[]",
          "name": "",
          "type": "tuple[]"
        }
      ],
      "stateMutability": "view",
      "type": "function",
      "constant": true
    },
    {
      "inputs": [
        {
          "internalType": "uint256",
          "name": "tokId",
          "type": "uint256"
        },
        {
          "internalType": "address",
          "name": "receiver",
          "type": "address"
        },
        {
          "internalType": "uint256",
          "name": "qty",
          "type": "uint256"
        },
        {
          "internalType": "uint256",
          "name": "gid",
          "type": "uint256"
        }
      ],
      "name": "transferToken",
      "outputs": [
        {
          "internalType": "bool",
          "name": "",
          "type": "bool"
        }
      ],
      "stateMutability": "nonpayable",
      "type": "function"
    }
  ],
  "bytecode": "0x608060405234801561001057600080fd5b506125cd806100206000396000f3fe608060405234801561001057600080fd5b506004361061009e5760003560e01c8063c3f9343711610066578063c3f9343714610193578063c47f0027146101b1578063d17bd40b146101e1578063dc2ddcae14610211578063f5c57382146102415761009e565b80630bd0e7fa146100a357806348d0b7cb146100d35780635af18a60146101035780635cfb429b14610133578063a4fd3cea14610163575b600080fd5b6100bd60048036038101906100b89190611915565b610271565b6040516100ca9190611be7565b60405180910390f35b6100ed60048036038101906100e89190611c35565b61046e565b6040516100fa9190611cb7565b60405180910390f35b61011d60048036038101906101189190611d37565b6105f6565b60405161012a9190611cb7565b60405180910390f35b61014d60048036038101906101489190611dbf565b610784565b60405161015a9190611cb7565b60405180910390f35b61017d60048036038101906101789190611dff565b61090f565b60405161018a9190611ea2565b60405180910390f35b61019b610a45565b6040516101a89190611f33565b60405180910390f35b6101cb60048036038101906101c69190611f55565b610ada565b6040516101d89190611cb7565b60405180910390f35b6101fb60048036038101906101f69190611915565b610b35565b6040516102089190612093565b60405180910390f35b61022b60048036038101906102269190611f55565b610ef7565b6040516102389190611cb7565b60405180910390f35b61025b600480360381019061025691906120b5565b611108565b604051610268919061212c565b60405180910390f35b61027961166b565b61028333836111d9565b6102c2576040517f08c379a00000000000000000000000000000000000000000000000000000000081526004016102b99061219a565b60405180910390fd5b600082815481106102d6576102d56121ba565b5b90600052602060002090600302016040518060600160405290816000820180546102ff90612218565b80601f016020809104026020016040519081016040528092919081815260200182805461032b90612218565b80156103785780601f1061034d57610100808354040283529160200191610378565b820191906000526020600020905b81548152906001019060200180831161035b57829003601f168201915b505050505081526020016001820180548060200260200160405190810160405280929190818152602001828054801561040657602002820191906000526020600020905b8160009054906101000a900473ffffffffffffffffffffffffffffffffffffffff1673ffffffffffffffffffffffffffffffffffffffff16815260200190600101908083116103bc575b505050505081526020016002820180548060200260200160405190810160405280929190818152602001828054801561045e57602002820191906000526020600020905b81548152602001906001019080831161044a575b5050505050815250509050919050565b600061047a33836111d9565b6104b9576040517f08c379a00000000000000000000000000000000000000000000000000000000081526004016104b090612296565b60405180910390fd5b6104c384836111d9565b610502576040517f08c379a00000000000000000000000000000000000000000000000000000000081526004016104f990612302565b60405180910390fd5b61050c85836112cf565b61054b576040517f08c379a00000000000000000000000000000000000000000000000000000000081526004016105429061236e565b60405180910390fd5b6000806105583388611379565b9150915084826040015110156105a3576040517f08c379a000000000000000000000000000000000000000000000000000000000815260040161059a906123da565b60405180910390fd5b6000806105b0888a611379565b9150915086846040018181516105c69190612429565b9150818152505086826020018181516105df919061245d565b915081815250506001945050505050949350505050565b600061060233836111d9565b610641576040517f08c379a00000000000000000000000000000000000000000000000000000000081526004016106389061219a565b60405180910390fd5b6000604051806080016040528088888080601f016020809104026020016040519081016040528093929190818152602001838380828437600081840152601f19601f820116905080830192505050505050508152602001868152602001858152602001428152509050600181908060018154018082558091505060019003906000526020600020906004020160009091909190915060008201518160000190805190602001906106f292919061168c565b5060208201518160010155604082015181600201556060820151816003015550506000600180549050905060008481548110610731576107306121ba565b5b906000526020600020906003020160020160018261074f9190612429565b908060018154018082558091505060019003906000526020600020016000909190919091505560019250505095945050505050565b600061079033836111d9565b6107cf576040517f08c379a00000000000000000000000000000000000000000000000000000000081526004016107c69061219a565b60405180910390fd5b6107d983836111d9565b15610819576040517f08c379a0000000000000000000000000000000000000000000000000000000008152600401610810906124ff565b60405180910390fd5b6000828154811061082d5761082c6121ba565b5b9060005260206000209060030201600101839080600181540180825580915050600190039060005260206000200160009091909190916101000a81548173ffffffffffffffffffffffffffffffffffffffff021916908373ffffffffffffffffffffffffffffffffffffffff160217905550600360008473ffffffffffffffffffffffffffffffffffffffff1673ffffffffffffffffffffffffffffffffffffffff1681526020019081526020016000208290806001815401808255809150506001900390600052602060002001600090919091909150556001905092915050565b610917611712565b61092133836111d9565b610960576040517f08c379a00000000000000000000000000000000000000000000000000000000081526004016109579061219a565b60405180910390fd5b60018381548110610974576109736121ba565b5b906000526020600020906004020160405180608001604052908160008201805461099d90612218565b80601f01602080910402602001604051908101604052809291908181526020018280546109c990612218565b8015610a165780601f106109eb57610100808354040283529160200191610a16565b820191906000526020600020905b8154815290600101906020018083116109f957829003601f168201915b505050505081526020016001820154815260200160028201548152602001600382015481525050905092915050565b6060600360003373ffffffffffffffffffffffffffffffffffffffff1673ffffffffffffffffffffffffffffffffffffffff168152602001908152602001600020805480602002602001604051908101604052809291908181526020018280548015610ad057602002820191906000526020600020905b815481526020019060010190808311610abc575b5050505050905090565b60008282600260003373ffffffffffffffffffffffffffffffffffffffff1673ffffffffffffffffffffffffffffffffffffffff1681526020019081526020016000209190610b2a92919061173a565b506001905092915050565b6060610b4133836111d9565b610b80576040517f08c379a0000000000000000000000000000000000000000000000000000000008152600401610b779061219a565b60405180910390fd5b6000808381548110610b9557610b946121ba565b5b90600052602060002090600302016002018054905090506000600460003373ffffffffffffffffffffffffffffffffffffffff1673ffffffffffffffffffffffffffffffffffffffff16815260200190815260200160002080549050905060008267ffffffffffffffff811115610c0f57610c0e61251f565b5b604051908082528060200260200182016040528015610c4857816020015b610c356117c0565b815260200190600190039081610c2d5790505b50905060005b83811015610eeb576000808781548110610c6b57610c6a6121ba565b5b90600052602060002090600302016002018281548110610c8e57610c8d6121ba565b5b9060005260206000200154905060405180606001604052808281526020016000815260200160018381548110610cc757610cc66121ba565b5b906000526020600020906004020160010154815250838381518110610cef57610cee6121ba565b5b602002602001018190525060005b84811015610ed65781600460003373ffffffffffffffffffffffffffffffffffffffff1673ffffffffffffffffffffffffffffffffffffffff1681526020019081526020016000208281548110610d5757610d566121ba565b5b9060005260206000209060030201600001541415610ec357600460003373ffffffffffffffffffffffffffffffffffffffff1673ffffffffffffffffffffffffffffffffffffffff1681526020019081526020016000208181548110610dc057610dbf6121ba565b5b90600052602060002090600302016040518060600160405290816000820154815260200160018201548152602001600282015481525050848481518110610e0a57610e096121ba565b5b6020026020010181905250600060018381548110610e2b57610e2a6121ba565b5b90600052602060002090600402016002015460018481548110610e5157610e506121ba565b5b906000526020600020906004020160030154610e6d919061245d565b905080421115610ec15760018381548110610e8b57610e8a6121ba565b5b906000526020600020906004020160010154858581518110610eb057610eaf6121ba565b5b602002602001015160400181815250505b505b8280610ece9061254e565b935050610cfd565b50508080610ee39061254e565b915050610c4e565b50809350505050919050565b6000610f0161166b565b83838080601f016020809104026020016040519081016040528093929190818152602001838380828437600081840152601f19601f8201169050808301925050505050505081600001819052506000600167ffffffffffffffff811115610f6b57610f6a61251f565b5b604051908082528060200260200182016040528015610f995781602001602082028036833780820191505090505b5090503381600081518110610fb157610fb06121ba565b5b602002602001019073ffffffffffffffffffffffffffffffffffffffff16908173ffffffffffffffffffffffffffffffffffffffff168152505080826020018190525060608083604001819052506000839080600181540180825580915050600190039060005260206000209060030201600090919091909150600082015181600001908051906020019061104792919061168c565b5060208201518160010190805190602001906110649291906117e1565b50604082015181600201908051906020019061108192919061186b565b505050600360003373ffffffffffffffffffffffffffffffffffffffff1673ffffffffffffffffffffffffffffffffffffffff16815260200190815260200160002060016000805490506110d59190612429565b90806001815401808255809150506001900390600052602060002001600090919091909150556001935050505092915050565b6060600260008373ffffffffffffffffffffffffffffffffffffffff1673ffffffffffffffffffffffffffffffffffffffff168152602001908152602001600020805461115490612218565b80601f016020809104026020016040519081016040528092919081815260200182805461118090612218565b80156111cd5780601f106111a2576101008083540402835291602001916111cd565b820191906000526020600020905b8154815290600101906020018083116111b057829003601f168201915b50505050509050919050565b600080600090505b600083815481106111f5576111f46121ba565b5b9060005260206000209060030201600101805490508110156112c3578373ffffffffffffffffffffffffffffffffffffffff166000848154811061123c5761123b6121ba565b5b9060005260206000209060030201600101828154811061125f5761125e6121ba565b5b9060005260206000200160009054906101000a900473ffffffffffffffffffffffffffffffffffffffff1673ffffffffffffffffffffffffffffffffffffffff1614156112b05760019150506112c9565b80806112bb9061254e565b9150506111e1565b50600090505b92915050565b600080600090505b600083815481106112eb576112ea6121ba565b5b90600052602060002090600302016002018054905081101561136d57836000848154811061131c5761131b6121ba565b5b9060005260206000209060030201600201828154811061133f5761133e6121ba565b5b9060005260206000200154141561135a576001915050611373565b80806113659061254e565b9150506112d7565b50600090505b92915050565b6113816117c0565b600080604051806060016040528085815260200160008152602001600186815481106113b0576113af6121ba565b5b906000526020600020906004020160010154815250905060008060009050600091505b600460008873ffffffffffffffffffffffffffffffffffffffff1673ffffffffffffffffffffffffffffffffffffffff1681526020019081526020016000208054905082101561157b5785600460008973ffffffffffffffffffffffffffffffffffffffff1673ffffffffffffffffffffffffffffffffffffffff168152602001908152602001600020838154811061146f5761146e6121ba565b5b906000526020600020906003020160000154141561156857600460008873ffffffffffffffffffffffffffffffffffffffff1673ffffffffffffffffffffffffffffffffffffffff16815260200190815260200160002082815481106114d8576114d76121ba565b5b906000526020600020906003020160010154836020018181525050600460008873ffffffffffffffffffffffffffffffffffffffff1673ffffffffffffffffffffffffffffffffffffffff1681526020019081526020016000208281548110611544576115436121ba565b5b9060005260206000209060030201600201548360400181815250506001905061157b565b81806115739061254e565b9250506113d3565b8061165b57600460003373ffffffffffffffffffffffffffffffffffffffff1673ffffffffffffffffffffffffffffffffffffffff16815260200190815260200160002083908060018154018082558091505060019003906000526020600020906003020160009091909190915060008201518160000155602082015181600101556040820151816002015550506001600460003373ffffffffffffffffffffffffffffffffffffffff1673ffffffffffffffffffffffffffffffffffffffff168152602001908152602001600020805490506116589190612429565b91505b8282945094505050509250929050565b60405180606001604052806060815260200160608152602001606081525090565b82805461169890612218565b90600052602060002090601f0160209004810192826116ba5760008555611701565b82601f106116d357805160ff1916838001178555611701565b82800160010185558215611701579182015b828111156117005782518255916020019190600101906116e5565b5b50905061170e91906118b8565b5090565b6040518060800160405280606081526020016000815260200160008152602001600081525090565b82805461174690612218565b90600052602060002090601f01602090048101928261176857600085556117af565b82601f1061178157803560ff19168380011785556117af565b828001600101855582156117af579182015b828111156117ae578235825591602001919060010190611793565b5b5090506117bc91906118b8565b5090565b60405180606001604052806000815260200160008152602001600081525090565b82805482825590600052602060002090810192821561185a579160200282015b828111156118595782518260006101000a81548173ffffffffffffffffffffffffffffffffffffffff021916908373ffffffffffffffffffffffffffffffffffffffff16021790555091602001919060010190611801565b5b50905061186791906118b8565b5090565b8280548282559060005260206000209081019282156118a7579160200282015b828111156118a657825182559160200191906001019061188b565b5b5090506118b491906118b8565b5090565b5b808211156118d15760008160009055506001016118b9565b5090565b600080fd5b600080fd5b6000819050919050565b6118f2816118df565b81146118fd57600080fd5b50565b60008135905061190f816118e9565b92915050565b60006020828403121561192b5761192a6118d5565b5b600061193984828501611900565b91505092915050565b600081519050919050565b600082825260208201905092915050565b60005b8381101561197c578082015181840152602081019050611961565b8381111561198b576000848401525b50505050565b6000601f19601f8301169050919050565b60006119ad82611942565b6119b7818561194d565b93506119c781856020860161195e565b6119d081611991565b840191505092915050565b600081519050919050565b600082825260208201905092915050565b6000819050602082019050919050565b600073ffffffffffffffffffffffffffffffffffffffff82169050919050565b6000611a3282611a07565b9050919050565b611a4281611a27565b82525050565b6000611a548383611a39565b60208301905092915050565b6000602082019050919050565b6000611a78826119db565b611a8281856119e6565b9350611a8d836119f7565b8060005b83811015611abe578151611aa58882611a48565b9750611ab083611a60565b925050600181019050611a91565b5085935050505092915050565b600081519050919050565b600082825260208201905092915050565b6000819050602082019050919050565b611b00816118df565b82525050565b6000611b128383611af7565b60208301905092915050565b6000602082019050919050565b6000611b3682611acb565b611b408185611ad6565b9350611b4b83611ae7565b8060005b83811015611b7c578151611b638882611b06565b9750611b6e83611b1e565b925050600181019050611b4f565b5085935050505092915050565b60006060830160008301518482036000860152611ba682826119a2565b91505060208301518482036020860152611bc08282611a6d565b91505060408301518482036040860152611bda8282611b2b565b9150508091505092915050565b60006020820190508181036000830152611c018184611b89565b905092915050565b611c1281611a27565b8114611c1d57600080fd5b50565b600081359050611c2f81611c09565b92915050565b60008060008060808587031215611c4f57611c4e6118d5565b5b6000611c5d87828801611900565b9450506020611c6e87828801611c20565b9350506040611c7f87828801611900565b9250506060611c9087828801611900565b91505092959194509250565b60008115159050919050565b611cb181611c9c565b82525050565b6000602082019050611ccc6000830184611ca8565b92915050565b600080fd5b600080fd5b600080fd5b60008083601f840112611cf757611cf6611cd2565b5b8235905067ffffffffffffffff811115611d1457611d13611cd7565b5b602083019150836001820283011115611d3057611d2f611cdc565b5b9250929050565b600080600080600060808688031215611d5357611d526118d5565b5b600086013567ffffffffffffffff811115611d7157611d706118da565b5b611d7d88828901611ce1565b95509550506020611d9088828901611900565b9350506040611da188828901611900565b9250506060611db288828901611900565b9150509295509295909350565b60008060408385031215611dd657611dd56118d5565b5b6000611de485828601611c20565b9250506020611df585828601611900565b9150509250929050565b60008060408385031215611e1657611e156118d5565b5b6000611e2485828601611900565b9250506020611e3585828601611900565b9150509250929050565b60006080830160008301518482036000860152611e5c82826119a2565b9150506020830151611e716020860182611af7565b506040830151611e846040860182611af7565b506060830151611e976060860182611af7565b508091505092915050565b60006020820190508181036000830152611ebc8184611e3f565b905092915050565b600082825260208201905092915050565b6000611ee082611acb565b611eea8185611ec4565b9350611ef583611ae7565b8060005b83811015611f26578151611f0d8882611b06565b9750611f1883611b1e565b925050600181019050611ef9565b5085935050505092915050565b60006020820190508181036000830152611f4d8184611ed5565b905092915050565b60008060208385031215611f6c57611f6b6118d5565b5b600083013567ffffffffffffffff811115611f8a57611f896118da565b5b611f9685828601611ce1565b92509250509250929050565b600081519050919050565b600082825260208201905092915050565b6000819050602082019050919050565b606082016000820151611fe46000850182611af7565b506020820151611ff76020850182611af7565b50604082015161200a6040850182611af7565b50505050565b600061201c8383611fce565b60608301905092915050565b6000602082019050919050565b600061204082611fa2565b61204a8185611fad565b935061205583611fbe565b8060005b8381101561208657815161206d8882612010565b975061207883612028565b925050600181019050612059565b5085935050505092915050565b600060208201905081810360008301526120ad8184612035565b905092915050565b6000602082840312156120cb576120ca6118d5565b5b60006120d984828501611c20565b91505092915050565b600082825260208201905092915050565b60006120fe82611942565b61210881856120e2565b935061211881856020860161195e565b61212181611991565b840191505092915050565b6000602082019050818103600083015261214681846120f3565b905092915050565b7f75736572206e6f7420617574686f72697a656400000000000000000000000000600082015250565b60006121846013836120e2565b915061218f8261214e565b602082019050919050565b600060208201905081810360008301526121b381612177565b9050919050565b7f4e487b7100000000000000000000000000000000000000000000000000000000600052603260045260246000fd5b7f4e487b7100000000000000000000000000000000000000000000000000000000600052602260045260246000fd5b6000600282049050600182168061223057607f821691505b60208210811415612244576122436121e9565b5b50919050565b7f73656e646572206e6f7420617574686f72697a65640000000000000000000000600082015250565b60006122806015836120e2565b915061228b8261224a565b602082019050919050565b600060208201905081810360008301526122af81612273565b9050919050565b7f7265636569766572206e6f7420617574686f72697a6564000000000000000000600082015250565b60006122ec6017836120e2565b91506122f7826122b6565b602082019050919050565b6000602082019050818103600083015261231b816122df565b9050919050565b7f746f6b656e206e6f7420617574686f72697a6564000000000000000000000000600082015250565b60006123586014836120e2565b915061236382612322565b602082019050919050565b600060208201905081810360008301526123878161234b565b9050919050565b7f6e6f7420656e6f7567682062616c616e63650000000000000000000000000000600082015250565b60006123c46012836120e2565b91506123cf8261238e565b602082019050919050565b600060208201905081810360008301526123f3816123b7565b9050919050565b7f4e487b7100000000000000000000000000000000000000000000000000000000600052601160045260246000fd5b6000612434826118df565b915061243f836118df565b925082821015612452576124516123fa565b5b828203905092915050565b6000612468826118df565b9150612473836118df565b9250827fffffffffffffffffffffffffffffffffffffffffffffffffffffffffffffffff038211156124a8576124a76123fa565b5b828201905092915050565b7f6164647265737320616c72656164792070726573656e74000000000000000000600082015250565b60006124e96017836120e2565b91506124f4826124b3565b602082019050919050565b60006020820190508181036000830152612518816124dc565b9050919050565b7f4e487b7100000000000000000000000000000000000000000000000000000000600052604160045260246000fd5b6000612559826118df565b91507fffffffffffffffffffffffffffffffffffffffffffffffffffffffffffffffff82141561258c5761258b6123fa565b5b60018201905091905056fea26469706673582212206875295b9060679fa88ba11514b9b790ef01ede5c29342225f6db6ca99aba16864736f6c634300080b0033",
  "immutableReferences": {},
  "source": "// SPDX-License-Identifier: MIT\npragma solidity >=0.4.22 <0.9.0;\n\ncontract KuoriciniDao {\n\nstruct DaoGroup {\n  string name;\n  address[] members;\n  uint[] tokenIds;\n}\n\nstruct GToken {\n  string name;\n  uint roundSupply;\n  uint roundDuration;\n  uint timestamp;\n}\n\nstruct UToken {\n  uint tokenId;\n  uint balance;\n  uint xbalance;\n}\n\nDaoGroup[] daoGroups;\nGToken[] allTokens;\n\nmapping (address => string) names;\nmapping (address => uint[] ) userGroups;\nmapping (address => UToken[] ) userTokens;\n\n\nconstructor() {\n}\n\nfunction createGroup(string calldata groupName) public returns(bool){\n  DaoGroup memory newGroup;\n  newGroup.name=groupName;\n  address[] memory _members = new address[](1);\n  _members[0]=msg.sender;\n  newGroup.members=_members;\n  uint[] memory defaultTokens;\n  newGroup.tokenIds = defaultTokens;\n  daoGroups.push(newGroup);\n  userGroups[msg.sender].push(daoGroups.length-1);\n  return true;\n}\n\nfunction group(uint gid) public view returns(DaoGroup memory){\n  require(isAddressInGroup(msg.sender, gid), \"user not authorized\"); \n  return daoGroups[gid];\n}\n\nfunction myGroups() public view returns(uint[] memory) {\n  return userGroups[msg.sender];\n}\n\nfunction addAddresstoGroup(address addr, uint gid) public returns(bool){\n  require(isAddressInGroup(msg.sender, gid), \"user not authorized\"); \n  require(!isAddressInGroup(addr, gid), \"address already present\"); \n  daoGroups[gid].members.push(addr);\n  userGroups[addr].push(gid);\n  return true;\n} \n\nfunction isAddressInGroup(address addr, uint gid) private view returns(bool) {\n  for ( uint i = 0; i < daoGroups[gid].members.length; i++){\n    if ( daoGroups[gid].members[i] == addr ){\n      return true;\n    }\n  }\n  return false;\n}\n\nfunction setName(string calldata name) public returns(bool){\n  names[msg.sender]=name;\n  return true;\n}\n\nfunction nameOf(address owner) public view returns(string memory) {\n  return names[owner];\n}\n\n\n/* \n*   Tokens\n* \n*/\nfunction getToken(uint tokid, uint gid) public view returns(GToken memory) {\n  require(isAddressInGroup(msg.sender, gid), \"user not authorized\");   \n  return allTokens[tokid];\n}\n\nfunction createGToken(string calldata name, uint supply, uint duration, uint gid) public returns(bool){\n  require(isAddressInGroup(msg.sender, gid), \"user not authorized\");   \n\n  GToken memory newToken = GToken({\n    name: name,\n    roundSupply: supply,\n    roundDuration: duration,\n    timestamp: block.timestamp\n  });\n  allTokens.push(newToken);\n\n  uint l = allTokens.length;\n  daoGroups[gid].tokenIds.push(l-1);\n  return true;\n}\n\nfunction getUserTokens(uint gid) public view returns(UToken[] memory){\n  require(isAddressInGroup(msg.sender, gid), \"user not authorized\");   \n\n  uint l = daoGroups[gid].tokenIds.length;\n  uint m = userTokens[msg.sender].length;\n  UToken[] memory _userTokens = new UToken[](l);\n\n  for ( uint i = 0 ; i < l ; i++ ) { // scorro i tokens del gruppo\n    uint tokid = daoGroups[gid].tokenIds[i];\n    _userTokens[i] = UToken({ tokenId: tokid, balance: 0, xbalance: allTokens[tokid].roundSupply });\n\n    for ( uint j = 0 ; j < m ; i++ ) { // scorro i tokens dell'utente\n      if ( userTokens[msg.sender][j].tokenId == tokid ){\n        _userTokens[i] = userTokens[msg.sender][j];\n\n        uint newtime = allTokens[tokid].timestamp + allTokens[tokid].roundDuration;\n        if ( block.timestamp > newtime ) {\n          _userTokens[i].xbalance = allTokens[tokid].roundSupply;\n        }\n\n      }\n    }\n\n  }\n\n  return _userTokens;\n\n}\n\nfunction retrieveUToken(address addr, uint tokId) private returns(UToken memory, uint userTokId) {\n\n  UToken memory tokSender = UToken({ tokenId: tokId, balance: 0, xbalance: allTokens[tokId].roundSupply});\n  uint s;\n  bool m = false;\n  for ( s = 0; s < userTokens[addr].length ; s++ ) {\n    if ( userTokens[addr][s].tokenId == tokId) {\n      tokSender.balance = userTokens[addr][s].balance;\n      tokSender.xbalance = userTokens[addr][s].xbalance;\n      m = true;\n      break;\n    }\n  }\n  // create entry if not present\n  if ( !m ) {\n    userTokens[msg.sender].push(tokSender);\n    s = userTokens[msg.sender].length -1;\n  }\n  return ( tokSender, s);\n\n} \n\nfunction transferToken(uint tokId, address receiver, uint qty, uint gid) public returns(bool) {\n  require(isAddressInGroup(msg.sender, gid), \"sender not authorized\");   \n  require(isAddressInGroup(receiver, gid), \"receiver not authorized\");\n  require(isTokenInGroup(tokId, gid), \"token not authorized\");\n  \n  // retrieve sender token \n  (UToken memory tokSender, uint sTokId) = retrieveUToken(msg.sender, tokId);\n\n  // update token if cycle is passed\n  /*\n  if ( block.timestamp > (allTokens[tokId].timestamp + allTokens[tokId].roundSupply) ) {\n    tokSender.xbalance = allTokens[tokId].roundSupply;\n    uint newtimestamp = allTokens[tokId].timestamp;\n    while ( newtimestamp < block.timestamp ) {\n      newtimestamp += allTokens[tokId].roundSupply;\n    }\n    allTokens[tokId].timestamp = newtimestamp;\n  }\n  */\n  require(tokSender.xbalance >= qty, \"not enough balance\" );\n\n  // retrieve receiver token  \n  (UToken memory tokReceiver, uint rTokId) = retrieveUToken(receiver, tokId);\n\n  // actual transaction\n  tokSender.xbalance -= qty;\n  tokReceiver.balance += qty;\n\n  // update userTokens\n//  userTokens[msg.sender][sTokId] = tokSender;\n//  userTokens[receiver][rTokId] = tokReceiver;\n\n  return true;\n} \n\nfunction isTokenInGroup(uint tokId, uint gid) private view returns(bool) {\n  for ( uint i = 0; i < daoGroups[gid].tokenIds.length; i++){\n    if ( daoGroups[gid].tokenIds[i] == tokId ){\n      return true;\n    }\n  }\n  return false;\n}\n\n\n\n}\n",
  "sourcePath": "/home/fabian/kuoricinidao/contracts/KuoriciniDao.sol",
  "compiler": {
    "name": "solc",
    "version": "0.8.11+commit.d7f03943.Emscripten.clang"
  },
  "schemaVersion": "3.4.4",
  "updatedAt": "2022-05-23T09:24:28.537Z",
  "networkType": "ethereum",
  "devdoc": {
    "kind": "dev",
    "methods": {},
    "version": 1
  },
  "userdoc": {
    "kind": "user",
    "methods": {},
    "version": 1
  }
}