{
  "contractName": "KuoriciniDao",
  "abi": [
    {
      "inputs": [],
      "stateMutability": "nonpayable",
      "type": "constructor"
    },
    {
      "inputs": [
        {
          "internalType": "string",
          "name": "_name",
          "type": "string"
        }
      ],
      "name": "createGroup",
      "outputs": [
        {
          "internalType": "bool",
          "name": "",
          "type": "bool"
        }
      ],
      "stateMutability": "nonpayable",
      "type": "function"
    },
    {
      "inputs": [
        {
          "internalType": "uint256",
          "name": "_gid",
          "type": "uint256"
        }
      ],
      "name": "getGroup",
      "outputs": [
        {
          "components": [
            {
              "internalType": "string",
              "name": "name",
              "type": "string"
            },
            {
              "internalType": "address[]",
              "name": "members",
              "type": "address[]"
            },
            {
              "internalType": "uint256[]",
              "name": "tokenIds",
              "type": "uint256[]"
            },
            {
              "internalType": "uint256[]",
              "name": "candidateIds",
              "type": "uint256[]"
            },
            {
              "internalType": "uint256",
              "name": "voteThreshold",
              "type": "uint256"
            },
            {
              "internalType": "uint256",
              "name": "voteDuration",
              "type": "uint256"
            },
            {
              "internalType": "string",
              "name": "invitationLink",
              "type": "string"
            }
          ],
          "internalType": "struct KuoriciniDao.DaoGroup",
          "name": "",
          "type": "tuple"
        }
      ],
      "stateMutability": "view",
      "type": "function",
      "constant": true
    },
    {
      "inputs": [
        {
          "internalType": "string",
          "name": "link",
          "type": "string"
        }
      ],
      "name": "checkInvitationLink",
      "outputs": [
        {
          "internalType": "uint256",
          "name": "",
          "type": "uint256"
        }
      ],
      "stateMutability": "view",
      "type": "function",
      "constant": true
    },
    {
      "inputs": [
        {
          "internalType": "uint256",
          "name": "_tokenid",
          "type": "uint256"
        }
      ],
      "name": "getToken",
      "outputs": [
        {
          "components": [
            {
              "internalType": "string",
              "name": "name",
              "type": "string"
            },
            {
              "internalType": "uint256",
              "name": "roundSupply",
              "type": "uint256"
            },
            {
              "internalType": "uint256",
              "name": "roundDuration",
              "type": "uint256"
            },
            {
              "internalType": "uint256",
              "name": "timestamp",
              "type": "uint256"
            }
          ],
          "internalType": "struct KuoriciniDao.GToken",
          "name": "",
          "type": "tuple"
        }
      ],
      "stateMutability": "view",
      "type": "function",
      "constant": true
    },
    {
      "inputs": [
        {
          "internalType": "uint256",
          "name": "gid",
          "type": "uint256"
        }
      ],
      "name": "getUserTokens",
      "outputs": [
        {
          "components": [
            {
              "internalType": "uint256",
              "name": "tokenId",
              "type": "uint256"
            },
            {
              "internalType": "uint256",
              "name": "gTokenBalance",
              "type": "uint256"
            },
            {
              "internalType": "uint256",
              "name": "xBalance",
              "type": "uint256"
            },
            {
              "internalType": "uint256",
              "name": "blocktimestamp",
              "type": "uint256"
            },
            {
              "internalType": "uint256",
              "name": "newtime",
              "type": "uint256"
            },
            {
              "internalType": "bool",
              "name": "overtime",
              "type": "bool"
            }
          ],
          "internalType": "struct KuoriciniDao.EToken[]",
          "name": "",
          "type": "tuple[]"
        }
      ],
      "stateMutability": "view",
      "type": "function",
      "constant": true
    },
    {
      "inputs": [
        {
          "internalType": "uint256",
          "name": "_tokenId",
          "type": "uint256"
        },
        {
          "internalType": "address",
          "name": "receiver",
          "type": "address"
        },
        {
          "internalType": "uint256",
          "name": "value",
          "type": "uint256"
        }
      ],
      "name": "transferToken",
      "outputs": [
        {
          "internalType": "bool",
          "name": "",
          "type": "bool"
        }
      ],
      "stateMutability": "nonpayable",
      "type": "function"
    },
    {
      "inputs": [
        {
          "internalType": "uint256",
          "name": "_id",
          "type": "uint256"
        }
      ],
      "name": "getGroupNamefromId",
      "outputs": [
        {
          "internalType": "string",
          "name": "",
          "type": "string"
        }
      ],
      "stateMutability": "view",
      "type": "function",
      "constant": true
    },
    {
      "inputs": [
        {
          "internalType": "uint256",
          "name": "_id",
          "type": "uint256"
        }
      ],
      "name": "getGroupAddressfromId",
      "outputs": [
        {
          "internalType": "address[]",
          "name": "",
          "type": "address[]"
        }
      ],
      "stateMutability": "view",
      "type": "function",
      "constant": true
    },
    {
      "inputs": [
        {
          "internalType": "uint256",
          "name": "val",
          "type": "uint256"
        },
        {
          "internalType": "string",
          "name": "name",
          "type": "string"
        },
        {
          "internalType": "uint256",
          "name": "supply",
          "type": "uint256"
        },
        {
          "internalType": "uint256",
          "name": "duration",
          "type": "uint256"
        },
        {
          "internalType": "uint256",
          "name": "gid",
          "type": "uint256"
        },
        {
          "internalType": "uint256",
          "name": "candtype",
          "type": "uint256"
        }
      ],
      "name": "changeToken",
      "outputs": [
        {
          "internalType": "bool",
          "name": "",
          "type": "bool"
        }
      ],
      "stateMutability": "nonpayable",
      "type": "function"
    },
    {
      "inputs": [
        {
          "internalType": "uint256",
          "name": "val",
          "type": "uint256"
        },
        {
          "internalType": "uint256",
          "name": "gid",
          "type": "uint256"
        }
      ],
      "name": "proposeQuorum",
      "outputs": [
        {
          "internalType": "bool",
          "name": "",
          "type": "bool"
        }
      ],
      "stateMutability": "nonpayable",
      "type": "function"
    },
    {
      "inputs": [
        {
          "internalType": "uint256",
          "name": "gid",
          "type": "uint256"
        }
      ],
      "name": "getQuorumProposals",
      "outputs": [
        {
          "components": [
            {
              "internalType": "uint256",
              "name": "proposalId",
              "type": "uint256"
            },
            {
              "internalType": "address",
              "name": "proposer",
              "type": "address"
            },
            {
              "internalType": "uint256",
              "name": "votes",
              "type": "uint256"
            },
            {
              "internalType": "bool",
              "name": "voted",
              "type": "bool"
            },
            {
              "internalType": "uint256",
              "name": "timestamp",
              "type": "uint256"
            },
            {
              "internalType": "uint256",
              "name": "quorum",
              "type": "uint256"
            }
          ],
          "internalType": "struct KuoriciniDao.quorumProposal[]",
          "name": "",
          "type": "tuple[]"
        }
      ],
      "stateMutability": "view",
      "type": "function",
      "constant": true
    },
    {
      "inputs": [
        {
          "internalType": "uint256",
          "name": "gid",
          "type": "uint256"
        },
        {
          "internalType": "uint256",
          "name": "candTokId",
          "type": "uint256"
        },
        {
          "internalType": "uint256",
          "name": "vote",
          "type": "uint256"
        }
      ],
      "name": "voteCandidate",
      "outputs": [
        {
          "internalType": "bool",
          "name": "",
          "type": "bool"
        }
      ],
      "stateMutability": "nonpayable",
      "type": "function"
    },
    {
      "inputs": [
        {
          "internalType": "uint256",
          "name": "gid",
          "type": "uint256"
        }
      ],
      "name": "removeMeFromGroup",
      "outputs": [
        {
          "internalType": "bool",
          "name": "",
          "type": "bool"
        }
      ],
      "stateMutability": "nonpayable",
      "type": "function"
    },
    {
      "inputs": [],
      "name": "myGroups",
      "outputs": [
        {
          "internalType": "uint256[]",
          "name": "",
          "type": "uint256[]"
        }
      ],
      "stateMutability": "view",
      "type": "function",
      "constant": true
    },
    {
      "inputs": [
        {
          "internalType": "uint256",
          "name": "gid",
          "type": "uint256"
        },
        {
          "internalType": "string",
          "name": "invitation",
          "type": "string"
        }
      ],
      "name": "groupNameByInvitation",
      "outputs": [
        {
          "internalType": "string",
          "name": "",
          "type": "string"
        }
      ],
      "stateMutability": "view",
      "type": "function",
      "constant": true
    },
    {
      "inputs": [
        {
          "internalType": "address",
          "name": "owner",
          "type": "address"
        }
      ],
      "name": "nameOf",
      "outputs": [
        {
          "internalType": "string",
          "name": "",
          "type": "string"
        }
      ],
      "stateMutability": "view",
      "type": "function",
      "constant": true
    },
    {
      "inputs": [
        {
          "internalType": "string",
          "name": "name",
          "type": "string"
        }
      ],
      "name": "nameSet",
      "outputs": [
        {
          "internalType": "bool",
          "name": "",
          "type": "bool"
        }
      ],
      "stateMutability": "nonpayable",
      "type": "function"
    }
  ],
  "bytecode": "0x608060405234801561001057600080fd5b50615ae680620000216000396000f3fe608060405234801561001057600080fd5b506004361061010b5760003560e01c8063cc02711c116100a2578063dbb5313f11610071578063dbb5313f1461033e578063dc2ddcae1461036e578063e4b50cb81461039e578063edeefa31146103ce578063f5c57382146103fe5761010b565b8063cc02711c1461027e578063ceb60654146102ae578063d17bd40b146102de578063d55032351461030e5761010b565b8063857af37b116100de578063857af37b146101d057806395449f2b14610200578063c3f9343714610230578063c6c92cf11461024e5761010b565b806301fa6655146101105780635026b94914610140578063558f8f0414610170578063837d8cec146101a0575b600080fd5b61012a6004803603810190610125919061443e565b61042e565b6040516101379190614537565b60405180910390f35b61015a60048036038101906101559190614559565b610549565b60405161016791906145b4565b60405180910390f35b61018a600480360381019061018591906145cf565b6105b9565b60405161019791906146ec565b60405180910390f35b6101ba60048036038101906101b5919061483e565b61066c565b6040516101c791906145b4565b60405180910390f35b6101ea60048036038101906101e591906145cf565b610c3d565b6040516101f79190614537565b60405180910390f35b61021a600480360381019061021591906148e7565b610cf4565b6040516102279190614943565b60405180910390f35b610238610f44565b6040516102459190614a1c565b60405180910390f35b610268600480360381019061026391906145cf565b611139565b6040516102759190614b77565b60405180910390f35b61029860048036038101906102939190614b99565b6116e2565b6040516102a591906145b4565b60405180910390f35b6102c860048036038101906102c391906145cf565b611fa1565b6040516102d59190614dcc565b60405180910390f35b6102f860048036038101906102f391906145cf565b612253565b6040516103059190614f18565b60405180910390f35b610328600480360381019061032391906145cf565b612823565b60405161033591906145b4565b60405180910390f35b61035860048036038101906103539190614f66565b612b96565b60405161036591906145b4565b60405180910390f35b610388600480360381019061038391906148e7565b613361565b60405161039591906145b4565b60405180910390f35b6103b860048036038101906103b391906145cf565b613639565b6040516103c5919061501c565b60405180910390f35b6103e860048036038101906103e391906148e7565b613725565b6040516103f591906145b4565b60405180910390f35b6104186004803603810190610413919061503e565b61377f565b6040516104259190614537565b60405180910390f35b6060836002848460405161044392919061509b565b90815260200160405180910390205414610492576040517f08c379a000000000000000000000000000000000000000000000000000000000815260040161048990615100565b60405180910390fd5b600384815481106104a6576104a5615120565b5b906000526020600020906007020160000180546104c29061517e565b80601f01602080910402602001604051908101604052809291908181526020018280546104ee9061517e565b801561053b5780601f106105105761010080835404028352916020019161053b565b820191906000526020600020905b81548152906001019060200180831161051e57829003601f168201915b505050505090509392505050565b6000600a83111561058f576040517f08c379a0000000000000000000000000000000000000000000000000000000008152600401610586906151fc565b60405180910390fd5b6105ae836040518060200160405280600081525060008086600361066c565b506001905092915050565b6060600382815481106105cf576105ce615120565b5b906000526020600020906007020160010180548060200260200160405190810160405280929190818152602001828054801561066057602002820191906000526020600020905b8160009054906101000a900473ffffffffffffffffffffffffffffffffffffffff1673ffffffffffffffffffffffffffffffffffffffff1681526020019060010190808311610616575b50505050509050919050565b60008082141561076957610680833361384f565b156106c0576040517f08c379a00000000000000000000000000000000000000000000000000000000081526004016106b790615268565b60405180910390fd5b826002876040516106d191906152b9565b90815260200160405180910390205414610720576040517f08c379a00000000000000000000000000000000000000000000000000000000081526004016107179061531c565b60405180910390fd5b6000831415610764576040517f08c379a000000000000000000000000000000000000000000000000000000000815260040161075b90615388565b60405180910390fd5b6107b3565b610773833361384f565b6107b2576040517f08c379a00000000000000000000000000000000000000000000000000000000081526004016107a9906153f4565b60405180910390fd5b5b6002821415610806576107c68784613945565b610805576040517f08c379a00000000000000000000000000000000000000000000000000000000081526004016107fc90615460565b60405180910390fd5b5b600382141561085457600a871115610853576040517f08c379a000000000000000000000000000000000000000000000000000000000815260040161084a906151fc565b60405180910390fd5b5b60006003848154811061086a57610869615120565b5b9060005260206000209060070201600301805490509050600060018261089091906154af565b67ffffffffffffffff8111156108a9576108a8614713565b5b6040519080825280602002602001820160405280156108d75781602001602082028036833780820191505090505b50905060005b82811015610a3157600386815481106108f9576108f8615120565b5b9060005260206000209060070201600301818154811061091c5761091b615120565b5b906000526020600020015482828151811061093a57610939615120565b5b6020026020010181815250506000851415610a1e573373ffffffffffffffffffffffffffffffffffffffff16600583838151811061097b5761097a615120565b5b60200260200101518154811061099457610993615120565b5b906000526020600020906009020160050160009054906101000a900473ffffffffffffffffffffffffffffffffffffffff1673ffffffffffffffffffffffffffffffffffffffff161415610a1d576040517f08c379a0000000000000000000000000000000000000000000000000000000008152600401610a1490615551565b60405180910390fd5b5b8080610a2990615571565b9150506108dd565b5060008067ffffffffffffffff811115610a4e57610a4d614713565b5b604051908082528060200260200182016040528015610a7c5781602001602082028036833780820191505090505b50905060056040518061012001604052808c81526020018781526020018b81526020018a81526020018981526020013373ffffffffffffffffffffffffffffffffffffffff1681526020016000815260200183815260200142815250908060018154018082558091505060019003906000526020600020906009020160009091909190915060008201518160000155602082015181600101556040820151816002019080519060200190610b31929190614021565b50606082015181600301556080820151816004015560a08201518160050160006101000a81548173ffffffffffffffffffffffffffffffffffffffff021916908373ffffffffffffffffffffffffffffffffffffffff16021790555060c0820151816006015560e0820151816007019080519060200190610bb39291906140a7565b50610100820151816008015550506001600580549050610bd391906155ba565b828481518110610be657610be5615120565b5b6020026020010181815250508160038781548110610c0757610c06615120565b5b90600052602060002090600702016003019080519060200190610c2b929190614131565b50600193505050509695505050505050565b606060038281548110610c5357610c52615120565b5b90600052602060002090600702016000018054610c6f9061517e565b80601f0160208091040260200160405190810160405280929190818152602001828054610c9b9061517e565b8015610ce85780601f10610cbd57610100808354040283529160200191610ce8565b820191906000526020600020905b815481529060010190602001808311610ccb57829003601f168201915b50505050509050919050565b60008060028484604051610d0992919061509b565b9081526020016040518091039020549050610d24813361384f565b15610d64576040517f08c379a0000000000000000000000000000000000000000000000000000000008152600401610d5b9061563a565b60405180910390fd5b600060038281548110610d7a57610d79615120565b5b90600052602060002090600702016003018054905090506000600182610da091906154af565b67ffffffffffffffff811115610db957610db8614713565b5b604051908082528060200260200182016040528015610de75781602001602082028036833780820191505090505b50905060005b82811015610f375760038481548110610e0957610e08615120565b5b90600052602060002090600702016003018181548110610e2c57610e2b615120565b5b9060005260206000200154828281518110610e4a57610e49615120565b5b6020026020010181815250503373ffffffffffffffffffffffffffffffffffffffff166005838381518110610e8257610e81615120565b5b602002602001015181548110610e9b57610e9a615120565b5b906000526020600020906009020160050160009054906101000a900473ffffffffffffffffffffffffffffffffffffffff1673ffffffffffffffffffffffffffffffffffffffff161415610f24576040517f08c379a0000000000000000000000000000000000000000000000000000000008152600401610f1b906156a6565b60405180910390fd5b8080610f2f90615571565b915050610ded565b5082935050505092915050565b606060006003805490509050606060005b8281101561113057600060038281548110610f7357610f72615120565b5b906000526020600020906007020160010180549050905060005b8181101561111b573373ffffffffffffffffffffffffffffffffffffffff1660038481548110610fc057610fbf615120565b5b90600052602060002090600702016001018281548110610fe357610fe2615120565b5b9060005260206000200160009054906101000a900473ffffffffffffffffffffffffffffffffffffffff1673ffffffffffffffffffffffffffffffffffffffff16141561110857600084519050600060018261103f91906154af565b67ffffffffffffffff81111561105857611057614713565b5b6040519080825280602002602001820160405280156110865781602001602082028036833780820191505090505b50905060005b828110156110e1578681815181106110a7576110a6615120565b5b60200260200101518282815181106110c2576110c1615120565b5b60200260200101818152505080806110d990615571565b91505061108c565b50848183815181106110f6576110f5615120565b5b60200260200101818152505080955050505b808061111390615571565b915050610f8d565b5050808061112890615571565b915050610f55565b50809250505090565b6060611145823361384f565b611184576040517f08c379a000000000000000000000000000000000000000000000000000000000815260040161117b906153f4565b60405180910390fd5b60006003838154811061119a57611199615120565b5b906000526020600020906007020160030180549050905060008167ffffffffffffffff8111156111cd576111cc614713565b5b60405190808252806020026020018201604052801561120657816020015b6111f361417e565b8152602001906001900390816111eb5790505b50905061121161417e565b6112196141cc565b6000805b858110156116d45760006003898154811061123b5761123a615120565b5b9060005260206000209060070201600301828154811061125e5761125d615120565b5b906000526020600020015490506005818154811061127f5761127e615120565b5b90600052602060002090600902016040518061012001604052908160008201548152602001600182015481526020016002820180546112bd9061517e565b80601f01602080910402602001604051908101604052809291908181526020018280546112e99061517e565b80156113365780601f1061130b57610100808354040283529160200191611336565b820191906000526020600020905b81548152906001019060200180831161131957829003601f168201915b5050505050815260200160038201548152602001600482015481526020016005820160009054906101000a900473ffffffffffffffffffffffffffffffffffffffff1673ffffffffffffffffffffffffffffffffffffffff1673ffffffffffffffffffffffffffffffffffffffff168152602001600682015481526020016007820180548060200260200160405190810160405280929190818152602001828054801561143857602002820191906000526020600020905b8160009054906101000a900473ffffffffffffffffffffffffffffffffffffffff1673ffffffffffffffffffffffffffffffffffffffff16815260200190600101908083116113ee575b5050505050815260200160088201548152505093506003846020015114156116c0576005818154811061146e5761146d615120565b5b9060005260206000209060090201600001548560000181815250506005818154811061149d5761149c615120565b5b906000526020600020906009020160050160009054906101000a900473ffffffffffffffffffffffffffffffffffffffff16856020019073ffffffffffffffffffffffffffffffffffffffff16908173ffffffffffffffffffffffffffffffffffffffff16815250506005818154811061151a57611519615120565b5b906000526020600020906009020160060154856040018181525050600085606001901515908115158152505060005b6005828154811061155d5761155c615120565b5b906000526020600020906009020160070180549050811015611633573373ffffffffffffffffffffffffffffffffffffffff16600583815481106115a4576115a3615120565b5b906000526020600020906009020160070182815481106115c7576115c6615120565b5b9060005260206000200160009054906101000a900473ffffffffffffffffffffffffffffffffffffffff1673ffffffffffffffffffffffffffffffffffffffff1614156116205760018660600190151590811515815250505b808061162b90615571565b915050611549565b506005818154811061164857611647615120565b5b9060005260206000209060090201600801548560800181815250506005818154811061167757611676615120565b5b9060005260206000209060090201600001548560a0018181525050848684815181106116a6576116a5615120565b5b602002602001018190525082806116bc90615571565b9350505b5080806116cc90615571565b91505061121d565b508395505050505050919050565b60006116ee843361384f565b61172d576040517f08c379a000000000000000000000000000000000000000000000000000000000815260040161172490615712565b60405180910390fd5b6117356141cc565b60006003868154811061174b5761174a615120565b5b90600052602060002090600702016003018054905090506000805b828110156119b557866003898154811061178357611782615120565b5b906000526020600020906007020160030182815481106117a6576117a5615120565b5b906000526020600020015414156119a257600587815481106117cb576117ca615120565b5b90600052602060002090600902016040518061012001604052908160008201548152602001600182015481526020016002820180546118099061517e565b80601f01602080910402602001604051908101604052809291908181526020018280546118359061517e565b80156118825780601f1061185757610100808354040283529160200191611882565b820191906000526020600020905b81548152906001019060200180831161186557829003601f168201915b5050505050815260200160038201548152602001600482015481526020016005820160009054906101000a900473ffffffffffffffffffffffffffffffffffffffff1673ffffffffffffffffffffffffffffffffffffffff1673ffffffffffffffffffffffffffffffffffffffff168152602001600682015481526020016007820180548060200260200160405190810160405280929190818152602001828054801561198457602002820191906000526020600020905b8160009054906101000a900473ffffffffffffffffffffffffffffffffffffffff1673ffffffffffffffffffffffffffffffffffffffff168152602001906001019080831161193a575b505050505081526020016008820154815250509350600191506119b5565b80806119ad90615571565b915050611766565b50806119f6576040517f08c379a00000000000000000000000000000000000000000000000000000000081526004016119ed9061577e565b60405180910390fd5b60008360e001515190506000600182611a0f91906154af565b67ffffffffffffffff811115611a2857611a27614713565b5b604051908082528060200260200182016040528015611a565781602001602082028036833780820191505090505b50905060005b82811015611b70573373ffffffffffffffffffffffffffffffffffffffff168660e001518281518110611a9257611a91615120565b5b602002602001015173ffffffffffffffffffffffffffffffffffffffff161415611af1576040517f08c379a0000000000000000000000000000000000000000000000000000000008152600401611ae8906157ea565b60405180910390fd5b8560e001518181518110611b0857611b07615120565b5b6020026020010151828281518110611b2357611b22615120565b5b602002602001019073ffffffffffffffffffffffffffffffffffffffff16908173ffffffffffffffffffffffffffffffffffffffff16815250508080611b6890615571565b915050611a5c565b5033818381518110611b8557611b84615120565b5b602002602001019073ffffffffffffffffffffffffffffffffffffffff16908173ffffffffffffffffffffffffffffffffffffffff1681525050808560e001819052506000871115611bec5760018560c001818151611be491906154af565b915081815250505b8460058981548110611c0157611c00615120565b5b906000526020600020906009020160008201518160000155602082015181600101556040820151816002019080519060200190611c3f929190614021565b50606082015181600301556080820151816004015560a08201518160050160006101000a81548173ffffffffffffffffffffffffffffffffffffffff021916908373ffffffffffffffffffffffffffffffffffffffff16021790555060c0820151816006015560e0820151816007019080519060200190611cc19291906140a7565b5061010082015181600801559050506000611cdb8a6139ef565b9050808660c001511115611f9057600086602001511415611d0657611d048a8760a00151613a70565b505b600186602001511480611d1d575060028660200151145b15611d4957611d47866000015187604001518860600151896080015160028b60200151148f613ca4565b505b600386602001511415611d8557856000015160038b81548110611d6f57611d6e615120565b5b9060005260206000209060070201600401819055505b6000600186611d9491906155ba565b67ffffffffffffffff811115611dad57611dac614713565b5b604051908082528060200260200182016040528015611ddb5781602001602082028036833780820191505090505b509050600080600090505b87811015611e52578b60038e81548110611e0357611e02615120565b5b90600052602060002090600702016003018281548110611e2657611e25615120565b5b90600052602060002001541415611e3f57809150611e52565b8080611e4a90615571565b915050611de6565b600090505b87811015611f525781811015611ec95760038d81548110611e7b57611e7a615120565b5b90600052602060002090600702016003018181548110611e9e57611e9d615120565b5b9060005260206000200154838281518110611ebc57611ebb615120565b5b6020026020010181815250505b81811115611f3f5760038d81548110611ee557611ee4615120565b5b90600052602060002090600702016003018181548110611f0857611f07615120565b5b906000526020600020015483600183611f2191906155ba565b81518110611f3257611f31615120565b5b6020026020010181815250505b8080611f4a90615571565b915050611e57565b8260038e81548110611f6757611f66615120565b5b90600052602060002090600702016003019080519060200190611f8b929190614131565b505050505b600196505050505050509392505050565b611fa961422e565b60038281548110611fbd57611fbc615120565b5b90600052602060002090600702016040518060e0016040529081600082018054611fe69061517e565b80601f01602080910402602001604051908101604052809291908181526020018280546120129061517e565b801561205f5780601f106120345761010080835404028352916020019161205f565b820191906000526020600020905b81548152906001019060200180831161204257829003601f168201915b50505050508152602001600182018054806020026020016040519081016040528092919081815260200182805480156120ed57602002820191906000526020600020905b8160009054906101000a900473ffffffffffffffffffffffffffffffffffffffff1673ffffffffffffffffffffffffffffffffffffffff16815260200190600101908083116120a3575b505050505081526020016002820180548060200260200160405190810160405280929190818152602001828054801561214557602002820191906000526020600020905b815481526020019060010190808311612131575b505050505081526020016003820180548060200260200160405190810160405280929190818152602001828054801561219d57602002820191906000526020600020905b815481526020019060010190808311612189575b5050505050815260200160048201548152602001600582015481526020016006820180546121ca9061517e565b80601f01602080910402602001604051908101604052809291908181526020018280546121f69061517e565b80156122435780601f1061221857610100808354040283529160200191612243565b820191906000526020600020905b81548152906001019060200180831161222657829003601f168201915b5050505050815250509050919050565b606061225f823361384f565b61229e576040517f08c379a000000000000000000000000000000000000000000000000000000000815260040161229590615100565b60405180910390fd5b6000600383815481106122b4576122b3615120565b5b90600052602060002090600702016002018054905090506000600160003373ffffffffffffffffffffffffffffffffffffffff1673ffffffffffffffffffffffffffffffffffffffff16815260200190815260200160002080549050905060008267ffffffffffffffff81111561232e5761232d614713565b5b60405190808252806020026020018201604052801561236757816020015b61235461426b565b81526020019060019003908161234c5790505b50905060008367ffffffffffffffff81111561238657612385614713565b5b6040519080825280602002602001820160405280156123bf57816020015b6123ac61428c565b8152602001906001900390816123a45790505b50905060005b84811015612816576000600388815481106123e3576123e2615120565b5b9060005260206000209060070201600201828154811061240657612405615120565b5b9060005260206000200154905060008060006040518060600160405280858152602001600081526020016004868154811061244457612443615120565b5b90600052602060002090600402016001015481525087868151811061246c5761246b615120565b5b602002602001018190525060005b888110156126c65784600160003373ffffffffffffffffffffffffffffffffffffffff1673ffffffffffffffffffffffffffffffffffffffff16815260200190815260200160002082815481106124d4576124d3615120565b5b90600052602060002090600302016000015414156126b357600160003373ffffffffffffffffffffffffffffffffffffffff1673ffffffffffffffffffffffffffffffffffffffff168152602001908152602001600020818154811061253d5761253c615120565b5b90600052602060002090600302016001015488878151811061256257612561615120565b5b602002602001015160200181815250506004858154811061258657612585615120565b5b906000526020600020906004020160020154600486815481106125ac576125ab615120565b5b9060005260206000209060040201600301546125c891906154af565b91504293508184111561262757600485815481106125e9576125e8615120565b5b90600052602060002090600402016001015488878151811061260e5761260d615120565b5b60200260200101516040018181525050600192506126b2565b600160003373ffffffffffffffffffffffffffffffffffffffff1673ffffffffffffffffffffffffffffffffffffffff168152602001908152602001600020818154811061267857612677615120565b5b90600052602060002090600302016002015488878151811061269d5761269c615120565b5b60200260200101516040018181525050600092505b5b80806126be90615571565b91505061247a565b508685815181106126da576126d9615120565b5b6020026020010151600001518686815181106126f9576126f8615120565b5b6020026020010151600001818152505086858151811061271c5761271b615120565b5b60200260200101516020015186868151811061273b5761273a615120565b5b6020026020010151602001818152505086858151811061275e5761275d615120565b5b60200260200101516040015186868151811061277d5761277c615120565b5b60200260200101516040018181525050828686815181106127a1576127a0615120565b5b60200260200101516060018181525050808686815181106127c5576127c4615120565b5b60200260200101516080018181525050818686815181106127e9576127e8615120565b5b602002602001015160a001901515908115158152505050505050808061280e90615571565b9150506123c5565b5080945050505050919050565b600061282f823361384f565b61286e576040517f08c379a000000000000000000000000000000000000000000000000000000000815260040161286590615856565b60405180910390fd5b60006003838154811061288457612883615120565b5b906000526020600020906007020160010180549050905060006001826128aa91906155ba565b67ffffffffffffffff8111156128c3576128c2614713565b5b6040519080825280602002602001820160405280156128f15781602001602082028036833780820191505090505b509050600080600090505b838110156129b3573373ffffffffffffffffffffffffffffffffffffffff166003878154811061292f5761292e615120565b5b9060005260206000209060070201600101828154811061295257612951615120565b5b9060005260206000200160009054906101000a900473ffffffffffffffffffffffffffffffffffffffff1673ffffffffffffffffffffffffffffffffffffffff16146129a0578091506129b3565b80806129ab90615571565b9150506128fc565b600090505b83811015612b4f5781811015612a7857600386815481106129dc576129db615120565b5b906000526020600020906007020160010181815481106129ff576129fe615120565b5b9060005260206000200160009054906101000a900473ffffffffffffffffffffffffffffffffffffffff16838281518110612a3d57612a3c615120565b5b602002602001019073ffffffffffffffffffffffffffffffffffffffff16908173ffffffffffffffffffffffffffffffffffffffff16815250505b81811115612b3c5760038681548110612a9457612a93615120565b5b90600052602060002090600702016001018181548110612ab757612ab6615120565b5b9060005260206000200160009054906101000a900473ffffffffffffffffffffffffffffffffffffffff1683600183612af091906155ba565b81518110612b0157612b00615120565b5b602002602001019073ffffffffffffffffffffffffffffffffffffffff16908173ffffffffffffffffffffffffffffffffffffffff16815250505b8080612b4790615571565b9150506129b8565b8260038781548110612b6457612b63615120565b5b90600052602060002090600702016001019080519060200190612b889291906140a7565b506001945050505050919050565b6000612ba061426b565b60008080600091505b600160003373ffffffffffffffffffffffffffffffffffffffff1673ffffffffffffffffffffffffffffffffffffffff16815260200190815260200160002080549050821015612d035787600160003373ffffffffffffffffffffffffffffffffffffffff1673ffffffffffffffffffffffffffffffffffffffff1681526020019081526020016000208381548110612c4557612c44615120565b5b9060005260206000209060030201600001541415612cf057600160003373ffffffffffffffffffffffffffffffffffffffff1673ffffffffffffffffffffffffffffffffffffffff1681526020019081526020016000208281548110612cae57612cad615120565b5b90600052602060002090600302016040518060600160405290816000820154815260200160018201548152602001600282015481525050935060019250612d03565b8180612cfb90615571565b925050612ba9565b600015158315151415612d545760405180606001604052808981526020016000815260200160048a81548110612d3c57612d3b615120565b5b90600052602060002090600402016001015481525093505b600060048981548110612d6a57612d69615120565b5b90600052602060002090600402016002015460048a81548110612d9057612d8f615120565b5b906000526020600020906004020160030154612dac91906154af565b905080421115612e815760048981548110612dca57612dc9615120565b5b9060005260206000209060040201600101548560400181815250505b60048981548110612dfa57612df9615120565b5b90600052602060002090600402016002015481612e1791906154af565b421115612e565760048981548110612e3257612e31615120565b5b90600052602060002090600402016002015481612e4f91906154af565b9050612de6565b8060048a81548110612e6b57612e6a615120565b5b9060005260206000209060040201600301819055505b8685604001511015612ec8576040517f08c379a0000000000000000000000000000000000000000000000000000000008152600401612ebf906158c2565b60405180910390fd5b612ed061426b565b60008093505b600160008b73ffffffffffffffffffffffffffffffffffffffff1673ffffffffffffffffffffffffffffffffffffffff16815260200190815260200160002080549050841015613030578a600160008c73ffffffffffffffffffffffffffffffffffffffff1673ffffffffffffffffffffffffffffffffffffffff1681526020019081526020016000208581548110612f7257612f71615120565b5b906000526020600020906003020160000154141561301d57600160008b73ffffffffffffffffffffffffffffffffffffffff1673ffffffffffffffffffffffffffffffffffffffff1681526020019081526020016000208481548110612fdb57612fda615120565b5b90600052602060002090600302016040518060600160405290816000820154815260200160018201548152602001600282015481525050915060019050613030565b838061302890615571565b945050612ed6565b6000151581151514156130815760405180606001604052808c81526020016000815260200160048d8154811061306957613068615120565b5b90600052602060002090600402016001015481525091505b888760400181815161309391906155ba565b9150818152505088826020018181516130ac91906154af565b915081815250506001151586151514156131465786600160003373ffffffffffffffffffffffffffffffffffffffff1673ffffffffffffffffffffffffffffffffffffffff168152602001908152602001600020868154811061311257613111615120565b5b90600052602060002090600302016000820151816000015560208201518160010155604082015181600201559050506131ef565b600160003373ffffffffffffffffffffffffffffffffffffffff1673ffffffffffffffffffffffffffffffffffffffff16815260200190815260200160002060405180606001604052808d8152602001600081526020018960400151815250908060018154018082558091505060019003906000526020600020906003020160009091909190915060008201518160000155602082015181600101556040820151816002015550505b6001151581151514156132825781600160008c73ffffffffffffffffffffffffffffffffffffffff1673ffffffffffffffffffffffffffffffffffffffff168152602001908152602001600020858154811061324e5761324d615120565b5b906000526020600020906003020160008201518160000155602082015181600101556040820151816002015590505061334f565b600160008b73ffffffffffffffffffffffffffffffffffffffff1673ffffffffffffffffffffffffffffffffffffffff16815260200190815260200160002060405180606001604052808d81526020018460200151815260200160048e815481106132f0576132ef615120565b5b906000526020600020906004020160010154815250908060018154018082558091505060019003906000526020600020906003020160009091909190915060008201518160000155602082015181600101556040820151816002015550505b60019750505050505050509392505050565b600080600167ffffffffffffffff81111561337f5761337e614713565b5b6040519080825280602002602001820160405280156133ad5781602001602082028036833780820191505090505b50905033816000815181106133c5576133c4615120565b5b602002602001019073ffffffffffffffffffffffffffffffffffffffff16908173ffffffffffffffffffffffffffffffffffffffff16815250506060806000600590506000621275009050600061345f89898080601f016020809104026020016040519081016040528093929190818152602001838380828437600081840152601f19601f82011690508083019250505050505050613ecc565b905060006040518060e001604052808b8b8080601f016020809104026020016040519081016040528093929190818152602001838380828437600081840152601f19601f82011690508083019250505050505050815260200188815260200187815260200186815260200185815260200184815260200183815250905060038190806001815401808255809150506001900390600052602060002090600702016000909190919091506000820151816000019080519060200190613524929190614021565b5060208201518160010190805190602001906135419291906140a7565b50604082015181600201908051906020019061355e929190614131565b50606082015181600301908051906020019061357b929190614131565b506080820151816004015560a0820151816005015560c08201518160060190805190602001906135ac929190614021565b505050600060016003805490506135c391906155ba565b146135f45760006002836040516135da91906152b9565b908152602001604051809103902054146135f357600080fd5b5b600160038054905061360691906155ba565b60028360405161361691906152b9565b908152602001604051809103902081905550600197505050505050505092915050565b6136416142c4565b6004828154811061365557613654615120565b5b906000526020600020906004020160405180608001604052908160008201805461367e9061517e565b80601f01602080910402602001604051908101604052809291908181526020018280546136aa9061517e565b80156136f75780601f106136cc576101008083540402835291602001916136f7565b820191906000526020600020905b8154815290600101906020018083116136da57829003601f168201915b5050505050815260200160018201548152602001600282015481526020016003820154815250509050919050565b600082826000803373ffffffffffffffffffffffffffffffffffffffff1673ffffffffffffffffffffffffffffffffffffffff16815260200190815260200160002091906137749291906142ec565b506001905092915050565b60606000808373ffffffffffffffffffffffffffffffffffffffff1673ffffffffffffffffffffffffffffffffffffffff16815260200190815260200160002080546137ca9061517e565b80601f01602080910402602001604051908101604052809291908181526020018280546137f69061517e565b80156138435780601f1061381857610100808354040283529160200191613843565b820191906000526020600020905b81548152906001019060200180831161382657829003601f168201915b50505050509050919050565b6000806000905060005b6003858154811061386d5761386c615120565b5b90600052602060002090600702016001018054905081101561393a578373ffffffffffffffffffffffffffffffffffffffff16600386815481106138b4576138b3615120565b5b906000526020600020906007020160010182815481106138d7576138d6615120565b5b9060005260206000200160009054906101000a900473ffffffffffffffffffffffffffffffffffffffff1673ffffffffffffffffffffffffffffffffffffffff161415613927576001915061393a565b808061393290615571565b915050613859565b508091505092915050565b600080600090505b6003838154811061396157613960615120565b5b9060005260206000209060070201600201805490508110156139e357836003848154811061399257613991615120565b5b906000526020600020906007020160020182815481106139b5576139b4615120565b5b906000526020600020015414156139d05760019150506139e9565b80806139db90615571565b91505061394d565b50600090505b92915050565b60006139fb823361384f565b613a0457600080fd5b600a60038381548110613a1a57613a19615120565b5b90600052602060002090600702016004015460038481548110613a4057613a3f615120565b5b906000526020600020906007020160010180549050613a5f91906158e2565b613a69919061596b565b9050919050565b6000613a7c838361384f565b15613abc576040517f08c379a0000000000000000000000000000000000000000000000000000000008152600401613ab390615268565b60405180910390fd5b600060038481548110613ad257613ad1615120565b5b90600052602060002090600702016001018054905090506000600182613af891906154af565b67ffffffffffffffff811115613b1157613b10614713565b5b604051908082528060200260200182016040528015613b3f5781602001602082028036833780820191505090505b50905060005b82811015613c0f5760038681548110613b6157613b60615120565b5b90600052602060002090600702016001018181548110613b8457613b83615120565b5b9060005260206000200160009054906101000a900473ffffffffffffffffffffffffffffffffffffffff16828281518110613bc257613bc1615120565b5b602002602001019073ffffffffffffffffffffffffffffffffffffffff16908173ffffffffffffffffffffffffffffffffffffffff16815250508080613c0790615571565b915050613b45565b5083818381518110613c2457613c23615120565b5b602002602001019073ffffffffffffffffffffffffffffffffffffffff16908173ffffffffffffffffffffffffffffffffffffffff16815250508060038681548110613c7357613c72615120565b5b90600052602060002090600702016001019080519060200190613c979291906140a7565b5060019250505092915050565b6000613cb0823361384f565b613cef576040517f08c379a0000000000000000000000000000000000000000000000000000000008152600401613ce690615712565b60405180910390fd5b8215613dd157613cff8783613945565b613d3e576040517f08c379a0000000000000000000000000000000000000000000000000000000008152600401613d3590615460565b60405180910390fd5b8560048881548110613d5357613d52615120565b5b90600052602060002090600402016000019080519060200190613d77929190614021565b508460048881548110613d8d57613d8c615120565b5b9060005260206000209060040201600101819055508360048881548110613db757613db6615120565b5b906000526020600020906004020160020181905550613ebe565b600460405180608001604052808881526020018781526020018681526020014281525090806001815401808255809150506001900390600052602060002090600402016000909190919091506000820151816000019080519060200190613e39929190614021565b5060208201518160010155604082015181600201556060820151816003015550506000600480549050905060038381548110613e7857613e77615120565b5b9060005260206000209060070201600201600182613e9691906155ba565b9080600181540180825580915050600190039060005260206000200160009091909190915055505b600190509695505050505050565b60606000600f905060008167ffffffffffffffff811115613ef057613eef614713565b5b6040519080825280601f01601f191660200182016040528015613f225781602001600182028036833780820191505090505b50905060008190506000604051806060016040528060238152602001615a8e60239139905060005b600185613f5791906155ba565b8110156140145760008251424433878c604051602001613f7b959493929190615a05565b6040516020818303038152906040528051906020012060001c613f9e9190615a5c565b9050828181518110613fb357613fb2615120565b5b602001015160f81c60f81b848381518110613fd157613fd0615120565b5b60200101907effffffffffffffffffffffffffffffffffffffffffffffffffffffffffffff1916908160001a90535050808061400c90615571565b915050613f4a565b5081945050505050919050565b82805461402d9061517e565b90600052602060002090601f01602090048101928261404f5760008555614096565b82601f1061406857805160ff1916838001178555614096565b82800160010185558215614096579182015b8281111561409557825182559160200191906001019061407a565b5b5090506140a39190614372565b5090565b828054828255906000526020600020908101928215614120579160200282015b8281111561411f5782518260006101000a81548173ffffffffffffffffffffffffffffffffffffffff021916908373ffffffffffffffffffffffffffffffffffffffff160217905550916020019190600101906140c7565b5b50905061412d9190614372565b5090565b82805482825590600052602060002090810192821561416d579160200282015b8281111561416c578251825591602001919060010190614151565b5b50905061417a9190614372565b5090565b6040518060c0016040528060008152602001600073ffffffffffffffffffffffffffffffffffffffff1681526020016000815260200160001515815260200160008152602001600081525090565b6040518061012001604052806000815260200160008152602001606081526020016000815260200160008152602001600073ffffffffffffffffffffffffffffffffffffffff1681526020016000815260200160608152602001600081525090565b6040518060e00160405280606081526020016060815260200160608152602001606081526020016000815260200160008152602001606081525090565b60405180606001604052806000815260200160008152602001600081525090565b6040518060c0016040528060008152602001600081526020016000815260200160008152602001600081526020016000151581525090565b6040518060800160405280606081526020016000815260200160008152602001600081525090565b8280546142f89061517e565b90600052602060002090601f01602090048101928261431a5760008555614361565b82601f1061433357803560ff1916838001178555614361565b82800160010185558215614361579182015b82811115614360578235825591602001919060010190614345565b5b50905061436e9190614372565b5090565b5b8082111561438b576000816000905550600101614373565b5090565b6000604051905090565b600080fd5b600080fd5b6000819050919050565b6143b6816143a3565b81146143c157600080fd5b50565b6000813590506143d3816143ad565b92915050565b600080fd5b600080fd5b600080fd5b60008083601f8401126143fe576143fd6143d9565b5b8235905067ffffffffffffffff81111561441b5761441a6143de565b5b602083019150836001820283011115614437576144366143e3565b5b9250929050565b60008060006040848603121561445757614456614399565b5b6000614465868287016143c4565b935050602084013567ffffffffffffffff8111156144865761448561439e565b5b614492868287016143e8565b92509250509250925092565b600081519050919050565b600082825260208201905092915050565b60005b838110156144d85780820151818401526020810190506144bd565b838111156144e7576000848401525b50505050565b6000601f19601f8301169050919050565b60006145098261449e565b61451381856144a9565b93506145238185602086016144ba565b61452c816144ed565b840191505092915050565b6000602082019050818103600083015261455181846144fe565b905092915050565b600080604083850312156145705761456f614399565b5b600061457e858286016143c4565b925050602061458f858286016143c4565b9150509250929050565b60008115159050919050565b6145ae81614599565b82525050565b60006020820190506145c960008301846145a5565b92915050565b6000602082840312156145e5576145e4614399565b5b60006145f3848285016143c4565b91505092915050565b600081519050919050565b600082825260208201905092915050565b6000819050602082019050919050565b600073ffffffffffffffffffffffffffffffffffffffff82169050919050565b600061465382614628565b9050919050565b61466381614648565b82525050565b6000614675838361465a565b60208301905092915050565b6000602082019050919050565b6000614699826145fc565b6146a38185614607565b93506146ae83614618565b8060005b838110156146df5781516146c68882614669565b97506146d183614681565b9250506001810190506146b2565b5085935050505092915050565b60006020820190508181036000830152614706818461468e565b905092915050565b600080fd5b7f4e487b7100000000000000000000000000000000000000000000000000000000600052604160045260246000fd5b61474b826144ed565b810181811067ffffffffffffffff8211171561476a57614769614713565b5b80604052505050565b600061477d61438f565b90506147898282614742565b919050565b600067ffffffffffffffff8211156147a9576147a8614713565b5b6147b2826144ed565b9050602081019050919050565b82818337600083830152505050565b60006147e16147dc8461478e565b614773565b9050828152602081018484840111156147fd576147fc61470e565b5b6148088482856147bf565b509392505050565b600082601f830112614825576148246143d9565b5b81356148358482602086016147ce565b91505092915050565b60008060008060008060c0878903121561485b5761485a614399565b5b600061486989828a016143c4565b965050602087013567ffffffffffffffff81111561488a5761488961439e565b5b61489689828a01614810565b95505060406148a789828a016143c4565b94505060606148b889828a016143c4565b93505060806148c989828a016143c4565b92505060a06148da89828a016143c4565b9150509295509295509295565b600080602083850312156148fe576148fd614399565b5b600083013567ffffffffffffffff81111561491c5761491b61439e565b5b614928858286016143e8565b92509250509250929050565b61493d816143a3565b82525050565b60006020820190506149586000830184614934565b92915050565b600081519050919050565b600082825260208201905092915050565b6000819050602082019050919050565b614993816143a3565b82525050565b60006149a5838361498a565b60208301905092915050565b6000602082019050919050565b60006149c98261495e565b6149d38185614969565b93506149de8361497a565b8060005b83811015614a0f5781516149f68882614999565b9750614a01836149b1565b9250506001810190506149e2565b5085935050505092915050565b60006020820190508181036000830152614a3681846149be565b905092915050565b600081519050919050565b600082825260208201905092915050565b6000819050602082019050919050565b614a7381614599565b82525050565b60c082016000820151614a8f600085018261498a565b506020820151614aa2602085018261465a565b506040820151614ab5604085018261498a565b506060820151614ac86060850182614a6a565b506080820151614adb608085018261498a565b5060a0820151614aee60a085018261498a565b50505050565b6000614b008383614a79565b60c08301905092915050565b6000602082019050919050565b6000614b2482614a3e565b614b2e8185614a49565b9350614b3983614a5a565b8060005b83811015614b6a578151614b518882614af4565b9750614b5c83614b0c565b925050600181019050614b3d565b5085935050505092915050565b60006020820190508181036000830152614b918184614b19565b905092915050565b600080600060608486031215614bb257614bb1614399565b5b6000614bc0868287016143c4565b9350506020614bd1868287016143c4565b9250506040614be2868287016143c4565b9150509250925092565b600082825260208201905092915050565b6000614c088261449e565b614c128185614bec565b9350614c228185602086016144ba565b614c2b816144ed565b840191505092915050565b600082825260208201905092915050565b6000614c52826145fc565b614c5c8185614c36565b9350614c6783614618565b8060005b83811015614c98578151614c7f8882614669565b9750614c8a83614681565b925050600181019050614c6b565b5085935050505092915050565b600082825260208201905092915050565b6000614cc18261495e565b614ccb8185614ca5565b9350614cd68361497a565b8060005b83811015614d07578151614cee8882614999565b9750614cf9836149b1565b925050600181019050614cda565b5085935050505092915050565b600060e0830160008301518482036000860152614d318282614bfd565b91505060208301518482036020860152614d4b8282614c47565b91505060408301518482036040860152614d658282614cb6565b91505060608301518482036060860152614d7f8282614cb6565b9150506080830151614d94608086018261498a565b5060a0830151614da760a086018261498a565b5060c083015184820360c0860152614dbf8282614bfd565b9150508091505092915050565b60006020820190508181036000830152614de68184614d14565b905092915050565b600081519050919050565b600082825260208201905092915050565b6000819050602082019050919050565b60c082016000820151614e30600085018261498a565b506020820151614e43602085018261498a565b506040820151614e56604085018261498a565b506060820151614e69606085018261498a565b506080820151614e7c608085018261498a565b5060a0820151614e8f60a0850182614a6a565b50505050565b6000614ea18383614e1a565b60c08301905092915050565b6000602082019050919050565b6000614ec582614dee565b614ecf8185614df9565b9350614eda83614e0a565b8060005b83811015614f0b578151614ef28882614e95565b9750614efd83614ead565b925050600181019050614ede565b5085935050505092915050565b60006020820190508181036000830152614f328184614eba565b905092915050565b614f4381614648565b8114614f4e57600080fd5b50565b600081359050614f6081614f3a565b92915050565b600080600060608486031215614f7f57614f7e614399565b5b6000614f8d868287016143c4565b9350506020614f9e86828701614f51565b9250506040614faf868287016143c4565b9150509250925092565b60006080830160008301518482036000860152614fd68282614bfd565b9150506020830151614feb602086018261498a565b506040830151614ffe604086018261498a565b506060830151615011606086018261498a565b508091505092915050565b600060208201905081810360008301526150368184614fb9565b905092915050565b60006020828403121561505457615053614399565b5b600061506284828501614f51565b91505092915050565b600081905092915050565b6000615082838561506b565b935061508f8385846147bf565b82840190509392505050565b60006150a8828486615076565b91508190509392505050565b7f75736572206e6f7420617574686f72697a656400000000000000000000000000600082015250565b60006150ea6013836144a9565b91506150f5826150b4565b602082019050919050565b60006020820190508181036000830152615119816150dd565b9050919050565b7f4e487b7100000000000000000000000000000000000000000000000000000000600052603260045260246000fd5b7f4e487b7100000000000000000000000000000000000000000000000000000000600052602260045260246000fd5b6000600282049050600182168061519657607f821691505b602082108114156151aa576151a961514f565b5b50919050565b7f696e76616c69642071756f72756d000000000000000000000000000000000000600082015250565b60006151e6600e836144a9565b91506151f1826151b0565b602082019050919050565b60006020820190508181036000830152615215816151d9565b9050919050565b7f6d656d62657220616c72656164792070726573656e7421000000000000000000600082015250565b60006152526017836144a9565b915061525d8261521c565b602082019050919050565b6000602082019050818103600083015261528181615245565b9050919050565b60006152938261449e565b61529d818561506b565b93506152ad8185602086016144ba565b80840191505092915050565b60006152c58284615288565b915081905092915050565b7f6c696e6b206e6f7420617574686f72697a656400000000000000000000000000600082015250565b60006153066013836144a9565b9150615311826152d0565b602082019050919050565b60006020820190508181036000830152615335816152f9565b9050919050565b7f67726f7570206e6f7420617574686f72697a6564000000000000000000000000600082015250565b60006153726014836144a9565b915061537d8261533c565b602082019050919050565b600060208201905081810360008301526153a181615365565b9050919050565b7f6d656d626572206e6f7420616c6c6f7765642100000000000000000000000000600082015250565b60006153de6013836144a9565b91506153e9826153a8565b602082019050919050565b6000602082019050818103600083015261540d816153d1565b9050919050565b7f746f6b656e206e6f7420616c6c6f776564000000000000000000000000000000600082015250565b600061544a6011836144a9565b915061545582615414565b602082019050919050565b600060208201905081810360008301526154798161543d565b9050919050565b7f4e487b7100000000000000000000000000000000000000000000000000000000600052601160045260246000fd5b60006154ba826143a3565b91506154c5836143a3565b9250827fffffffffffffffffffffffffffffffffffffffffffffffffffffffffffffffff038211156154fa576154f9615480565b5b828201905092915050565b7f63616e64696461746520616c7265616479206164646564210000000000000000600082015250565b600061553b6018836144a9565b915061554682615505565b602082019050919050565b6000602082019050818103600083015261556a8161552e565b9050919050565b600061557c826143a3565b91507fffffffffffffffffffffffffffffffffffffffffffffffffffffffffffffffff8214156155af576155ae615480565b5b600182019050919050565b60006155c5826143a3565b91506155d0836143a3565b9250828210156155e3576155e2615480565b5b828203905092915050565b7f6d656d62657220616c72656164792070726573656e7400000000000000000000600082015250565b60006156246016836144a9565b915061562f826155ee565b602082019050919050565b6000602082019050818103600083015261565381615617565b9050919050565b7f63616e64696461746520616c72656164792070726573656e7400000000000000600082015250565b60006156906019836144a9565b915061569b8261565a565b602082019050919050565b600060208201905081810360008301526156bf81615683565b9050919050565b7f6d656d6265722063616e6e6f7420766f74652100000000000000000000000000600082015250565b60006156fc6013836144a9565b9150615707826156c6565b602082019050919050565b6000602082019050818103600083015261572b816156ef565b9050919050565b7f63616e64696461746520746f6b656e20646f65736e2774206578697374730000600082015250565b6000615768601e836144a9565b915061577382615732565b602082019050919050565b600060208201905081810360008301526157978161575b565b9050919050565b7f6164647265737320616c726561647920766f7465642100000000000000000000600082015250565b60006157d46016836144a9565b91506157df8261579e565b602082019050919050565b60006020820190508181036000830152615803816157c7565b9050919050565b7f6d656d626572206e6f7420696e2067726f757021000000000000000000000000600082015250565b60006158406014836144a9565b915061584b8261580a565b602082019050919050565b6000602082019050818103600083015261586f81615833565b9050919050565b7f6e6f6e2068616920616262617374616e7a6120746f6b656e0000000000000000600082015250565b60006158ac6018836144a9565b91506158b782615876565b602082019050919050565b600060208201905081810360008301526158db8161589f565b9050919050565b60006158ed826143a3565b91506158f8836143a3565b9250817fffffffffffffffffffffffffffffffffffffffffffffffffffffffffffffffff048311821515161561593157615930615480565b5b828202905092915050565b7f4e487b7100000000000000000000000000000000000000000000000000000000600052601260045260246000fd5b6000615976826143a3565b9150615981836143a3565b9250826159915761599061593c565b5b828204905092915050565b6000819050919050565b6159b76159b2826143a3565b61599c565b82525050565b60008160601b9050919050565b60006159d5826159bd565b9050919050565b60006159e7826159ca565b9050919050565b6159ff6159fa82614648565b6159dc565b82525050565b6000615a1182886159a6565b602082019150615a2182876159a6565b602082019150615a3182866159ee565b601482019150615a418285615288565b9150615a4d8284615288565b91508190509695505050505050565b6000615a67826143a3565b9150615a72836143a3565b925082615a8257615a8161593c565b5b82820690509291505056fe6162636465666768696a6b6c6d6e6f7071727374757678797a31323334353637383930a2646970667358221220e5dbc3cda3ce045c3d1be9e6fb53f4e00bf779ddcb17f7d30ca348b4fb0cdb8f64736f6c634300080b0033",
  "immutableReferences": {},
  "source": "// SPDX-License-Identifier: MIT\npragma solidity ^0.8.0;\n\n\ncontract KuoriciniDao {\n\n  struct DaoGroup {\n    string name;\n    address[] members;\n    uint[] tokenIds;\n    uint[] candidateIds;\n    uint voteThreshold;\n    uint voteDuration;\n    string invitationLink;\n  }\n  \n    /* CandType\n    0 : new address\n    1 : new token\n    2 : change existing token\n    3 : new quorum\n    */\n\n  struct Candidate {\n    uint id;\n    uint candType;\n    string name;\n    uint roundSupply;\n    uint roundDuration;\n    address candidateAddress;\n    uint votes;\n    address[] voters;\n    uint timestamp;\n  }\n\n  struct GToken {\n    string name;\n    uint roundSupply;\n    uint roundDuration;\n    uint timestamp;\n  }\n\n  struct UToken {\n    uint tokenId;\n    uint gTokenBalance;\n    uint xBalance;\n  }\n\n  mapping (address => string) names;\n  mapping (address => UToken[]) userTokens;\n  mapping (string => uint) invitationLinks;\n  DaoGroup[] daoGroups;\n  GToken[] allTokens;\n\n  // TODO : these two at least, have to become mappings, BUT REFACTOR QUITE\n  Candidate[] allCandidates;\n\n  constructor() {\n  }\n\n  function createGroup(string calldata _name) public returns(bool) {\n    address[] memory addr = new address[](1);\n    addr[0] = msg.sender;\n    uint[] memory defaultTokens;\n    uint[] memory defaultCandidates;\n    uint threshold = 5;\n    uint voteduration = 1209600; // 14 days\n    string memory invLink = generateInvitationLink(_name);\n    DaoGroup memory new_group = DaoGroup({ \n      name: _name, \n      members: addr, \n      tokenIds: defaultTokens, \n      candidateIds: defaultCandidates, \n      voteThreshold: threshold,\n      voteDuration: voteduration,\n      invitationLink: invLink\n    });\n    daoGroups.push(new_group);\n    // check invitation link doesn't exist already\n    if ( daoGroups.length-1 != 0 ) {\n      require ( invitationLinks[invLink] == 0 );\n    }\n    invitationLinks[invLink]=daoGroups.length-1;\n    return true;\n  }\n\n  function getGroup(uint _gid) public view returns(DaoGroup memory) {\n    return daoGroups[_gid];\n  }\n  \n  function checkInvitationLink(string calldata link) public view returns (uint) {    \n    uint groupInv =  invitationLinks[link];\n    require(!isAddressInGroup(groupInv, msg.sender), \"member already present\" );\n    uint l = daoGroups[groupInv].candidateIds.length;\n    uint[] memory candidateIds = new uint[](l+1);\n    for (uint i = 0; i < l; i++) {\n      candidateIds[i] = daoGroups[groupInv].candidateIds[i];\n      require ( allCandidates[candidateIds[i]].candidateAddress != msg.sender, \"candidate already present\" );\n    }    \n    return groupInv;\n  }\n\n  function generateInvitationLink(string memory name) private view returns (string memory) {\n      uint invLength = 15;\n      string memory newString = new string(invLength);\n      bytes memory finalString = bytes(newString);\n      bytes memory originString = \"abcdefghijklmnopqrstuvxyz1234567890\";\n      for (uint i=0; i< invLength-1; i++) {\n          uint r = uint(keccak256(abi.encodePacked(block.timestamp, block.difficulty, msg.sender, string(finalString), name))) % originString.length;\n          finalString[i] = originString[r];\n      }\n      return string(finalString);\n  }    \n\n  \n/*\n*   Tokens\n*\n*/\n\n  function getToken(uint _tokenid) public view returns(GToken memory) {\n    return allTokens[_tokenid];\n  }\n\n  function createGToken(uint tokid, string memory _name, uint _supply, uint _duration, bool present, uint _groupId) private returns(bool){\n    require(isAddressInGroup(_groupId, msg.sender), \"member cannot vote!\" );\n\n    if (present) {\n      require(isTokenInGroup(tokid, _groupId), \"token not allowed\");\n      allTokens[tokid].name = _name;\n      allTokens[tokid].roundSupply = _supply;\n      allTokens[tokid].roundDuration = _duration;\n    } \n    else {\n      allTokens.push(GToken({\n        name: _name,\n        roundSupply: _supply,\n        roundDuration: _duration,\n        timestamp: block.timestamp\n      }));\n      uint l = allTokens.length;\n      daoGroups[_groupId].tokenIds.push(l-1);\n    }\n    return true;\n  }\n\n\n// temporary struct to make the output more verbose\n\n  struct EToken {\n    uint tokenId;\n    uint gTokenBalance;\n    uint xBalance;\n    uint blocktimestamp;\n    uint newtime;\n    bool overtime;\n  }\n\n\n  function getUserTokens(uint gid) public view returns(EToken[] memory) {\n    require(isAddressInGroup(gid, msg.sender), \"user not authorized\"); \n\n\n    uint l = daoGroups[gid].tokenIds.length;\n    uint m = userTokens[msg.sender].length;\n    UToken[] memory utokens = new UToken[](l);\n    EToken[] memory etokens = new EToken[](l);\n\n    for ( uint w = 0; w < l; w++ ) { // all the tokens of this group \n      uint tokid = daoGroups[gid].tokenIds[w];\n      uint blts = 0;\n      bool overtime = false;\n      uint newtime = 0;\n      utokens[w] = UToken ({ tokenId: tokid, gTokenBalance: 0, xBalance: allTokens[tokid].roundSupply});\n      for ( uint j = 0; j < m; j++ ) { // all the tokens of this user\n        if (userTokens[msg.sender][j].tokenId == tokid) {\n          utokens[w].gTokenBalance = userTokens[msg.sender][j].gTokenBalance;\n          newtime = allTokens[tokid].timestamp + allTokens[tokid].roundDuration;\n          blts = block.timestamp; \n          if ( blts > newtime ) {\n            utokens[w].xBalance = allTokens[tokid].roundSupply;\n            overtime = true;\n          } \n          else {\n            utokens[w].xBalance = userTokens[msg.sender][j].xBalance;\n            overtime = false;\n          }\n        }\n      }\n      etokens[w].tokenId = utokens[w].tokenId;\n      etokens[w].gTokenBalance = utokens[w].gTokenBalance;\n      etokens[w].xBalance = utokens[w].xBalance;\n      etokens[w].blocktimestamp = blts;\n      etokens[w].newtime = newtime;\n      etokens[w].overtime = overtime;\n\n    }\n    return etokens;\n  }\n\n  function transferToken(uint _tokenId, address receiver, uint value) public returns(bool) {\n    UToken memory _tokSender;\n    bool matchFoundSender = false;\n    uint s;\n    uint r;\n    for (s = 0; s < userTokens[msg.sender].length ; s++) {\n      if (userTokens[msg.sender][s].tokenId == _tokenId) {\n        _tokSender = userTokens[msg.sender][s];\n        matchFoundSender = true;\n        break;\n      }\n    }\n    if (matchFoundSender == false){\n      _tokSender = UToken({ tokenId: _tokenId, gTokenBalance: 0, xBalance: allTokens[_tokenId].roundSupply});\n    }\n\n    uint newtimestamp = allTokens[_tokenId].timestamp + allTokens[_tokenId].roundDuration;\n    if (block.timestamp > newtimestamp ) {\n      _tokSender.xBalance = allTokens[_tokenId].roundSupply;\n\n      while ( block.timestamp > (newtimestamp + allTokens[_tokenId].roundDuration)) {\n        newtimestamp += allTokens[_tokenId].roundDuration;\n      }\n      \n      allTokens[_tokenId].timestamp=newtimestamp;\n    }\n    \n    require(_tokSender.xBalance >= value, \"non hai abbastanza token\");\n    UToken memory _tokReceiver;\n    bool matchFoundReceiver = false;\n    for ( r = 0; r < userTokens[receiver].length ; r++) {\n      if (userTokens[receiver][r].tokenId == _tokenId) {\n        _tokReceiver = userTokens[receiver][r];\n        matchFoundReceiver = true;\n        break;\n      }\n    }\n    if ( matchFoundReceiver == false){\n      _tokReceiver= UToken({ tokenId: _tokenId, gTokenBalance: 0, xBalance: allTokens[_tokenId].roundSupply});\n    }\n    _tokSender.xBalance -= value;\n    _tokReceiver.gTokenBalance += value;\n    if (matchFoundSender == true) {\n      userTokens[msg.sender][s] = _tokSender;\n    }\n    else {\n      userTokens[msg.sender].push( UToken({ tokenId: _tokenId, gTokenBalance: 0, xBalance: _tokSender.xBalance}));\n    }\n    if (matchFoundReceiver == true) {\n      userTokens[receiver][r] = _tokReceiver;\n    }\n    else {\n      userTokens[receiver].push( UToken({ tokenId: _tokenId, gTokenBalance: _tokReceiver.gTokenBalance, xBalance: allTokens[_tokenId].roundSupply}));\n    }\n    return true;\n  }\n\n\n\n  function isTokenInGroup(uint tokid, uint gid) private view returns(bool) {\n    for ( uint i = 0; i < daoGroups[gid].tokenIds.length; i++){\n      if ( daoGroups[gid].tokenIds[i] == tokid ){\n        return true;\n      }\n    }\n    return false;\n  }\n\n  \n // obsolete, to be removed. replaced by getToken. Remove it from one call from js  \n  function getGroupNamefromId(uint _id) public view returns(string memory) {\n    return daoGroups[_id].name;\n  }\n\n // obsolete, to be removed. replaced by getToken. Remove it from one call from js  \n  function getGroupAddressfromId(uint _id) public view returns(address[] memory) {\n    return daoGroups[_id].members;\n  }\n\n\n/*  \n*   Tokens Candidates\n*\n*/\n\n\n  // propose token change\n  function changeToken(uint val, string memory name, uint supply, uint duration, uint gid, uint candtype) public returns(bool) {\n\n    if ( candtype == 0 ) {\n      require(!isAddressInGroup(gid, msg.sender), \"member already present!\");\n      require( invitationLinks[name] == gid, \"link not authorized\" ); \n      require( gid != 0, \"group not authorized\" );\n    } else {\n      require(isAddressInGroup(gid, msg.sender), \"member not allowed!\");\n    }\n\n    // if token is marked as present make sure it really exists and belongs to the right group\n    if ( candtype == 2 ) {\n      require(isTokenInGroup(val, gid), \"token not allowed\");\n    }\n    if (candtype == 3) {\n      require(val <= 10, \"invalid quorum\");\n    }\n\n    uint l = daoGroups[gid].candidateIds.length;\n    uint[] memory candidateIds = new uint[](l+1);\n    \n    for (uint i = 0; i < l; i++) {\n      candidateIds[i] = daoGroups[gid].candidateIds[i];\n       if ( candtype == 0 ) {    \n        require(allCandidates[candidateIds[i]].candidateAddress != msg.sender, \"candidate already added!\");\n      }\n    }\n\n    // generate a new candidate\n    address[] memory vot = new address[](0);\n    allCandidates.push(Candidate({\n      id: val,\n      candType: candtype,\n      name: name,\n      roundSupply: supply,\n      roundDuration: duration,\n      candidateAddress: msg.sender,\n      votes: 0,\n      voters: vot,\n      timestamp: block.timestamp\n    }));\n\n    // update candidate list in the group\n    candidateIds[l] = allCandidates.length-1;\n    daoGroups[gid].candidateIds = candidateIds;\n\n    return true;\n\n  }\n\nfunction proposeQuorum(uint val, uint gid) public returns(bool) {\n  require(val <= 10, \"invalid quorum\");\n  changeToken(val, \"\", 0, 0, gid, 3);\n  return true; \n}\n\nstruct quorumProposal {\n  uint proposalId;\n  address proposer;\n  uint votes;\n  bool voted;\n  uint timestamp;\n  uint quorum;\n}\n\nfunction getQuorumProposals(uint gid) public view returns (quorumProposal[] memory) {\n  require(isAddressInGroup(gid, msg.sender), \"member not allowed!\" );\n  uint l = daoGroups[gid].candidateIds.length;\n  quorumProposal[] memory proposals = new quorumProposal[](l);\n  quorumProposal memory proposal;\n  Candidate memory candidate;\n  uint counter = 0;\n  for (uint i = 0; i < l; i++) {\n    uint c = daoGroups[gid].candidateIds[i];\n    candidate = allCandidates[c];\n    if (candidate.candType == 3) {\n      proposal.proposalId = allCandidates[c].id;\n      proposal.proposer = allCandidates[c].candidateAddress;\n      proposal.votes = allCandidates[c].votes;\n      proposal.voted = false;\n      for (uint q=0; q < allCandidates[c].voters.length ; q++ ) {\n        if ( allCandidates[c].voters[q] == msg.sender) {\n          proposal.voted = true;\n        }\n      }\n      proposal.timestamp = allCandidates[c].timestamp;\n      proposal.quorum = allCandidates[c].id;\n      proposals[counter] = proposal;\n      counter++;\n    }\n  }\n  return proposals;\n}\n\n\n  // get candidate tokens of a group\n  /*\n  function getGroupCandidates(uint gid) public view returns(Candidate[] memory) {\n    require(isAddressInGroup(gid, msg.sender), \"member not allowed!\" );\n    uint l = daoGroups[gid].candidateIds.length;\n    Candidate[] memory candidates = new Candidate[](l);\n    for (uint i = 0; i < l; i++) {\n      uint c = daoGroups[gid].candidateIds[i];\n      candidates[i] = allCandidates[c];\n    }\n    return candidates;\n  }\n*/\n  // vote candidate token and eventually promote the change if quorum is passed\n  function voteCandidate(uint gid, uint candTokId, uint vote) public returns(bool) {\n    require(isAddressInGroup(gid, msg.sender), \"member cannot vote!\" );\n\n    // find candidate\n    Candidate memory candidate;\n    // check it exists in the group\n    uint l = daoGroups[gid].candidateIds.length;\n    bool candidateFound = false; \n    for (uint i = 0; i < l; i++) {\n      if (daoGroups[gid].candidateIds[i] == candTokId) {\n        candidate = allCandidates[candTokId];\n        candidateFound = true;\n        break;\n      }\n    }\n    require(candidateFound, \"candidate token doesn't exists\");\n\n    // add voter (this would be the same if we merge)\n    uint m = candidate.voters.length;\n    address[] memory v = new address[](m+1);\n    for (uint i = 0; i < m; i++) {\n      require(candidate.voters[i] != msg.sender, \"address already voted!\");\n      v[i]=candidate.voters[i];\n    }\n    v[m]=msg.sender;\n    candidate.voters=v;\n\n    // assign vote   \n    if (vote > 0) {\n      candidate.votes += 1;\n    }\n    \n    // write on chain\n    allCandidates[candTokId] = candidate;\n\n    // check if candidate win\n    uint quorum = getQuorum(gid);\n    if ( candidate.votes > quorum ) {\n      if ( candidate.candType == 0 ) {\n        addAddresstoGroup(gid, candidate.candidateAddress);\n      }       \n      if ( ( candidate.candType == 1 ) || ( candidate.candType == 2 ) ) {\n        createGToken(candidate.id, candidate.name, candidate.roundSupply, candidate.roundDuration, (candidate.candType == 2), gid);\n      }\n      if ( candidate.candType == 3 ) {\n        daoGroups[gid].voteThreshold = candidate.id;  \n      } \n\n      // remove element from candidates array\n      uint[] memory newCandidateIds = new uint[](l-1);\n      uint index;\n      uint k;\n      for (k = 0; k < l; k++) {\n        if ( daoGroups[gid].candidateIds[k] == candTokId ) {\n          index = k;\n          break;\n        }\n      }\n      for (k = 0; k < l; k++) {\n        if ( k < index) {\n          newCandidateIds[k] = daoGroups[gid].candidateIds[k];\n        }\n        if ( k > index) {\n          newCandidateIds[k-1] = daoGroups[gid].candidateIds[k];\n        }\n      }\n      \n      daoGroups[gid].candidateIds = newCandidateIds;\n\n    }\n\n    return true;\n  }\n\n  function getQuorum(uint gid) private view returns(uint) {\n    require(isAddressInGroup(gid, msg.sender));\n    return daoGroups[gid].members.length * daoGroups[gid].voteThreshold / 10 ;\n  }\n\n/*\n*\n*   Group Members\n*/\n\n  function addAddresstoGroup(uint gid, address addr) private returns(bool) {\n    require(!isAddressInGroup(gid, addr), \"member already present!\" );\n    uint l = daoGroups[gid].members.length;\n    address[] memory members = new address[](l+1);\n    for (uint i = 0; i < l; i++) {\n      members[i] = daoGroups[gid].members[i];\n    }\n    members[l] = addr;\n    daoGroups[gid].members = members;\n    return true;\n  }\n\n  function removeMeFromGroup(uint gid) public returns(bool) {\n    require(isAddressInGroup(gid, msg.sender), \"member not in group!\" );\n\n    uint l = daoGroups[gid].members.length;\n    address[] memory members = new address[](l-1);\n    uint index;\n    uint k;\n    for (k = 0; k < l; k++) {\n      if ( daoGroups[gid].members[k] != msg.sender ) {\n        index = k;\n        break;\n      }\n    }\n    for (k = 0; k < l; k++) {\n      if ( k < index) {\n        members[k] = daoGroups[gid].members[k];\n      }\n      if ( k > index) {\n        members[k-1] = daoGroups[gid].members[k];\n      }\n    }\n    daoGroups[gid].members = members;\n    return true;\n  }\n\n\n\n  function isAddressInGroup(uint gid, address addr) private view returns(bool) {\n    bool exists = false;\n    for (uint i = 0; i < daoGroups[gid].members.length; i++) {\n      if( daoGroups[gid].members[i] == addr ) {\n        exists=true;\n        break;\n      }\n    }\n    return exists;\n  }\n\n  function myGroups() public view returns(uint[] memory) {\n    uint lg = daoGroups.length;\n    uint[] memory mygroups;\n    for (uint i = 0; i < lg; i++) {\n      uint lm = daoGroups[i].members.length;\n      for (uint q = 0; q < lm; q++) {\n        if(daoGroups[i].members[q] == msg.sender) {\n          uint gl = mygroups.length;\n          uint[] memory groups = new uint[](gl+1);\n          for (uint w = 0; w < gl; w++) {\n            groups[w] = mygroups[w];\n          }\n          groups[gl] = i;\n          mygroups = groups;\n        }\n      }\n    }\n    return mygroups;\n  }\n\n  function groupNameByInvitation(uint gid, string calldata invitation) public view returns(string memory){\n    require( invitationLinks[invitation] == gid, \"user not authorized\" ); \n    return daoGroups[gid].name;\n  }\n  \n  // names are public\n  function nameOf(address owner) public view returns(string memory) {\n    return names[owner];\n  }\n\n  function nameSet(string calldata name) public returns(bool) {\n    names[msg.sender]=name;\n    return true;\n  }\n\n\n}\n",
  "sourcePath": "/home/fabian/kuoricinidao/contracts/polygon/KuoriciniDao.sol",
  "compiler": {
    "name": "solc",
    "version": "0.8.11+commit.d7f03943.Emscripten.clang"
  },
  "schemaVersion": "3.4.5",
  "updatedAt": "2022-07-25T18:30:49.831Z",
  "networkType": "ethereum",
  "devdoc": {
    "kind": "dev",
    "methods": {},
    "version": 1
  },
  "userdoc": {
    "kind": "user",
    "methods": {},
    "version": 1
  }
}