{
  "contractName": "KuoriciniDao",
  "abi": [
    {
      "inputs": [],
      "stateMutability": "nonpayable",
      "type": "constructor"
    },
    {
      "inputs": [
        {
          "internalType": "string",
          "name": "_name",
          "type": "string"
        }
      ],
      "name": "createGroup",
      "outputs": [
        {
          "internalType": "bool",
          "name": "",
          "type": "bool"
        }
      ],
      "stateMutability": "nonpayable",
      "type": "function"
    },
    {
      "inputs": [
        {
          "internalType": "uint256",
          "name": "_gid",
          "type": "uint256"
        }
      ],
      "name": "getGroup",
      "outputs": [
        {
          "components": [
            {
              "internalType": "string",
              "name": "name",
              "type": "string"
            },
            {
              "internalType": "address[]",
              "name": "members",
              "type": "address[]"
            },
            {
              "internalType": "uint256[]",
              "name": "tokenIds",
              "type": "uint256[]"
            },
            {
              "internalType": "uint256[]",
              "name": "candidatesIds",
              "type": "uint256[]"
            },
            {
              "internalType": "uint256[]",
              "name": "candidateTokenIds",
              "type": "uint256[]"
            },
            {
              "internalType": "uint256",
              "name": "voteThreshold",
              "type": "uint256"
            },
            {
              "internalType": "string",
              "name": "invitationLink",
              "type": "string"
            }
          ],
          "internalType": "struct KuoriciniDao.DaoGroup",
          "name": "",
          "type": "tuple"
        }
      ],
      "stateMutability": "view",
      "type": "function",
      "constant": true
    },
    {
      "inputs": [
        {
          "internalType": "string",
          "name": "link",
          "type": "string"
        }
      ],
      "name": "checkInvitationLink",
      "outputs": [
        {
          "internalType": "uint256",
          "name": "",
          "type": "uint256"
        }
      ],
      "stateMutability": "view",
      "type": "function",
      "constant": true
    },
    {
      "inputs": [
        {
          "internalType": "uint256",
          "name": "_tokenid",
          "type": "uint256"
        }
      ],
      "name": "getToken",
      "outputs": [
        {
          "components": [
            {
              "internalType": "string",
              "name": "name",
              "type": "string"
            },
            {
              "internalType": "uint256",
              "name": "roundSupply",
              "type": "uint256"
            },
            {
              "internalType": "uint256",
              "name": "roundDuration",
              "type": "uint256"
            },
            {
              "internalType": "uint256",
              "name": "timestamp",
              "type": "uint256"
            }
          ],
          "internalType": "struct KuoriciniDao.GToken",
          "name": "",
          "type": "tuple"
        }
      ],
      "stateMutability": "view",
      "type": "function",
      "constant": true
    },
    {
      "inputs": [
        {
          "internalType": "uint256",
          "name": "_gid",
          "type": "uint256"
        }
      ],
      "name": "getUserTokens",
      "outputs": [
        {
          "components": [
            {
              "internalType": "uint256",
              "name": "tokenId",
              "type": "uint256"
            },
            {
              "internalType": "uint256",
              "name": "gTokenBalance",
              "type": "uint256"
            },
            {
              "internalType": "uint256",
              "name": "xBalance",
              "type": "uint256"
            }
          ],
          "internalType": "struct KuoriciniDao.UToken[]",
          "name": "",
          "type": "tuple[]"
        }
      ],
      "stateMutability": "view",
      "type": "function",
      "constant": true
    },
    {
      "inputs": [
        {
          "internalType": "uint256",
          "name": "_tokenId",
          "type": "uint256"
        },
        {
          "internalType": "address",
          "name": "receiver",
          "type": "address"
        },
        {
          "internalType": "uint256",
          "name": "value",
          "type": "uint256"
        }
      ],
      "name": "transferToken",
      "outputs": [
        {
          "internalType": "bool",
          "name": "",
          "type": "bool"
        }
      ],
      "stateMutability": "nonpayable",
      "type": "function"
    },
    {
      "inputs": [
        {
          "internalType": "uint256",
          "name": "_id",
          "type": "uint256"
        }
      ],
      "name": "getGroupNamefromId",
      "outputs": [
        {
          "internalType": "string",
          "name": "",
          "type": "string"
        }
      ],
      "stateMutability": "view",
      "type": "function",
      "constant": true
    },
    {
      "inputs": [
        {
          "internalType": "uint256",
          "name": "_id",
          "type": "uint256"
        }
      ],
      "name": "getGroupAddressfromId",
      "outputs": [
        {
          "internalType": "address[]",
          "name": "",
          "type": "address[]"
        }
      ],
      "stateMutability": "view",
      "type": "function",
      "constant": true
    },
    {
      "inputs": [
        {
          "internalType": "uint256",
          "name": "val",
          "type": "uint256"
        },
        {
          "internalType": "string",
          "name": "name",
          "type": "string"
        },
        {
          "internalType": "uint256",
          "name": "supply",
          "type": "uint256"
        },
        {
          "internalType": "uint256",
          "name": "duration",
          "type": "uint256"
        },
        {
          "internalType": "uint256",
          "name": "gid",
          "type": "uint256"
        },
        {
          "internalType": "uint256",
          "name": "candtype",
          "type": "uint256"
        }
      ],
      "name": "changeToken",
      "outputs": [
        {
          "internalType": "bool",
          "name": "",
          "type": "bool"
        }
      ],
      "stateMutability": "nonpayable",
      "type": "function"
    },
    {
      "inputs": [
        {
          "internalType": "uint256",
          "name": "gid",
          "type": "uint256"
        }
      ],
      "name": "getGroupCandidateTokens",
      "outputs": [
        {
          "components": [
            {
              "internalType": "uint256",
              "name": "id",
              "type": "uint256"
            },
            {
              "internalType": "uint256",
              "name": "candType",
              "type": "uint256"
            },
            {
              "internalType": "string",
              "name": "name",
              "type": "string"
            },
            {
              "internalType": "uint256",
              "name": "roundSupply",
              "type": "uint256"
            },
            {
              "internalType": "uint256",
              "name": "roundDuration",
              "type": "uint256"
            },
            {
              "internalType": "address",
              "name": "candidateAddress",
              "type": "address"
            },
            {
              "internalType": "uint256",
              "name": "votes",
              "type": "uint256"
            },
            {
              "internalType": "address[]",
              "name": "voters",
              "type": "address[]"
            }
          ],
          "internalType": "struct KuoriciniDao.CandidateToken[]",
          "name": "",
          "type": "tuple[]"
        }
      ],
      "stateMutability": "view",
      "type": "function",
      "constant": true
    },
    {
      "inputs": [
        {
          "internalType": "uint256",
          "name": "gid",
          "type": "uint256"
        },
        {
          "internalType": "uint256",
          "name": "candTokId",
          "type": "uint256"
        },
        {
          "internalType": "uint256",
          "name": "vote",
          "type": "uint256"
        }
      ],
      "name": "voteCandidateToken",
      "outputs": [
        {
          "internalType": "bool",
          "name": "",
          "type": "bool"
        }
      ],
      "stateMutability": "nonpayable",
      "type": "function"
    },
    {
      "inputs": [
        {
          "internalType": "uint256",
          "name": "gid",
          "type": "uint256"
        }
      ],
      "name": "removeMeFromGroup",
      "outputs": [
        {
          "internalType": "bool",
          "name": "",
          "type": "bool"
        }
      ],
      "stateMutability": "nonpayable",
      "type": "function"
    },
    {
      "inputs": [],
      "name": "myGroups",
      "outputs": [
        {
          "internalType": "uint256[]",
          "name": "",
          "type": "uint256[]"
        }
      ],
      "stateMutability": "view",
      "type": "function",
      "constant": true
    },
    {
      "inputs": [
        {
          "internalType": "uint256",
          "name": "gid",
          "type": "uint256"
        },
        {
          "internalType": "string",
          "name": "invitation",
          "type": "string"
        }
      ],
      "name": "groupNameByInvitation",
      "outputs": [
        {
          "internalType": "string",
          "name": "",
          "type": "string"
        }
      ],
      "stateMutability": "view",
      "type": "function",
      "constant": true
    },
    {
      "inputs": [
        {
          "internalType": "address",
          "name": "owner",
          "type": "address"
        }
      ],
      "name": "nameOf",
      "outputs": [
        {
          "internalType": "string",
          "name": "",
          "type": "string"
        }
      ],
      "stateMutability": "view",
      "type": "function",
      "constant": true
    },
    {
      "inputs": [
        {
          "internalType": "string",
          "name": "name",
          "type": "string"
        }
      ],
      "name": "nameSet",
      "outputs": [
        {
          "internalType": "bool",
          "name": "",
          "type": "bool"
        }
      ],
      "stateMutability": "nonpayable",
      "type": "function"
    }
  ],
  "bytecode": "0x608060405234801561001057600080fd5b50615462806100206000396000f3fe608060405234801561001057600080fd5b50600436106101005760003560e01c8063d550323511610097578063edeefa3111610066578063edeefa3114610333578063f053d8b414610363578063f5c5738214610393578063fea7413c146103c357610100565b8063d550323514610273578063dbb5313f146102a3578063dc2ddcae146102d3578063e4b50cb81461030357610100565b806395449f2b116100d357806395449f2b146101c5578063c3f93437146101f5578063ceb6065414610213578063d17bd40b1461024357610100565b806301fa665514610105578063558f8f0414610135578063837d8cec14610165578063857af37b14610195575b600080fd5b61011f600480360381019061011a9190613ed8565b6103f3565b60405161012c9190613fd1565b60405180910390f35b61014f600480360381019061014a9190613ff3565b61050e565b60405161015c9190614110565b60405180910390f35b61017f600480360381019061017a9190614132565b6105c1565b60405161018c91906141fc565b60405180910390f35b6101af60048036038101906101aa9190613ff3565b610bc8565b6040516101bc9190613fd1565b60405180910390f35b6101df60048036038101906101da9190614217565b610c7f565b6040516101ec9190614273565b60405180910390f35b6101fd610ecf565b60405161020a919061434c565b60405180910390f35b61022d60048036038101906102289190613ff3565b6110c4565b60405161023a9190614555565b60405180910390f35b61025d60048036038101906102589190613ff3565b6113c4565b60405161026a9190614668565b60405180910390f35b61028d60048036038101906102889190613ff3565b611757565b60405161029a91906141fc565b60405180910390f35b6102bd60048036038101906102b891906146b6565b611aca565b6040516102ca91906141fc565b60405180910390f35b6102ed60048036038101906102e89190614217565b6122a7565b6040516102fa91906141fc565b60405180910390f35b61031d60048036038101906103189190613ff3565b61258c565b60405161032a919061476c565b60405180910390f35b61034d60048036038101906103489190614217565b612678565b60405161035a91906141fc565b60405180910390f35b61037d60048036038101906103789190613ff3565b6126d2565b60405161038a9190614907565b60405180910390f35b6103ad60048036038101906103a89190614929565b612a06565b6040516103ba9190613fd1565b60405180910390f35b6103dd60048036038101906103d89190614956565b612ad6565b6040516103ea91906141fc565b60405180910390f35b606083600284846040516104089291906149e8565b90815260200160405180910390205414610457576040517f08c379a000000000000000000000000000000000000000000000000000000000815260040161044e90614a4d565b60405180910390fd5b6003848154811061046b5761046a614a6d565b5b9060005260206000209060070201600001805461048790614acb565b80601f01602080910402602001604051908101604052809291908181526020018280546104b390614acb565b80156105005780601f106104d557610100808354040283529160200191610500565b820191906000526020600020905b8154815290600101906020018083116104e357829003601f168201915b505050505090509392505050565b60606003828154811061052457610523614a6d565b5b90600052602060002090600702016001018054806020026020016040519081016040528092919081815260200182805480156105b557602002820191906000526020600020905b8160009054906101000a900473ffffffffffffffffffffffffffffffffffffffff1673ffffffffffffffffffffffffffffffffffffffff168152602001906001019080831161056b575b50505050509050919050565b6000808214156106c0576105d58333613380565b15610615576040517f08c379a000000000000000000000000000000000000000000000000000000000815260040161060c90614b49565b60405180910390fd5b82600288886040516106289291906149e8565b90815260200160405180910390205414610677576040517f08c379a000000000000000000000000000000000000000000000000000000000815260040161066e90614bb5565b60405180910390fd5b60008314156106bb576040517f08c379a00000000000000000000000000000000000000000000000000000000081526004016106b290614c21565b60405180910390fd5b61070a565b6106ca8333613380565b610709576040517f08c379a000000000000000000000000000000000000000000000000000000000815260040161070090614c8d565b60405180910390fd5b5b600282141561075d5761071d8884613476565b61075c576040517f08c379a000000000000000000000000000000000000000000000000000000000815260040161075390614cf9565b60405180910390fd5b5b60038214156107ab57600a8811156107aa576040517f08c379a00000000000000000000000000000000000000000000000000000000081526004016107a190614d65565b60405180910390fd5b5b6000600384815481106107c1576107c0614a6d565b5b906000526020600020906007020160040180549050905060006001826107e79190614db4565b67ffffffffffffffff811115610800576107ff614e0a565b5b60405190808252806020026020018201604052801561082e5781602001602082028036833780820191505090505b50905060005b8281101561098857600386815481106108505761084f614a6d565b5b9060005260206000209060070201600401818154811061087357610872614a6d565b5b906000526020600020015482828151811061089157610890614a6d565b5b6020026020010181815250506000851415610975573373ffffffffffffffffffffffffffffffffffffffff1660068383815181106108d2576108d1614a6d565b5b6020026020010151815481106108eb576108ea614a6d565b5b906000526020600020906008020160050160009054906101000a900473ffffffffffffffffffffffffffffffffffffffff1673ffffffffffffffffffffffffffffffffffffffff161415610974576040517f08c379a000000000000000000000000000000000000000000000000000000000815260040161096b90614e85565b60405180910390fd5b5b808061098090614ea5565b915050610834565b5060008067ffffffffffffffff8111156109a5576109a4614e0a565b5b6040519080825280602002602001820160405280156109d35781602001602082028036833780820191505090505b50905060066040518061010001604052808d81526020018781526020018c8c8080601f016020809104026020016040519081016040528093929190818152602001838380828437600081840152601f19601f8201169050808301925050505050505081526020018a81526020018981526020013373ffffffffffffffffffffffffffffffffffffffff1681526020016000815260200183815250908060018154018082558091505060019003906000526020600020906008020160009091909190915060008201518160000155602082015181600101556040820151816002019080519060200190610ac6929190613b52565b50606082015181600301556080820151816004015560a08201518160050160006101000a81548173ffffffffffffffffffffffffffffffffffffffff021916908373ffffffffffffffffffffffffffffffffffffffff16021790555060c0820151816006015560e0820151816007019080519060200190610b48929190613bd8565b5050506001600680549050610b5d9190614eee565b828481518110610b7057610b6f614a6d565b5b6020026020010181815250508160038781548110610b9157610b90614a6d565b5b90600052602060002090600702016004019080519060200190610bb5929190613c62565b5060019350505050979650505050505050565b606060038281548110610bde57610bdd614a6d565b5b90600052602060002090600702016000018054610bfa90614acb565b80601f0160208091040260200160405190810160405280929190818152602001828054610c2690614acb565b8015610c735780601f10610c4857610100808354040283529160200191610c73565b820191906000526020600020905b815481529060010190602001808311610c5657829003601f168201915b50505050509050919050565b60008060028484604051610c949291906149e8565b9081526020016040518091039020549050610caf8133613380565b15610cef576040517f08c379a0000000000000000000000000000000000000000000000000000000008152600401610ce690614f6e565b60405180910390fd5b600060038281548110610d0557610d04614a6d565b5b90600052602060002090600702016004018054905090506000600182610d2b9190614db4565b67ffffffffffffffff811115610d4457610d43614e0a565b5b604051908082528060200260200182016040528015610d725781602001602082028036833780820191505090505b50905060005b82811015610ec25760038481548110610d9457610d93614a6d565b5b90600052602060002090600702016004018181548110610db757610db6614a6d565b5b9060005260206000200154828281518110610dd557610dd4614a6d565b5b6020026020010181815250503373ffffffffffffffffffffffffffffffffffffffff166006838381518110610e0d57610e0c614a6d565b5b602002602001015181548110610e2657610e25614a6d565b5b906000526020600020906008020160050160009054906101000a900473ffffffffffffffffffffffffffffffffffffffff1673ffffffffffffffffffffffffffffffffffffffff161415610eaf576040517f08c379a0000000000000000000000000000000000000000000000000000000008152600401610ea690614fda565b60405180910390fd5b8080610eba90614ea5565b915050610d78565b5082935050505092915050565b606060006003805490509050606060005b828110156110bb57600060038281548110610efe57610efd614a6d565b5b906000526020600020906007020160010180549050905060005b818110156110a6573373ffffffffffffffffffffffffffffffffffffffff1660038481548110610f4b57610f4a614a6d565b5b90600052602060002090600702016001018281548110610f6e57610f6d614a6d565b5b9060005260206000200160009054906101000a900473ffffffffffffffffffffffffffffffffffffffff1673ffffffffffffffffffffffffffffffffffffffff161415611093576000845190506000600182610fca9190614db4565b67ffffffffffffffff811115610fe357610fe2614e0a565b5b6040519080825280602002602001820160405280156110115781602001602082028036833780820191505090505b50905060005b8281101561106c5786818151811061103257611031614a6d565b5b602002602001015182828151811061104d5761104c614a6d565b5b602002602001018181525050808061106490614ea5565b915050611017565b508481838151811061108157611080614a6d565b5b60200260200101818152505080955050505b808061109e90614ea5565b915050610f18565b505080806110b390614ea5565b915050610ee0565b50809250505090565b6110cc613caf565b600382815481106110e0576110df614a6d565b5b90600052602060002090600702016040518060e001604052908160008201805461110990614acb565b80601f016020809104026020016040519081016040528092919081815260200182805461113590614acb565b80156111825780601f1061115757610100808354040283529160200191611182565b820191906000526020600020905b81548152906001019060200180831161116557829003601f168201915b505050505081526020016001820180548060200260200160405190810160405280929190818152602001828054801561121057602002820191906000526020600020905b8160009054906101000a900473ffffffffffffffffffffffffffffffffffffffff1673ffffffffffffffffffffffffffffffffffffffff16815260200190600101908083116111c6575b505050505081526020016002820180548060200260200160405190810160405280929190818152602001828054801561126857602002820191906000526020600020905b815481526020019060010190808311611254575b50505050508152602001600382018054806020026020016040519081016040528092919081815260200182805480156112c057602002820191906000526020600020905b8154815260200190600101908083116112ac575b505050505081526020016004820180548060200260200160405190810160405280929190818152602001828054801561131857602002820191906000526020600020905b815481526020019060010190808311611304575b505050505081526020016005820154815260200160068201805461133b90614acb565b80601f016020809104026020016040519081016040528092919081815260200182805461136790614acb565b80156113b45780601f10611389576101008083540402835291602001916113b4565b820191906000526020600020905b81548152906001019060200180831161139757829003601f168201915b5050505050815250509050919050565b60606000600383815481106113dc576113db614a6d565b5b906000526020600020906007020160020180549050905060008167ffffffffffffffff81111561140f5761140e614e0a565b5b60405190808252806020026020018201604052801561144857816020015b611435613cec565b81526020019060019003908161142d5790505b50905060005b8281101561174c5760006003868154811061146c5761146b614a6d565b5b9060005260206000209060070201600201828154811061148f5761148e614a6d565b5b906000526020600020015490506000600160003373ffffffffffffffffffffffffffffffffffffffff1673ffffffffffffffffffffffffffffffffffffffff1681526020019081526020016000208054905090506000805b828110156116c85783600160003373ffffffffffffffffffffffffffffffffffffffff1673ffffffffffffffffffffffffffffffffffffffff168152602001908152602001600020828154811061154157611540614a6d565b5b90600052602060002090600302016000015414156116b557600160003373ffffffffffffffffffffffffffffffffffffffff1673ffffffffffffffffffffffffffffffffffffffff16815260200190815260200160002081815481106115aa576115a9614a6d565b5b906000526020600020906003020160405180606001604052908160008201548152602001600182015481526020016002820154815250508686815181106115f4576115f3614a6d565b5b602002602001018190525060006004858154811061161557611614614a6d565b5b9060005260206000209060040201600201546004868154811061163b5761163a614a6d565b5b9060005260206000209060040201600301546116579190614db4565b9050804211156116ab576004858154811061167557611674614a6d565b5b90600052602060002090600402016001015487878151811061169a57611699614a6d565b5b602002602001015160400181815250505b60019250506116c8565b80806116c090614ea5565b9150506114e7565b50600015158115151415611736576040518060600160405280848152602001600081526020016004858154811061170257611701614a6d565b5b90600052602060002090600402016001015481525085858151811061172a57611729614a6d565b5b60200260200101819052505b505050808061174490614ea5565b91505061144e565b508092505050919050565b60006117638233613380565b6117a2576040517f08c379a000000000000000000000000000000000000000000000000000000000815260040161179990615046565b60405180910390fd5b6000600383815481106117b8576117b7614a6d565b5b906000526020600020906007020160010180549050905060006001826117de9190614eee565b67ffffffffffffffff8111156117f7576117f6614e0a565b5b6040519080825280602002602001820160405280156118255781602001602082028036833780820191505090505b509050600080600090505b838110156118e7573373ffffffffffffffffffffffffffffffffffffffff166003878154811061186357611862614a6d565b5b9060005260206000209060070201600101828154811061188657611885614a6d565b5b9060005260206000200160009054906101000a900473ffffffffffffffffffffffffffffffffffffffff1673ffffffffffffffffffffffffffffffffffffffff16146118d4578091506118e7565b80806118df90614ea5565b915050611830565b600090505b83811015611a8357818110156119ac57600386815481106119105761190f614a6d565b5b9060005260206000209060070201600101818154811061193357611932614a6d565b5b9060005260206000200160009054906101000a900473ffffffffffffffffffffffffffffffffffffffff1683828151811061197157611970614a6d565b5b602002602001019073ffffffffffffffffffffffffffffffffffffffff16908173ffffffffffffffffffffffffffffffffffffffff16815250505b81811115611a7057600386815481106119c8576119c7614a6d565b5b906000526020600020906007020160010181815481106119eb576119ea614a6d565b5b9060005260206000200160009054906101000a900473ffffffffffffffffffffffffffffffffffffffff1683600183611a249190614eee565b81518110611a3557611a34614a6d565b5b602002602001019073ffffffffffffffffffffffffffffffffffffffff16908173ffffffffffffffffffffffffffffffffffffffff16815250505b8080611a7b90614ea5565b9150506118ec565b8260038781548110611a9857611a97614a6d565b5b90600052602060002090600702016001019080519060200190611abc929190613bd8565b506001945050505050919050565b6000611ad4613cec565b60008080600091505b600160003373ffffffffffffffffffffffffffffffffffffffff1673ffffffffffffffffffffffffffffffffffffffff16815260200190815260200160002080549050821015611c375787600160003373ffffffffffffffffffffffffffffffffffffffff1673ffffffffffffffffffffffffffffffffffffffff1681526020019081526020016000208381548110611b7957611b78614a6d565b5b9060005260206000209060030201600001541415611c2457600160003373ffffffffffffffffffffffffffffffffffffffff1673ffffffffffffffffffffffffffffffffffffffff1681526020019081526020016000208281548110611be257611be1614a6d565b5b90600052602060002090600302016040518060600160405290816000820154815260200160018201548152602001600282015481525050935060019250611c37565b8180611c2f90614ea5565b925050611add565b600015158315151415611c885760405180606001604052808981526020016000815260200160048a81548110611c7057611c6f614a6d565b5b90600052602060002090600402016001015481525093505b600160048981548110611c9e57611c9d614a6d565b5b906000526020600020906004020160020154611cba9190615066565b60048981548110611cce57611ccd614a6d565b5b906000526020600020906004020160030154611cea9190614db4565b421115611dc85760048881548110611d0557611d04614a6d565b5b906000526020600020906004020160010154846040018181525050600060048981548110611d3657611d35614a6d565b5b906000526020600020906004020160030154905060005b42821015611d9b5760048a81548110611d6957611d68614a6d565b5b90600052602060002090600402016002015482611d869190614db4565b91508080611d9390614ea5565b915050611d4d565b508060048a81548110611db157611db0614a6d565b5b906000526020600020906004020160030181905550505b8584604001511015611e0f576040517f08c379a0000000000000000000000000000000000000000000000000000000008152600401611e069061510c565b60405180910390fd5b611e17613cec565b60008092505b600160008a73ffffffffffffffffffffffffffffffffffffffff1673ffffffffffffffffffffffffffffffffffffffff16815260200190815260200160002080549050831015611f775789600160008b73ffffffffffffffffffffffffffffffffffffffff1673ffffffffffffffffffffffffffffffffffffffff1681526020019081526020016000208481548110611eb957611eb8614a6d565b5b9060005260206000209060030201600001541415611f6457600160008a73ffffffffffffffffffffffffffffffffffffffff1673ffffffffffffffffffffffffffffffffffffffff1681526020019081526020016000208381548110611f2257611f21614a6d565b5b90600052602060002090600302016040518060600160405290816000820154815260200160018201548152602001600282015481525050915060019050611f77565b8280611f6f90614ea5565b935050611e1d565b600015158115151415611fc85760405180606001604052808b81526020016000815260200160048c81548110611fb057611faf614a6d565b5b90600052602060002090600402016001015481525091505b8786604001818151611fda9190614eee565b915081815250508782602001818151611ff39190614db4565b9150818152505060011515851515141561208d5785600160003373ffffffffffffffffffffffffffffffffffffffff1673ffffffffffffffffffffffffffffffffffffffff168152602001908152602001600020858154811061205957612058614a6d565b5b9060005260206000209060030201600082015181600001556020820151816001015560408201518160020155905050612136565b600160003373ffffffffffffffffffffffffffffffffffffffff1673ffffffffffffffffffffffffffffffffffffffff16815260200190815260200160002060405180606001604052808c8152602001600081526020018860400151815250908060018154018082558091505060019003906000526020600020906003020160009091909190915060008201518160000155602082015181600101556040820151816002015550505b6001151581151514156121c95781600160008b73ffffffffffffffffffffffffffffffffffffffff1673ffffffffffffffffffffffffffffffffffffffff168152602001908152602001600020848154811061219557612194614a6d565b5b9060005260206000209060030201600082015181600001556020820151816001015560408201518160020155905050612296565b600160008a73ffffffffffffffffffffffffffffffffffffffff1673ffffffffffffffffffffffffffffffffffffffff16815260200190815260200160002060405180606001604052808c81526020018460200151815260200160048d8154811061223757612236614a6d565b5b906000526020600020906004020160010154815250908060018154018082558091505060019003906000526020600020906003020160009091909190915060008201518160000155602082015181600101556040820151816002015550505b600196505050505050509392505050565b600080600167ffffffffffffffff8111156122c5576122c4614e0a565b5b6040519080825280602002602001820160405280156122f35781602001602082028036833780820191505090505b509050338160008151811061230b5761230a614a6d565b5b602002602001019073ffffffffffffffffffffffffffffffffffffffff16908173ffffffffffffffffffffffffffffffffffffffff16815250506060806060600060059050600061239f89898080601f016020809104026020016040519081016040528093929190818152602001838380828437600081840152601f19601f82011690508083019250505050505050613520565b905060006040518060e001604052808b8b8080601f016020809104026020016040519081016040528093929190818152602001838380828437600081840152601f19601f82011690508083019250505050505050815260200188815260200187815260200186815260200185815260200184815260200183815250905060038190806001815401808255809150506001900390600052602060002090600702016000909190919091506000820151816000019080519060200190612464929190613b52565b506020820151816001019080519060200190612481929190613bd8565b50604082015181600201908051906020019061249e929190613c62565b5060608201518160030190805190602001906124bb929190613c62565b5060808201518160040190805190602001906124d8929190613c62565b5060a0820151816005015560c08201518160060190805190602001906124ff929190613b52565b505050600060016003805490506125169190614eee565b1461254757600060028360405161252d919061515d565b9081526020016040518091039020541461254657600080fd5b5b60016003805490506125599190614eee565b600283604051612569919061515d565b908152602001604051809103902081905550600197505050505050505092915050565b612594613d0d565b600482815481106125a8576125a7614a6d565b5b90600052602060002090600402016040518060800160405290816000820180546125d190614acb565b80601f01602080910402602001604051908101604052809291908181526020018280546125fd90614acb565b801561264a5780601f1061261f5761010080835404028352916020019161264a565b820191906000526020600020905b81548152906001019060200180831161262d57829003601f168201915b5050505050815260200160018201548152602001600282015481526020016003820154815250509050919050565b600082826000803373ffffffffffffffffffffffffffffffffffffffff1673ffffffffffffffffffffffffffffffffffffffff16815260200190815260200160002091906126c7929190613d35565b506001905092915050565b60606126de8233613380565b61271d576040517f08c379a000000000000000000000000000000000000000000000000000000000815260040161271490614c8d565b60405180910390fd5b60006003838154811061273357612732614a6d565b5b906000526020600020906007020160040180549050905060008167ffffffffffffffff81111561276657612765614e0a565b5b60405190808252806020026020018201604052801561279f57816020015b61278c613dbb565b8152602001906001900390816127845790505b50905060005b828110156129fb576000600386815481106127c3576127c2614a6d565b5b906000526020600020906007020160040182815481106127e6576127e5614a6d565b5b906000526020600020015490506006818154811061280757612806614a6d565b5b906000526020600020906008020160405180610100016040529081600082015481526020016001820154815260200160028201805461284590614acb565b80601f016020809104026020016040519081016040528092919081815260200182805461287190614acb565b80156128be5780601f10612893576101008083540402835291602001916128be565b820191906000526020600020905b8154815290600101906020018083116128a157829003601f168201915b5050505050815260200160038201548152602001600482015481526020016005820160009054906101000a900473ffffffffffffffffffffffffffffffffffffffff1673ffffffffffffffffffffffffffffffffffffffff1673ffffffffffffffffffffffffffffffffffffffff16815260200160068201548152602001600782018054806020026020016040519081016040528092919081815260200182805480156129c057602002820191906000526020600020905b8160009054906101000a900473ffffffffffffffffffffffffffffffffffffffff1673ffffffffffffffffffffffffffffffffffffffff1681526020019060010190808311612976575b5050505050815250508383815181106129dc576129db614a6d565b5b60200260200101819052505080806129f390614ea5565b9150506127a5565b508092505050919050565b60606000808373ffffffffffffffffffffffffffffffffffffffff1673ffffffffffffffffffffffffffffffffffffffff1681526020019081526020016000208054612a5190614acb565b80601f0160208091040260200160405190810160405280929190818152602001828054612a7d90614acb565b8015612aca5780601f10612a9f57610100808354040283529160200191612aca565b820191906000526020600020905b815481529060010190602001808311612aad57829003601f168201915b50505050509050919050565b6000612ae28433613380565b612b21576040517f08c379a0000000000000000000000000000000000000000000000000000000008152600401612b18906151c0565b60405180910390fd5b612b29613dbb565b600060038681548110612b3f57612b3e614a6d565b5b90600052602060002090600702016004018054905090506000805b82811015612d9f578660038981548110612b7757612b76614a6d565b5b90600052602060002090600702016004018281548110612b9a57612b99614a6d565b5b90600052602060002001541415612d8c5760068781548110612bbf57612bbe614a6d565b5b9060005260206000209060080201604051806101000160405290816000820154815260200160018201548152602001600282018054612bfd90614acb565b80601f0160208091040260200160405190810160405280929190818152602001828054612c2990614acb565b8015612c765780601f10612c4b57610100808354040283529160200191612c76565b820191906000526020600020905b815481529060010190602001808311612c5957829003601f168201915b5050505050815260200160038201548152602001600482015481526020016005820160009054906101000a900473ffffffffffffffffffffffffffffffffffffffff1673ffffffffffffffffffffffffffffffffffffffff1673ffffffffffffffffffffffffffffffffffffffff1681526020016006820154815260200160078201805480602002602001604051908101604052809291908181526020018280548015612d7857602002820191906000526020600020905b8160009054906101000a900473ffffffffffffffffffffffffffffffffffffffff1673ffffffffffffffffffffffffffffffffffffffff1681526020019060010190808311612d2e575b505050505081525050935060019150612d9f565b8080612d9790614ea5565b915050612b5a565b5080612de0576040517f08c379a0000000000000000000000000000000000000000000000000000000008152600401612dd79061522c565b60405180910390fd5b60008360e001515190506000600182612df99190614db4565b67ffffffffffffffff811115612e1257612e11614e0a565b5b604051908082528060200260200182016040528015612e405781602001602082028036833780820191505090505b50905060005b82811015612f5a573373ffffffffffffffffffffffffffffffffffffffff168660e001518281518110612e7c57612e7b614a6d565b5b602002602001015173ffffffffffffffffffffffffffffffffffffffff161415612edb576040517f08c379a0000000000000000000000000000000000000000000000000000000008152600401612ed290615298565b60405180910390fd5b8560e001518181518110612ef257612ef1614a6d565b5b6020026020010151828281518110612f0d57612f0c614a6d565b5b602002602001019073ffffffffffffffffffffffffffffffffffffffff16908173ffffffffffffffffffffffffffffffffffffffff16815250508080612f5290614ea5565b915050612e46565b5033818381518110612f6f57612f6e614a6d565b5b602002602001019073ffffffffffffffffffffffffffffffffffffffff16908173ffffffffffffffffffffffffffffffffffffffff1681525050808560e001819052506000871115612fd65760018560c001818151612fce9190614db4565b915081815250505b8460068981548110612feb57612fea614a6d565b5b906000526020600020906008020160008201518160000155602082015181600101556040820151816002019080519060200190613029929190613b52565b50606082015181600301556080820151816004015560a08201518160050160006101000a81548173ffffffffffffffffffffffffffffffffffffffff021916908373ffffffffffffffffffffffffffffffffffffffff16021790555060c0820151816006015560e08201518160070190805190602001906130ab929190613bd8565b5090505060006130ba8a613675565b9050808660c00151111561336f576000866020015114156130e5576130e38a8760a001516136f6565b505b6001866020015114806130fc575060028660200151145b1561312857613126866000015187604001518860600151896080015160028b60200151148f61392a565b505b60038660200151141561316457856000015160038b8154811061314e5761314d614a6d565b5b9060005260206000209060070201600501819055505b60006001866131739190614eee565b67ffffffffffffffff81111561318c5761318b614e0a565b5b6040519080825280602002602001820160405280156131ba5781602001602082028036833780820191505090505b509050600080600090505b87811015613231578b60038e815481106131e2576131e1614a6d565b5b9060005260206000209060070201600401828154811061320557613204614a6d565b5b9060005260206000200154141561321e57809150613231565b808061322990614ea5565b9150506131c5565b600090505b8781101561333157818110156132a85760038d8154811061325a57613259614a6d565b5b9060005260206000209060070201600401818154811061327d5761327c614a6d565b5b906000526020600020015483828151811061329b5761329a614a6d565b5b6020026020010181815250505b8181111561331e5760038d815481106132c4576132c3614a6d565b5b906000526020600020906007020160040181815481106132e7576132e6614a6d565b5b9060005260206000200154836001836133009190614eee565b8151811061331157613310614a6d565b5b6020026020010181815250505b808061332990614ea5565b915050613236565b8260038e8154811061334657613345614a6d565b5b9060005260206000209060070201600401908051906020019061336a929190613c62565b505050505b600196505050505050509392505050565b6000806000905060005b6003858154811061339e5761339d614a6d565b5b90600052602060002090600702016001018054905081101561346b578373ffffffffffffffffffffffffffffffffffffffff16600386815481106133e5576133e4614a6d565b5b9060005260206000209060070201600101828154811061340857613407614a6d565b5b9060005260206000200160009054906101000a900473ffffffffffffffffffffffffffffffffffffffff1673ffffffffffffffffffffffffffffffffffffffff161415613458576001915061346b565b808061346390614ea5565b91505061338a565b508091505092915050565b600080600090505b6003838154811061349257613491614a6d565b5b9060005260206000209060070201600201805490508110156135145783600384815481106134c3576134c2614a6d565b5b906000526020600020906007020160020182815481106134e6576134e5614a6d565b5b9060005260206000200154141561350157600191505061351a565b808061350c90614ea5565b91505061347e565b50600090505b92915050565b60606000600f905060008167ffffffffffffffff81111561354457613543614e0a565b5b6040519080825280601f01601f1916602001820160405280156135765781602001600182028036833780820191505090505b5090506000819050600060405180606001604052806023815260200161540a60239139905060005b6001856135ab9190614eee565b8110156136685760008251424433878c6040516020016135cf959493929190615321565b6040516020818303038152906040528051906020012060001c6135f291906153a7565b905082818151811061360757613606614a6d565b5b602001015160f81c60f81b84838151811061362557613624614a6d565b5b60200101907effffffffffffffffffffffffffffffffffffffffffffffffffffffffffffff1916908160001a90535050808061366090614ea5565b91505061359e565b5081945050505050919050565b60006136818233613380565b61368a57600080fd5b600a600383815481106136a05761369f614a6d565b5b906000526020600020906007020160050154600384815481106136c6576136c5614a6d565b5b9060005260206000209060070201600101805490506136e59190615066565b6136ef91906153d8565b9050919050565b60006137028383613380565b15613742576040517f08c379a000000000000000000000000000000000000000000000000000000000815260040161373990614b49565b60405180910390fd5b60006003848154811061375857613757614a6d565b5b9060005260206000209060070201600101805490509050600060018261377e9190614db4565b67ffffffffffffffff81111561379757613796614e0a565b5b6040519080825280602002602001820160405280156137c55781602001602082028036833780820191505090505b50905060005b8281101561389557600386815481106137e7576137e6614a6d565b5b9060005260206000209060070201600101818154811061380a57613809614a6d565b5b9060005260206000200160009054906101000a900473ffffffffffffffffffffffffffffffffffffffff1682828151811061384857613847614a6d565b5b602002602001019073ffffffffffffffffffffffffffffffffffffffff16908173ffffffffffffffffffffffffffffffffffffffff1681525050808061388d90614ea5565b9150506137cb565b50838183815181106138aa576138a9614a6d565b5b602002602001019073ffffffffffffffffffffffffffffffffffffffff16908173ffffffffffffffffffffffffffffffffffffffff168152505080600386815481106138f9576138f8614a6d565b5b9060005260206000209060070201600101908051906020019061391d929190613bd8565b5060019250505092915050565b60006139368233613380565b613975576040517f08c379a000000000000000000000000000000000000000000000000000000000815260040161396c906151c0565b60405180910390fd5b8215613a57576139858783613476565b6139c4576040517f08c379a00000000000000000000000000000000000000000000000000000000081526004016139bb90614cf9565b60405180910390fd5b85600488815481106139d9576139d8614a6d565b5b906000526020600020906004020160000190805190602001906139fd929190613b52565b508460048881548110613a1357613a12614a6d565b5b9060005260206000209060040201600101819055508360048881548110613a3d57613a3c614a6d565b5b906000526020600020906004020160020181905550613b44565b600460405180608001604052808881526020018781526020018681526020014281525090806001815401808255809150506001900390600052602060002090600402016000909190919091506000820151816000019080519060200190613abf929190613b52565b5060208201518160010155604082015181600201556060820151816003015550506000600480549050905060038381548110613afe57613afd614a6d565b5b9060005260206000209060070201600201600182613b1c9190614eee565b9080600181540180825580915050600190039060005260206000200160009091909190915055505b600190509695505050505050565b828054613b5e90614acb565b90600052602060002090601f016020900481019282613b805760008555613bc7565b82601f10613b9957805160ff1916838001178555613bc7565b82800160010185558215613bc7579182015b82811115613bc6578251825591602001919060010190613bab565b5b509050613bd49190613e16565b5090565b828054828255906000526020600020908101928215613c51579160200282015b82811115613c505782518260006101000a81548173ffffffffffffffffffffffffffffffffffffffff021916908373ffffffffffffffffffffffffffffffffffffffff16021790555091602001919060010190613bf8565b5b509050613c5e9190613e16565b5090565b828054828255906000526020600020908101928215613c9e579160200282015b82811115613c9d578251825591602001919060010190613c82565b5b509050613cab9190613e16565b5090565b6040518060e00160405280606081526020016060815260200160608152602001606081526020016060815260200160008152602001606081525090565b60405180606001604052806000815260200160008152602001600081525090565b6040518060800160405280606081526020016000815260200160008152602001600081525090565b828054613d4190614acb565b90600052602060002090601f016020900481019282613d635760008555613daa565b82601f10613d7c57803560ff1916838001178555613daa565b82800160010185558215613daa579182015b82811115613da9578235825591602001919060010190613d8e565b5b509050613db79190613e16565b5090565b6040518061010001604052806000815260200160008152602001606081526020016000815260200160008152602001600073ffffffffffffffffffffffffffffffffffffffff16815260200160008152602001606081525090565b5b80821115613e2f576000816000905550600101613e17565b5090565b600080fd5b600080fd5b6000819050919050565b613e5081613e3d565b8114613e5b57600080fd5b50565b600081359050613e6d81613e47565b92915050565b600080fd5b600080fd5b600080fd5b60008083601f840112613e9857613e97613e73565b5b8235905067ffffffffffffffff811115613eb557613eb4613e78565b5b602083019150836001820283011115613ed157613ed0613e7d565b5b9250929050565b600080600060408486031215613ef157613ef0613e33565b5b6000613eff86828701613e5e565b935050602084013567ffffffffffffffff811115613f2057613f1f613e38565b5b613f2c86828701613e82565b92509250509250925092565b600081519050919050565b600082825260208201905092915050565b60005b83811015613f72578082015181840152602081019050613f57565b83811115613f81576000848401525b50505050565b6000601f19601f8301169050919050565b6000613fa382613f38565b613fad8185613f43565b9350613fbd818560208601613f54565b613fc681613f87565b840191505092915050565b60006020820190508181036000830152613feb8184613f98565b905092915050565b60006020828403121561400957614008613e33565b5b600061401784828501613e5e565b91505092915050565b600081519050919050565b600082825260208201905092915050565b6000819050602082019050919050565b600073ffffffffffffffffffffffffffffffffffffffff82169050919050565b60006140778261404c565b9050919050565b6140878161406c565b82525050565b6000614099838361407e565b60208301905092915050565b6000602082019050919050565b60006140bd82614020565b6140c7818561402b565b93506140d28361403c565b8060005b838110156141035781516140ea888261408d565b97506140f5836140a5565b9250506001810190506140d6565b5085935050505092915050565b6000602082019050818103600083015261412a81846140b2565b905092915050565b600080600080600080600060c0888a03121561415157614150613e33565b5b600061415f8a828b01613e5e565b975050602088013567ffffffffffffffff8111156141805761417f613e38565b5b61418c8a828b01613e82565b9650965050604061419f8a828b01613e5e565b94505060606141b08a828b01613e5e565b93505060806141c18a828b01613e5e565b92505060a06141d28a828b01613e5e565b91505092959891949750929550565b60008115159050919050565b6141f6816141e1565b82525050565b600060208201905061421160008301846141ed565b92915050565b6000806020838503121561422e5761422d613e33565b5b600083013567ffffffffffffffff81111561424c5761424b613e38565b5b61425885828601613e82565b92509250509250929050565b61426d81613e3d565b82525050565b60006020820190506142886000830184614264565b92915050565b600081519050919050565b600082825260208201905092915050565b6000819050602082019050919050565b6142c381613e3d565b82525050565b60006142d583836142ba565b60208301905092915050565b6000602082019050919050565b60006142f98261428e565b6143038185614299565b935061430e836142aa565b8060005b8381101561433f57815161432688826142c9565b9750614331836142e1565b925050600181019050614312565b5085935050505092915050565b6000602082019050818103600083015261436681846142ee565b905092915050565b600082825260208201905092915050565b600061438a82613f38565b614394818561436e565b93506143a4818560208601613f54565b6143ad81613f87565b840191505092915050565b600082825260208201905092915050565b60006143d482614020565b6143de81856143b8565b93506143e98361403c565b8060005b8381101561441a578151614401888261408d565b975061440c836140a5565b9250506001810190506143ed565b5085935050505092915050565b600082825260208201905092915050565b60006144438261428e565b61444d8185614427565b9350614458836142aa565b8060005b8381101561448957815161447088826142c9565b975061447b836142e1565b92505060018101905061445c565b5085935050505092915050565b600060e08301600083015184820360008601526144b3828261437f565b915050602083015184820360208601526144cd82826143c9565b915050604083015184820360408601526144e78282614438565b915050606083015184820360608601526145018282614438565b9150506080830151848203608086015261451b8282614438565b91505060a083015161453060a08601826142ba565b5060c083015184820360c0860152614548828261437f565b9150508091505092915050565b6000602082019050818103600083015261456f8184614496565b905092915050565b600081519050919050565b600082825260208201905092915050565b6000819050602082019050919050565b6060820160008201516145b960008501826142ba565b5060208201516145cc60208501826142ba565b5060408201516145df60408501826142ba565b50505050565b60006145f183836145a3565b60608301905092915050565b6000602082019050919050565b600061461582614577565b61461f8185614582565b935061462a83614593565b8060005b8381101561465b57815161464288826145e5565b975061464d836145fd565b92505060018101905061462e565b5085935050505092915050565b60006020820190508181036000830152614682818461460a565b905092915050565b6146938161406c565b811461469e57600080fd5b50565b6000813590506146b08161468a565b92915050565b6000806000606084860312156146cf576146ce613e33565b5b60006146dd86828701613e5e565b93505060206146ee868287016146a1565b92505060406146ff86828701613e5e565b9150509250925092565b60006080830160008301518482036000860152614726828261437f565b915050602083015161473b60208601826142ba565b50604083015161474e60408601826142ba565b50606083015161476160608601826142ba565b508091505092915050565b600060208201905081810360008301526147868184614709565b905092915050565b600081519050919050565b600082825260208201905092915050565b6000819050602082019050919050565b6000610100830160008301516147d360008601826142ba565b5060208301516147e660208601826142ba565b50604083015184820360408601526147fe828261437f565b915050606083015161481360608601826142ba565b50608083015161482660808601826142ba565b5060a083015161483960a086018261407e565b5060c083015161484c60c08601826142ba565b5060e083015184820360e086015261486482826143c9565b9150508091505092915050565b600061487d83836147ba565b905092915050565b6000602082019050919050565b600061489d8261478e565b6148a78185614799565b9350836020820285016148b9856147aa565b8060005b858110156148f557848403895281516148d68582614871565b94506148e183614885565b925060208a019950506001810190506148bd565b50829750879550505050505092915050565b600060208201905081810360008301526149218184614892565b905092915050565b60006020828403121561493f5761493e613e33565b5b600061494d848285016146a1565b91505092915050565b60008060006060848603121561496f5761496e613e33565b5b600061497d86828701613e5e565b935050602061498e86828701613e5e565b925050604061499f86828701613e5e565b9150509250925092565b600081905092915050565b82818337600083830152505050565b60006149cf83856149a9565b93506149dc8385846149b4565b82840190509392505050565b60006149f58284866149c3565b91508190509392505050565b7f75736572206e6f7420617574686f72697a656400000000000000000000000000600082015250565b6000614a37601383613f43565b9150614a4282614a01565b602082019050919050565b60006020820190508181036000830152614a6681614a2a565b9050919050565b7f4e487b7100000000000000000000000000000000000000000000000000000000600052603260045260246000fd5b7f4e487b7100000000000000000000000000000000000000000000000000000000600052602260045260246000fd5b60006002820490506001821680614ae357607f821691505b60208210811415614af757614af6614a9c565b5b50919050565b7f6d656d62657220616c72656164792070726573656e7421000000000000000000600082015250565b6000614b33601783613f43565b9150614b3e82614afd565b602082019050919050565b60006020820190508181036000830152614b6281614b26565b9050919050565b7f6c696e6b206e6f7420617574686f72697a656400000000000000000000000000600082015250565b6000614b9f601383613f43565b9150614baa82614b69565b602082019050919050565b60006020820190508181036000830152614bce81614b92565b9050919050565b7f67726f7570206e6f7420617574686f72697a6564000000000000000000000000600082015250565b6000614c0b601483613f43565b9150614c1682614bd5565b602082019050919050565b60006020820190508181036000830152614c3a81614bfe565b9050919050565b7f6d656d626572206e6f7420616c6c6f7765642100000000000000000000000000600082015250565b6000614c77601383613f43565b9150614c8282614c41565b602082019050919050565b60006020820190508181036000830152614ca681614c6a565b9050919050565b7f746f6b656e206e6f7420616c6c6f776564000000000000000000000000000000600082015250565b6000614ce3601183613f43565b9150614cee82614cad565b602082019050919050565b60006020820190508181036000830152614d1281614cd6565b9050919050565b7f696e76616c69642071756f72756d000000000000000000000000000000000000600082015250565b6000614d4f600e83613f43565b9150614d5a82614d19565b602082019050919050565b60006020820190508181036000830152614d7e81614d42565b9050919050565b7f4e487b7100000000000000000000000000000000000000000000000000000000600052601160045260246000fd5b6000614dbf82613e3d565b9150614dca83613e3d565b9250827fffffffffffffffffffffffffffffffffffffffffffffffffffffffffffffffff03821115614dff57614dfe614d85565b5b828201905092915050565b7f4e487b7100000000000000000000000000000000000000000000000000000000600052604160045260246000fd5b7f63616e64696461746520616c7265616479206164646564210000000000000000600082015250565b6000614e6f601883613f43565b9150614e7a82614e39565b602082019050919050565b60006020820190508181036000830152614e9e81614e62565b9050919050565b6000614eb082613e3d565b91507fffffffffffffffffffffffffffffffffffffffffffffffffffffffffffffffff821415614ee357614ee2614d85565b5b600182019050919050565b6000614ef982613e3d565b9150614f0483613e3d565b925082821015614f1757614f16614d85565b5b828203905092915050565b7f6d656d62657220616c72656164792070726573656e7400000000000000000000600082015250565b6000614f58601683613f43565b9150614f6382614f22565b602082019050919050565b60006020820190508181036000830152614f8781614f4b565b9050919050565b7f63616e64696461746520616c72656164792070726573656e7400000000000000600082015250565b6000614fc4601983613f43565b9150614fcf82614f8e565b602082019050919050565b60006020820190508181036000830152614ff381614fb7565b9050919050565b7f6d656d626572206e6f7420696e2067726f757021000000000000000000000000600082015250565b6000615030601483613f43565b915061503b82614ffa565b602082019050919050565b6000602082019050818103600083015261505f81615023565b9050919050565b600061507182613e3d565b915061507c83613e3d565b9250817fffffffffffffffffffffffffffffffffffffffffffffffffffffffffffffffff04831182151516156150b5576150b4614d85565b5b828202905092915050565b7f6e6f6e2068616920616262617374616e7a6120746f6b656e0000000000000000600082015250565b60006150f6601883613f43565b9150615101826150c0565b602082019050919050565b60006020820190508181036000830152615125816150e9565b9050919050565b600061513782613f38565b61514181856149a9565b9350615151818560208601613f54565b80840191505092915050565b6000615169828461512c565b915081905092915050565b7f6d656d6265722063616e6e6f7420766f74652100000000000000000000000000600082015250565b60006151aa601383613f43565b91506151b582615174565b602082019050919050565b600060208201905081810360008301526151d98161519d565b9050919050565b7f63616e64696461746520746f6b656e20646f65736e2774206578697374730000600082015250565b6000615216601e83613f43565b9150615221826151e0565b602082019050919050565b6000602082019050818103600083015261524581615209565b9050919050565b7f6164647265737320616c726561647920766f7465642100000000000000000000600082015250565b6000615282601683613f43565b915061528d8261524c565b602082019050919050565b600060208201905081810360008301526152b181615275565b9050919050565b6000819050919050565b6152d36152ce82613e3d565b6152b8565b82525050565b60008160601b9050919050565b60006152f1826152d9565b9050919050565b6000615303826152e6565b9050919050565b61531b6153168261406c565b6152f8565b82525050565b600061532d82886152c2565b60208201915061533d82876152c2565b60208201915061534d828661530a565b60148201915061535d828561512c565b9150615369828461512c565b91508190509695505050505050565b7f4e487b7100000000000000000000000000000000000000000000000000000000600052601260045260246000fd5b60006153b282613e3d565b91506153bd83613e3d565b9250826153cd576153cc615378565b5b828206905092915050565b60006153e382613e3d565b91506153ee83613e3d565b9250826153fe576153fd615378565b5b82820490509291505056fe6162636465666768696a6b6c6d6e6f7071727374757678797a31323334353637383930a2646970667358221220eed9b3993719be491a9a8fa13f821c92c995060b5581d5336346014dfece7a5b64736f6c634300080b0033",
  "immutableReferences": {},
  "source": "// SPDX-License-Identifier: MIT\npragma solidity ^0.8.0;\n\n\ncontract KuoriciniDao {\n\n  struct DaoGroup {\n    string name;\n    address[] members;\n    uint[] tokenIds;\n    uint[] candidatesIds;\n    uint[] candidateTokenIds;\n    uint voteThreshold;\n    string invitationLink;\n  }\n  \n  struct Candidate {\n    address candidateAddress;\n    uint votes;\n    address[] voters;\n  }\n\n    /* CandType\n    0 : new address (todo: not implemented yet)\n    1 : new token\n    2 : change existing token\n    3 : new quorum\n    */\n\n  struct CandidateToken {\n    uint id;\n    uint candType;\n    string name;\n    uint roundSupply;\n    uint roundDuration;\n    address candidateAddress;\n    uint votes;\n    address[] voters;\n  }\n\n  struct GToken {\n    string name;\n    uint roundSupply;\n    uint roundDuration;\n    uint timestamp;\n  }\n\n  struct UToken {\n    uint tokenId;\n    uint gTokenBalance;\n    uint xBalance;\n  }\n\n  mapping (address => string) names;\n  mapping (address => UToken[]) userTokens;\n  mapping (string => uint) invitationLinks;\n  DaoGroup[] daoGroups;\n  GToken[] allTokens;\n\n  // TODO : these two at least, have to become mappings, BUT REFACTOR QUITE\n  Candidate[] allCandidates;\n  CandidateToken[] allCandidateTokens;\n\n  constructor() {\n  }\n\n  function createGroup(string calldata _name) public returns(bool) {\n    address[] memory addr = new address[](1);\n    addr[0] = msg.sender;\n    uint[] memory defaultTokens;\n    uint[] memory defaultCandidates;\n    uint[] memory defaultCandidateTokens;\n    uint threshold = 5;\n    string memory invLink = generateInvitationLink(_name);\n    DaoGroup memory new_group = DaoGroup({ \n      name: _name, \n      members: addr, \n      tokenIds: defaultTokens, \n      candidatesIds: defaultCandidates, \n      candidateTokenIds: defaultCandidateTokens,\n      voteThreshold: threshold,\n      invitationLink: invLink\n    });\n    daoGroups.push(new_group);\n    // check invitation link doesn't exist already\n    if ( daoGroups.length-1 != 0 ) {\n      require ( invitationLinks[invLink] == 0 );\n    }\n    invitationLinks[invLink]=daoGroups.length-1;\n    return true;\n  }\n\n  function getGroup(uint _gid) public view returns(DaoGroup memory) {\n    return daoGroups[_gid];\n  }\n  \n  function checkInvitationLink(string calldata link) public view returns (uint) {    \n    uint groupInv =  invitationLinks[link];\n    require(!isAddressInGroup(groupInv, msg.sender), \"member already present\" );\n    uint l = daoGroups[groupInv].candidateTokenIds.length;\n    uint[] memory candidateTokenIds = new uint[](l+1);\n    for (uint i = 0; i < l; i++) {\n      candidateTokenIds[i] = daoGroups[groupInv].candidateTokenIds[i];\n      require ( allCandidateTokens[candidateTokenIds[i]].candidateAddress != msg.sender, \"candidate already present\" );\n    }    \n    return groupInv;\n  }\n\n  function generateInvitationLink(string memory name) private view returns (string memory) {\n      uint invLength = 15;\n      string memory newString = new string(invLength);\n      bytes memory finalString = bytes(newString);\n      bytes memory originString = \"abcdefghijklmnopqrstuvxyz1234567890\";\n      for (uint i=0; i< invLength-1; i++) {\n          uint r = uint(keccak256(abi.encodePacked(block.timestamp, block.difficulty, msg.sender, string(finalString), name))) % originString.length;\n          finalString[i] = originString[r];\n      }\n      return string(finalString);\n  }    \n\n  \n/*\n*   Tokens\n*\n*/\n\n  function getToken(uint _tokenid) public view returns(GToken memory) {\n    return allTokens[_tokenid];\n  }\n\n    \n  function createGToken(uint tokid, string memory _name, uint _supply, uint _duration, bool present, uint _groupId) private returns(bool){\n    require(isAddressInGroup(_groupId, msg.sender), \"member cannot vote!\" );\n\n    if (present) {\n      require(isTokenInGroup(tokid, _groupId), \"token not allowed\");\n      allTokens[tokid].name = _name;\n      allTokens[tokid].roundSupply = _supply;\n      allTokens[tokid].roundDuration = _duration;\n    } \n    else {\n      allTokens.push(GToken({\n        name: _name,\n        roundSupply: _supply,\n        roundDuration: _duration,\n        timestamp: block.timestamp\n      }));\n      uint l = allTokens.length;\n      daoGroups[_groupId].tokenIds.push(l-1);\n    }\n    return true;\n  }\n\n  function getUserTokens(uint _gid) public view returns(UToken[] memory) {\n    uint l = daoGroups[_gid].tokenIds.length;\n    UToken[] memory _userTokens = new UToken[](l);\n    for (uint w = 0; w < l; w++) {\n      uint q = daoGroups[_gid].tokenIds[w];\n      uint m = userTokens[msg.sender].length;\n      bool matchFound = false;\n      for (uint j = 0; j < m; j++) {\n        if (userTokens[msg.sender][j].tokenId == q) {\n          _userTokens[w]=userTokens[msg.sender][j];\n          uint newtime = allTokens[q].timestamp + allTokens[q].roundDuration;\n          if (block.timestamp > newtime ) {\n            _userTokens[w].xBalance = allTokens[q].roundSupply;\n          }      \n          matchFound = true;\n          break;\n        }\n      }\n      if (matchFound == false) {\n        _userTokens[w]=UToken({ tokenId: q, gTokenBalance: 0, xBalance: allTokens[q].roundSupply});\n      }\n    }\n    return _userTokens;\n  }\n\n  function transferToken(uint _tokenId, address receiver, uint value) public returns(bool) {\n    UToken memory _tokSender;\n    bool matchFoundSender = false;\n    uint s;\n    uint r;\n    for (s = 0; s < userTokens[msg.sender].length ; s++) {\n      if (userTokens[msg.sender][s].tokenId == _tokenId) {\n        _tokSender = userTokens[msg.sender][s];\n        matchFoundSender = true;\n        break;\n      }\n    }\n    if (matchFoundSender == false){\n      _tokSender = UToken({ tokenId: _tokenId, gTokenBalance: 0, xBalance: allTokens[_tokenId].roundSupply});\n    }\n    \n    if (block.timestamp > (allTokens[_tokenId].timestamp + allTokens[_tokenId].roundDuration * 1 seconds) ) {\n      _tokSender.xBalance = allTokens[_tokenId].roundSupply;\n      uint _newTimestamp = allTokens[_tokenId].timestamp;\n      for (uint k = 0; _newTimestamp < block.timestamp ; k++) {\n        _newTimestamp += allTokens[_tokenId].roundDuration;\n//      _newTimestamp += allTokens[_tokenId].roundDuration * k; // WAS with *k in Ropstein, ARE YOU SURE  ???\n      }\n      allTokens[_tokenId].timestamp=_newTimestamp;\n    }\n    \n    require(_tokSender.xBalance >= value, \"non hai abbastanza token\");\n    UToken memory _tokReceiver;\n    bool matchFoundReceiver = false;\n    for ( r = 0; r < userTokens[receiver].length ; r++) {\n      if (userTokens[receiver][r].tokenId == _tokenId) {\n        _tokReceiver = userTokens[receiver][r];\n        matchFoundReceiver = true;\n        break;\n      }\n    }\n    if ( matchFoundReceiver == false){\n      _tokReceiver= UToken({ tokenId: _tokenId, gTokenBalance: 0, xBalance: allTokens[_tokenId].roundSupply});\n    }\n    _tokSender.xBalance -= value;\n    _tokReceiver.gTokenBalance += value;\n    if (matchFoundSender == true) {\n      userTokens[msg.sender][s] = _tokSender;\n    }\n    else {\n      userTokens[msg.sender].push( UToken({ tokenId: _tokenId, gTokenBalance: 0, xBalance: _tokSender.xBalance}));\n    }\n    if (matchFoundReceiver == true) {\n      userTokens[receiver][r] = _tokReceiver;\n    }\n    else {\n      userTokens[receiver].push( UToken({ tokenId: _tokenId, gTokenBalance: _tokReceiver.gTokenBalance, xBalance: allTokens[_tokenId].roundSupply}));\n    }\n    return true;\n  }\n\n  function getGroupNamefromId(uint _id) public view returns(string memory) {\n    return daoGroups[_id].name;\n  }\n\n  function getGroupAddressfromId(uint _id) public view returns(address[] memory) {\n    return daoGroups[_id].members;\n  }\n\n\n  function isTokenInGroup(uint tokid, uint gid) private view returns(bool) {\n    for ( uint i = 0; i < daoGroups[gid].tokenIds.length; i++){\n      if ( daoGroups[gid].tokenIds[i] == tokid ){\n        return true;\n      }\n    }\n    return false;\n  }\n  \n/*  \n*   Tokens Candidates\n*\n*/\n\n\n  // propose token change\n  function changeToken(uint val, string calldata name, uint supply, uint duration, uint gid, uint candtype) public returns(bool) {\n\n    if ( candtype == 0 ) {\n      require(!isAddressInGroup(gid, msg.sender), \"member already present!\");\n      require( invitationLinks[name] == gid, \"link not authorized\" ); \n      require( gid != 0, \"group not authorized\" );\n    } else {\n      require(isAddressInGroup(gid, msg.sender), \"member not allowed!\");\n    }\n\n    // if token is marked as present make sure it really exists and belongs to the right group\n    if ( candtype == 2 ) {\n      require(isTokenInGroup(val, gid), \"token not allowed\");\n    }\n    if (candtype == 3) {\n      require(val <= 10, \"invalid quorum\");\n    }\n\n    uint l = daoGroups[gid].candidateTokenIds.length;\n    uint[] memory candidateTokenIds = new uint[](l+1);\n    \n    for (uint i = 0; i < l; i++) {\n      candidateTokenIds[i] = daoGroups[gid].candidateTokenIds[i];\n       if ( candtype == 0 ) {    \n        require(allCandidateTokens[candidateTokenIds[i]].candidateAddress != msg.sender, \"candidate already added!\");\n      }\n    }\n\n    // generate a new candidate\n    address[] memory vot = new address[](0);\n    allCandidateTokens.push(CandidateToken({\n      id: val,\n      candType: candtype,\n      name: name,\n      roundSupply: supply,\n      roundDuration: duration,\n      candidateAddress: msg.sender,\n      votes: 0,\n      voters: vot\n    }));\n\n    // update candidate list in the group\n/*    for ( uint i = 0; i < l ; i++ ){\n      candidateTokenIds[i] = daoGroups[gid].candidateTokenIds[i];\n    }\n*/    \n    candidateTokenIds[l] = allCandidateTokens.length-1;\n    daoGroups[gid].candidateTokenIds = candidateTokenIds;\n\n    return true;\n\n  }\n\n  // get candidate tokens of a group\n  function getGroupCandidateTokens(uint gid) public view returns(CandidateToken[] memory) {\n    require(isAddressInGroup(gid, msg.sender), \"member not allowed!\" );\n    uint l = daoGroups[gid].candidateTokenIds.length;\n    CandidateToken[] memory candidatetokens = new CandidateToken[](l);\n    for (uint i = 0; i < l; i++) {\n      uint c = daoGroups[gid].candidateTokenIds[i];\n      candidatetokens[i] = allCandidateTokens[c];\n    }\n    return candidatetokens;\n  }\n\n  // vote candidate token and eventually promote the change if quorum is passed\n  function voteCandidateToken(uint gid, uint candTokId, uint vote) public returns(bool) {\n    require(isAddressInGroup(gid, msg.sender), \"member cannot vote!\" );\n\n    // find candidate\n    CandidateToken memory candidatetoken;\n    // check it exists in the group\n    uint l = daoGroups[gid].candidateTokenIds.length;\n    bool candidateTokenFound = false; \n    for (uint i = 0; i < l; i++) {\n      if (daoGroups[gid].candidateTokenIds[i] == candTokId) {\n        candidatetoken = allCandidateTokens[candTokId];\n        candidateTokenFound = true;\n        break;\n      }\n    }\n    require(candidateTokenFound, \"candidate token doesn't exists\");\n\n    // add voter (this would be the same if we merge)\n    uint m = candidatetoken.voters.length;\n    address[] memory v = new address[](m+1);\n    for (uint i = 0; i < m; i++) {\n      require(candidatetoken.voters[i] != msg.sender, \"address already voted!\");\n      v[i]=candidatetoken.voters[i];\n    }\n    v[m]=msg.sender;\n    candidatetoken.voters=v;\n\n    // assign vote   \n    if (vote > 0) {\n      candidatetoken.votes += 1;\n    }\n    \n    // write on chain\n    allCandidateTokens[candTokId] = candidatetoken;\n\n    // check if candidate win\n    uint quorum = getQuorum(gid);\n    if ( candidatetoken.votes > quorum ) {\n      if ( candidatetoken.candType == 0 ) {\n        addAddresstoGroup(gid, candidatetoken.candidateAddress);\n      }       \n      if ( ( candidatetoken.candType == 1 ) || ( candidatetoken.candType == 2 ) ) {\n        createGToken(candidatetoken.id, candidatetoken.name, candidatetoken.roundSupply, candidatetoken.roundDuration, (candidatetoken.candType == 2), gid);\n      }\n      if ( candidatetoken.candType == 3 ) {\n        daoGroups[gid].voteThreshold = candidatetoken.id;  \n      } \n\n/*\n      uint[] memory newCandidateTokenIds;\n      for (uint i = 0; i < l; i++) {\n        if ( daoGroups[gid].candidateTokenIds[i] != candPos ) {\n          newCandidateTokenIds[i] = daoGroups[gid].candidateTokenIds[i];\n        }\n      }\n*/\n      // remove element from candidates array\n      uint[] memory newCandidateTokenIds = new uint[](l-1);\n      uint index;\n      uint k;\n      for (k = 0; k < l; k++) {\n        if ( daoGroups[gid].candidateTokenIds[k] == candTokId ) {\n          index = k;\n          break;\n        }\n      }\n      for (k = 0; k < l; k++) {\n        if ( k < index) {\n          newCandidateTokenIds[k] = daoGroups[gid].candidateTokenIds[k];\n        }\n        if ( k > index) {\n          newCandidateTokenIds[k-1] = daoGroups[gid].candidateTokenIds[k];\n        }\n      }\n      \n      daoGroups[gid].candidateTokenIds = newCandidateTokenIds;\n\n    }\n\n    return true;\n  }\n\n\n\n/*  \n*   Candidates\n*\n*/\n/*\n  function addCandidate(uint _gid, string calldata invitation) public returns(bool) {\n    require( !isAddressInGroup(_gid, msg.sender), \"member already present!\");\n    require( invitationLinks[invitation] == _gid, \"link not authorized\" ); \n    require( _gid != 0, \"group not authorized\" );\n    \n    // check if candidate already present in current candidate list\n    uint l = daoGroups[_gid].candidatesIds.length;\n    uint[] memory candidatesIds = new uint[](l+1);\n    for (uint i = 0; i < l; i++) {\n      candidatesIds[i] = daoGroups[_gid].candidatesIds[i];\n      require(allCandidates[candidatesIds[i]].candidateAddress != msg.sender, \"candidate already added!\");\n    }\n    // generate a new candidate\n    address[] memory vot = new address[](0);\n    allCandidates.push(Candidate({\n      candidateAddress: msg.sender,\n      votes: 0,\n      voters: vot\n    }));\n    // update candidate list in the group\n    candidatesIds[l] = allCandidates.length-1;\n    daoGroups[_gid].candidatesIds = candidatesIds;\n\n    return true;\n  }\n\n  function voteCandidate(uint gid, uint candPos, uint vote) public returns(bool) {\n    require(isAddressInGroup(gid, msg.sender), \"member cannot vote!\" );\n\n    // find candidate \n    Candidate memory candidate;\n    // check if exists\n    uint l = daoGroups[gid].candidatesIds.length;\n    bool candidateFound = false;\n    for (uint i = 0; i < l; i++) {\n      if (daoGroups[gid].candidatesIds[i] == candPos) {\n        candidate = allCandidates[candPos];\n        candidateFound = true;\n        break;\n      }\n    }\n    require(candidateFound, \"candidate address doesn't exists\");\n\n    // add voter\n    uint m = candidate.voters.length;\n    address[] memory v = new address[](m+1);\n    for (uint i = 0; i < m; i++) {\n      require(candidate.voters[i] != msg.sender, \"address already voted!\");\n      v[i]=candidate.voters[i];\n    }\n    v[m]=msg.sender;\n    candidate.voters=v;\n\n    // assign vote\n    if (vote > 0) {\n      candidate.votes += 1;\n    }\n    \n    // write on chain\n    allCandidates[candPos] = candidate;    \n\n    // check if candidate win\n    uint quorum = getQuorum(gid);\n    if ( candidate.votes > quorum ) {\n      addAddresstoGroup(gid, candidate.candidateAddress);\n\n      uint[] memory newCandidatesIds = new uint[](l-1);\n      uint index;\n      uint k;\n      \n      for (k = 0; k < l; k++) {\n        if ( daoGroups[gid].candidatesIds[k] == candPos ) {\n          index = k;\n          break;\n        }\n      }\n      \n      for (k = 0; k < l; k++) {\n        if ( k < index) {\n          newCandidatesIds[k] = daoGroups[gid].candidatesIds[k];\n        }\n        if ( k > index) {\n          newCandidatesIds[k-1] = daoGroups[gid].candidatesIds[k];\n        }\n      }\n      \n      daoGroups[gid].candidatesIds = newCandidatesIds;\n    \n    }\n    return true;\n  }\n  */\n\n  function getQuorum(uint gid) private view returns(uint) {\n    require(isAddressInGroup(gid, msg.sender));\n    return daoGroups[gid].members.length * daoGroups[gid].voteThreshold / 10 ;\n  }\n/*\n  function getGroupCandidates(uint gid) public view returns(Candidate[] memory) {\n    require(isAddressInGroup(gid, msg.sender), \"member cannot vote!\" );\n    uint l = daoGroups[gid].candidatesIds.length;\n    Candidate[] memory candidates = new Candidate[](l);\n    for (uint i = 0; i < l; i++) {\n      uint c = daoGroups[gid].candidatesIds[i];\n      candidates[i] = allCandidates[c];\n    }\n    return candidates;\n  }\n*/\n/*\n*\n*   Group Members\n*/\n\n  function addAddresstoGroup(uint gid, address addr) private returns(bool) {\n    require(!isAddressInGroup(gid, addr), \"member already present!\" );\n    uint l = daoGroups[gid].members.length;\n    address[] memory members = new address[](l+1);\n    for (uint i = 0; i < l; i++) {\n      members[i] = daoGroups[gid].members[i];\n    }\n    members[l] = addr;\n    daoGroups[gid].members = members;\n    return true;\n  }\n\n  function removeMeFromGroup(uint gid) public returns(bool) {\n    require(isAddressInGroup(gid, msg.sender), \"member not in group!\" );\n\n    uint l = daoGroups[gid].members.length;\n    address[] memory members = new address[](l-1);\n    uint index;\n    uint k;\n    for (k = 0; k < l; k++) {\n      if ( daoGroups[gid].members[k] != msg.sender ) {\n        index = k;\n        break;\n      }\n    }\n    for (k = 0; k < l; k++) {\n      if ( k < index) {\n        members[k] = daoGroups[gid].members[k];\n      }\n      if ( k > index) {\n        members[k-1] = daoGroups[gid].members[k];\n      }\n    }\n    daoGroups[gid].members = members;\n    return true;\n  }\n\n\n\n  function isAddressInGroup(uint gid, address addr) private view returns(bool) {\n    bool exists = false;\n    for (uint i = 0; i < daoGroups[gid].members.length; i++) {\n      if( daoGroups[gid].members[i] == addr ) {\n        exists=true;\n        break;\n      }\n    }\n    return exists;\n  }\n\n  function myGroups() public view returns(uint[] memory) {\n    uint lg = daoGroups.length;\n    uint[] memory mygroups;\n    for (uint i = 0; i < lg; i++) {\n      uint lm = daoGroups[i].members.length;\n      for (uint q = 0; q < lm; q++) {\n        if(daoGroups[i].members[q] == msg.sender) {\n          uint gl = mygroups.length;\n          uint[] memory groups = new uint[](gl+1);\n          for (uint w = 0; w < gl; w++) {\n            groups[w] = mygroups[w];\n          }\n          groups[gl] = i;\n          mygroups = groups;\n        }\n      }\n    }\n    return mygroups;\n  }\n\n  function groupNameByInvitation(uint gid, string calldata invitation) public view returns(string memory){\n    require( invitationLinks[invitation] == gid, \"user not authorized\" ); \n    return daoGroups[gid].name;\n  }\n  \n  // names are public\n  function nameOf(address owner) public view returns(string memory) {\n    return names[owner];\n  }\n\n  function nameSet(string calldata name) public returns(bool) {\n    names[msg.sender]=name;\n    return true;\n  }\n\n/*\n*   Round functions that probably should be removed\n*    \n*/\n/*\n  function tellmeNow() public view returns (uint) {\n    return block.timestamp;\n  }\n\n  function resetRound(uint _tokenId, uint _groupId) public returns(bool) {\n    address[] memory _members = daoGroups[_groupId].members;\n    uint l = _members.length;\n    for (uint s = 0; s < l ; s++) {\n      address member = _members[s];\n      uint lu = userTokens[member].length;\n      for (uint w = 0; w < lu; w++) {\n        if (userTokens[member][w].tokenId == _tokenId) {\n          userTokens[member][w].xBalance = allTokens[_tokenId].roundSupply;\n        }\n      }\n    }\n    return true;\n  }\n*/\n}\n",
  "sourcePath": "/home/fabian/kuoricinidao/contracts/KuoriciniDao.sol",
  "compiler": {
    "name": "solc",
    "version": "0.8.11+commit.d7f03943.Emscripten.clang"
  },
  "schemaVersion": "3.4.5",
  "updatedAt": "2022-06-13T18:59:25.841Z",
  "networkType": "ethereum",
  "devdoc": {
    "kind": "dev",
    "methods": {},
    "version": 1
  },
  "userdoc": {
    "kind": "user",
    "methods": {},
    "version": 1
  }
}