{
  "contractName": "KuoriciniDao",
  "abi": [
    {
      "inputs": [],
      "stateMutability": "nonpayable",
      "type": "constructor"
    },
    {
      "inputs": [
        {
          "internalType": "string",
          "name": "_name",
          "type": "string"
        }
      ],
      "name": "createGroup",
      "outputs": [
        {
          "internalType": "bool",
          "name": "",
          "type": "bool"
        }
      ],
      "stateMutability": "nonpayable",
      "type": "function"
    },
    {
      "inputs": [
        {
          "internalType": "uint256",
          "name": "_gid",
          "type": "uint256"
        }
      ],
      "name": "getGroup",
      "outputs": [
        {
          "components": [
            {
              "internalType": "string",
              "name": "name",
              "type": "string"
            },
            {
              "internalType": "address[]",
              "name": "members",
              "type": "address[]"
            },
            {
              "internalType": "uint256[]",
              "name": "tokenIds",
              "type": "uint256[]"
            },
            {
              "internalType": "uint256[]",
              "name": "candidatesIds",
              "type": "uint256[]"
            },
            {
              "internalType": "uint256",
              "name": "voteThreshold",
              "type": "uint256"
            },
            {
              "internalType": "string",
              "name": "invitationLink",
              "type": "string"
            }
          ],
          "internalType": "struct KuoriciniDao.DaoGroup",
          "name": "",
          "type": "tuple"
        }
      ],
      "stateMutability": "view",
      "type": "function"
    },
    {
      "inputs": [
        {
          "internalType": "string",
          "name": "link",
          "type": "string"
        }
      ],
      "name": "checkInvitationLink",
      "outputs": [
        {
          "internalType": "uint256",
          "name": "",
          "type": "uint256"
        }
      ],
      "stateMutability": "view",
      "type": "function"
    },
    {
      "inputs": [
        {
          "internalType": "uint256",
          "name": "_tokenid",
          "type": "uint256"
        }
      ],
      "name": "getToken",
      "outputs": [
        {
          "components": [
            {
              "internalType": "string",
              "name": "name",
              "type": "string"
            },
            {
              "internalType": "uint256",
              "name": "roundSupply",
              "type": "uint256"
            },
            {
              "internalType": "uint256",
              "name": "roundDuration",
              "type": "uint256"
            },
            {
              "internalType": "uint256",
              "name": "timestamp",
              "type": "uint256"
            }
          ],
          "internalType": "struct KuoriciniDao.GToken",
          "name": "",
          "type": "tuple"
        }
      ],
      "stateMutability": "view",
      "type": "function"
    },
    {
      "inputs": [
        {
          "internalType": "string",
          "name": "_name",
          "type": "string"
        },
        {
          "internalType": "uint256",
          "name": "_supply",
          "type": "uint256"
        },
        {
          "internalType": "uint256",
          "name": "_duration",
          "type": "uint256"
        },
        {
          "internalType": "uint256",
          "name": "_groupId",
          "type": "uint256"
        }
      ],
      "name": "createGToken",
      "outputs": [
        {
          "internalType": "bool",
          "name": "",
          "type": "bool"
        }
      ],
      "stateMutability": "nonpayable",
      "type": "function"
    },
    {
      "inputs": [
        {
          "internalType": "uint256",
          "name": "_gid",
          "type": "uint256"
        }
      ],
      "name": "getUserTokens",
      "outputs": [
        {
          "components": [
            {
              "internalType": "uint256",
              "name": "tokenId",
              "type": "uint256"
            },
            {
              "internalType": "uint256",
              "name": "gTokenBalance",
              "type": "uint256"
            },
            {
              "internalType": "uint256",
              "name": "xBalance",
              "type": "uint256"
            }
          ],
          "internalType": "struct KuoriciniDao.UToken[]",
          "name": "",
          "type": "tuple[]"
        }
      ],
      "stateMutability": "view",
      "type": "function"
    },
    {
      "inputs": [
        {
          "internalType": "uint256",
          "name": "_tokenId",
          "type": "uint256"
        },
        {
          "internalType": "address",
          "name": "receiver",
          "type": "address"
        },
        {
          "internalType": "uint256",
          "name": "value",
          "type": "uint256"
        }
      ],
      "name": "transferToken",
      "outputs": [
        {
          "internalType": "bool",
          "name": "",
          "type": "bool"
        }
      ],
      "stateMutability": "nonpayable",
      "type": "function"
    },
    {
      "inputs": [
        {
          "internalType": "uint256",
          "name": "_id",
          "type": "uint256"
        }
      ],
      "name": "getGroupNamefromId",
      "outputs": [
        {
          "internalType": "string",
          "name": "",
          "type": "string"
        }
      ],
      "stateMutability": "view",
      "type": "function"
    },
    {
      "inputs": [
        {
          "internalType": "uint256",
          "name": "_id",
          "type": "uint256"
        }
      ],
      "name": "getGroupAddressfromId",
      "outputs": [
        {
          "internalType": "address[]",
          "name": "",
          "type": "address[]"
        }
      ],
      "stateMutability": "view",
      "type": "function"
    },
    {
      "inputs": [
        {
          "internalType": "uint256",
          "name": "_gid",
          "type": "uint256"
        },
        {
          "internalType": "string",
          "name": "invitation",
          "type": "string"
        }
      ],
      "name": "addCandidate",
      "outputs": [
        {
          "internalType": "bool",
          "name": "",
          "type": "bool"
        }
      ],
      "stateMutability": "nonpayable",
      "type": "function"
    },
    {
      "inputs": [
        {
          "internalType": "uint256",
          "name": "gid",
          "type": "uint256"
        },
        {
          "internalType": "address",
          "name": "candAddr",
          "type": "address"
        },
        {
          "internalType": "int256",
          "name": "vote",
          "type": "int256"
        }
      ],
      "name": "voteCandidate",
      "outputs": [
        {
          "internalType": "bool",
          "name": "",
          "type": "bool"
        }
      ],
      "stateMutability": "nonpayable",
      "type": "function"
    },
    {
      "inputs": [
        {
          "internalType": "uint256",
          "name": "gid",
          "type": "uint256"
        }
      ],
      "name": "getGroupCandidates",
      "outputs": [
        {
          "components": [
            {
              "internalType": "address",
              "name": "candidateAddress",
              "type": "address"
            },
            {
              "internalType": "uint256",
              "name": "votes",
              "type": "uint256"
            },
            {
              "internalType": "address[]",
              "name": "voters",
              "type": "address[]"
            }
          ],
          "internalType": "struct KuoriciniDao.Candidate[]",
          "name": "",
          "type": "tuple[]"
        }
      ],
      "stateMutability": "view",
      "type": "function"
    },
    {
      "inputs": [],
      "name": "myGroups",
      "outputs": [
        {
          "internalType": "uint256[]",
          "name": "",
          "type": "uint256[]"
        }
      ],
      "stateMutability": "view",
      "type": "function"
    },
    {
      "inputs": [
        {
          "internalType": "uint256",
          "name": "gid",
          "type": "uint256"
        },
        {
          "internalType": "string",
          "name": "invitation",
          "type": "string"
        }
      ],
      "name": "groupNameByInvitation",
      "outputs": [
        {
          "internalType": "string",
          "name": "",
          "type": "string"
        }
      ],
      "stateMutability": "view",
      "type": "function"
    },
    {
      "inputs": [
        {
          "internalType": "address",
          "name": "owner",
          "type": "address"
        }
      ],
      "name": "nameOf",
      "outputs": [
        {
          "internalType": "string",
          "name": "",
          "type": "string"
        }
      ],
      "stateMutability": "view",
      "type": "function"
    },
    {
      "inputs": [
        {
          "internalType": "string",
          "name": "name",
          "type": "string"
        }
      ],
      "name": "nameSet",
      "outputs": [
        {
          "internalType": "bool",
          "name": "",
          "type": "bool"
        }
      ],
      "stateMutability": "nonpayable",
      "type": "function"
    },
    {
      "inputs": [],
      "name": "tellmeNow",
      "outputs": [
        {
          "internalType": "uint256",
          "name": "",
          "type": "uint256"
        }
      ],
      "stateMutability": "view",
      "type": "function"
    },
    {
      "inputs": [
        {
          "internalType": "uint256",
          "name": "_tokenId",
          "type": "uint256"
        },
        {
          "internalType": "uint256",
          "name": "_groupId",
          "type": "uint256"
        }
      ],
      "name": "resetRound",
      "outputs": [
        {
          "internalType": "bool",
          "name": "",
          "type": "bool"
        }
      ],
      "stateMutability": "nonpayable",
      "type": "function"
    }
  ],
  "bytecode": "0x608060405234801561001057600080fd5b506149c6806100206000396000f3fe608060405234801561001057600080fd5b50600436106101165760003560e01c8063c3f93437116100a2578063dbb5313f11610071578063dbb5313f14610367578063dc2ddcae14610397578063e4b50cb8146103c7578063edeefa31146103f7578063f5c573821461042757610116565b8063c3f93437146102cb578063ceb60654146102e9578063d17bd40b14610319578063dabd71cf1461034957610116565b80635565c48a116100e95780635565c48a146101db578063558f8f041461020b5780635af18a601461023b578063857af37b1461026b57806395449f2b1461029b57610116565b806301fa66551461011b578063088cab181461014b57806310f9a5f71461017b5780631750a3d0146101ab575b600080fd5b610135600480360381019061013091906136f6565b610457565b60405161014291906137ef565b60405180910390f35b61016560048036038101906101609190613811565b610572565b6040516101729190613a4f565b60405180910390f35b61019560048036038101906101909190613a71565b6107eb565b6040516101a29190613acc565b60405180910390f35b6101c560048036038101906101c091906136f6565b610a49565b6040516101d29190613acc565b60405180910390f35b6101f560048036038101906101f09190613b49565b610ea2565b6040516102029190613acc565b60405180910390f35b61022560048036038101906102209190613811565b6114ad565b6040516102329190613c0b565b60405180910390f35b61025560048036038101906102509190613c2d565b611560565b6040516102629190613acc565b60405180910390f35b61028560048036038101906102809190613811565b61169f565b60405161029291906137ef565b60405180910390f35b6102b560048036038101906102b09190613cb5565b611756565b6040516102c29190613d11565b60405180910390f35b6102d36119a6565b6040516102e09190613ddb565b60405180910390f35b61030360048036038101906102fe9190613811565b611b9b565b6040516103109190613f5b565b60405180910390f35b610333600480360381019061032e9190613811565b611e43565b604051610340919061406e565b60405180910390f35b6103516121d6565b60405161035e9190613d11565b60405180910390f35b610381600480360381019061037c9190614090565b6121de565b60405161038e9190613acc565b60405180910390f35b6103b160048036038101906103ac9190613cb5565b6129c6565b6040516103be9190613acc565b60405180910390f35b6103e160048036038101906103dc9190613811565b612c85565b6040516103ee9190614146565b60405180910390f35b610411600480360381019061040c9190613cb5565b612d71565b60405161041e9190613acc565b60405180910390f35b610441600480360381019061043c9190614168565b612dcb565b60405161044e91906137ef565b60405180910390f35b6060836002848460405161046c9291906141d4565b908152602001604051809103902054146104bb576040517f08c379a00000000000000000000000000000000000000000000000000000000081526004016104b290614239565b60405180910390fd5b600384815481106104cf576104ce614259565b5b906000526020600020906006020160000180546104eb906142b7565b80601f0160208091040260200160405190810160405280929190818152602001828054610517906142b7565b80156105645780601f1061053957610100808354040283529160200191610564565b820191906000526020600020905b81548152906001019060200180831161054757829003601f168201915b505050505090509392505050565b606061057e8233612e9b565b6105bd576040517f08c379a00000000000000000000000000000000000000000000000000000000081526004016105b490614335565b60405180910390fd5b6000600383815481106105d3576105d2614259565b5b906000526020600020906006020160030180549050905060008167ffffffffffffffff81111561060657610605614355565b5b60405190808252806020026020018201604052801561063f57816020015b61062c61339b565b8152602001906001900390816106245790505b50905060005b828110156107e05760006003868154811061066357610662614259565b5b9060005260206000209060060201600301828154811061068657610685614259565b5b90600052602060002001549050600581815481106106a7576106a6614259565b5b90600052602060002090600302016040518060600160405290816000820160009054906101000a900473ffffffffffffffffffffffffffffffffffffffff1673ffffffffffffffffffffffffffffffffffffffff1673ffffffffffffffffffffffffffffffffffffffff16815260200160018201548152602001600282018054806020026020016040519081016040528092919081815260200182805480156107a557602002820191906000526020600020905b8160009054906101000a900473ffffffffffffffffffffffffffffffffffffffff1673ffffffffffffffffffffffffffffffffffffffff168152602001906001019080831161075b575b5050505050815250508383815181106107c1576107c0614259565b5b60200260200101819052505080806107d8906143b3565b915050610645565b508092505050919050565b6000806003838154811061080257610801614259565b5b906000526020600020906006020160010180548060200260200160405190810160405280929190818152602001828054801561089357602002820191906000526020600020905b8160009054906101000a900473ffffffffffffffffffffffffffffffffffffffff1673ffffffffffffffffffffffffffffffffffffffff1681526020019060010190808311610849575b5050505050905060008151905060005b81811015610a3c5760008382815181106108c0576108bf614259565b5b602002602001015190506000600160008373ffffffffffffffffffffffffffffffffffffffff1673ffffffffffffffffffffffffffffffffffffffff16815260200190815260200160002080549050905060005b81811015610a265788600160008573ffffffffffffffffffffffffffffffffffffffff1673ffffffffffffffffffffffffffffffffffffffff168152602001908152602001600020828154811061096e5761096d614259565b5b9060005260206000209060030201600001541415610a13576004898154811061099a57610999614259565b5b906000526020600020906004020160010154600160008573ffffffffffffffffffffffffffffffffffffffff1673ffffffffffffffffffffffffffffffffffffffff16815260200190815260200160002082815481106109fd576109fc614259565b5b9060005260206000209060030201600201819055505b8080610a1e906143b3565b915050610914565b5050508080610a34906143b3565b9150506108a3565b5060019250505092915050565b6000610a558433612e9b565b15610a95576040517f08c379a0000000000000000000000000000000000000000000000000000000008152600401610a8c90614448565b60405180910390fd5b8360028484604051610aa89291906141d4565b90815260200160405180910390205414610af7576040517f08c379a0000000000000000000000000000000000000000000000000000000008152600401610aee906144b4565b60405180910390fd5b6000841415610b3b576040517f08c379a0000000000000000000000000000000000000000000000000000000008152600401610b32906144b4565b60405180910390fd5b600060038581548110610b5157610b50614259565b5b90600052602060002090600602016003018054905090506000600182610b7791906144d4565b67ffffffffffffffff811115610b9057610b8f614355565b5b604051908082528060200260200182016040528015610bbe5781602001602082028036833780820191505090505b50905060005b82811015610d0e5760038781548110610be057610bdf614259565b5b90600052602060002090600602016003018181548110610c0357610c02614259565b5b9060005260206000200154828281518110610c2157610c20614259565b5b6020026020010181815250503373ffffffffffffffffffffffffffffffffffffffff166005838381518110610c5957610c58614259565b5b602002602001015181548110610c7257610c71614259565b5b906000526020600020906003020160000160009054906101000a900473ffffffffffffffffffffffffffffffffffffffff1673ffffffffffffffffffffffffffffffffffffffff161415610cfb576040517f08c379a0000000000000000000000000000000000000000000000000000000008152600401610cf290614576565b60405180910390fd5b8080610d06906143b3565b915050610bc4565b5060008067ffffffffffffffff811115610d2b57610d2a614355565b5b604051908082528060200260200182016040528015610d595781602001602082028036833780820191505090505b509050600560405180606001604052803373ffffffffffffffffffffffffffffffffffffffff1681526020016000815260200183815250908060018154018082558091505060019003906000526020600020906003020160009091909190915060008201518160000160006101000a81548173ffffffffffffffffffffffffffffffffffffffff021916908373ffffffffffffffffffffffffffffffffffffffff160217905550602082015181600101556040820151816002019080519060200190610e269291906133d2565b5050506001600580549050610e3b9190614596565b828481518110610e4e57610e4d614259565b5b6020026020010181815250508160038881548110610e6f57610e6e614259565b5b90600052602060002090600602016003019080519060200190610e9392919061345c565b50600193505050509392505050565b6000610eae8433612e9b565b610eed576040517f08c379a0000000000000000000000000000000000000000000000000000000008152600401610ee490614335565b60405180910390fd5b600060038581548110610f0357610f02614259565b5b9060005260206000209060060201600301805490509050610f2261339b565b6000806000905060005b8481101561113157600060038a81548110610f4a57610f49614259565b5b90600052602060002090600602016003018281548110610f6d57610f6c614259565b5b906000526020600020015490508873ffffffffffffffffffffffffffffffffffffffff1660058281548110610fa557610fa4614259565b5b906000526020600020906003020160000160009054906101000a900473ffffffffffffffffffffffffffffffffffffffff1673ffffffffffffffffffffffffffffffffffffffff16141561111d576005818154811061100757611006614259565b5b90600052602060002090600302016040518060600160405290816000820160009054906101000a900473ffffffffffffffffffffffffffffffffffffffff1673ffffffffffffffffffffffffffffffffffffffff1673ffffffffffffffffffffffffffffffffffffffff168152602001600182015481526020016002820180548060200260200160405190810160405280929190818152602001828054801561110557602002820191906000526020600020905b8160009054906101000a900473ffffffffffffffffffffffffffffffffffffffff1673ffffffffffffffffffffffffffffffffffffffff16815260200190600101908083116110bb575b50505050508152505094508093506001925050611131565b508080611129906143b3565b915050610f2c565b5080611172576040517f08c379a000000000000000000000000000000000000000000000000000000000815260040161116990614616565b60405180910390fd5b60008613156111965760018360200181815161118e91906144d4565b915081815250505b826040015151935060006001856111ad91906144d4565b67ffffffffffffffff8111156111c6576111c5614355565b5b6040519080825280602002602001820160405280156111f45781602001602082028036833780820191505090505b50905060005b85811015611281578460400151818151811061121957611218614259565b5b602002602001015182828151811061123457611233614259565b5b602002602001019073ffffffffffffffffffffffffffffffffffffffff16908173ffffffffffffffffffffffffffffffffffffffff16815250508080611279906143b3565b9150506111fa565b503381868151811061129657611295614259565b5b602002602001019073ffffffffffffffffffffffffffffffffffffffff16908173ffffffffffffffffffffffffffffffffffffffff168152505080846040018190525083600584815481106112ee576112ed614259565b5b906000526020600020906003020160008201518160000160006101000a81548173ffffffffffffffffffffffffffffffffffffffff021916908373ffffffffffffffffffffffffffffffffffffffff1602179055506020820151816001015560408201518160020190805190602001906113699291906133d2565b5090505060006113788a612f91565b9050808560200151111561149c576113948a8660000151613012565b50606060005b8781101561145f578560038d815481106113b7576113b6614259565b5b906000526020600020906006020160030182815481106113da576113d9614259565b5b90600052602060002001541461144c5760038c815481106113fe576113fd614259565b5b9060005260206000209060060201600301818154811061142157611420614259565b5b906000526020600020015482828151811061143f5761143e614259565b5b6020026020010181815250505b8080611457906143b3565b91505061139a565b508060038c8154811061147557611474614259565b5b9060005260206000209060060201600301908051906020019061149992919061345c565b50505b600196505050505050509392505050565b6060600382815481106114c3576114c2614259565b5b906000526020600020906006020160010180548060200260200160405190810160405280929190818152602001828054801561155457602002820191906000526020600020905b8160009054906101000a900473ffffffffffffffffffffffffffffffffffffffff1673ffffffffffffffffffffffffffffffffffffffff168152602001906001019080831161150a575b50505050509050919050565b60006004604051806080016040528088888080601f016020809104026020016040519081016040528093929190818152602001838380828437600081840152601f19601f820116905080830192505050505050508152602001868152602001858152602001428152509080600181540180825580915050600190039060005260206000209060040201600090919091909150600082015181600001908051906020019061160e9291906134a9565b506020820151816001015560408201518160020155606082015181600301555050600060048054905090506003838154811061164d5761164c614259565b5b906000526020600020906006020160020160018261166b9190614596565b9080600181540180825580915050600190039060005260206000200160009091909190915055600191505095945050505050565b6060600382815481106116b5576116b4614259565b5b906000526020600020906006020160000180546116d1906142b7565b80601f01602080910402602001604051908101604052809291908181526020018280546116fd906142b7565b801561174a5780601f1061171f5761010080835404028352916020019161174a565b820191906000526020600020905b81548152906001019060200180831161172d57829003601f168201915b50505050509050919050565b6000806002848460405161176b9291906141d4565b90815260200160405180910390205490506117868133612e9b565b156117c6576040517f08c379a00000000000000000000000000000000000000000000000000000000081526004016117bd90614682565b60405180910390fd5b6000600382815481106117dc576117db614259565b5b9060005260206000209060060201600301805490509050600060018261180291906144d4565b67ffffffffffffffff81111561181b5761181a614355565b5b6040519080825280602002602001820160405280156118495781602001602082028036833780820191505090505b50905060005b82811015611999576003848154811061186b5761186a614259565b5b9060005260206000209060060201600301818154811061188e5761188d614259565b5b90600052602060002001548282815181106118ac576118ab614259565b5b6020026020010181815250503373ffffffffffffffffffffffffffffffffffffffff1660058383815181106118e4576118e3614259565b5b6020026020010151815481106118fd576118fc614259565b5b906000526020600020906003020160000160009054906101000a900473ffffffffffffffffffffffffffffffffffffffff1673ffffffffffffffffffffffffffffffffffffffff161415611986576040517f08c379a000000000000000000000000000000000000000000000000000000000815260040161197d906146ee565b60405180910390fd5b8080611991906143b3565b91505061184f565b5082935050505092915050565b606060006003805490509050606060005b82811015611b92576000600382815481106119d5576119d4614259565b5b906000526020600020906006020160010180549050905060005b81811015611b7d573373ffffffffffffffffffffffffffffffffffffffff1660038481548110611a2257611a21614259565b5b90600052602060002090600602016001018281548110611a4557611a44614259565b5b9060005260206000200160009054906101000a900473ffffffffffffffffffffffffffffffffffffffff1673ffffffffffffffffffffffffffffffffffffffff161415611b6a576000845190506000600182611aa191906144d4565b67ffffffffffffffff811115611aba57611ab9614355565b5b604051908082528060200260200182016040528015611ae85781602001602082028036833780820191505090505b50905060005b82811015611b4357868181518110611b0957611b08614259565b5b6020026020010151828281518110611b2457611b23614259565b5b6020026020010181815250508080611b3b906143b3565b915050611aee565b5084818381518110611b5857611b57614259565b5b60200260200101818152505080955050505b8080611b75906143b3565b9150506119ef565b50508080611b8a906143b3565b9150506119b7565b50809250505090565b611ba361352f565b60038281548110611bb757611bb6614259565b5b90600052602060002090600602016040518060c0016040529081600082018054611be0906142b7565b80601f0160208091040260200160405190810160405280929190818152602001828054611c0c906142b7565b8015611c595780601f10611c2e57610100808354040283529160200191611c59565b820191906000526020600020905b815481529060010190602001808311611c3c57829003601f168201915b5050505050815260200160018201805480602002602001604051908101604052809291908181526020018280548015611ce757602002820191906000526020600020905b8160009054906101000a900473ffffffffffffffffffffffffffffffffffffffff1673ffffffffffffffffffffffffffffffffffffffff1681526020019060010190808311611c9d575b5050505050815260200160028201805480602002602001604051908101604052809291908181526020018280548015611d3f57602002820191906000526020600020905b815481526020019060010190808311611d2b575b5050505050815260200160038201805480602002602001604051908101604052809291908181526020018280548015611d9757602002820191906000526020600020905b815481526020019060010190808311611d83575b5050505050815260200160048201548152602001600582018054611dba906142b7565b80601f0160208091040260200160405190810160405280929190818152602001828054611de6906142b7565b8015611e335780601f10611e0857610100808354040283529160200191611e33565b820191906000526020600020905b815481529060010190602001808311611e1657829003601f168201915b5050505050815250509050919050565b6060600060038381548110611e5b57611e5a614259565b5b906000526020600020906006020160020180549050905060008167ffffffffffffffff811115611e8e57611e8d614355565b5b604051908082528060200260200182016040528015611ec757816020015b611eb4613565565b815260200190600190039081611eac5790505b50905060005b828110156121cb57600060038681548110611eeb57611eea614259565b5b90600052602060002090600602016002018281548110611f0e57611f0d614259565b5b906000526020600020015490506000600160003373ffffffffffffffffffffffffffffffffffffffff1673ffffffffffffffffffffffffffffffffffffffff1681526020019081526020016000208054905090506000805b828110156121475783600160003373ffffffffffffffffffffffffffffffffffffffff1673ffffffffffffffffffffffffffffffffffffffff1681526020019081526020016000208281548110611fc057611fbf614259565b5b906000526020600020906003020160000154141561213457600160003373ffffffffffffffffffffffffffffffffffffffff1673ffffffffffffffffffffffffffffffffffffffff168152602001908152602001600020818154811061202957612028614259565b5b9060005260206000209060030201604051806060016040529081600082015481526020016001820154815260200160028201548152505086868151811061207357612072614259565b5b602002602001018190525060006004858154811061209457612093614259565b5b906000526020600020906004020160020154600486815481106120ba576120b9614259565b5b9060005260206000209060040201600301546120d691906144d4565b90508042111561212a57600485815481106120f4576120f3614259565b5b90600052602060002090600402016001015487878151811061211957612118614259565b5b602002602001015160400181815250505b6001925050612147565b808061213f906143b3565b915050611f66565b506000151581151514156121b5576040518060600160405280848152602001600081526020016004858154811061218157612180614259565b5b9060005260206000209060040201600101548152508585815181106121a9576121a8614259565b5b60200260200101819052505b50505080806121c3906143b3565b915050611ecd565b508092505050919050565b600042905090565b60006121e8613565565b60008080600091505b600160003373ffffffffffffffffffffffffffffffffffffffff1673ffffffffffffffffffffffffffffffffffffffff1681526020019081526020016000208054905082101561234b5787600160003373ffffffffffffffffffffffffffffffffffffffff1673ffffffffffffffffffffffffffffffffffffffff168152602001908152602001600020838154811061228d5761228c614259565b5b906000526020600020906003020160000154141561233857600160003373ffffffffffffffffffffffffffffffffffffffff1673ffffffffffffffffffffffffffffffffffffffff16815260200190815260200160002082815481106122f6576122f5614259565b5b9060005260206000209060030201604051806060016040529081600082015481526020016001820154815260200160028201548152505093506001925061234b565b8180612343906143b3565b9250506121f1565b60001515831515141561239c5760405180606001604052808981526020016000815260200160048a8154811061238457612383614259565b5b90600052602060002090600402016001015481525093505b6001600489815481106123b2576123b1614259565b5b9060005260206000209060040201600201546123ce919061470e565b600489815481106123e2576123e1614259565b5b9060005260206000209060040201600301546123fe91906144d4565b4211156124e7576004888154811061241957612418614259565b5b90600052602060002090600402016001015484604001818152505060006004898154811061244a57612449614259565b5b906000526020600020906004020160030154905060005b428210156124ba578060048b8154811061247e5761247d614259565b5b90600052602060002090600402016002015461249a919061470e565b826124a591906144d4565b915080806124b2906143b3565b915050612461565b508060048a815481106124d0576124cf614259565b5b906000526020600020906004020160030181905550505b858460400151101561252e576040517f08c379a0000000000000000000000000000000000000000000000000000000008152600401612525906147b4565b60405180910390fd5b612536613565565b60008092505b600160008a73ffffffffffffffffffffffffffffffffffffffff1673ffffffffffffffffffffffffffffffffffffffff168152602001908152602001600020805490508310156126965789600160008b73ffffffffffffffffffffffffffffffffffffffff1673ffffffffffffffffffffffffffffffffffffffff16815260200190815260200160002084815481106125d8576125d7614259565b5b906000526020600020906003020160000154141561268357600160008a73ffffffffffffffffffffffffffffffffffffffff1673ffffffffffffffffffffffffffffffffffffffff168152602001908152602001600020838154811061264157612640614259565b5b90600052602060002090600302016040518060600160405290816000820154815260200160018201548152602001600282015481525050915060019050612696565b828061268e906143b3565b93505061253c565b6000151581151514156126e75760405180606001604052808b81526020016000815260200160048c815481106126cf576126ce614259565b5b90600052602060002090600402016001015481525091505b87866040018181516126f99190614596565b91508181525050878260200181815161271291906144d4565b915081815250506001151585151514156127ac5785600160003373ffffffffffffffffffffffffffffffffffffffff1673ffffffffffffffffffffffffffffffffffffffff168152602001908152602001600020858154811061277857612777614259565b5b9060005260206000209060030201600082015181600001556020820151816001015560408201518160020155905050612855565b600160003373ffffffffffffffffffffffffffffffffffffffff1673ffffffffffffffffffffffffffffffffffffffff16815260200190815260200160002060405180606001604052808c8152602001600081526020018860400151815250908060018154018082558091505060019003906000526020600020906003020160009091909190915060008201518160000155602082015181600101556040820151816002015550505b6001151581151514156128e85781600160008b73ffffffffffffffffffffffffffffffffffffffff1673ffffffffffffffffffffffffffffffffffffffff16815260200190815260200160002084815481106128b4576128b3614259565b5b90600052602060002090600302016000820151816000015560208201518160010155604082015181600201559050506129b5565b600160008a73ffffffffffffffffffffffffffffffffffffffff1673ffffffffffffffffffffffffffffffffffffffff16815260200190815260200160002060405180606001604052808c81526020018460200151815260200160048d8154811061295657612955614259565b5b906000526020600020906004020160010154815250908060018154018082558091505060019003906000526020600020906003020160009091909190915060008201518160000155602082015181600101556040820151816002015550505b600196505050505050509392505050565b600080600167ffffffffffffffff8111156129e4576129e3614355565b5b604051908082528060200260200182016040528015612a125781602001602082028036833780820191505090505b5090503381600081518110612a2a57612a29614259565b5b602002602001019073ffffffffffffffffffffffffffffffffffffffff16908173ffffffffffffffffffffffffffffffffffffffff16815250506060806000600590506000612abc88888080601f016020809104026020016040519081016040528093929190818152602001838380828437600081840152601f19601f82011690508083019250505050505050613246565b905060006040518060c001604052808a8a8080601f016020809104026020016040519081016040528093929190818152602001838380828437600081840152601f19601f82011690508083019250505050505050815260200187815260200186815260200185815260200184815260200183815250905060038190806001815401808255809150506001900390600052602060002090600602016000909190919091506000820151816000019080519060200190612b7b9291906134a9565b506020820151816001019080519060200190612b989291906133d2565b506040820151816002019080519060200190612bb592919061345c565b506060820151816003019080519060200190612bd292919061345c565b506080820151816004015560a0820151816005019080519060200190612bf99291906134a9565b50505060006001600380549050612c109190614596565b14612c41576000600283604051612c279190614805565b90815260200160405180910390205414612c4057600080fd5b5b6001600380549050612c539190614596565b600283604051612c639190614805565b9081526020016040518091039020819055506001965050505050505092915050565b612c8d613586565b60048281548110612ca157612ca0614259565b5b9060005260206000209060040201604051806080016040529081600082018054612cca906142b7565b80601f0160208091040260200160405190810160405280929190818152602001828054612cf6906142b7565b8015612d435780601f10612d1857610100808354040283529160200191612d43565b820191906000526020600020905b815481529060010190602001808311612d2657829003601f168201915b5050505050815260200160018201548152602001600282015481526020016003820154815250509050919050565b600082826000803373ffffffffffffffffffffffffffffffffffffffff1673ffffffffffffffffffffffffffffffffffffffff1681526020019081526020016000209190612dc09291906135ae565b506001905092915050565b60606000808373ffffffffffffffffffffffffffffffffffffffff1673ffffffffffffffffffffffffffffffffffffffff1681526020019081526020016000208054612e16906142b7565b80601f0160208091040260200160405190810160405280929190818152602001828054612e42906142b7565b8015612e8f5780601f10612e6457610100808354040283529160200191612e8f565b820191906000526020600020905b815481529060010190602001808311612e7257829003601f168201915b50505050509050919050565b6000806000905060005b60038581548110612eb957612eb8614259565b5b906000526020600020906006020160010180549050811015612f86578373ffffffffffffffffffffffffffffffffffffffff1660038681548110612f0057612eff614259565b5b90600052602060002090600602016001018281548110612f2357612f22614259565b5b9060005260206000200160009054906101000a900473ffffffffffffffffffffffffffffffffffffffff1673ffffffffffffffffffffffffffffffffffffffff161415612f735760019150612f86565b8080612f7e906143b3565b915050612ea5565b508091505092915050565b6000612f9d8233612e9b565b612fa657600080fd5b600a60038381548110612fbc57612fbb614259565b5b90600052602060002090600602016004015460038481548110612fe257612fe1614259565b5b906000526020600020906006020160010180549050613001919061470e565b61300b919061484b565b9050919050565b600061301e8383612e9b565b1561305e576040517f08c379a000000000000000000000000000000000000000000000000000000000815260040161305590614448565b60405180910390fd5b60006003848154811061307457613073614259565b5b9060005260206000209060060201600101805490509050600060018261309a91906144d4565b67ffffffffffffffff8111156130b3576130b2614355565b5b6040519080825280602002602001820160405280156130e15781602001602082028036833780820191505090505b50905060005b828110156131b1576003868154811061310357613102614259565b5b9060005260206000209060060201600101818154811061312657613125614259565b5b9060005260206000200160009054906101000a900473ffffffffffffffffffffffffffffffffffffffff1682828151811061316457613163614259565b5b602002602001019073ffffffffffffffffffffffffffffffffffffffff16908173ffffffffffffffffffffffffffffffffffffffff168152505080806131a9906143b3565b9150506130e7565b50838183815181106131c6576131c5614259565b5b602002602001019073ffffffffffffffffffffffffffffffffffffffff16908173ffffffffffffffffffffffffffffffffffffffff1681525050806003868154811061321557613214614259565b5b906000526020600020906006020160010190805190602001906132399291906133d2565b5060019250505092915050565b60606000600f905060008167ffffffffffffffff81111561326a57613269614355565b5b6040519080825280601f01601f19166020018201604052801561329c5781602001600182028036833780820191505090505b5090506000819050600060405180606001604052806023815260200161496e60239139905060005b6001856132d19190614596565b81101561338e5760008251424433878c6040516020016132f59594939291906148e5565b6040516020818303038152906040528051906020012060001c613318919061493c565b905082818151811061332d5761332c614259565b5b602001015160f81c60f81b84838151811061334b5761334a614259565b5b60200101907effffffffffffffffffffffffffffffffffffffffffffffffffffffffffffff1916908160001a905350508080613386906143b3565b9150506132c4565b5081945050505050919050565b6040518060600160405280600073ffffffffffffffffffffffffffffffffffffffff16815260200160008152602001606081525090565b82805482825590600052602060002090810192821561344b579160200282015b8281111561344a5782518260006101000a81548173ffffffffffffffffffffffffffffffffffffffff021916908373ffffffffffffffffffffffffffffffffffffffff160217905550916020019190600101906133f2565b5b5090506134589190613634565b5090565b828054828255906000526020600020908101928215613498579160200282015b8281111561349757825182559160200191906001019061347c565b5b5090506134a59190613634565b5090565b8280546134b5906142b7565b90600052602060002090601f0160209004810192826134d7576000855561351e565b82601f106134f057805160ff191683800117855561351e565b8280016001018555821561351e579182015b8281111561351d578251825591602001919060010190613502565b5b50905061352b9190613634565b5090565b6040518060c001604052806060815260200160608152602001606081526020016060815260200160008152602001606081525090565b60405180606001604052806000815260200160008152602001600081525090565b6040518060800160405280606081526020016000815260200160008152602001600081525090565b8280546135ba906142b7565b90600052602060002090601f0160209004810192826135dc5760008555613623565b82601f106135f557803560ff1916838001178555613623565b82800160010185558215613623579182015b82811115613622578235825591602001919060010190613607565b5b5090506136309190613634565b5090565b5b8082111561364d576000816000905550600101613635565b5090565b600080fd5b600080fd5b6000819050919050565b61366e8161365b565b811461367957600080fd5b50565b60008135905061368b81613665565b92915050565b600080fd5b600080fd5b600080fd5b60008083601f8401126136b6576136b5613691565b5b8235905067ffffffffffffffff8111156136d3576136d2613696565b5b6020830191508360018202830111156136ef576136ee61369b565b5b9250929050565b60008060006040848603121561370f5761370e613651565b5b600061371d8682870161367c565b935050602084013567ffffffffffffffff81111561373e5761373d613656565b5b61374a868287016136a0565b92509250509250925092565b600081519050919050565b600082825260208201905092915050565b60005b83811015613790578082015181840152602081019050613775565b8381111561379f576000848401525b50505050565b6000601f19601f8301169050919050565b60006137c182613756565b6137cb8185613761565b93506137db818560208601613772565b6137e4816137a5565b840191505092915050565b6000602082019050818103600083015261380981846137b6565b905092915050565b60006020828403121561382757613826613651565b5b60006138358482850161367c565b91505092915050565b600081519050919050565b600082825260208201905092915050565b6000819050602082019050919050565b600073ffffffffffffffffffffffffffffffffffffffff82169050919050565b60006138958261386a565b9050919050565b6138a58161388a565b82525050565b6138b48161365b565b82525050565b600081519050919050565b600082825260208201905092915050565b6000819050602082019050919050565b60006138f2838361389c565b60208301905092915050565b6000602082019050919050565b6000613916826138ba565b61392081856138c5565b935061392b836138d6565b8060005b8381101561395c57815161394388826138e6565b975061394e836138fe565b92505060018101905061392f565b5085935050505092915050565b6000606083016000830151613981600086018261389c565b50602083015161399460208601826138ab565b50604083015184820360408601526139ac828261390b565b9150508091505092915050565b60006139c58383613969565b905092915050565b6000602082019050919050565b60006139e58261383e565b6139ef8185613849565b935083602082028501613a018561385a565b8060005b85811015613a3d5784840389528151613a1e85826139b9565b9450613a29836139cd565b925060208a01995050600181019050613a05565b50829750879550505050505092915050565b60006020820190508181036000830152613a6981846139da565b905092915050565b60008060408385031215613a8857613a87613651565b5b6000613a968582860161367c565b9250506020613aa78582860161367c565b9150509250929050565b60008115159050919050565b613ac681613ab1565b82525050565b6000602082019050613ae16000830184613abd565b92915050565b613af08161388a565b8114613afb57600080fd5b50565b600081359050613b0d81613ae7565b92915050565b6000819050919050565b613b2681613b13565b8114613b3157600080fd5b50565b600081359050613b4381613b1d565b92915050565b600080600060608486031215613b6257613b61613651565b5b6000613b708682870161367c565b9350506020613b8186828701613afe565b9250506040613b9286828701613b34565b9150509250925092565b600082825260208201905092915050565b6000613bb8826138ba565b613bc28185613b9c565b9350613bcd836138d6565b8060005b83811015613bfe578151613be588826138e6565b9750613bf0836138fe565b925050600181019050613bd1565b5085935050505092915050565b60006020820190508181036000830152613c258184613bad565b905092915050565b600080600080600060808688031215613c4957613c48613651565b5b600086013567ffffffffffffffff811115613c6757613c66613656565b5b613c73888289016136a0565b95509550506020613c868882890161367c565b9350506040613c978882890161367c565b9250506060613ca88882890161367c565b9150509295509295909350565b60008060208385031215613ccc57613ccb613651565b5b600083013567ffffffffffffffff811115613cea57613ce9613656565b5b613cf6858286016136a0565b92509250509250929050565b613d0b8161365b565b82525050565b6000602082019050613d266000830184613d02565b92915050565b600081519050919050565b600082825260208201905092915050565b6000819050602082019050919050565b6000613d6483836138ab565b60208301905092915050565b6000602082019050919050565b6000613d8882613d2c565b613d928185613d37565b9350613d9d83613d48565b8060005b83811015613dce578151613db58882613d58565b9750613dc083613d70565b925050600181019050613da1565b5085935050505092915050565b60006020820190508181036000830152613df58184613d7d565b905092915050565b600082825260208201905092915050565b6000613e1982613756565b613e238185613dfd565b9350613e33818560208601613772565b613e3c816137a5565b840191505092915050565b600082825260208201905092915050565b6000613e6382613d2c565b613e6d8185613e47565b9350613e7883613d48565b8060005b83811015613ea9578151613e908882613d58565b9750613e9b83613d70565b925050600181019050613e7c565b5085935050505092915050565b600060c0830160008301518482036000860152613ed38282613e0e565b91505060208301518482036020860152613eed828261390b565b91505060408301518482036040860152613f078282613e58565b91505060608301518482036060860152613f218282613e58565b9150506080830151613f3660808601826138ab565b5060a083015184820360a0860152613f4e8282613e0e565b9150508091505092915050565b60006020820190508181036000830152613f758184613eb6565b905092915050565b600081519050919050565b600082825260208201905092915050565b6000819050602082019050919050565b606082016000820151613fbf60008501826138ab565b506020820151613fd260208501826138ab565b506040820151613fe560408501826138ab565b50505050565b6000613ff78383613fa9565b60608301905092915050565b6000602082019050919050565b600061401b82613f7d565b6140258185613f88565b935061403083613f99565b8060005b838110156140615781516140488882613feb565b975061405383614003565b925050600181019050614034565b5085935050505092915050565b600060208201905081810360008301526140888184614010565b905092915050565b6000806000606084860312156140a9576140a8613651565b5b60006140b78682870161367c565b93505060206140c886828701613afe565b92505060406140d98682870161367c565b9150509250925092565b600060808301600083015184820360008601526141008282613e0e565b915050602083015161411560208601826138ab565b50604083015161412860408601826138ab565b50606083015161413b60608601826138ab565b508091505092915050565b6000602082019050818103600083015261416081846140e3565b905092915050565b60006020828403121561417e5761417d613651565b5b600061418c84828501613afe565b91505092915050565b600081905092915050565b82818337600083830152505050565b60006141bb8385614195565b93506141c88385846141a0565b82840190509392505050565b60006141e18284866141af565b91508190509392505050565b7f75736572206e6f7420617574686f72697a656400000000000000000000000000600082015250565b6000614223601383613761565b915061422e826141ed565b602082019050919050565b6000602082019050818103600083015261425281614216565b9050919050565b7f4e487b7100000000000000000000000000000000000000000000000000000000600052603260045260246000fd5b7f4e487b7100000000000000000000000000000000000000000000000000000000600052602260045260246000fd5b600060028204905060018216806142cf57607f821691505b602082108114156142e3576142e2614288565b5b50919050565b7f6d656d6265722063616e6e6f7420766f74652100000000000000000000000000600082015250565b600061431f601383613761565b915061432a826142e9565b602082019050919050565b6000602082019050818103600083015261434e81614312565b9050919050565b7f4e487b7100000000000000000000000000000000000000000000000000000000600052604160045260246000fd5b7f4e487b7100000000000000000000000000000000000000000000000000000000600052601160045260246000fd5b60006143be8261365b565b91507fffffffffffffffffffffffffffffffffffffffffffffffffffffffffffffffff8214156143f1576143f0614384565b5b600182019050919050565b7f6d656d62657220616c72656164792070726573656e7421000000000000000000600082015250565b6000614432601783613761565b915061443d826143fc565b602082019050919050565b6000602082019050818103600083015261446181614425565b9050919050565b7f6e6f7420617574686f72697a6564000000000000000000000000000000000000600082015250565b600061449e600e83613761565b91506144a982614468565b602082019050919050565b600060208201905081810360008301526144cd81614491565b9050919050565b60006144df8261365b565b91506144ea8361365b565b9250827fffffffffffffffffffffffffffffffffffffffffffffffffffffffffffffffff0382111561451f5761451e614384565b5b828201905092915050565b7f63616e64696461746520616c7265616479206164646564210000000000000000600082015250565b6000614560601883613761565b915061456b8261452a565b602082019050919050565b6000602082019050818103600083015261458f81614553565b9050919050565b60006145a18261365b565b91506145ac8361365b565b9250828210156145bf576145be614384565b5b828203905092915050565b7f63616e646964617465206164647265737320646f65736e277420657869737473600082015250565b6000614600602083613761565b915061460b826145ca565b602082019050919050565b6000602082019050818103600083015261462f816145f3565b9050919050565b7f6d656d62657220616c72656164792070726573656e7400000000000000000000600082015250565b600061466c601683613761565b915061467782614636565b602082019050919050565b6000602082019050818103600083015261469b8161465f565b9050919050565b7f63616e64696461746520616c72656164792070726573656e7400000000000000600082015250565b60006146d8601983613761565b91506146e3826146a2565b602082019050919050565b60006020820190508181036000830152614707816146cb565b9050919050565b60006147198261365b565b91506147248361365b565b9250817fffffffffffffffffffffffffffffffffffffffffffffffffffffffffffffffff048311821515161561475d5761475c614384565b5b828202905092915050565b7f6e6f6e2068616920616262617374616e7a6120746f6b656e0000000000000000600082015250565b600061479e601883613761565b91506147a982614768565b602082019050919050565b600060208201905081810360008301526147cd81614791565b9050919050565b60006147df82613756565b6147e98185614195565b93506147f9818560208601613772565b80840191505092915050565b600061481182846147d4565b915081905092915050565b7f4e487b7100000000000000000000000000000000000000000000000000000000600052601260045260246000fd5b60006148568261365b565b91506148618361365b565b9250826148715761487061481c565b5b828204905092915050565b6000819050919050565b6148976148928261365b565b61487c565b82525050565b60008160601b9050919050565b60006148b58261489d565b9050919050565b60006148c7826148aa565b9050919050565b6148df6148da8261388a565b6148bc565b82525050565b60006148f18288614886565b6020820191506149018287614886565b60208201915061491182866148ce565b60148201915061492182856147d4565b915061492d82846147d4565b91508190509695505050505050565b60006149478261365b565b91506149528361365b565b9250826149625761496161481c565b5b82820690509291505056fe6162636465666768696a6b6c6d6e6f7071727374757678797a31323334353637383930a2646970667358221220c7cb3daa32ae05fe6fd16f5a3586f57ea5d662e51a56985fa9bb994f6cc6d05564736f6c634300080b0033",
  "immutableReferences": {},
  "source": "// SPDX-License-Identifier: MIT\npragma solidity ^0.8.0;\n\nimport \"./Voting.sol\";\n\ncontract KuoriciniDao {\n\n  struct DaoGroup {\n    string name;\n    address[] members;\n    uint[] tokenIds;\n    uint[] candidatesIds;\n    uint voteThreshold;\n    string invitationLink;\n  }\n  \n  struct Candidate {\n    address candidateAddress;\n    uint votes;\n    address[] voters;\n  }\n\n  struct GToken {\n    string name;\n    uint roundSupply;\n    uint roundDuration;\n    uint timestamp;\n  }\n\n  struct UToken {\n    uint tokenId;\n    uint gTokenBalance;\n    uint xBalance;\n  }\n\n  mapping (address => string) names;\n  mapping (address => UToken[]) userTokens;\n  mapping (string => uint) invitationLinks;\n  DaoGroup[] daoGroups;\n  GToken[] allTokens;\n  Candidate[] allCandidates;\n\n  constructor() public {\n  }\n\n  function createGroup(string calldata _name) public returns(bool) {\n    address[] memory addr = new address[](1);\n    addr[0] = msg.sender;\n    uint[] memory defaultTokens;\n    uint[] memory defaultCandidates;\n    uint threshold = 5;\n    string memory invLink = generateInvitationLink(_name);\n    DaoGroup memory new_group = DaoGroup({ \n      name: _name, \n      members: addr, \n      tokenIds: defaultTokens, \n      candidatesIds: defaultCandidates, \n      voteThreshold: threshold,\n      invitationLink: invLink\n    });\n    daoGroups.push(new_group);\n    // check invitation link doesn't exist already\n    if ( daoGroups.length-1 != 0 ) {\n      require ( invitationLinks[invLink] == 0 );\n    }\n    invitationLinks[invLink]=daoGroups.length-1;\n    return true;\n  }\n\n  function getGroup(uint _gid) public view returns(DaoGroup memory) {\n    return daoGroups[_gid];\n  }\n  \n  function checkInvitationLink(string calldata link) public view returns (uint) {    \n    uint groupInv =  invitationLinks[link];\n    require(!isAddressInGroup(groupInv, msg.sender), \"member already present\" );\n    uint l = daoGroups[groupInv].candidatesIds.length;\n    uint[] memory candidatesIds = new uint[](l+1);\n    for (uint i = 0; i < l; i++) {\n      candidatesIds[i] = daoGroups[groupInv].candidatesIds[i];\n      require ( allCandidates[candidatesIds[i]].candidateAddress != msg.sender, \"candidate already present\" );\n    }    \n    return groupInv;\n  }\n\n  function generateInvitationLink(string memory name) private view returns (string memory) {\n      uint invLength = 15;\n      string memory newString = new string(invLength);\n      bytes memory finalString = bytes(newString);\n      bytes memory originString = \"abcdefghijklmnopqrstuvxyz1234567890\";\n      for (uint i=0; i< invLength-1; i++) {\n          uint r = uint(keccak256(abi.encodePacked(block.timestamp, block.difficulty, msg.sender, string(finalString), name))) % originString.length;\n          finalString[i] = originString[r];\n      }\n      return string(finalString);\n  }    \n\n  \n/*\n*   Tokens\n*\n*/\n\n  function getToken(uint _tokenid) public view returns(GToken memory) {\n    return allTokens[_tokenid];\n  }\n\n  \n  function createGToken(string calldata _name, uint _supply, uint _duration, uint _groupId) public returns(bool){\n    allTokens.push(GToken({\n      name: _name,\n      roundSupply: _supply,\n      roundDuration: _duration,\n      timestamp: block.timestamp\n    }));\n    uint l = allTokens.length;\n    daoGroups[_groupId].tokenIds.push(l-1);\n    return true;\n  }\n\n  function getUserTokens(uint _gid) public view returns(UToken[] memory) {\n    uint l = daoGroups[_gid].tokenIds.length;\n    UToken[] memory _userTokens = new UToken[](l);\n    for (uint w = 0; w < l; w++) {\n      uint q = daoGroups[_gid].tokenIds[w];\n      uint m = userTokens[msg.sender].length;\n      bool matchFound = false;\n      for (uint j = 0; j < m; j++) {\n        if (userTokens[msg.sender][j].tokenId == q) {\n          _userTokens[w]=userTokens[msg.sender][j];\n          uint newtime = allTokens[q].timestamp + allTokens[q].roundDuration;\n          if (block.timestamp > newtime ) {\n            _userTokens[w].xBalance = allTokens[q].roundSupply;\n          }      \n          matchFound = true;\n          break;\n        }\n      }\n      if (matchFound == false) {\n        _userTokens[w]=UToken({ tokenId: q, gTokenBalance: 0, xBalance: allTokens[q].roundSupply});\n      }\n    }\n    return _userTokens;\n  }\n\n\n\n  function transferToken(uint _tokenId, address receiver, uint value) public returns(bool) {\n    UToken memory _tokSender;\n    bool matchFoundSender = false;\n    uint s;\n    uint r;\n    for (s = 0; s < userTokens[msg.sender].length ; s++) {\n      if (userTokens[msg.sender][s].tokenId == _tokenId) {\n        _tokSender = userTokens[msg.sender][s];\n        matchFoundSender = true;\n        break;\n      }\n    }\n    if (matchFoundSender == false){\n      _tokSender = UToken({ tokenId: _tokenId, gTokenBalance: 0, xBalance: allTokens[_tokenId].roundSupply});\n    }\n    \n    if (block.timestamp > (allTokens[_tokenId].timestamp + allTokens[_tokenId].roundDuration * 1 seconds) ) {\n      _tokSender.xBalance = allTokens[_tokenId].roundSupply;\n      uint _newTimestamp = allTokens[_tokenId].timestamp;\n      for (uint k = 0; _newTimestamp < block.timestamp ; k++) {\n        _newTimestamp += allTokens[_tokenId].roundDuration * k; \n      }\n      allTokens[_tokenId].timestamp=_newTimestamp;\n    }\n    \n    require(_tokSender.xBalance >= value, \"non hai abbastanza token\");\n    UToken memory _tokReceiver;\n    bool matchFoundReceiver = false;\n    for ( r = 0; r < userTokens[receiver].length ; r++) {\n      if (userTokens[receiver][r].tokenId == _tokenId) {\n        _tokReceiver = userTokens[receiver][r];\n        matchFoundReceiver = true;\n        break;\n      }\n    }\n    if ( matchFoundReceiver == false){\n      _tokReceiver= UToken({ tokenId: _tokenId, gTokenBalance: 0, xBalance: allTokens[_tokenId].roundSupply});\n    }\n    _tokSender.xBalance -= value;\n    _tokReceiver.gTokenBalance += value;\n    if (matchFoundSender == true) {\n      userTokens[msg.sender][s] = _tokSender;\n    }\n    else {\n      userTokens[msg.sender].push( UToken({ tokenId: _tokenId, gTokenBalance: 0, xBalance: _tokSender.xBalance}));\n    }\n    if (matchFoundReceiver == true) {\n      userTokens[receiver][r] = _tokReceiver;\n    }\n    else {\n      userTokens[receiver].push( UToken({ tokenId: _tokenId, gTokenBalance: _tokReceiver.gTokenBalance, xBalance: allTokens[_tokenId].roundSupply}));\n    }\n    return true;\n  }\n\n  function getGroupNamefromId(uint _id) public view returns(string memory) {\n    return daoGroups[_id].name;\n  }\n\n  function getGroupAddressfromId(uint _id) public view returns(address[] memory) {\n    return daoGroups[_id].members;\n  }\n\n/*  \n*   Candidates\n*\n*/\n\n  function addCandidate(uint _gid, string calldata invitation) public returns(bool) {\n    require(!isAddressInGroup(_gid, msg.sender), \"member already present!\");\n    require( invitationLinks[invitation] == _gid, \"not authorized\" ); \n    require( _gid != 0, \"not authorized\" ); \n    \n    // check if candidate already present in current candidate list\n    uint l = daoGroups[_gid].candidatesIds.length;\n    uint[] memory candidatesIds = new uint[](l+1);\n    for (uint i = 0; i < l; i++) {\n      candidatesIds[i] = daoGroups[_gid].candidatesIds[i];\n      require(allCandidates[candidatesIds[i]].candidateAddress != msg.sender, \"candidate already added!\");\n    }\n    // generate a new candidate\n    address[] memory vot = new address[](0);\n    allCandidates.push(Candidate({\n      candidateAddress: msg.sender,\n      votes: 0,\n      voters: vot\n    }));\n    // update candidate list in the group\n    candidatesIds[l] = allCandidates.length-1;\n    daoGroups[_gid].candidatesIds = candidatesIds;\n\n    return true;\n  }\n  \n  function voteCandidate(uint gid, address candAddr, int vote) public returns(bool) {\n    require(isAddressInGroup(gid, msg.sender), \"member cannot vote!\" );\n\n    // find candidate \n    uint l = daoGroups[gid].candidatesIds.length;\n    Candidate memory candidate;\n    uint candidateId;\n    bool candidateFound = false;\n    for (uint i = 0; i < l; i++) {\n      uint c = daoGroups[gid].candidatesIds[i];\n      if (allCandidates[c].candidateAddress == candAddr) {\n        candidate = allCandidates[c];\n        candidateId = c;\n        candidateFound = true;\n        break;\n      }\n    }\n    require(candidateFound, \"candidate address doesn't exists\");\n\n    // assign vote\n    if (vote > 0) {\n      candidate.votes += 1;\n    }\n    // add voter\n    // todo:  check that voter didnt vote already\n    l = candidate.voters.length;\n    address[] memory v = new address[](l+1);\n    for (uint i = 0; i < l; i++) {\n      v[i]=candidate.voters[i];\n    }\n    v[l]=msg.sender;\n    candidate.voters=v;\n\n    // write on chain\n    allCandidates[candidateId] = candidate;    \n\n    // check if candidate win\n    uint quorum = getQuorum(gid);\n    if ( candidate.votes > quorum ) {\n      addAddresstoGroup(gid, candidate.candidateAddress);\n      uint[] memory newCandidatesIds;\n      for (uint i = 0; i < l; i++) {\n        if ( daoGroups[gid].candidatesIds[i] != candidateId ) {\n          newCandidatesIds[i] = daoGroups[gid].candidatesIds[i];\n        }\n      }\n      daoGroups[gid].candidatesIds = newCandidatesIds;\n    }\n    return true;\n  }\n\n  function getQuorum(uint gid) private view returns(uint) {\n    require(isAddressInGroup(gid, msg.sender));\n    return daoGroups[gid].members.length * daoGroups[gid].voteThreshold / 10 ;\n  }\n\n  function getGroupCandidates(uint gid) public view returns(Candidate[] memory) {\n    require(isAddressInGroup(gid, msg.sender), \"member cannot vote!\" );\n    uint l = daoGroups[gid].candidatesIds.length;\n    Candidate[] memory candidates = new Candidate[](l);\n    for (uint i = 0; i < l; i++) {\n      uint c = daoGroups[gid].candidatesIds[i];\n      candidates[i] = allCandidates[c];\n    }\n    return candidates;\n  }\n\n/*\n*\n*   Group Members\n*/\n\n  function addAddresstoGroup(uint gid, address addr) private returns(bool) {\n    require(!isAddressInGroup(gid, addr), \"member already present!\" );\n    uint l = daoGroups[gid].members.length;\n    address[] memory members = new address[](l+1);\n    for (uint i = 0; i < l; i++) {\n      members[i] = daoGroups[gid].members[i];\n    }\n    members[l] = addr;\n    daoGroups[gid].members = members;\n    return true;\n  }\n\n  function isAddressInGroup(uint gid, address addr) private view returns(bool) {\n    bool exists = false;\n    for (uint i = 0; i < daoGroups[gid].members.length; i++) {\n      if( daoGroups[gid].members[i] == addr ) {\n        exists=true;\n        break;\n      }\n    }\n    return exists;\n  }\n\n  function myGroups() public view returns(uint[] memory) {\n    uint lg = daoGroups.length;\n    uint[] memory myGroups;\n    for (uint i = 0; i < lg; i++) {\n      uint lm = daoGroups[i].members.length;\n      for (uint q = 0; q < lm; q++) {\n        if(daoGroups[i].members[q] == msg.sender) {\n          uint gl = myGroups.length;\n          uint[] memory groups = new uint[](gl+1);\n          for (uint w = 0; w < gl; w++) {\n            groups[w] = myGroups[w];\n          }\n          groups[gl] = i;\n          myGroups = groups;\n        }\n      }\n    }\n    return myGroups;\n  }\n\n  function groupNameByInvitation(uint gid, string calldata invitation) public view returns(string memory){\n    require( invitationLinks[invitation] == gid, \"user not authorized\" ); \n    return daoGroups[gid].name;\n  }\n  \n\n  function nameOf(address owner) public view returns(string memory) {\n    return names[owner];\n  }\n\n  function nameSet(string calldata name) public returns(bool) {\n    names[msg.sender]=name;\n    return true;\n  }\n\n/*\n*   Round functions that probably should be removed\n*    \n*/\n\n  function tellmeNow() public view returns (uint) {\n    return block.timestamp;\n  }\n\n  function resetRound(uint _tokenId, uint _groupId) public returns(bool) {\n    address[] memory _members = daoGroups[_groupId].members;\n    uint l = _members.length;\n    for (uint s = 0; s < l ; s++) {\n      address member = _members[s];\n      uint lu = userTokens[member].length;\n      for (uint w = 0; w < lu; w++) {\n        if (userTokens[member][w].tokenId == _tokenId) {\n          userTokens[member][w].xBalance = allTokens[_tokenId].roundSupply;\n        }\n      }\n    }\n    return true;\n  }\n\n}\n",
  "sourcePath": "/home/fabian/kuoricinidao/contracts/KuoriciniDao.sol",
  "compiler": {
    "name": "solc",
    "version": "0.8.11+commit.d7f03943.Emscripten.clang"
  },
  "schemaVersion": "3.4.5",
  "updatedAt": "2022-05-24T02:03:16.949Z",
  "devdoc": {
    "kind": "dev",
    "methods": {},
    "version": 1
  },
  "userdoc": {
    "kind": "user",
    "methods": {},
    "version": 1
  }
}