{
  "contractName": "KuoriciniDao",
  "abi": [
    {
      "inputs": [],
      "stateMutability": "nonpayable",
      "type": "constructor"
    },
    {
      "inputs": [
        {
          "internalType": "string",
          "name": "_name",
          "type": "string"
        }
      ],
      "name": "createGroup",
      "outputs": [
        {
          "internalType": "bool",
          "name": "",
          "type": "bool"
        }
      ],
      "stateMutability": "nonpayable",
      "type": "function"
    },
    {
      "inputs": [
        {
          "internalType": "uint256",
          "name": "_tokenid",
          "type": "uint256"
        }
      ],
      "name": "getToken",
      "outputs": [
        {
          "components": [
            {
              "internalType": "string",
              "name": "name",
              "type": "string"
            },
            {
              "internalType": "uint256",
              "name": "roundSupply",
              "type": "uint256"
            },
            {
              "internalType": "uint256",
              "name": "roundDuration",
              "type": "uint256"
            }
          ],
          "internalType": "struct KuoriciniDao.GToken",
          "name": "",
          "type": "tuple"
        }
      ],
      "stateMutability": "view",
      "type": "function",
      "constant": true
    },
    {
      "inputs": [
        {
          "internalType": "uint256",
          "name": "_gid",
          "type": "uint256"
        }
      ],
      "name": "getGroup",
      "outputs": [
        {
          "components": [
            {
              "internalType": "string",
              "name": "name",
              "type": "string"
            },
            {
              "internalType": "address[]",
              "name": "members",
              "type": "address[]"
            },
            {
              "internalType": "uint256[]",
              "name": "tokenIds",
              "type": "uint256[]"
            }
          ],
          "internalType": "struct KuoriciniDao.DaoGroup",
          "name": "",
          "type": "tuple"
        }
      ],
      "stateMutability": "view",
      "type": "function",
      "constant": true
    },
    {
      "inputs": [
        {
          "internalType": "uint256",
          "name": "_gid",
          "type": "uint256"
        }
      ],
      "name": "getUserTokens",
      "outputs": [
        {
          "components": [
            {
              "internalType": "uint256",
              "name": "tokenId",
              "type": "uint256"
            },
            {
              "internalType": "uint256",
              "name": "gTokenBalance",
              "type": "uint256"
            },
            {
              "internalType": "uint256",
              "name": "xBalance",
              "type": "uint256"
            }
          ],
          "internalType": "struct KuoriciniDao.UToken[]",
          "name": "",
          "type": "tuple[]"
        }
      ],
      "stateMutability": "view",
      "type": "function",
      "constant": true
    },
    {
      "inputs": [
        {
          "internalType": "uint256",
          "name": "_tokenId",
          "type": "uint256"
        },
        {
          "internalType": "address",
          "name": "receiver",
          "type": "address"
        },
        {
          "internalType": "uint256",
          "name": "value",
          "type": "uint256"
        }
      ],
      "name": "transferToken",
      "outputs": [
        {
          "internalType": "bool",
          "name": "",
          "type": "bool"
        }
      ],
      "stateMutability": "nonpayable",
      "type": "function"
    },
    {
      "inputs": [
        {
          "internalType": "uint256",
          "name": "_id",
          "type": "uint256"
        }
      ],
      "name": "getGroupNamefromId",
      "outputs": [
        {
          "internalType": "string",
          "name": "",
          "type": "string"
        }
      ],
      "stateMutability": "view",
      "type": "function",
      "constant": true
    },
    {
      "inputs": [
        {
          "internalType": "uint256",
          "name": "_id",
          "type": "uint256"
        }
      ],
      "name": "getGroupAddressfromId",
      "outputs": [
        {
          "internalType": "address[]",
          "name": "",
          "type": "address[]"
        }
      ],
      "stateMutability": "view",
      "type": "function",
      "constant": true
    },
    {
      "inputs": [
        {
          "internalType": "uint256",
          "name": "_id",
          "type": "uint256"
        },
        {
          "internalType": "address",
          "name": "_addr",
          "type": "address"
        }
      ],
      "name": "addAddresstoMembers",
      "outputs": [
        {
          "internalType": "bool",
          "name": "",
          "type": "bool"
        }
      ],
      "stateMutability": "nonpayable",
      "type": "function"
    },
    {
      "inputs": [],
      "name": "myGroups",
      "outputs": [
        {
          "internalType": "uint256[]",
          "name": "",
          "type": "uint256[]"
        }
      ],
      "stateMutability": "view",
      "type": "function",
      "constant": true
    },
    {
      "inputs": [
        {
          "internalType": "address",
          "name": "owner",
          "type": "address"
        }
      ],
      "name": "nameOf",
      "outputs": [
        {
          "internalType": "string",
          "name": "",
          "type": "string"
        }
      ],
      "stateMutability": "view",
      "type": "function",
      "constant": true
    },
    {
      "inputs": [
        {
          "internalType": "string",
          "name": "name",
          "type": "string"
        }
      ],
      "name": "nameSet",
      "outputs": [
        {
          "internalType": "bool",
          "name": "",
          "type": "bool"
        }
      ],
      "stateMutability": "nonpayable",
      "type": "function"
    },
    {
      "inputs": [
        {
          "internalType": "uint256",
          "name": "_tokenId",
          "type": "uint256"
        },
        {
          "internalType": "uint256",
          "name": "_groupId",
          "type": "uint256"
        }
      ],
      "name": "resetRound",
      "outputs": [
        {
          "internalType": "bool",
          "name": "",
          "type": "bool"
        }
      ],
      "stateMutability": "nonpayable",
      "type": "function"
    }
  ],
  "bytecode": "0x60806040523480156200001157600080fd5b506040518060400160405280600981526020017f617364727562616c6500000000000000000000000000000000000000000000008152506000803373ffffffffffffffffffffffffffffffffffffffff1673ffffffffffffffffffffffffffffffffffffffff16815260200190815260200160002090805190602001906200009b929190620002b8565b50600360405180606001604052806040518060400160405280600581526020017f6b756f72690000000000000000000000000000000000000000000000000000008152508152602001600a815260200160018152509080600181540180825580915050600190039060005260206000209060030201600090919091909150600082015181600001908051906020019062000137929190620002b8565b5060208201518160010155604082015181600201555050600360405180606001604052806040518060400160405280600681526020017f6d61746974650000000000000000000000000000000000000000000000000000815250815260200160058152602001600181525090806001815401808255809150506001900390600052602060002090600302016000909190919091506000820151816000019080519060200190620001e9929190620002b8565b5060208201518160010155604082015181600201555050600360405180606001604052806040518060400160405280600981526020017f6c616d706164696e6500000000000000000000000000000000000000000000008152508152602001600781526020016001815250908060018154018082558091505060019003906000526020600020906003020160009091909190915060008201518160000190805190602001906200029b929190620002b8565b5060208201518160010155604082015181600201555050620003cd565b828054620002c69062000397565b90600052602060002090601f016020900481019282620002ea576000855562000336565b82601f106200030557805160ff191683800117855562000336565b8280016001018555821562000336579182015b828111156200033557825182559160200191906001019062000318565b5b50905062000345919062000349565b5090565b5b80821115620003645760008160009055506001016200034a565b5090565b7f4e487b7100000000000000000000000000000000000000000000000000000000600052602260045260246000fd5b60006002820490506001821680620003b057607f821691505b60208210811415620003c757620003c662000368565b5b50919050565b61271680620003dd6000396000f3fe608060405234801561001057600080fd5b50600436106100b45760003560e01c8063d17bd40b11610071578063d17bd40b146101c7578063dbb5313f146101f7578063dc2ddcae14610227578063e4b50cb814610257578063edeefa3114610287578063f5c57382146102b7576100b4565b806310f9a5f7146100b9578063558f8f04146100e9578063857af37b1461011957806396f714fc14610149578063c3f9343714610179578063ceb6065414610197575b600080fd5b6100d360048036038101906100ce9190611c98565b6102e7565b6040516100e09190611cf3565b60405180910390f35b61010360048036038101906100fe9190611d0e565b610545565b6040516101109190611e2b565b60405180910390f35b610133600480360381019061012e9190611d0e565b6105f8565b6040516101409190611ee6565b60405180910390f35b610163600480360381019061015e9190611f34565b6106af565b6040516101709190611cf3565b60405180910390f35b610181610898565b60405161018e9190612032565b60405180910390f35b6101b160048036038101906101ac9190611d0e565b610a8d565b6040516101be91906121da565b60405180910390f35b6101e160048036038101906101dc9190611d0e565b610c41565b6040516101ee91906122ed565b60405180910390f35b610211600480360381019061020c919061230f565b610f27565b60405161021e9190611cf3565b60405180910390f35b610241600480360381019061023c91906123c7565b6115c4565b60405161024e9190611cf3565b60405180910390f35b610271600480360381019061026c9190611d0e565b6117e9565b60405161027e9190612464565b60405180910390f35b6102a1600480360381019061029c91906123c7565b6118cb565b6040516102ae9190611cf3565b60405180910390f35b6102d160048036038101906102cc9190612486565b611925565b6040516102de9190611ee6565b60405180910390f35b600080600283815481106102fe576102fd6124b3565b5b906000526020600020906003020160010180548060200260200160405190810160405280929190818152602001828054801561038f57602002820191906000526020600020905b8160009054906101000a900473ffffffffffffffffffffffffffffffffffffffff1673ffffffffffffffffffffffffffffffffffffffff1681526020019060010190808311610345575b5050505050905060008151905060005b818110156105385760008382815181106103bc576103bb6124b3565b5b602002602001015190506000600160008373ffffffffffffffffffffffffffffffffffffffff1673ffffffffffffffffffffffffffffffffffffffff16815260200190815260200160002080549050905060005b818110156105225788600160008573ffffffffffffffffffffffffffffffffffffffff1673ffffffffffffffffffffffffffffffffffffffff168152602001908152602001600020828154811061046a576104696124b3565b5b906000526020600020906003020160000154141561050f5760038981548110610496576104956124b3565b5b906000526020600020906003020160010154600160008573ffffffffffffffffffffffffffffffffffffffff1673ffffffffffffffffffffffffffffffffffffffff16815260200190815260200160002082815481106104f9576104f86124b3565b5b9060005260206000209060030201600201819055505b808061051a90612511565b915050610410565b505050808061053090612511565b91505061039f565b5060019250505092915050565b60606002828154811061055b5761055a6124b3565b5b90600052602060002090600302016001018054806020026020016040519081016040528092919081815260200182805480156105ec57602002820191906000526020600020905b8160009054906101000a900473ffffffffffffffffffffffffffffffffffffffff1673ffffffffffffffffffffffffffffffffffffffff16815260200190600101908083116105a2575b50505050509050919050565b60606002828154811061060e5761060d6124b3565b5b9060005260206000209060030201600001805461062a90612589565b80601f016020809104026020016040519081016040528092919081815260200182805461065690612589565b80156106a35780601f10610678576101008083540402835291602001916106a3565b820191906000526020600020905b81548152906001019060200180831161068657829003601f168201915b50505050509050919050565b600080600284815481106106c6576106c56124b3565b5b906000526020600020906003020160010180549050905060006001826106ec91906125bb565b67ffffffffffffffff81111561070557610704612611565b5b6040519080825280602002602001820160405280156107335781602001602082028036833780820191505090505b50905060005b828110156108035760028681548110610755576107546124b3565b5b90600052602060002090600302016001018181548110610778576107776124b3565b5b9060005260206000200160009054906101000a900473ffffffffffffffffffffffffffffffffffffffff168282815181106107b6576107b56124b3565b5b602002602001019073ffffffffffffffffffffffffffffffffffffffff16908173ffffffffffffffffffffffffffffffffffffffff168152505080806107fb90612511565b915050610739565b5083818381518110610818576108176124b3565b5b602002602001019073ffffffffffffffffffffffffffffffffffffffff16908173ffffffffffffffffffffffffffffffffffffffff16815250508060028681548110610867576108666124b3565b5b9060005260206000209060030201600101908051906020019061088b9291906119f5565b5060019250505092915050565b606060006002805490509050606060005b82811015610a84576000600282815481106108c7576108c66124b3565b5b906000526020600020906003020160010180549050905060005b81811015610a6f573373ffffffffffffffffffffffffffffffffffffffff1660028481548110610914576109136124b3565b5b90600052602060002090600302016001018281548110610937576109366124b3565b5b9060005260206000200160009054906101000a900473ffffffffffffffffffffffffffffffffffffffff1673ffffffffffffffffffffffffffffffffffffffff161415610a5c57600084519050600060018261099391906125bb565b67ffffffffffffffff8111156109ac576109ab612611565b5b6040519080825280602002602001820160405280156109da5781602001602082028036833780820191505090505b50905060005b82811015610a35578681815181106109fb576109fa6124b3565b5b6020026020010151828281518110610a1657610a156124b3565b5b6020026020010181815250508080610a2d90612511565b9150506109e0565b5084818381518110610a4a57610a496124b3565b5b60200260200101818152505080955050505b8080610a6790612511565b9150506108e1565b50508080610a7c90612511565b9150506108a9565b50809250505090565b610a95611a7f565b60028281548110610aa957610aa86124b3565b5b9060005260206000209060030201604051806060016040529081600082018054610ad290612589565b80601f0160208091040260200160405190810160405280929190818152602001828054610afe90612589565b8015610b4b5780601f10610b2057610100808354040283529160200191610b4b565b820191906000526020600020905b815481529060010190602001808311610b2e57829003601f168201915b5050505050815260200160018201805480602002602001604051908101604052809291908181526020018280548015610bd957602002820191906000526020600020905b8160009054906101000a900473ffffffffffffffffffffffffffffffffffffffff1673ffffffffffffffffffffffffffffffffffffffff1681526020019060010190808311610b8f575b5050505050815260200160028201805480602002602001604051908101604052809291908181526020018280548015610c3157602002820191906000526020600020905b815481526020019060010190808311610c1d575b5050505050815250509050919050565b6060600060028381548110610c5957610c586124b3565b5b906000526020600020906003020160020180549050905060008167ffffffffffffffff811115610c8c57610c8b612611565b5b604051908082528060200260200182016040528015610cc557816020015b610cb2611aa0565b815260200190600190039081610caa5790505b50905060005b82811015610f1c57600060028681548110610ce957610ce86124b3565b5b90600052602060002090600302016002018281548110610d0c57610d0b6124b3565b5b906000526020600020015490506000600160003373ffffffffffffffffffffffffffffffffffffffff1673ffffffffffffffffffffffffffffffffffffffff1681526020019081526020016000208054905090506000805b82811015610e985783600160003373ffffffffffffffffffffffffffffffffffffffff1673ffffffffffffffffffffffffffffffffffffffff1681526020019081526020016000208281548110610dbe57610dbd6124b3565b5b9060005260206000209060030201600001541415610e8557600160003373ffffffffffffffffffffffffffffffffffffffff1673ffffffffffffffffffffffffffffffffffffffff1681526020019081526020016000208181548110610e2757610e266124b3565b5b90600052602060002090600302016040518060600160405290816000820154815260200160018201548152602001600282015481525050868681518110610e7157610e706124b3565b5b602002602001018190525060019150610e98565b8080610e9090612511565b915050610d64565b50600015158115151415610f065760405180606001604052808481526020016000815260200160038581548110610ed257610ed16124b3565b5b906000526020600020906003020160010154815250858581518110610efa57610ef96124b3565b5b60200260200101819052505b5050508080610f1490612511565b915050610ccb565b508092505050919050565b6000610f31611aa0565b60008080600091505b600160003373ffffffffffffffffffffffffffffffffffffffff1673ffffffffffffffffffffffffffffffffffffffff168152602001908152602001600020805490508210156110945787600160003373ffffffffffffffffffffffffffffffffffffffff1673ffffffffffffffffffffffffffffffffffffffff1681526020019081526020016000208381548110610fd657610fd56124b3565b5b906000526020600020906003020160000154141561108157600160003373ffffffffffffffffffffffffffffffffffffffff1673ffffffffffffffffffffffffffffffffffffffff168152602001908152602001600020828154811061103f5761103e6124b3565b5b90600052602060002090600302016040518060600160405290816000820154815260200160018201548152602001600282015481525050935060019250611094565b818061108c90612511565b925050610f3a565b6000151583151514156110e55760405180606001604052808981526020016000815260200160038a815481106110cd576110cc6124b3565b5b90600052602060002090600302016001015481525093505b858460400151101561112c576040517f08c379a00000000000000000000000000000000000000000000000000000000081526004016111239061268c565b60405180910390fd5b611134611aa0565b60008092505b600160008a73ffffffffffffffffffffffffffffffffffffffff1673ffffffffffffffffffffffffffffffffffffffff168152602001908152602001600020805490508310156112945789600160008b73ffffffffffffffffffffffffffffffffffffffff1673ffffffffffffffffffffffffffffffffffffffff16815260200190815260200160002084815481106111d6576111d56124b3565b5b906000526020600020906003020160000154141561128157600160008a73ffffffffffffffffffffffffffffffffffffffff1673ffffffffffffffffffffffffffffffffffffffff168152602001908152602001600020838154811061123f5761123e6124b3565b5b90600052602060002090600302016040518060600160405290816000820154815260200160018201548152602001600282015481525050915060019050611294565b828061128c90612511565b93505061113a565b6000151581151514156112e55760405180606001604052808b81526020016000815260200160038c815481106112cd576112cc6124b3565b5b90600052602060002090600302016001015481525091505b87866040018181516112f791906126ac565b91508181525050878260200181815161131091906125bb565b915081815250506001151585151514156113aa5785600160003373ffffffffffffffffffffffffffffffffffffffff1673ffffffffffffffffffffffffffffffffffffffff1681526020019081526020016000208581548110611376576113756124b3565b5b9060005260206000209060030201600082015181600001556020820151816001015560408201518160020155905050611453565b600160003373ffffffffffffffffffffffffffffffffffffffff1673ffffffffffffffffffffffffffffffffffffffff16815260200190815260200160002060405180606001604052808c8152602001600081526020018860400151815250908060018154018082558091505060019003906000526020600020906003020160009091909190915060008201518160000155602082015181600101556040820151816002015550505b6001151581151514156114e65781600160008b73ffffffffffffffffffffffffffffffffffffffff1673ffffffffffffffffffffffffffffffffffffffff16815260200190815260200160002084815481106114b2576114b16124b3565b5b90600052602060002090600302016000820151816000015560208201518160010155604082015181600201559050506115b3565b600160008a73ffffffffffffffffffffffffffffffffffffffff1673ffffffffffffffffffffffffffffffffffffffff16815260200190815260200160002060405180606001604052808c81526020018460200151815260200160038d81548110611554576115536124b3565b5b906000526020600020906003020160010154815250908060018154018082558091505060019003906000526020600020906003020160009091909190915060008201518160000155602082015181600101556040820151816002015550505b600196505050505050509392505050565b600080600167ffffffffffffffff8111156115e2576115e1612611565b5b6040519080825280602002602001820160405280156116105781602001602082028036833780820191505090505b5090503381600081518110611628576116276124b3565b5b602002602001019073ffffffffffffffffffffffffffffffffffffffff16908173ffffffffffffffffffffffffffffffffffffffff16815250506000600267ffffffffffffffff81111561167f5761167e612611565b5b6040519080825280602002602001820160405280156116ad5781602001602082028036833780820191505090505b5090506000816000815181106116c6576116c56124b3565b5b6020026020010181815250506002816001815181106116e8576116e76124b3565b5b6020026020010181815250506000604051806060016040528087878080601f016020809104026020016040519081016040528093929190818152602001838380828437600081840152601f19601f8201169050808301925050505050505081526020018481526020018381525090506002819080600181540180825580915050600190039060005260206000209060030201600090919091909150600082015181600001908051906020019061179f929190611ac1565b5060208201518160010190805190602001906117bc9291906119f5565b5060408201518160020190805190602001906117d9929190611b47565b5050506001935050505092915050565b6117f1611b94565b60038281548110611805576118046124b3565b5b906000526020600020906003020160405180606001604052908160008201805461182e90612589565b80601f016020809104026020016040519081016040528092919081815260200182805461185a90612589565b80156118a75780601f1061187c576101008083540402835291602001916118a7565b820191906000526020600020905b81548152906001019060200180831161188a57829003601f168201915b50505050508152602001600182015481526020016002820154815250509050919050565b600082826000803373ffffffffffffffffffffffffffffffffffffffff1673ffffffffffffffffffffffffffffffffffffffff168152602001908152602001600020919061191a929190611bb5565b506001905092915050565b60606000808373ffffffffffffffffffffffffffffffffffffffff1673ffffffffffffffffffffffffffffffffffffffff168152602001908152602001600020805461197090612589565b80601f016020809104026020016040519081016040528092919081815260200182805461199c90612589565b80156119e95780601f106119be576101008083540402835291602001916119e9565b820191906000526020600020905b8154815290600101906020018083116119cc57829003601f168201915b50505050509050919050565b828054828255906000526020600020908101928215611a6e579160200282015b82811115611a6d5782518260006101000a81548173ffffffffffffffffffffffffffffffffffffffff021916908373ffffffffffffffffffffffffffffffffffffffff16021790555091602001919060010190611a15565b5b509050611a7b9190611c3b565b5090565b60405180606001604052806060815260200160608152602001606081525090565b60405180606001604052806000815260200160008152602001600081525090565b828054611acd90612589565b90600052602060002090601f016020900481019282611aef5760008555611b36565b82601f10611b0857805160ff1916838001178555611b36565b82800160010185558215611b36579182015b82811115611b35578251825591602001919060010190611b1a565b5b509050611b439190611c3b565b5090565b828054828255906000526020600020908101928215611b83579160200282015b82811115611b82578251825591602001919060010190611b67565b5b509050611b909190611c3b565b5090565b60405180606001604052806060815260200160008152602001600081525090565b828054611bc190612589565b90600052602060002090601f016020900481019282611be35760008555611c2a565b82601f10611bfc57803560ff1916838001178555611c2a565b82800160010185558215611c2a579182015b82811115611c29578235825591602001919060010190611c0e565b5b509050611c379190611c3b565b5090565b5b80821115611c54576000816000905550600101611c3c565b5090565b600080fd5b600080fd5b6000819050919050565b611c7581611c62565b8114611c8057600080fd5b50565b600081359050611c9281611c6c565b92915050565b60008060408385031215611caf57611cae611c58565b5b6000611cbd85828601611c83565b9250506020611cce85828601611c83565b9150509250929050565b60008115159050919050565b611ced81611cd8565b82525050565b6000602082019050611d086000830184611ce4565b92915050565b600060208284031215611d2457611d23611c58565b5b6000611d3284828501611c83565b91505092915050565b600081519050919050565b600082825260208201905092915050565b6000819050602082019050919050565b600073ffffffffffffffffffffffffffffffffffffffff82169050919050565b6000611d9282611d67565b9050919050565b611da281611d87565b82525050565b6000611db48383611d99565b60208301905092915050565b6000602082019050919050565b6000611dd882611d3b565b611de28185611d46565b9350611ded83611d57565b8060005b83811015611e1e578151611e058882611da8565b9750611e1083611dc0565b925050600181019050611df1565b5085935050505092915050565b60006020820190508181036000830152611e458184611dcd565b905092915050565b600081519050919050565b600082825260208201905092915050565b60005b83811015611e87578082015181840152602081019050611e6c565b83811115611e96576000848401525b50505050565b6000601f19601f8301169050919050565b6000611eb882611e4d565b611ec28185611e58565b9350611ed2818560208601611e69565b611edb81611e9c565b840191505092915050565b60006020820190508181036000830152611f008184611ead565b905092915050565b611f1181611d87565b8114611f1c57600080fd5b50565b600081359050611f2e81611f08565b92915050565b60008060408385031215611f4b57611f4a611c58565b5b6000611f5985828601611c83565b9250506020611f6a85828601611f1f565b9150509250929050565b600081519050919050565b600082825260208201905092915050565b6000819050602082019050919050565b611fa981611c62565b82525050565b6000611fbb8383611fa0565b60208301905092915050565b6000602082019050919050565b6000611fdf82611f74565b611fe98185611f7f565b9350611ff483611f90565b8060005b8381101561202557815161200c8882611faf565b975061201783611fc7565b925050600181019050611ff8565b5085935050505092915050565b6000602082019050818103600083015261204c8184611fd4565b905092915050565b600082825260208201905092915050565b600061207082611e4d565b61207a8185612054565b935061208a818560208601611e69565b61209381611e9c565b840191505092915050565b600082825260208201905092915050565b60006120ba82611d3b565b6120c4818561209e565b93506120cf83611d57565b8060005b838110156121005781516120e78882611da8565b97506120f283611dc0565b9250506001810190506120d3565b5085935050505092915050565b600082825260208201905092915050565b600061212982611f74565b612133818561210d565b935061213e83611f90565b8060005b8381101561216f5781516121568882611faf565b975061216183611fc7565b925050600181019050612142565b5085935050505092915050565b600060608301600083015184820360008601526121998282612065565b915050602083015184820360208601526121b382826120af565b915050604083015184820360408601526121cd828261211e565b9150508091505092915050565b600060208201905081810360008301526121f4818461217c565b905092915050565b600081519050919050565b600082825260208201905092915050565b6000819050602082019050919050565b60608201600082015161223e6000850182611fa0565b5060208201516122516020850182611fa0565b5060408201516122646040850182611fa0565b50505050565b60006122768383612228565b60608301905092915050565b6000602082019050919050565b600061229a826121fc565b6122a48185612207565b93506122af83612218565b8060005b838110156122e05781516122c7888261226a565b97506122d283612282565b9250506001810190506122b3565b5085935050505092915050565b60006020820190508181036000830152612307818461228f565b905092915050565b60008060006060848603121561232857612327611c58565b5b600061233686828701611c83565b935050602061234786828701611f1f565b925050604061235886828701611c83565b9150509250925092565b600080fd5b600080fd5b600080fd5b60008083601f84011261238757612386612362565b5b8235905067ffffffffffffffff8111156123a4576123a3612367565b5b6020830191508360018202830111156123c0576123bf61236c565b5b9250929050565b600080602083850312156123de576123dd611c58565b5b600083013567ffffffffffffffff8111156123fc576123fb611c5d565b5b61240885828601612371565b92509250509250929050565b600060608301600083015184820360008601526124318282612065565b91505060208301516124466020860182611fa0565b5060408301516124596040860182611fa0565b508091505092915050565b6000602082019050818103600083015261247e8184612414565b905092915050565b60006020828403121561249c5761249b611c58565b5b60006124aa84828501611f1f565b91505092915050565b7f4e487b7100000000000000000000000000000000000000000000000000000000600052603260045260246000fd5b7f4e487b7100000000000000000000000000000000000000000000000000000000600052601160045260246000fd5b600061251c82611c62565b91507fffffffffffffffffffffffffffffffffffffffffffffffffffffffffffffffff82141561254f5761254e6124e2565b5b600182019050919050565b7f4e487b7100000000000000000000000000000000000000000000000000000000600052602260045260246000fd5b600060028204905060018216806125a157607f821691505b602082108114156125b5576125b461255a565b5b50919050565b60006125c682611c62565b91506125d183611c62565b9250827fffffffffffffffffffffffffffffffffffffffffffffffffffffffffffffffff03821115612606576126056124e2565b5b828201905092915050565b7f4e487b7100000000000000000000000000000000000000000000000000000000600052604160045260246000fd5b7f6e6f6e2068616920616262617374616e7a6120746f6b656e0000000000000000600082015250565b6000612676601883611e58565b915061268182612640565b602082019050919050565b600060208201905081810360008301526126a581612669565b9050919050565b60006126b782611c62565b91506126c283611c62565b9250828210156126d5576126d46124e2565b5b82820390509291505056fea2646970667358221220dfd8af497b927230ff08c8a6ba92759fad9c366fc71635276e3f0eb88db02b9964736f6c634300080b0033",
  "immutableReferences": {},
  "source": "// SPDX-License-Identifier: MIT\npragma solidity ^0.8.0;\n\ncontract KuoriciniDao {\n\n  struct DaoGroup {\n    string name;\n    address[] members;\n    uint[] tokenIds;\n  }\n\n  struct GToken {\n    string name;\n    uint roundSupply;\n    uint roundDuration;\n  }\n\n  struct UToken {\n    uint tokenId;\n    uint gTokenBalance;\n    uint xBalance;\n  }\n\n  mapping (address => string) names;\n  mapping (address => UToken[]) userTokens;\n  DaoGroup[] daoGroups;\n  GToken[] allTokens;\n\n  constructor() public {\n    names[msg.sender] = \"asdrubale\";\n    allTokens.push(GToken('kuori',10,1));\n    allTokens.push(GToken('matite',5,1));\n    allTokens.push(GToken('lampadine',7,1));\n  }\n\n  function createGroup(string calldata _name) public returns(bool) {\n    address[] memory addr = new address[](1);\n    addr[0] = msg.sender;\n    uint[] memory defaultTokens = new uint[](2);\n    defaultTokens[0] = 0;\n    defaultTokens[1] = 2;\n    DaoGroup memory new_group = DaoGroup({ name: _name, members: addr, tokenIds: defaultTokens });\n    daoGroups.push(new_group);\n    return true;\n  }\n\n  function getToken(uint _tokenid) public view returns(GToken memory) {\n    return allTokens[_tokenid];\n  }\n\n  function getGroup(uint _gid) public view returns(DaoGroup memory) {\n    return daoGroups[_gid];\n  }\n  \n  function getUserTokens(uint _gid) public view returns(UToken[] memory) {\n    uint l = daoGroups[_gid].tokenIds.length;\n    UToken[] memory _userTokens = new UToken[](l);\n    for (uint w = 0; w < l; w++) {\n      uint q = daoGroups[_gid].tokenIds[w];\n      uint m = userTokens[msg.sender].length;\n      bool matchFound = false;\n      for (uint j = 0; j < m; j++) {\n        if (userTokens[msg.sender][j].tokenId == q) {\n          _userTokens[w]=userTokens[msg.sender][j];\n          matchFound = true;\n          break;\n        }\n      }\n      if (matchFound == false) {\n        _userTokens[w]=UToken({ tokenId: q, gTokenBalance: 0, xBalance: allTokens[q].roundSupply});\n      }\n    }\n    return _userTokens;\n  }\n\n  function transferToken(uint _tokenId, address receiver, uint value) public returns(bool) {\n    UToken memory _tokSender;\n    bool matchFoundSender = false;\n    uint s;\n    uint r;\n    for (s = 0; s < userTokens[msg.sender].length ; s++) {\n      if (userTokens[msg.sender][s].tokenId == _tokenId) {\n        _tokSender = userTokens[msg.sender][s];\n        matchFoundSender = true;\n        break;\n      }\n    }\n    if (matchFoundSender == false){\n      _tokSender = UToken({ tokenId: _tokenId, gTokenBalance: 0, xBalance: allTokens[_tokenId].roundSupply});\n    }\n    require(_tokSender.xBalance >= value, \"non hai abbastanza token\");\n    UToken memory _tokReceiver;\n    bool matchFoundReceiver = false;\n    for ( r = 0; r < userTokens[receiver].length ; r++) {\n      if (userTokens[receiver][r].tokenId == _tokenId) {\n        _tokReceiver = userTokens[receiver][r];\n        matchFoundReceiver = true;\n        break;\n      }\n    }\n    if ( matchFoundReceiver == false){\n      _tokReceiver= UToken({ tokenId: _tokenId, gTokenBalance: 0, xBalance: allTokens[_tokenId].roundSupply});\n    }\n    _tokSender.xBalance -= value;\n    _tokReceiver.gTokenBalance += value;\n    if (matchFoundSender == true) {\n      userTokens[msg.sender][s] = _tokSender;\n    }\n    else {\n      userTokens[msg.sender].push( UToken({ tokenId: _tokenId, gTokenBalance: 0, xBalance: _tokSender.xBalance}));\n    }\n    if (matchFoundReceiver == true) {\n      userTokens[receiver][r] = _tokReceiver;\n    }\n    else {\n      userTokens[receiver].push( UToken({ tokenId: _tokenId, gTokenBalance: _tokReceiver.gTokenBalance, xBalance: allTokens[_tokenId].roundSupply}));\n    }\n    \n    return true;\n  }\n\n  function getGroupNamefromId(uint _id) public view returns(string memory) {\n    return daoGroups[_id].name;\n  }\n\n  function getGroupAddressfromId(uint _id) public view returns(address[] memory) {\n    return daoGroups[_id].members;\n  }\n\n  function addAddresstoMembers(uint _id, address _addr) public returns(bool) {\n    uint l = daoGroups[_id].members.length;\n    address[] memory members = new address[](l+1);\n    for (uint i = 0; i < l; i++) {\n      members[i] = daoGroups[_id].members[i];\n    }\n    members[l] = _addr;\n    daoGroups[_id].members = members;\n    return true;\n  }\n\n  function myGroups() public view returns(uint[] memory) {\n    uint lg = daoGroups.length;\n    uint[] memory myGroups;\n    for (uint i = 0; i < lg; i++) {\n      uint lm = daoGroups[i].members.length;\n      for (uint q = 0; q < lm; q++) {\n        if(daoGroups[i].members[q] == msg.sender) {\n          uint gl = myGroups.length;\n          uint[] memory groups = new uint[](gl+1);\n          for (uint w = 0; w < gl; w++) {\n            groups[w] = myGroups[w];\n          }\n          groups[gl] = i;\n          myGroups = groups;\n        }\n      }\n    }\n    return myGroups;\n  }\n\n  function nameOf(address owner) public view returns(string memory) {\n    return names[owner];\n  }\n\n  function nameSet(string calldata name) public returns(bool) {\n    names[msg.sender]=name;\n    return true;\n  }\n\n  function resetRound(uint _tokenId, uint _groupId) public returns(bool) {\n    address[] memory _members = daoGroups[_groupId].members;\n    uint l = _members.length;\n//    UToken[] memory _userTokens = new UToken[](l);\n    for (uint s = 0; s < l ; s++) {\n      address member = _members[s];\n      uint lu = userTokens[member].length;\n      for (uint w = 0; w < lu; w++) {\n        if (userTokens[member][w].tokenId == _tokenId) {\n          userTokens[member][w].xBalance = allTokens[_tokenId].roundSupply;\n        }\n      }\n    }\n    return true;\n  }\n\n}\n",
  "sourcePath": "/home/fabian/kuoricinidao/contracts/KuoriciniDao.sol",
  "compiler": {
    "name": "solc",
    "version": "0.8.11+commit.d7f03943.Emscripten.clang"
  },
  "schemaVersion": "3.4.5",
  "updatedAt": "2022-03-26T18:11:26.378Z",
  "networkType": "ethereum",
  "devdoc": {
    "kind": "dev",
    "methods": {},
    "version": 1
  },
  "userdoc": {
    "kind": "user",
    "methods": {},
    "version": 1
  }
}