{
  "contractName": "KuoriciniDao",
  "abi": [
    {
      "inputs": [],
      "stateMutability": "nonpayable",
      "type": "constructor"
    },
    {
      "anonymous": false,
      "inputs": [
        {
          "indexed": true,
          "internalType": "address",
          "name": "from",
          "type": "address"
        },
        {
          "indexed": true,
          "internalType": "address",
          "name": "to",
          "type": "address"
        },
        {
          "indexed": false,
          "internalType": "uint256",
          "name": "value",
          "type": "uint256"
        }
      ],
      "name": "Transfer",
      "type": "event"
    },
    {
      "inputs": [],
      "name": "symbol",
      "outputs": [
        {
          "internalType": "string",
          "name": "",
          "type": "string"
        }
      ],
      "stateMutability": "view",
      "type": "function",
      "constant": true
    },
    {
      "inputs": [
        {
          "internalType": "address",
          "name": "owner",
          "type": "address"
        }
      ],
      "name": "balanceOf",
      "outputs": [
        {
          "internalType": "uint256",
          "name": "",
          "type": "uint256"
        }
      ],
      "stateMutability": "view",
      "type": "function",
      "constant": true
    },
    {
      "inputs": [
        {
          "internalType": "address",
          "name": "to",
          "type": "address"
        },
        {
          "internalType": "uint256",
          "name": "value",
          "type": "uint256"
        }
      ],
      "name": "transfer",
      "outputs": [
        {
          "internalType": "bool",
          "name": "",
          "type": "bool"
        }
      ],
      "stateMutability": "nonpayable",
      "type": "function"
    }
  ],
  "bytecode": "0x60806040526040518060400160405280600581526020017f4b554f52490000000000000000000000000000000000000000000000000000008152506001908051906020019061004f9291906100a6565b5034801561005c57600080fd5b50600a6000803373ffffffffffffffffffffffffffffffffffffffff1673ffffffffffffffffffffffffffffffffffffffff168152602001908152602001600020819055506101aa565b8280546100b290610178565b90600052602060002090601f0160209004810192826100d4576000855561011b565b82601f106100ed57805160ff191683800117855561011b565b8280016001018555821561011b579182015b8281111561011a5782518255916020019190600101906100ff565b5b509050610128919061012c565b5090565b5b8082111561014557600081600090555060010161012d565b5090565b7f4e487b7100000000000000000000000000000000000000000000000000000000600052602260045260246000fd5b6000600282049050600182168061019057607f821691505b602082108114156101a4576101a3610149565b5b50919050565b610713806101b96000396000f3fe608060405234801561001057600080fd5b50600436106100415760003560e01c806370a082311461004657806395d89b4114610076578063a9059cbb14610094575b600080fd5b610060600480360381019061005b9190610399565b6100c4565b60405161006d91906103df565b60405180910390f35b61007e61010c565b60405161008b9190610493565b60405180910390f35b6100ae60048036038101906100a991906104e1565b61019a565b6040516100bb919061053c565b60405180910390f35b60008060008373ffffffffffffffffffffffffffffffffffffffff1673ffffffffffffffffffffffffffffffffffffffff168152602001908152602001600020549050919050565b6001805461011990610586565b80601f016020809104026020016040519081016040528092919081815260200182805461014590610586565b80156101925780601f1061016757610100808354040283529160200191610192565b820191906000526020600020905b81548152906001019060200180831161017557829003601f168201915b505050505081565b6000816000803373ffffffffffffffffffffffffffffffffffffffff1673ffffffffffffffffffffffffffffffffffffffff16815260200190815260200160002054101561021d576040517f08c379a000000000000000000000000000000000000000000000000000000000815260040161021490610604565b60405180910390fd5b816000808573ffffffffffffffffffffffffffffffffffffffff1673ffffffffffffffffffffffffffffffffffffffff168152602001908152602001600020600082825461026b9190610653565b92505081905550816000803373ffffffffffffffffffffffffffffffffffffffff1673ffffffffffffffffffffffffffffffffffffffff16815260200190815260200160002060008282546102c091906106a9565b925050819055508273ffffffffffffffffffffffffffffffffffffffff163373ffffffffffffffffffffffffffffffffffffffff167fddf252ad1be2c89b69c2b068fc378daa952ba7f163c4a11628f55a4df523b3ef8460405161032491906103df565b60405180910390a36001905092915050565b600080fd5b600073ffffffffffffffffffffffffffffffffffffffff82169050919050565b60006103668261033b565b9050919050565b6103768161035b565b811461038157600080fd5b50565b6000813590506103938161036d565b92915050565b6000602082840312156103af576103ae610336565b5b60006103bd84828501610384565b91505092915050565b6000819050919050565b6103d9816103c6565b82525050565b60006020820190506103f460008301846103d0565b92915050565b600081519050919050565b600082825260208201905092915050565b60005b83811015610434578082015181840152602081019050610419565b83811115610443576000848401525b50505050565b6000601f19601f8301169050919050565b6000610465826103fa565b61046f8185610405565b935061047f818560208601610416565b61048881610449565b840191505092915050565b600060208201905081810360008301526104ad818461045a565b905092915050565b6104be816103c6565b81146104c957600080fd5b50565b6000813590506104db816104b5565b92915050565b600080604083850312156104f8576104f7610336565b5b600061050685828601610384565b9250506020610517858286016104cc565b9150509250929050565b60008115159050919050565b61053681610521565b82525050565b6000602082019050610551600083018461052d565b92915050565b7f4e487b7100000000000000000000000000000000000000000000000000000000600052602260045260246000fd5b6000600282049050600182168061059e57607f821691505b602082108114156105b2576105b1610557565b5b50919050565b7f6e6f6e2068616920616262617374616e7a61206b756f72690000000000000000600082015250565b60006105ee601883610405565b91506105f9826105b8565b602082019050919050565b6000602082019050818103600083015261061d816105e1565b9050919050565b7f4e487b7100000000000000000000000000000000000000000000000000000000600052601160045260246000fd5b600061065e826103c6565b9150610669836103c6565b9250827fffffffffffffffffffffffffffffffffffffffffffffffffffffffffffffffff0382111561069e5761069d610624565b5b828201905092915050565b60006106b4826103c6565b91506106bf836103c6565b9250828210156106d2576106d1610624565b5b82820390509291505056fea26469706673582212201ce4dc59ffc2c04b651fad7b2112cec0cbd440dbf8011b554a0f57329b80ec4c64736f6c634300080b0033",
  "immutableReferences": {},
  "source": "// SPDX-License-Identifier: MIT\npragma solidity >=0.4.22 <0.9.0;\n\ncontract KuoriciniDao {\nmapping (address => uint) balances;\nstring public symbol=\"KUORI\";\nevent Transfer(address indexed from, address indexed to, uint value);\n\nconstructor() public {\n  balances[msg.sender] = 10;\n}\n\nfunction balanceOf(address owner) public view returns(uint) {\n  return balances[owner];\n}\n\nfunction transfer(address to, uint value) public returns(bool) {\n  require(balances[msg.sender] >= value, \"non hai abbastanza kuori\");\n  balances[to] += value;\n  balances[msg.sender] -= value;\n  emit Transfer(msg.sender, to, value);\n  return true;\n}\n\n}\n",
  "sourcePath": "/home/fabian/kuoricinidao/contracts/KuoriciniDao.sol",
  "compiler": {
    "name": "solc",
    "version": "0.8.11+commit.d7f03943.Emscripten.clang"
  },
  "schemaVersion": "3.4.4",
  "updatedAt": "2022-03-19T11:38:20.170Z",
  "networkType": "ethereum",
  "devdoc": {
    "kind": "dev",
    "methods": {},
    "version": 1
  },
  "userdoc": {
    "kind": "user",
    "methods": {},
    "version": 1
  }
}