{
  "contractName": "KuoriciniDao",
  "abi": [
    {
      "inputs": [],
      "stateMutability": "nonpayable",
      "type": "constructor"
    },
    {
      "anonymous": false,
      "inputs": [
        {
          "indexed": true,
          "internalType": "address",
          "name": "from",
          "type": "address"
        },
        {
          "indexed": true,
          "internalType": "address",
          "name": "to",
          "type": "address"
        },
        {
          "indexed": false,
          "internalType": "uint256",
          "name": "value",
          "type": "uint256"
        }
      ],
      "name": "Transfer",
      "type": "event"
    },
    {
      "inputs": [],
      "name": "symbol",
      "outputs": [
        {
          "internalType": "string",
          "name": "",
          "type": "string"
        }
      ],
      "stateMutability": "view",
      "type": "function",
      "constant": true
    },
    {
      "inputs": [
        {
          "internalType": "address",
          "name": "owner",
          "type": "address"
        }
      ],
      "name": "balanceOf",
      "outputs": [
        {
          "internalType": "uint256",
          "name": "",
          "type": "uint256"
        }
      ],
      "stateMutability": "view",
      "type": "function",
      "constant": true
    },
    {
      "inputs": [
        {
          "internalType": "address",
          "name": "owner",
          "type": "address"
        }
      ],
      "name": "nameOf",
      "outputs": [
        {
          "internalType": "string",
          "name": "",
          "type": "string"
        }
      ],
      "stateMutability": "view",
      "type": "function",
      "constant": true
    },
    {
      "inputs": [
        {
          "internalType": "string",
          "name": "name",
          "type": "string"
        }
      ],
      "name": "nameSet",
      "outputs": [
        {
          "internalType": "bool",
          "name": "",
          "type": "bool"
        }
      ],
      "stateMutability": "nonpayable",
      "type": "function"
    },
    {
      "inputs": [
        {
          "internalType": "address",
          "name": "to",
          "type": "address"
        },
        {
          "internalType": "uint256",
          "name": "value",
          "type": "uint256"
        }
      ],
      "name": "transfer",
      "outputs": [
        {
          "internalType": "bool",
          "name": "",
          "type": "bool"
        }
      ],
      "stateMutability": "nonpayable",
      "type": "function"
    }
  ],
  "bytecode": "0x60806040526040518060400160405280600581526020017f4b554f52490000000000000000000000000000000000000000000000000000008152506002908051906020019061004f929190610130565b5034801561005c57600080fd5b50610dac6000803373ffffffffffffffffffffffffffffffffffffffff1673ffffffffffffffffffffffffffffffffffffffff168152602001908152602001600020819055506040518060400160405280600981526020017f617364727562616c650000000000000000000000000000000000000000000000815250600160003373ffffffffffffffffffffffffffffffffffffffff1673ffffffffffffffffffffffffffffffffffffffff168152602001908152602001600020908051906020019061012a929190610130565b50610234565b82805461013c90610202565b90600052602060002090601f01602090048101928261015e57600085556101a5565b82601f1061017757805160ff19168380011785556101a5565b828001600101855582156101a5579182015b828111156101a4578251825591602001919060010190610189565b5b5090506101b291906101b6565b5090565b5b808211156101cf5760008160009055506001016101b7565b5090565b7f4e487b7100000000000000000000000000000000000000000000000000000000600052602260045260246000fd5b6000600282049050600182168061021a57607f821691505b6020821081141561022e5761022d6101d3565b5b50919050565b610a0f806102436000396000f3fe608060405234801561001057600080fd5b50600436106100575760003560e01c806370a082311461005c57806395d89b411461008c578063a9059cbb146100aa578063edeefa31146100da578063f5c573821461010a575b600080fd5b610076600480360381019061007191906105e3565b61013a565b6040516100839190610629565b60405180910390f35b610094610182565b6040516100a191906106dd565b60405180910390f35b6100c460048036038101906100bf919061072b565b610210565b6040516100d19190610786565b60405180910390f35b6100f460048036038101906100ef9190610806565b6103ac565b6040516101019190610786565b60405180910390f35b610124600480360381019061011f91906105e3565b610407565b60405161013191906106dd565b60405180910390f35b60008060008373ffffffffffffffffffffffffffffffffffffffff1673ffffffffffffffffffffffffffffffffffffffff168152602001908152602001600020549050919050565b6002805461018f90610882565b80601f01602080910402602001604051908101604052809291908181526020018280546101bb90610882565b80156102085780601f106101dd57610100808354040283529160200191610208565b820191906000526020600020905b8154815290600101906020018083116101eb57829003601f168201915b505050505081565b6000816000803373ffffffffffffffffffffffffffffffffffffffff1673ffffffffffffffffffffffffffffffffffffffff168152602001908152602001600020541015610293576040517f08c379a000000000000000000000000000000000000000000000000000000000815260040161028a90610900565b60405180910390fd5b816000808573ffffffffffffffffffffffffffffffffffffffff1673ffffffffffffffffffffffffffffffffffffffff16815260200190815260200160002060008282546102e1919061094f565b92505081905550816000803373ffffffffffffffffffffffffffffffffffffffff1673ffffffffffffffffffffffffffffffffffffffff168152602001908152602001600020600082825461033691906109a5565b925050819055508273ffffffffffffffffffffffffffffffffffffffff163373ffffffffffffffffffffffffffffffffffffffff167fddf252ad1be2c89b69c2b068fc378daa952ba7f163c4a11628f55a4df523b3ef8460405161039a9190610629565b60405180910390a36001905092915050565b60008282600160003373ffffffffffffffffffffffffffffffffffffffff1673ffffffffffffffffffffffffffffffffffffffff16815260200190815260200160002091906103fc9291906104d8565b506001905092915050565b6060600160008373ffffffffffffffffffffffffffffffffffffffff1673ffffffffffffffffffffffffffffffffffffffff168152602001908152602001600020805461045390610882565b80601f016020809104026020016040519081016040528092919081815260200182805461047f90610882565b80156104cc5780601f106104a1576101008083540402835291602001916104cc565b820191906000526020600020905b8154815290600101906020018083116104af57829003601f168201915b50505050509050919050565b8280546104e490610882565b90600052602060002090601f016020900481019282610506576000855561054d565b82601f1061051f57803560ff191683800117855561054d565b8280016001018555821561054d579182015b8281111561054c578235825591602001919060010190610531565b5b50905061055a919061055e565b5090565b5b8082111561057757600081600090555060010161055f565b5090565b600080fd5b600080fd5b600073ffffffffffffffffffffffffffffffffffffffff82169050919050565b60006105b082610585565b9050919050565b6105c0816105a5565b81146105cb57600080fd5b50565b6000813590506105dd816105b7565b92915050565b6000602082840312156105f9576105f861057b565b5b6000610607848285016105ce565b91505092915050565b6000819050919050565b61062381610610565b82525050565b600060208201905061063e600083018461061a565b92915050565b600081519050919050565b600082825260208201905092915050565b60005b8381101561067e578082015181840152602081019050610663565b8381111561068d576000848401525b50505050565b6000601f19601f8301169050919050565b60006106af82610644565b6106b9818561064f565b93506106c9818560208601610660565b6106d281610693565b840191505092915050565b600060208201905081810360008301526106f781846106a4565b905092915050565b61070881610610565b811461071357600080fd5b50565b600081359050610725816106ff565b92915050565b600080604083850312156107425761074161057b565b5b6000610750858286016105ce565b925050602061076185828601610716565b9150509250929050565b60008115159050919050565b6107808161076b565b82525050565b600060208201905061079b6000830184610777565b92915050565b600080fd5b600080fd5b600080fd5b60008083601f8401126107c6576107c56107a1565b5b8235905067ffffffffffffffff8111156107e3576107e26107a6565b5b6020830191508360018202830111156107ff576107fe6107ab565b5b9250929050565b6000806020838503121561081d5761081c61057b565b5b600083013567ffffffffffffffff81111561083b5761083a610580565b5b610847858286016107b0565b92509250509250929050565b7f4e487b7100000000000000000000000000000000000000000000000000000000600052602260045260246000fd5b6000600282049050600182168061089a57607f821691505b602082108114156108ae576108ad610853565b5b50919050565b7f6e6f6e2068616920616262617374616e7a61206b756f72690000000000000000600082015250565b60006108ea60188361064f565b91506108f5826108b4565b602082019050919050565b60006020820190508181036000830152610919816108dd565b9050919050565b7f4e487b7100000000000000000000000000000000000000000000000000000000600052601160045260246000fd5b600061095a82610610565b915061096583610610565b9250827fffffffffffffffffffffffffffffffffffffffffffffffffffffffffffffffff0382111561099a57610999610920565b5b828201905092915050565b60006109b082610610565b91506109bb83610610565b9250828210156109ce576109cd610920565b5b82820390509291505056fea264697066735822122049f186f587a70b2be81172262f2bd3cb7974815bf0a34d36d31ab1befcac298664736f6c634300080b0033",
  "immutableReferences": {},
  "source": "// SPDX-License-Identifier: MIT\npragma solidity >=0.4.22 <0.9.0;\n\ncontract KuoriciniDao {\nmapping (address => uint) balances;\nmapping (address => string) names;\n\nstring public symbol=\"KUORI\";\nevent Transfer(address indexed from, address indexed to, uint value);\n\nconstructor() public {\n  balances[msg.sender] = 3500;\n  names[msg.sender] = \"asdrubale\";\n}\n\nfunction balanceOf(address owner) public view returns(uint) {\n  return balances[owner];\n}\n\nfunction nameOf(address owner) public view returns(string memory) {\n  return names[owner];\n}\n\nfunction nameSet(string calldata name) public returns(bool) {\n  names[msg.sender]=name;\n  return true;\n}\n\nfunction transfer(address to, uint value) public returns(bool) {\n  require(balances[msg.sender] >= value, \"non hai abbastanza kuori\");\n  balances[to] += value;\n  balances[msg.sender] -= value;\n  emit Transfer(msg.sender, to, value);\n  return true;\n}\n\n}\n",
  "sourcePath": "/home/fabian/kuoricinidao/contracts/KuoriciniDao.sol",
  "compiler": {
    "name": "solc",
    "version": "0.8.11+commit.d7f03943.Emscripten.clang"
  },
  "schemaVersion": "3.4.5",
  "updatedAt": "2022-02-24T21:56:34.667Z",
  "networkType": "ethereum",
  "devdoc": {
    "kind": "dev",
    "methods": {},
    "version": 1
  },
  "userdoc": {
    "kind": "user",
    "methods": {},
    "version": 1
  }
}